{
  "_format": "hh-sol-artifact-1",
  "contractName": "FundsManager",
  "sourceName": "contracts/funds_manager.sol",
  "abi": [
    {
      "inputs": [
        {
          "internalType": "address",
          "name": "_randomness_contract",
          "type": "address"
        },
        {
          "internalType": "address",
          "name": "_staking_contract",
          "type": "address"
        }
      ],
      "stateMutability": "nonpayable",
      "type": "constructor"
    },
    {
      "stateMutability": "payable",
      "type": "fallback"
    },
    {
      "inputs": [],
      "name": "emergencyWithdraw",
      "outputs": [],
      "stateMutability": "nonpayable",
      "type": "function"
    },
    {
      "inputs": [],
      "name": "min_link_balance",
      "outputs": [
        {
          "internalType": "uint256",
          "name": "",
          "type": "uint256"
        }
      ],
      "stateMutability": "view",
      "type": "function"
    },
    {
      "inputs": [],
      "name": "owner",
      "outputs": [
        {
          "internalType": "address",
          "name": "",
          "type": "address"
        }
      ],
      "stateMutability": "view",
      "type": "function"
    },
    {
      "inputs": [],
      "name": "percentage_balance_link",
      "outputs": [
        {
          "internalType": "uint256",
          "name": "",
          "type": "uint256"
        }
      ],
      "stateMutability": "view",
      "type": "function"
    },
    {
      "inputs": [],
      "name": "percentage_balance_link_divisor",
      "outputs": [
        {
          "internalType": "uint256",
          "name": "",
          "type": "uint256"
        }
      ],
      "stateMutability": "view",
      "type": "function"
    },
    {
      "inputs": [],
      "name": "randomness_contract",
      "outputs": [
        {
          "internalType": "address",
          "name": "",
          "type": "address"
        }
      ],
      "stateMutability": "view",
      "type": "function"
    },
    {
      "inputs": [
        {
          "internalType": "uint256",
          "name": "_min_link_balance",
          "type": "uint256"
        }
      ],
      "name": "setMinLinkBalance",
      "outputs": [],
      "stateMutability": "nonpayable",
      "type": "function"
    },
    {
      "inputs": [
        {
          "internalType": "uint256",
          "name": "_percentage_balance_link",
          "type": "uint256"
        }
      ],
      "name": "setPercentageBalanceLink",
      "outputs": [],
      "stateMutability": "nonpayable",
      "type": "function"
    },
    {
      "inputs": [
        {
          "internalType": "address",
          "name": "_randomness_contract",
          "type": "address"
        }
      ],
      "name": "setRandomnessContract",
      "outputs": [],
      "stateMutability": "nonpayable",
      "type": "function"
    },
    {
      "inputs": [
        {
          "internalType": "address",
          "name": "_staking_contract",
          "type": "address"
        }
      ],
      "name": "setStakinContract",
      "outputs": [],
      "stateMutability": "nonpayable",
      "type": "function"
    },
    {
      "inputs": [],
      "name": "staking_contract",
      "outputs": [
        {
          "internalType": "address",
          "name": "",
          "type": "address"
        }
      ],
      "stateMutability": "view",
      "type": "function"
    },
    {
      "stateMutability": "payable",
      "type": "receive"
    }
  ],
  "bytecode": "0x6080604052670de0b6b3a7640000600355601460045560646005553480156200002757600080fd5b50604051620014aa380380620014aa83398181016040528101906200004d919062000181565b336000806101000a81548173ffffffffffffffffffffffffffffffffffffffff021916908373ffffffffffffffffffffffffffffffffffffffff16021790555081600160006101000a81548173ffffffffffffffffffffffffffffffffffffffff021916908373ffffffffffffffffffffffffffffffffffffffff16021790555080600260006101000a81548173ffffffffffffffffffffffffffffffffffffffff021916908373ffffffffffffffffffffffffffffffffffffffff1602179055505050620001c8565b600080fd5b600073ffffffffffffffffffffffffffffffffffffffff82169050919050565b600062000149826200011c565b9050919050565b6200015b816200013c565b81146200016757600080fd5b50565b6000815190506200017b8162000150565b92915050565b600080604083850312156200019b576200019a62000117565b5b6000620001ab858286016200016a565b9250506020620001be858286016200016a565b9150509250929050565b6112d280620001d86000396000f3fe6080604052600436106100a05760003560e01c80638f1e054f116100645780638f1e054f14610190578063b812ef53146101b9578063cb3a2e02146101e2578063d65e97d91461020b578063db2e21bc14610236578063e0eac5ee1461024d576100af565b80633cdf664c146100b957806345a8c6fa146100e45780635474a5e11461010f5780636a7223fc1461013a5780638da5cb5b14610165576100af565b366100af576100ad610276565b005b6100b7610276565b005b3480156100c557600080fd5b506100ce610449565b6040516100db9190610bef565b60405180910390f35b3480156100f057600080fd5b506100f961046f565b6040516101069190610c23565b60405180910390f35b34801561011b57600080fd5b50610124610475565b6040516101319190610c23565b60405180910390f35b34801561014657600080fd5b5061014f61047b565b60405161015c9190610bef565b60405180910390f35b34801561017157600080fd5b5061017a6104a1565b6040516101879190610bef565b60405180910390f35b34801561019c57600080fd5b506101b760048036038101906101b29190610c7e565b6104c5565b005b3480156101c557600080fd5b506101e060048036038101906101db9190610cd7565b610597565b005b3480156101ee57600080fd5b5061020960048036038101906102049190610c7e565b61062f565b005b34801561021757600080fd5b50610220610701565b60405161022d9190610c23565b60405180910390f35b34801561024257600080fd5b5061024b610707565b005b34801561025957600080fd5b50610274600480360381019061026f9190610cd7565b61093e565b005b600073fafedb041c0dd4fa2dc0d87a6b0979ee6fa7af5f73ffffffffffffffffffffffffffffffffffffffff166370a08231600160009054906101000a900473ffffffffffffffffffffffffffffffffffffffff166040518263ffffffff1660e01b81526004016102e79190610bef565b602060405180830381865afa158015610304573d6000803e3d6000fd5b505050506040513d601f19601f820116820180604052508101906103289190610d19565b90506003548110156103dc576000600554600454476103479190610d75565b6103519190610de6565b9050600081476103619190610e17565b905061036c826109d6565b600260009054906101000a900473ffffffffffffffffffffffffffffffffffffffff1673ffffffffffffffffffffffffffffffffffffffff166108fc829081150290604051600060405180830381858888f193505050501580156103d4573d6000803e3d6000fd5b505050610446565b600260009054906101000a900473ffffffffffffffffffffffffffffffffffffffff1673ffffffffffffffffffffffffffffffffffffffff166108fc479081150290604051600060405180830381858888f19350505050158015610444573d6000803e3d6000fd5b505b50565b600260009054906101000a900473ffffffffffffffffffffffffffffffffffffffff1681565b60055481565b60045481565b600160009054906101000a900473ffffffffffffffffffffffffffffffffffffffff1681565b60008054906101000a900473ffffffffffffffffffffffffffffffffffffffff1681565b60008054906101000a900473ffffffffffffffffffffffffffffffffffffffff1673ffffffffffffffffffffffffffffffffffffffff163373ffffffffffffffffffffffffffffffffffffffff1614610553576040517f08c379a000000000000000000000000000000000000000000000000000000000815260040161054a90610ece565b60405180910390fd5b80600260006101000a81548173ffffffffffffffffffffffffffffffffffffffff021916908373ffffffffffffffffffffffffffffffffffffffff16021790555050565b60008054906101000a900473ffffffffffffffffffffffffffffffffffffffff1673ffffffffffffffffffffffffffffffffffffffff163373ffffffffffffffffffffffffffffffffffffffff1614610625576040517f08c379a000000000000000000000000000000000000000000000000000000000815260040161061c90610ece565b60405180910390fd5b8060038190555050565b60008054906101000a900473ffffffffffffffffffffffffffffffffffffffff1673ffffffffffffffffffffffffffffffffffffffff163373ffffffffffffffffffffffffffffffffffffffff16146106bd576040517f08c379a00000000000000000000000000000000000000000000000000000000081526004016106b490610ece565b60405180910390fd5b80600160006101000a81548173ffffffffffffffffffffffffffffffffffffffff021916908373ffffffffffffffffffffffffffffffffffffffff16021790555050565b60035481565b60008054906101000a900473ffffffffffffffffffffffffffffffffffffffff1673ffffffffffffffffffffffffffffffffffffffff163373ffffffffffffffffffffffffffffffffffffffff1614610795576040517f08c379a000000000000000000000000000000000000000000000000000000000815260040161078c90610ece565b60405180910390fd5b60008054906101000a900473ffffffffffffffffffffffffffffffffffffffff1673ffffffffffffffffffffffffffffffffffffffff166108fc479081150290604051600060405180830381858888f193505050501580156107fb573d6000803e3d6000fd5b5073fafedb041c0dd4fa2dc0d87a6b0979ee6fa7af5f73ffffffffffffffffffffffffffffffffffffffff1663a9059cbb60008054906101000a900473ffffffffffffffffffffffffffffffffffffffff1673fafedb041c0dd4fa2dc0d87a6b0979ee6fa7af5f73ffffffffffffffffffffffffffffffffffffffff166370a08231306040518263ffffffff1660e01b815260040161089a9190610bef565b602060405180830381865afa1580156108b7573d6000803e3d6000fd5b505050506040513d601f19601f820116820180604052508101906108db9190610d19565b6040518363ffffffff1660e01b81526004016108f8929190610eee565b6020604051808303816000875af1158015610917573d6000803e3d6000fd5b505050506040513d601f19601f8201168201806040525081019061093b9190610f4f565b50565b60008054906101000a900473ffffffffffffffffffffffffffffffffffffffff1673ffffffffffffffffffffffffffffffffffffffff163373ffffffffffffffffffffffffffffffffffffffff16146109cc576040517f08c379a00000000000000000000000000000000000000000000000000000000081526004016109c390610ece565b60405180910390fd5b8060048190555050565b6000600267ffffffffffffffff8111156109f3576109f2610f7c565b5b604051908082528060200260200182016040528015610a215781602001602082028036833780820191505090505b50905073f1277d1ed8ad466beddf92ef448a13266195662181600081518110610a4d57610a4c610fab565b5b602002602001019073ffffffffffffffffffffffffffffffffffffffff16908173ffffffffffffffffffffffffffffffffffffffff168152505073fafedb041c0dd4fa2dc0d87a6b0979ee6fa7af5f81600181518110610ab057610aaf610fab565b5b602002602001019073ffffffffffffffffffffffffffffffffffffffff16908173ffffffffffffffffffffffffffffffffffffffff168152505073a6ad18c2ac47803e193f75c3677b14bf19b9488373ffffffffffffffffffffffffffffffffffffffff16637ff36ab583600084600160009054906101000a900473ffffffffffffffffffffffffffffffffffffffff16426040518663ffffffff1660e01b8152600401610b6194939291906110dd565b60006040518083038185885af1158015610b7f573d6000803e3d6000fd5b50505050506040513d6000823e3d601f19601f82011682018060405250810190610ba99190611253565b505050565b600073ffffffffffffffffffffffffffffffffffffffff82169050919050565b6000610bd982610bae565b9050919050565b610be981610bce565b82525050565b6000602082019050610c046000830184610be0565b92915050565b6000819050919050565b610c1d81610c0a565b82525050565b6000602082019050610c386000830184610c14565b92915050565b6000604051905090565b600080fd5b600080fd5b610c5b81610bce565b8114610c6657600080fd5b50565b600081359050610c7881610c52565b92915050565b600060208284031215610c9457610c93610c48565b5b6000610ca284828501610c69565b91505092915050565b610cb481610c0a565b8114610cbf57600080fd5b50565b600081359050610cd181610cab565b92915050565b600060208284031215610ced57610cec610c48565b5b6000610cfb84828501610cc2565b91505092915050565b600081519050610d1381610cab565b92915050565b600060208284031215610d2f57610d2e610c48565b5b6000610d3d84828501610d04565b91505092915050565b7f4e487b7100000000000000000000000000000000000000000000000000000000600052601160045260246000fd5b6000610d8082610c0a565b9150610d8b83610c0a565b9250828202610d9981610c0a565b91508282048414831517610db057610daf610d46565b5b5092915050565b7f4e487b7100000000000000000000000000000000000000000000000000000000600052601260045260246000fd5b6000610df182610c0a565b9150610dfc83610c0a565b925082610e0c57610e0b610db7565b5b828204905092915050565b6000610e2282610c0a565b9150610e2d83610c0a565b9250828203905081811115610e4557610e44610d46565b5b92915050565b600082825260208201905092915050565b7f4f6e6c79206f776e65722063616e2063616c6c20746869732066756e6374696f60008201527f6e2e000000000000000000000000000000000000000000000000000000000000602082015250565b6000610eb8602283610e4b565b9150610ec382610e5c565b604082019050919050565b60006020820190508181036000830152610ee781610eab565b9050919050565b6000604082019050610f036000830185610be0565b610f106020830184610c14565b9392505050565b60008115159050919050565b610f2c81610f17565b8114610f3757600080fd5b50565b600081519050610f4981610f23565b92915050565b600060208284031215610f6557610f64610c48565b5b6000610f7384828501610f3a565b91505092915050565b7f4e487b7100000000000000000000000000000000000000000000000000000000600052604160045260246000fd5b7f4e487b7100000000000000000000000000000000000000000000000000000000600052603260045260246000fd5b6000819050919050565b6000819050919050565b6000611009611004610fff84610fda565b610fe4565b610c0a565b9050919050565b61101981610fee565b82525050565b600081519050919050565b600082825260208201905092915050565b6000819050602082019050919050565b61105481610bce565b82525050565b6000611066838361104b565b60208301905092915050565b6000602082019050919050565b600061108a8261101f565b611094818561102a565b935061109f8361103b565b8060005b838110156110d05781516110b7888261105a565b97506110c283611072565b9250506001810190506110a3565b5085935050505092915050565b60006080820190506110f26000830187611010565b8181036020830152611104818661107f565b90506111136040830185610be0565b6111206060830184610c14565b95945050505050565b600080fd5b6000601f19601f8301169050919050565b6111488261112e565b810181811067ffffffffffffffff8211171561116757611166610f7c565b5b80604052505050565b600061117a610c3e565b9050611186828261113f565b919050565b600067ffffffffffffffff8211156111a6576111a5610f7c565b5b602082029050602081019050919050565b600080fd5b60006111cf6111ca8461118b565b611170565b905080838252602082019050602084028301858111156111f2576111f16111b7565b5b835b8181101561121b57806112078882610d04565b8452602084019350506020810190506111f4565b5050509392505050565b600082601f83011261123a57611239611129565b5b815161124a8482602086016111bc565b91505092915050565b60006020828403121561126957611268610c48565b5b600082015167ffffffffffffffff81111561128757611286610c4d565b5b61129384828501611225565b9150509291505056fea2646970667358221220a19aa60c47e2f238014d0d38935fcad1ddb8702cf1dae2980d4da70efc5d990a64736f6c63430008110033",
  "linkReferences": {},
  "deployedLinkReferences": {}
}