{
  "_format": "hh-sol-artifact-1",
  "contractName": "Raffle",
  "sourceName": "contracts/Raffle.sol",
  "abi": [
    {
      "inputs": [
        {
          "internalType": "address",
          "name": "random_address",
          "type": "address"
        },
        {
          "internalType": "address",
          "name": "_funds_manager",
          "type": "address"
        }
      ],
      "stateMutability": "nonpayable",
      "type": "constructor"
    },
    {
      "anonymous": false,
      "inputs": [
        {
          "indexed": true,
          "internalType": "address",
          "name": "previousOwner",
          "type": "address"
        },
        {
          "indexed": true,
          "internalType": "address",
          "name": "newOwner",
          "type": "address"
        }
      ],
      "name": "OwnershipTransferred",
      "type": "event"
    },
    {
      "anonymous": false,
      "inputs": [
        {
          "indexed": false,
          "internalType": "uint256",
          "name": "raffleId",
          "type": "uint256"
        },
        {
          "indexed": false,
          "internalType": "bool",
          "name": "tickets_fully_sold",
          "type": "bool"
        }
      ],
      "name": "RaffleEnded",
      "type": "event"
    },
    {
      "anonymous": false,
      "inputs": [
        {
          "indexed": false,
          "internalType": "uint256",
          "name": "raffleId",
          "type": "uint256"
        },
        {
          "indexed": false,
          "internalType": "address",
          "name": "player",
          "type": "address"
        },
        {
          "indexed": false,
          "internalType": "uint256",
          "name": "ticket_amount",
          "type": "uint256"
        }
      ],
      "name": "RaffleEntered",
      "type": "event"
    },
    {
      "anonymous": false,
      "inputs": [
        {
          "indexed": false,
          "internalType": "uint256",
          "name": "raffleId",
          "type": "uint256"
        },
        {
          "indexed": false,
          "internalType": "address",
          "name": "NFTcontract",
          "type": "address"
        },
        {
          "indexed": false,
          "internalType": "uint256",
          "name": "NFTid",
          "type": "uint256"
        },
        {
          "indexed": false,
          "internalType": "uint256",
          "name": "ticket_amount",
          "type": "uint256"
        },
        {
          "indexed": false,
          "internalType": "uint256",
          "name": "ticket_price",
          "type": "uint256"
        }
      ],
      "name": "RaffleStarted",
      "type": "event"
    },
    {
      "anonymous": false,
      "inputs": [
        {
          "indexed": false,
          "internalType": "uint256",
          "name": "raffleId",
          "type": "uint256"
        },
        {
          "indexed": false,
          "internalType": "address",
          "name": "winner",
          "type": "address"
        }
      ],
      "name": "RaffleWinner",
      "type": "event"
    },
    {
      "inputs": [
        {
          "internalType": "uint256",
          "name": "_raffleId",
          "type": "uint256"
        }
      ],
      "name": "end_raffle",
      "outputs": [],
      "stateMutability": "nonpayable",
      "type": "function"
    },
    {
      "inputs": [
        {
          "internalType": "uint256",
          "name": "_raffleId",
          "type": "uint256"
        },
        {
          "internalType": "uint256",
          "name": "_ticket_amount",
          "type": "uint256"
        }
      ],
      "name": "enter",
      "outputs": [],
      "stateMutability": "payable",
      "type": "function"
    },
    {
      "inputs": [],
      "name": "fee_balance",
      "outputs": [
        {
          "internalType": "uint256",
          "name": "",
          "type": "uint256"
        }
      ],
      "stateMutability": "view",
      "type": "function"
    },
    {
      "inputs": [],
      "name": "funds_manager",
      "outputs": [
        {
          "internalType": "address",
          "name": "",
          "type": "address"
        }
      ],
      "stateMutability": "view",
      "type": "function"
    },
    {
      "inputs": [
        {
          "internalType": "uint256",
          "name": "_raffleId",
          "type": "uint256"
        }
      ],
      "name": "get_players",
      "outputs": [
        {
          "internalType": "address[]",
          "name": "",
          "type": "address[]"
        }
      ],
      "stateMutability": "view",
      "type": "function"
    },
    {
      "inputs": [
        {
          "internalType": "uint256",
          "name": "_raffleId",
          "type": "uint256"
        }
      ],
      "name": "get_pot",
      "outputs": [
        {
          "internalType": "uint256",
          "name": "",
          "type": "uint256"
        }
      ],
      "stateMutability": "view",
      "type": "function"
    },
    {
      "inputs": [
        {
          "internalType": "uint256",
          "name": "_raffleId",
          "type": "uint256"
        }
      ],
      "name": "get_raffle_state",
      "outputs": [
        {
          "internalType": "enum Raffle.RAFFLE_STATE",
          "name": "",
          "type": "uint8"
        }
      ],
      "stateMutability": "view",
      "type": "function"
    },
    {
      "inputs": [
        {
          "internalType": "uint256",
          "name": "",
          "type": "uint256"
        }
      ],
      "name": "lotteries",
      "outputs": [
        {
          "internalType": "address",
          "name": "owner",
          "type": "address"
        },
        {
          "internalType": "enum Raffle.RAFFLE_STATE",
          "name": "raffle_state",
          "type": "uint8"
        },
        {
          "internalType": "uint256",
          "name": "ticket_price",
          "type": "uint256"
        },
        {
          "internalType": "uint256",
          "name": "ticket_amount",
          "type": "uint256"
        },
        {
          "internalType": "uint256",
          "name": "ticket_sold",
          "type": "uint256"
        },
        {
          "internalType": "address",
          "name": "NFTcontract",
          "type": "address"
        },
        {
          "internalType": "uint256",
          "name": "NFTid",
          "type": "uint256"
        }
      ],
      "stateMutability": "view",
      "type": "function"
    },
    {
      "inputs": [],
      "name": "min_fee_balance",
      "outputs": [
        {
          "internalType": "uint256",
          "name": "",
          "type": "uint256"
        }
      ],
      "stateMutability": "view",
      "type": "function"
    },
    {
      "inputs": [],
      "name": "owner",
      "outputs": [
        {
          "internalType": "address",
          "name": "",
          "type": "address"
        }
      ],
      "stateMutability": "view",
      "type": "function"
    },
    {
      "inputs": [
        {
          "internalType": "address",
          "name": "",
          "type": "address"
        }
      ],
      "name": "ownerRaffleId",
      "outputs": [
        {
          "internalType": "uint256",
          "name": "",
          "type": "uint256"
        }
      ],
      "stateMutability": "view",
      "type": "function"
    },
    {
      "inputs": [],
      "name": "raffleId",
      "outputs": [
        {
          "internalType": "uint256",
          "name": "",
          "type": "uint256"
        }
      ],
      "stateMutability": "view",
      "type": "function"
    },
    {
      "inputs": [
        {
          "internalType": "uint256",
          "name": "requestId",
          "type": "uint256"
        },
        {
          "internalType": "uint256",
          "name": "random",
          "type": "uint256"
        }
      ],
      "name": "raffle_result",
      "outputs": [],
      "stateMutability": "nonpayable",
      "type": "function"
    },
    {
      "inputs": [],
      "name": "random_contract",
      "outputs": [
        {
          "internalType": "contract RandomNumberConsumer",
          "name": "",
          "type": "address"
        }
      ],
      "stateMutability": "view",
      "type": "function"
    },
    {
      "inputs": [],
      "name": "renounceOwnership",
      "outputs": [],
      "stateMutability": "nonpayable",
      "type": "function"
    },
    {
      "inputs": [
        {
          "internalType": "uint256",
          "name": "",
          "type": "uint256"
        }
      ],
      "name": "requestId_to_raffleId",
      "outputs": [
        {
          "internalType": "uint256",
          "name": "",
          "type": "uint256"
        }
      ],
      "stateMutability": "view",
      "type": "function"
    },
    {
      "inputs": [
        {
          "internalType": "uint256",
          "name": "_min_fee_balance",
          "type": "uint256"
        }
      ],
      "name": "setMinFeeBalance",
      "outputs": [],
      "stateMutability": "nonpayable",
      "type": "function"
    },
    {
      "inputs": [
        {
          "internalType": "address",
          "name": "_NFTcontract",
          "type": "address"
        },
        {
          "internalType": "uint256",
          "name": "_NFTid",
          "type": "uint256"
        },
        {
          "internalType": "uint256",
          "name": "_ticket_price",
          "type": "uint256"
        },
        {
          "internalType": "uint256",
          "name": "_ticket_amount",
          "type": "uint256"
        }
      ],
      "name": "start_new_raffle",
      "outputs": [],
      "stateMutability": "nonpayable",
      "type": "function"
    },
    {
      "inputs": [
        {
          "internalType": "address",
          "name": "newOwner",
          "type": "address"
        }
      ],
      "name": "transferOwnership",
      "outputs": [],
      "stateMutability": "nonpayable",
      "type": "function"
    },
    {
      "inputs": [],
      "name": "winning_fee",
      "outputs": [
        {
          "internalType": "uint256",
          "name": "",
          "type": "uint256"
        }
      ],
      "stateMutability": "view",
      "type": "function"
    },
    {
      "inputs": [],
      "name": "winning_fee_divisor",
      "outputs": [
        {
          "internalType": "uint256",
          "name": "",
          "type": "uint256"
        }
      ],
      "stateMutability": "view",
      "type": "function"
    }
  ],
  "bytecode": "0x60806040526002600755606460085566470de4df820000600a556001600b60006101000a81548160ff0219169083151502179055503480156200004157600080fd5b5060405162002d5b38038062002d5b83398181016040528101906200006791906200024f565b620000876200007b6200011960201b60201c565b6200012160201b60201c565b81600160006101000a81548173ffffffffffffffffffffffffffffffffffffffff021916908373ffffffffffffffffffffffffffffffffffffffff16021790555080600260006101000a81548173ffffffffffffffffffffffffffffffffffffffff021916908373ffffffffffffffffffffffffffffffffffffffff1602179055506001600481905550505062000296565b600033905090565b60008060009054906101000a900473ffffffffffffffffffffffffffffffffffffffff169050816000806101000a81548173ffffffffffffffffffffffffffffffffffffffff021916908373ffffffffffffffffffffffffffffffffffffffff1602179055508173ffffffffffffffffffffffffffffffffffffffff168173ffffffffffffffffffffffffffffffffffffffff167f8be0079c531659141344cd1fd0a4f28419497f9722a3daafe3b4186f6b6457e060405160405180910390a35050565b600080fd5b600073ffffffffffffffffffffffffffffffffffffffff82169050919050565b60006200021782620001ea565b9050919050565b62000229816200020a565b81146200023557600080fd5b50565b60008151905062000249816200021e565b92915050565b60008060408385031215620002695762000268620001e5565b5b6000620002798582860162000238565b92505060206200028c8582860162000238565b9150509250929050565b612ab580620002a66000396000f3fe60806040526004361061012a5760003560e01c80634fcfa539116100ab5780638da5cb5b1161006f5780638da5cb5b14610401578063b375603c1461042c578063bef10fb914610457578063cfd4595b14610480578063e065e551146104a9578063f2fde38b146104d25761012a565b80634fcfa5391461031c5780635ff7348b146103595780636681042014610384578063715018a6146103c157806383426738146103d85761012a565b80631769f049116100f25780631769f0491461024257806323972aef1461026d57806326cffc691461028957806336b3c80f146102c657806337b45fa8146102f15761012a565b8063021a12d41461012f5780630321d94f1461015a57806310812d8f1461019757806311e6a59b146101d45780631398e076146101ff575b600080fd5b34801561013b57600080fd5b506101446104fb565b6040516101519190611bec565b60405180910390f35b34801561016657600080fd5b50610181600480360381019061017c9190611c38565b610501565b60405161018e9190611bec565b60405180910390f35b3480156101a357600080fd5b506101be60048036038101906101b99190611c38565b610519565b6040516101cb9190611d55565b60405180910390f35b3480156101e057600080fd5b506101e96105bd565b6040516101f69190611bec565b60405180910390f35b34801561020b57600080fd5b5061022660048036038101906102219190611c38565b6105c3565b6040516102399796959493929190611dfd565b60405180910390f35b34801561024e57600080fd5b50610257610652565b6040516102649190611bec565b60405180910390f35b61028760048036038101906102829190611e6c565b610658565b005b34801561029557600080fd5b506102b060048036038101906102ab9190611ed8565b61092d565b6040516102bd9190611bec565b60405180910390f35b3480156102d257600080fd5b506102db610945565b6040516102e89190611bec565b60405180910390f35b3480156102fd57600080fd5b5061030661094b565b6040516103139190611f64565b60405180910390f35b34801561032857600080fd5b50610343600480360381019061033e9190611c38565b610971565b6040516103509190611f7f565b60405180910390f35b34801561036557600080fd5b5061036e61099e565b60405161037b9190611f9a565b60405180910390f35b34801561039057600080fd5b506103ab60048036038101906103a69190611c38565b6109c4565b6040516103b89190611bec565b60405180910390f35b3480156103cd57600080fd5b506103d6610a05565b005b3480156103e457600080fd5b506103ff60048036038101906103fa9190611fb5565b610a19565b005b34801561040d57600080fd5b50610416610e02565b6040516104239190611f9a565b60405180910390f35b34801561043857600080fd5b50610441610e2b565b60405161044e9190611bec565b60405180910390f35b34801561046357600080fd5b5061047e60048036038101906104799190611e6c565b610e31565b005b34801561048c57600080fd5b506104a760048036038101906104a29190611c38565b611336565b005b3480156104b557600080fd5b506104d060048036038101906104cb9190611c38565b611348565b005b3480156104de57600080fd5b506104f960048036038101906104f49190611ed8565b6118c9565b005b60085481565b60066020528060005260406000206000915090505481565b6060600360008381526020019081526020016000206006018054806020026020016040519081016040528092919081815260200182805480156105b157602002820191906000526020600020905b8160009054906101000a900473ffffffffffffffffffffffffffffffffffffffff1673ffffffffffffffffffffffffffffffffffffffff1681526020019060010190808311610567575b50505050509050919050565b600a5481565b60036020528060005260406000206000915090508060000160009054906101000a900473ffffffffffffffffffffffffffffffffffffffff16908060000160149054906101000a900460ff16908060010154908060020154908060030154908060040160009054906101000a900473ffffffffffffffffffffffffffffffffffffffff16908060050154905087565b60095481565b60036000838152602001908152602001600020600101548161067a919061204b565b34146106bb576040517f08c379a00000000000000000000000000000000000000000000000000000000081526004016106b290612110565b60405180910390fd5b600160028111156106cf576106ce611d86565b5b6003600084815260200190815260200160002060000160149054906101000a900460ff16600281111561070557610704611d86565b5b14610745576040517f08c379a000000000000000000000000000000000000000000000000000000000815260040161073c9061217c565b60405180910390fd5b600360008381526020019081526020016000206002015481600360008581526020019081526020016000206003015461077e919061219c565b11156107bf576040517f08c379a00000000000000000000000000000000000000000000000000000000081526004016107b69061221c565b60405180910390fd5b60036000838152602001908152602001600020600601339080600181540180825580915050600190039060005260206000200160009091909190916101000a81548173ffffffffffffffffffffffffffffffffffffffff021916908373ffffffffffffffffffffffffffffffffffffffff160217905550600360008381526020019081526020016000206001015481610858919061204b565b6003600084815260200190815260200160002060070160003373ffffffffffffffffffffffffffffffffffffffff1673ffffffffffffffffffffffffffffffffffffffff16815260200190815260200160002060008282546108ba919061219c565b92505081905550806003600084815260200190815260200160002060030160008282546108e7919061219c565b925050819055507f31ed7968c068023ef5cbf0834bb1d883bedc82dc6e9e44065bc1919184dded358233836040516109219392919061223c565b60405180910390a15050565b60056020528060005260406000206000915090505481565b60075481565b600160009054906101000a900473ffffffffffffffffffffffffffffffffffffffff1681565b60006003600083815260200190815260200160002060000160149054906101000a900460ff169050919050565b600260009054906101000a900473ffffffffffffffffffffffffffffffffffffffff1681565b6000600360008381526020019081526020016000206002015460036000848152602001908152602001600020600101546109fe919061204b565b9050919050565b610a0d61194c565b610a1760006119ca565b565b600b60009054906101000a900460ff16610a68576040517f08c379a0000000000000000000000000000000000000000000000000000000008152600401610a5f906122e5565b60405180910390fd5b6000600b60006101000a81548160ff02191690831515021790555060008211610ac6576040517f08c379a0000000000000000000000000000000000000000000000000000000008152600401610abd90612351565b60405180910390fd5b60008111610b09576040517f08c379a0000000000000000000000000000000000000000000000000000000008152600401610b00906123bd565b60405180910390fd5b6000600560003373ffffffffffffffffffffffffffffffffffffffff1673ffffffffffffffffffffffffffffffffffffffff1681526020019081526020016000205414610b8b576040517f08c379a0000000000000000000000000000000000000000000000000000000008152600401610b829061244f565b60405180910390fd5b8373ffffffffffffffffffffffffffffffffffffffff166323b872dd3330866040518463ffffffff1660e01b8152600401610bc89392919061246f565b600060405180830381600087803b158015610be257600080fd5b505af1158015610bf6573d6000803e3d6000fd5b50505050600454600560003373ffffffffffffffffffffffffffffffffffffffff1673ffffffffffffffffffffffffffffffffffffffff168152602001908152602001600020819055503360036000600454815260200190815260200160002060000160006101000a81548173ffffffffffffffffffffffffffffffffffffffff021916908373ffffffffffffffffffffffffffffffffffffffff1602179055508160036000600454815260200190815260200160002060010181905550600160036000600454815260200190815260200160002060000160146101000a81548160ff02191690836002811115610cf057610cef611d86565b5b021790555080600360006004548152602001908152602001600020600201819055508360036000600454815260200190815260200160002060040160006101000a81548173ffffffffffffffffffffffffffffffffffffffff021916908373ffffffffffffffffffffffffffffffffffffffff1602179055508260036000600454815260200190815260200160002060050181905550600160046000828254610d99919061219c565b925050819055507facd971b386cde69f342a40f49f63ae09d70ccb8975fc1258f220ae43eed8e44260045485858486604051610dd99594939291906124a6565b60405180910390a16001600b60006101000a81548160ff02191690831515021790555050505050565b60008060009054906101000a900473ffffffffffffffffffffffffffffffffffffffff16905090565b60045481565b600060066000848152602001908152602001600020549050600160009054906101000a900473ffffffffffffffffffffffffffffffffffffffff1673ffffffffffffffffffffffffffffffffffffffff163373ffffffffffffffffffffffffffffffffffffffff1614610ed9576040517f08c379a0000000000000000000000000000000000000000000000000000000008152600401610ed09061256b565b60405180910390fd5b600280811115610eec57610eeb611d86565b5b6003600083815260200190815260200160002060000160149054906101000a900460ff166002811115610f2257610f21611d86565b5b14610f62576040517f08c379a0000000000000000000000000000000000000000000000000000000008152600401610f59906125d7565b60405180910390fd5b60008211610fa5576040517f08c379a0000000000000000000000000000000000000000000000000000000008152600401610f9c90612643565b60405180910390fd5b60006003600083815260200190815260200160002060000160146101000a81548160ff02191690836002811115610fdf57610fde611d86565b5b02179055506000600560006003600085815260200190815260200160002060000160009054906101000a900473ffffffffffffffffffffffffffffffffffffffff1673ffffffffffffffffffffffffffffffffffffffff1673ffffffffffffffffffffffffffffffffffffffff1681526020019081526020016000208190555060006003600083815260200190815260200160002060060180549050836110869190612692565b905060006003600084815260200190815260200160002060060182815481106110b2576110b16126c3565b5b9060005260206000200160009054906101000a900473ffffffffffffffffffffffffffffffffffffffff1690506003600084815260200190815260200160002060040160009054906101000a900473ffffffffffffffffffffffffffffffffffffffff1673ffffffffffffffffffffffffffffffffffffffff166323b872dd308360036000888152602001908152602001600020600501546040518463ffffffff1660e01b81526004016111689392919061246f565b600060405180830381600087803b15801561118257600080fd5b505af1158015611196573d6000803e3d6000fd5b505050506000600360008581526020019081526020016000206002015460036000868152602001908152602001600020600101546111d4919061204b565b90506000600854600754836111e9919061204b565b6111f391906126f2565b9050600081836112039190612723565b90508160096000828254611217919061219c565b92505081905550600a54600954111561123357611232611a8e565b5b6003600087815260200190815260200160002060000160009054906101000a900473ffffffffffffffffffffffffffffffffffffffff1673ffffffffffffffffffffffffffffffffffffffff166108fc829081150290604051600060405180830381858888f193505050501580156112af573d6000803e3d6000fd5b506000600560003373ffffffffffffffffffffffffffffffffffffffff1673ffffffffffffffffffffffffffffffffffffffff16815260200190815260200160002050507fb4d601e7092e672cbffcd1512cc6592c35b9947e1ebfeea7647231887a5224478685604051611324929190612757565b60405180910390a15050505050505050565b61133e61194c565b80600a8190555050565b6003600082815260200190815260200160002060000160009054906101000a900473ffffffffffffffffffffffffffffffffffffffff1673ffffffffffffffffffffffffffffffffffffffff163373ffffffffffffffffffffffffffffffffffffffff16146113ec576040517f08c379a00000000000000000000000000000000000000000000000000000000081526004016113e3906127f2565b60405180910390fd5b60016002811115611400576113ff611d86565b5b6003600083815260200190815260200160002060000160149054906101000a900460ff16600281111561143657611435611d86565b5b14611476576040517f08c379a000000000000000000000000000000000000000000000000000000000815260040161146d9061217c565b60405180910390fd5b600060036000838152602001908152602001600020600201546003600084815260200190815260200160002060030154101561175a576000905060006003600084815260200190815260200160002060000160146101000a81548160ff021916908360028111156114ea576114e9611d86565b5b02179055506003600083815260200190815260200160002060040160009054906101000a900473ffffffffffffffffffffffffffffffffffffffff1673ffffffffffffffffffffffffffffffffffffffff166323b872dd306003600086815260200190815260200160002060000160009054906101000a900473ffffffffffffffffffffffffffffffffffffffff1660036000878152602001908152602001600020600501546040518463ffffffff1660e01b81526004016115ae9392919061246f565b600060405180830381600087803b1580156115c857600080fd5b505af11580156115dc573d6000803e3d6000fd5b5050505060005b600360008481526020019081526020016000206006018054905081101561170f57600060036000858152602001908152602001600020600601828154811061162e5761162d6126c3565b5b9060005260206000200160009054906101000a900473ffffffffffffffffffffffffffffffffffffffff16905060006003600086815260200190815260200160002060070160008373ffffffffffffffffffffffffffffffffffffffff1673ffffffffffffffffffffffffffffffffffffffff1681526020019081526020016000205490508173ffffffffffffffffffffffffffffffffffffffff166108fc829081150290604051600060405180830381858888f193505050501580156116f9573d6000803e3d6000fd5b505050808061170790612812565b9150506115e3565b506000600560003373ffffffffffffffffffffffffffffffffffffffff1673ffffffffffffffffffffffffffffffffffffffff1681526020019081526020016000208190555061188c565b6117986040518060400160405280601281526020017f43616c63756c6174696e672077696e6e65720000000000000000000000000000815250611b09565b6001905060026003600084815260200190815260200160002060000160146101000a81548160ff021916908360028111156117d6576117d5611d86565b5b02179055506000600160009054906101000a900473ffffffffffffffffffffffffffffffffffffffff1673ffffffffffffffffffffffffffffffffffffffff1663aacc5a176040518163ffffffff1660e01b81526004016020604051808303816000875af115801561184c573d6000803e3d6000fd5b505050506040513d601f19601f82011682018060405250810190611870919061286f565b9050826006600083815260200190815260200160002081905550505b7f3704bc5c908f802348cdf578bceb2ce84b92f2a38dc1de7179c846b226ef471a82826040516118bd9291906128b7565b60405180910390a15050565b6118d161194c565b600073ffffffffffffffffffffffffffffffffffffffff168173ffffffffffffffffffffffffffffffffffffffff1603611940576040517f08c379a000000000000000000000000000000000000000000000000000000000815260040161193790612952565b60405180910390fd5b611949816119ca565b50565b611954611ba2565b73ffffffffffffffffffffffffffffffffffffffff16611972610e02565b73ffffffffffffffffffffffffffffffffffffffff16146119c8576040517f08c379a00000000000000000000000000000000000000000000000000000000081526004016119bf906129be565b60405180910390fd5b565b60008060009054906101000a900473ffffffffffffffffffffffffffffffffffffffff169050816000806101000a81548173ffffffffffffffffffffffffffffffffffffffff021916908373ffffffffffffffffffffffffffffffffffffffff1602179055508173ffffffffffffffffffffffffffffffffffffffff168173ffffffffffffffffffffffffffffffffffffffff167f8be0079c531659141344cd1fd0a4f28419497f9722a3daafe3b4186f6b6457e060405160405180910390a35050565b600060095490506000600981905550600260009054906101000a900473ffffffffffffffffffffffffffffffffffffffff1673ffffffffffffffffffffffffffffffffffffffff166108fc829081150290604051600060405180830381858888f19350505050158015611b05573d6000803e3d6000fd5b5050565b611b9f81604051602401611b1d9190612a5d565b6040516020818303038152906040527f41304fac000000000000000000000000000000000000000000000000000000007bffffffffffffffffffffffffffffffffffffffffffffffffffffffff19166020820180517bffffffffffffffffffffffffffffffffffffffffffffffffffffffff8381831617835250505050611baa565b50565b600033905090565b60008151905060006a636f6e736f6c652e6c6f679050602083016000808483855afa5050505050565b6000819050919050565b611be681611bd3565b82525050565b6000602082019050611c016000830184611bdd565b92915050565b600080fd5b611c1581611bd3565b8114611c2057600080fd5b50565b600081359050611c3281611c0c565b92915050565b600060208284031215611c4e57611c4d611c07565b5b6000611c5c84828501611c23565b91505092915050565b600081519050919050565b600082825260208201905092915050565b6000819050602082019050919050565b600073ffffffffffffffffffffffffffffffffffffffff82169050919050565b6000611cbc82611c91565b9050919050565b611ccc81611cb1565b82525050565b6000611cde8383611cc3565b60208301905092915050565b6000602082019050919050565b6000611d0282611c65565b611d0c8185611c70565b9350611d1783611c81565b8060005b83811015611d48578151611d2f8882611cd2565b9750611d3a83611cea565b925050600181019050611d1b565b5085935050505092915050565b60006020820190508181036000830152611d6f8184611cf7565b905092915050565b611d8081611cb1565b82525050565b7f4e487b7100000000000000000000000000000000000000000000000000000000600052602160045260246000fd5b60038110611dc657611dc5611d86565b5b50565b6000819050611dd782611db5565b919050565b6000611de782611dc9565b9050919050565b611df781611ddc565b82525050565b600060e082019050611e12600083018a611d77565b611e1f6020830189611dee565b611e2c6040830188611bdd565b611e396060830187611bdd565b611e466080830186611bdd565b611e5360a0830185611d77565b611e6060c0830184611bdd565b98975050505050505050565b60008060408385031215611e8357611e82611c07565b5b6000611e9185828601611c23565b9250506020611ea285828601611c23565b9150509250929050565b611eb581611cb1565b8114611ec057600080fd5b50565b600081359050611ed281611eac565b92915050565b600060208284031215611eee57611eed611c07565b5b6000611efc84828501611ec3565b91505092915050565b6000819050919050565b6000611f2a611f25611f2084611c91565b611f05565b611c91565b9050919050565b6000611f3c82611f0f565b9050919050565b6000611f4e82611f31565b9050919050565b611f5e81611f43565b82525050565b6000602082019050611f796000830184611f55565b92915050565b6000602082019050611f946000830184611dee565b92915050565b6000602082019050611faf6000830184611d77565b92915050565b60008060008060808587031215611fcf57611fce611c07565b5b6000611fdd87828801611ec3565b9450506020611fee87828801611c23565b9350506040611fff87828801611c23565b925050606061201087828801611c23565b91505092959194509250565b7f4e487b7100000000000000000000000000000000000000000000000000000000600052601160045260246000fd5b600061205682611bd3565b915061206183611bd3565b925082820261206f81611bd3565b915082820484148315176120865761208561201c565b5b5092915050565b600082825260208201905092915050565b7f57726f6e672070726963652c20636865636b20746865207469636b657420707260008201527f6963650000000000000000000000000000000000000000000000000000000000602082015250565b60006120fa60238361208d565b91506121058261209e565b604082019050919050565b60006020820190508181036000830152612129816120ed565b9050919050565b7f54686520726166666c65206861736e2774206576656e20737461727465642100600082015250565b6000612166601f8361208d565b915061217182612130565b602082019050919050565b6000602082019050818103600083015261219581612159565b9050919050565b60006121a782611bd3565b91506121b283611bd3565b92508282019050808211156121ca576121c961201c565b5b92915050565b7f54686520726166666c652069732066756c6c0000000000000000000000000000600082015250565b600061220660128361208d565b9150612211826121d0565b602082019050919050565b60006020820190508181036000830152612235816121f9565b9050919050565b60006060820190506122516000830186611bdd565b61225e6020830185611d77565b61226b6040830184611bdd565b949350505050565b7f41206e657720726166666c6520686173206265656e20737461727465642c206a60008201527f7573742077616974206120626974000000000000000000000000000000000000602082015250565b60006122cf602e8361208d565b91506122da82612273565b604082019050919050565b600060208201905081810360008301526122fe816122c2565b9050919050565b7f5469636b65742070726963652063616e27742062652030000000000000000000600082015250565b600061233b60178361208d565b915061234682612305565b602082019050919050565b6000602082019050818103600083015261236a8161232e565b9050919050565b7f5469636b657420616d6f756e742063616e277420626520300000000000000000600082015250565b60006123a760188361208d565b91506123b282612371565b602082019050919050565b600060208201905081810360008301526123d68161239a565b9050919050565b7f596f7520616c72656164792068617665206120726166666c652072756e6e696e60008201527f6700000000000000000000000000000000000000000000000000000000000000602082015250565b600061243960218361208d565b9150612444826123dd565b604082019050919050565b600060208201905081810360008301526124688161242c565b9050919050565b60006060820190506124846000830186611d77565b6124916020830185611d77565b61249e6040830184611bdd565b949350505050565b600060a0820190506124bb6000830188611bdd565b6124c86020830187611d77565b6124d56040830186611bdd565b6124e26060830185611bdd565b6124ef6080830184611bdd565b9695505050505050565b7f4f6e6c79207468652052616e646f6d4e756d626572436f6e73756d657220636f60008201527f6e74726163742063616e2063616c6c20746869732066756e6374696f6e000000602082015250565b6000612555603d8361208d565b9150612560826124f9565b604082019050919050565b6000602082019050818103600083015261258481612548565b9050919050565b7f596f75206172656e277420617420746861742073746167652079657421000000600082015250565b60006125c1601d8361208d565b91506125cc8261258b565b602082019050919050565b600060208201905081810360008301526125f0816125b4565b9050919050565b7f72616e646f6d2d6e6f742d666f756e6400000000000000000000000000000000600082015250565b600061262d60108361208d565b9150612638826125f7565b602082019050919050565b6000602082019050818103600083015261265c81612620565b9050919050565b7f4e487b7100000000000000000000000000000000000000000000000000000000600052601260045260246000fd5b600061269d82611bd3565b91506126a883611bd3565b9250826126b8576126b7612663565b5b828206905092915050565b7f4e487b7100000000000000000000000000000000000000000000000000000000600052603260045260246000fd5b60006126fd82611bd3565b915061270883611bd3565b92508261271857612717612663565b5b828204905092915050565b600061272e82611bd3565b915061273983611bd3565b92508282039050818111156127515761275061201c565b5b92915050565b600060408201905061276c6000830185611bdd565b6127796020830184611d77565b9392505050565b7f596f7520617265206e6f7420746865206f776e6572206f66207468697320726160008201527f66666c6500000000000000000000000000000000000000000000000000000000602082015250565b60006127dc60248361208d565b91506127e782612780565b604082019050919050565b6000602082019050818103600083015261280b816127cf565b9050919050565b600061281d82611bd3565b91507fffffffffffffffffffffffffffffffffffffffffffffffffffffffffffffffff820361284f5761284e61201c565b5b600182019050919050565b60008151905061286981611c0c565b92915050565b60006020828403121561288557612884611c07565b5b60006128938482850161285a565b91505092915050565b60008115159050919050565b6128b18161289c565b82525050565b60006040820190506128cc6000830185611bdd565b6128d960208301846128a8565b9392505050565b7f4f776e61626c653a206e6577206f776e657220697320746865207a65726f206160008201527f6464726573730000000000000000000000000000000000000000000000000000602082015250565b600061293c60268361208d565b9150612947826128e0565b604082019050919050565b6000602082019050818103600083015261296b8161292f565b9050919050565b7f4f776e61626c653a2063616c6c6572206973206e6f7420746865206f776e6572600082015250565b60006129a860208361208d565b91506129b382612972565b602082019050919050565b600060208201905081810360008301526129d78161299b565b9050919050565b600081519050919050565b60005b83811015612a075780820151818401526020810190506129ec565b60008484015250505050565b6000601f19601f8301169050919050565b6000612a2f826129de565b612a39818561208d565b9350612a498185602086016129e9565b612a5281612a13565b840191505092915050565b60006020820190508181036000830152612a778184612a24565b90509291505056fea2646970667358221220bbfdcfbf7095b56a253f02531fbdb7e6242a2f26c1c813841baf94707af67df164736f6c63430008110033",
  "linkReferences": {},
  "deployedLinkReferences": {}
}