{
  "_format": "hh-sol-artifact-1",
  "contractName": "Raffle",
  "sourceName": "contracts/Raffle.sol",
  "abi": [
    {
      "inputs": [
        {
          "internalType": "address",
          "name": "random_address",
          "type": "address"
        },
        {
          "internalType": "address",
          "name": "_funds_manager_address",
          "type": "address"
        }
      ],
      "stateMutability": "nonpayable",
      "type": "constructor"
    },
    {
      "anonymous": false,
      "inputs": [
        {
          "indexed": true,
          "internalType": "address",
          "name": "previousOwner",
          "type": "address"
        },
        {
          "indexed": true,
          "internalType": "address",
          "name": "newOwner",
          "type": "address"
        }
      ],
      "name": "OwnershipTransferred",
      "type": "event"
    },
    {
      "anonymous": false,
      "inputs": [
        {
          "indexed": false,
          "internalType": "uint256",
          "name": "raffleId",
          "type": "uint256"
        },
        {
          "indexed": false,
          "internalType": "bool",
          "name": "tickets_fully_sold",
          "type": "bool"
        }
      ],
      "name": "RaffleEnded",
      "type": "event"
    },
    {
      "anonymous": false,
      "inputs": [
        {
          "indexed": false,
          "internalType": "uint256",
          "name": "raffleId",
          "type": "uint256"
        },
        {
          "indexed": false,
          "internalType": "address",
          "name": "player",
          "type": "address"
        },
        {
          "indexed": false,
          "internalType": "uint256",
          "name": "ticket_amount",
          "type": "uint256"
        }
      ],
      "name": "RaffleEntered",
      "type": "event"
    },
    {
      "anonymous": false,
      "inputs": [
        {
          "indexed": false,
          "internalType": "uint256",
          "name": "raffleId",
          "type": "uint256"
        },
        {
          "indexed": false,
          "internalType": "address",
          "name": "NFTcontract",
          "type": "address"
        },
        {
          "indexed": false,
          "internalType": "uint256",
          "name": "NFTid",
          "type": "uint256"
        },
        {
          "indexed": false,
          "internalType": "uint256",
          "name": "ticket_amount",
          "type": "uint256"
        },
        {
          "indexed": false,
          "internalType": "uint256",
          "name": "ticket_price",
          "type": "uint256"
        }
      ],
      "name": "RaffleStarted",
      "type": "event"
    },
    {
      "anonymous": false,
      "inputs": [
        {
          "indexed": false,
          "internalType": "uint256",
          "name": "raffleId",
          "type": "uint256"
        },
        {
          "indexed": false,
          "internalType": "address",
          "name": "winner",
          "type": "address"
        }
      ],
      "name": "RaffleWinner",
      "type": "event"
    },
    {
      "inputs": [
        {
          "internalType": "uint256",
          "name": "_raffleId",
          "type": "uint256"
        }
      ],
      "name": "end_raffle",
      "outputs": [],
      "stateMutability": "nonpayable",
      "type": "function"
    },
    {
      "inputs": [
        {
          "internalType": "uint256",
          "name": "_raffleId",
          "type": "uint256"
        },
        {
          "internalType": "uint256",
          "name": "_ticket_amount",
          "type": "uint256"
        }
      ],
      "name": "enter",
      "outputs": [],
      "stateMutability": "payable",
      "type": "function"
    },
    {
      "inputs": [],
      "name": "fee_balance",
      "outputs": [
        {
          "internalType": "uint256",
          "name": "",
          "type": "uint256"
        }
      ],
      "stateMutability": "view",
      "type": "function"
    },
    {
      "inputs": [],
      "name": "funds_manager",
      "outputs": [
        {
          "internalType": "contract FundsManager",
          "name": "",
          "type": "address"
        }
      ],
      "stateMutability": "view",
      "type": "function"
    },
    {
      "inputs": [],
      "name": "get_current_raffles",
      "outputs": [
        {
          "components": [
            {
              "internalType": "address",
              "name": "owner",
              "type": "address"
            },
            {
              "internalType": "enum Raffle.RAFFLE_STATE",
              "name": "raffle_state",
              "type": "uint8"
            },
            {
              "internalType": "uint256",
              "name": "ticket_price",
              "type": "uint256"
            },
            {
              "internalType": "uint256",
              "name": "ticket_amount",
              "type": "uint256"
            },
            {
              "internalType": "uint256",
              "name": "ticket_sold",
              "type": "uint256"
            },
            {
              "internalType": "address",
              "name": "NFTcontract",
              "type": "address"
            },
            {
              "internalType": "uint256",
              "name": "NFTid",
              "type": "uint256"
            },
            {
              "internalType": "address",
              "name": "winner",
              "type": "address"
            }
          ],
          "internalType": "struct Raffle.raffle[]",
          "name": "",
          "type": "tuple[]"
        }
      ],
      "stateMutability": "view",
      "type": "function"
    },
    {
      "inputs": [
        {
          "internalType": "uint256",
          "name": "_raffleId",
          "type": "uint256"
        }
      ],
      "name": "get_pot",
      "outputs": [
        {
          "internalType": "uint256",
          "name": "",
          "type": "uint256"
        }
      ],
      "stateMutability": "view",
      "type": "function"
    },
    {
      "inputs": [
        {
          "internalType": "uint256",
          "name": "_raffleId",
          "type": "uint256"
        }
      ],
      "name": "get_winner",
      "outputs": [
        {
          "internalType": "address",
          "name": "",
          "type": "address"
        }
      ],
      "stateMutability": "view",
      "type": "function"
    },
    {
      "inputs": [
        {
          "internalType": "uint256",
          "name": "",
          "type": "uint256"
        }
      ],
      "name": "lotteries",
      "outputs": [
        {
          "internalType": "address",
          "name": "owner",
          "type": "address"
        },
        {
          "internalType": "enum Raffle.RAFFLE_STATE",
          "name": "raffle_state",
          "type": "uint8"
        },
        {
          "internalType": "uint256",
          "name": "ticket_price",
          "type": "uint256"
        },
        {
          "internalType": "uint256",
          "name": "ticket_amount",
          "type": "uint256"
        },
        {
          "internalType": "uint256",
          "name": "ticket_sold",
          "type": "uint256"
        },
        {
          "internalType": "address",
          "name": "NFTcontract",
          "type": "address"
        },
        {
          "internalType": "uint256",
          "name": "NFTid",
          "type": "uint256"
        },
        {
          "internalType": "address",
          "name": "winner",
          "type": "address"
        }
      ],
      "stateMutability": "view",
      "type": "function"
    },
    {
      "inputs": [],
      "name": "min_fee_balance",
      "outputs": [
        {
          "internalType": "uint256",
          "name": "",
          "type": "uint256"
        }
      ],
      "stateMutability": "view",
      "type": "function"
    },
    {
      "inputs": [],
      "name": "owner",
      "outputs": [
        {
          "internalType": "address",
          "name": "",
          "type": "address"
        }
      ],
      "stateMutability": "view",
      "type": "function"
    },
    {
      "inputs": [
        {
          "internalType": "address",
          "name": "",
          "type": "address"
        }
      ],
      "name": "ownerRaffleId",
      "outputs": [
        {
          "internalType": "uint256",
          "name": "",
          "type": "uint256"
        }
      ],
      "stateMutability": "view",
      "type": "function"
    },
    {
      "inputs": [],
      "name": "raffleId",
      "outputs": [
        {
          "internalType": "uint256",
          "name": "",
          "type": "uint256"
        }
      ],
      "stateMutability": "view",
      "type": "function"
    },
    {
      "inputs": [
        {
          "internalType": "uint256",
          "name": "",
          "type": "uint256"
        },
        {
          "internalType": "uint256",
          "name": "",
          "type": "uint256"
        }
      ],
      "name": "raffleId_to_playerInfo",
      "outputs": [
        {
          "internalType": "address",
          "name": "player",
          "type": "address"
        },
        {
          "internalType": "uint256",
          "name": "amount_paid",
          "type": "uint256"
        }
      ],
      "stateMutability": "view",
      "type": "function"
    },
    {
      "inputs": [
        {
          "internalType": "uint256",
          "name": "requestId",
          "type": "uint256"
        },
        {
          "internalType": "uint256",
          "name": "random",
          "type": "uint256"
        }
      ],
      "name": "raffle_result",
      "outputs": [],
      "stateMutability": "nonpayable",
      "type": "function"
    },
    {
      "inputs": [],
      "name": "random_contract",
      "outputs": [
        {
          "internalType": "contract RandomNumberConsumer",
          "name": "",
          "type": "address"
        }
      ],
      "stateMutability": "view",
      "type": "function"
    },
    {
      "inputs": [],
      "name": "renounceOwnership",
      "outputs": [],
      "stateMutability": "nonpayable",
      "type": "function"
    },
    {
      "inputs": [
        {
          "internalType": "uint256",
          "name": "",
          "type": "uint256"
        }
      ],
      "name": "requestId_to_raffleId",
      "outputs": [
        {
          "internalType": "uint256",
          "name": "",
          "type": "uint256"
        }
      ],
      "stateMutability": "view",
      "type": "function"
    },
    {
      "inputs": [
        {
          "internalType": "uint256",
          "name": "_min_fee_balance",
          "type": "uint256"
        }
      ],
      "name": "setMinFeeBalance",
      "outputs": [],
      "stateMutability": "nonpayable",
      "type": "function"
    },
    {
      "inputs": [
        {
          "internalType": "address",
          "name": "_NFTcontract",
          "type": "address"
        },
        {
          "internalType": "uint256",
          "name": "_NFTid",
          "type": "uint256"
        },
        {
          "internalType": "uint256",
          "name": "_ticket_price",
          "type": "uint256"
        },
        {
          "internalType": "uint256",
          "name": "_ticket_amount",
          "type": "uint256"
        }
      ],
      "name": "start_new_raffle",
      "outputs": [],
      "stateMutability": "nonpayable",
      "type": "function"
    },
    {
      "inputs": [
        {
          "internalType": "address",
          "name": "newOwner",
          "type": "address"
        }
      ],
      "name": "transferOwnership",
      "outputs": [],
      "stateMutability": "nonpayable",
      "type": "function"
    },
    {
      "inputs": [],
      "name": "winning_fee",
      "outputs": [
        {
          "internalType": "uint256",
          "name": "",
          "type": "uint256"
        }
      ],
      "stateMutability": "view",
      "type": "function"
    },
    {
      "inputs": [],
      "name": "winning_fee_divisor",
      "outputs": [
        {
          "internalType": "uint256",
          "name": "",
          "type": "uint256"
        }
      ],
      "stateMutability": "view",
      "type": "function"
    }
  ],
  "bytecode": "0x60806040526002600855606460095566470de4df820000600b556001600c60006101000a81548160ff0219169083151502179055503480156200004157600080fd5b506040516200331d3803806200331d83398181016040528101906200006791906200024f565b620000876200007b6200011960201b60201c565b6200012160201b60201c565b81600260006101000a81548173ffffffffffffffffffffffffffffffffffffffff021916908373ffffffffffffffffffffffffffffffffffffffff16021790555080600160006101000a81548173ffffffffffffffffffffffffffffffffffffffff021916908373ffffffffffffffffffffffffffffffffffffffff1602179055506001600581905550505062000296565b600033905090565b60008060009054906101000a900473ffffffffffffffffffffffffffffffffffffffff169050816000806101000a81548173ffffffffffffffffffffffffffffffffffffffff021916908373ffffffffffffffffffffffffffffffffffffffff1602179055508173ffffffffffffffffffffffffffffffffffffffff168173ffffffffffffffffffffffffffffffffffffffff167f8be0079c531659141344cd1fd0a4f28419497f9722a3daafe3b4186f6b6457e060405160405180910390a35050565b600080fd5b600073ffffffffffffffffffffffffffffffffffffffff82169050919050565b60006200021782620001ea565b9050919050565b62000229816200020a565b81146200023557600080fd5b50565b60008151905062000249816200021e565b92915050565b60008060408385031215620002695762000268620001e5565b5b6000620002798582860162000238565b92505060206200028c8582860162000238565b9150509250929050565b61307780620002a66000396000f3fe6080604052600436106101355760003560e01c806366810420116100ab578063b375603c1161006f578063b375603c14610426578063bef10fb914610451578063cfd4595b1461047a578063e065e551146104a3578063e39cdfe4146104cc578063f2fde38b1461050a57610135565b80636681042014610353578063689643ea14610390578063715018a6146103bb57806383426738146103d25780638da5cb5b146103fb57610135565b806323972aef116100fd57806323972aef1461023c578063243dc4091461025857806326cffc691461029557806336b3c80f146102d257806337b45fa8146102fd5780635ff7348b1461032857610135565b8063021a12d41461013a5780630321d94f1461016557806311e6a59b146101a25780631398e076146101cd5780631769f04914610211575b600080fd5b34801561014657600080fd5b5061014f610533565b60405161015c919061209a565b60405180910390f35b34801561017157600080fd5b5061018c600480360381019061018791906120e6565b610539565b604051610199919061209a565b60405180910390f35b3480156101ae57600080fd5b506101b7610551565b6040516101c4919061209a565b60405180910390f35b3480156101d957600080fd5b506101f460048036038101906101ef91906120e6565b610557565b6040516102089897969594939291906121cb565b60405180910390f35b34801561021d57600080fd5b5061022661060c565b604051610233919061209a565b60405180910390f35b61025660048036038101906102519190612249565b610612565b005b34801561026457600080fd5b5061027f600480360381019061027a91906120e6565b6108c0565b60405161028c9190612289565b60405180910390f35b3480156102a157600080fd5b506102bc60048036038101906102b791906122d0565b610989565b6040516102c9919061209a565b60405180910390f35b3480156102de57600080fd5b506102e76109a1565b6040516102f4919061209a565b60405180910390f35b34801561030957600080fd5b506103126109a7565b60405161031f919061235c565b60405180910390f35b34801561033457600080fd5b5061033d6109cd565b60405161034a9190612398565b60405180910390f35b34801561035f57600080fd5b5061037a600480360381019061037591906120e6565b6109f3565b604051610387919061209a565b60405180910390f35b34801561039c57600080fd5b506103a5610a34565b6040516103b29190612532565b60405180910390f35b3480156103c757600080fd5b506103d0610d15565b005b3480156103de57600080fd5b506103f960048036038101906103f49190612554565b610d29565b005b34801561040757600080fd5b5061041061117f565b60405161041d9190612289565b60405180910390f35b34801561043257600080fd5b5061043b6111a8565b604051610448919061209a565b60405180910390f35b34801561045d57600080fd5b5061047860048036038101906104739190612249565b6111ae565b005b34801561048657600080fd5b506104a1600480360381019061049c91906120e6565b611709565b005b3480156104af57600080fd5b506104ca60048036038101906104c591906120e6565b61171b565b005b3480156104d857600080fd5b506104f360048036038101906104ee9190612249565b611c42565b6040516105019291906125bb565b60405180910390f35b34801561051657600080fd5b50610531600480360381019061052c91906122d0565b611ca3565b005b60095481565b60076020528060005260406000206000915090505481565b600b5481565b60046020528060005260406000206000915090508060000160009054906101000a900473ffffffffffffffffffffffffffffffffffffffff16908060000160149054906101000a900460ff16908060010154908060020154908060030154908060040160009054906101000a900473ffffffffffffffffffffffffffffffffffffffff16908060050154908060060160009054906101000a900473ffffffffffffffffffffffffffffffffffffffff16905088565b600a5481565b6004600083815260200190815260200160002060010154816106349190612613565b3414610675576040517f08c379a000000000000000000000000000000000000000000000000000000000815260040161066c906126d8565b60405180910390fd5b6001600281111561068957610688612154565b5b6004600084815260200190815260200160002060000160149054906101000a900460ff1660028111156106bf576106be612154565b5b146106ff576040517f08c379a00000000000000000000000000000000000000000000000000000000081526004016106f690612744565b60405180910390fd5b60046000838152602001908152602001600020600201548160046000858152602001908152602001600020600301546107389190612764565b1115610779576040517f08c379a0000000000000000000000000000000000000000000000000000000008152600401610770906127e4565b60405180910390fd5b6003600083815260200190815260200160002060405180604001604052803373ffffffffffffffffffffffffffffffffffffffff1681526020016004600086815260200190815260200160002060010154846107d59190612613565b815250908060018154018082558091505060019003906000526020600020906002020160009091909190915060008201518160000160006101000a81548173ffffffffffffffffffffffffffffffffffffffff021916908373ffffffffffffffffffffffffffffffffffffffff1602179055506020820151816001015550508060046000848152602001908152602001600020600301600082825461087a9190612764565b925050819055507f31ed7968c068023ef5cbf0834bb1d883bedc82dc6e9e44065bc1919184dded358233836040516108b493929190612804565b60405180910390a15050565b60008060028111156108d5576108d4612154565b5b6004600084815260200190815260200160002060000160149054906101000a900460ff16600281111561090b5761090a612154565b5b1461094b576040517f08c379a000000000000000000000000000000000000000000000000000000000815260040161094290612887565b60405180910390fd5b6004600083815260200190815260200160002060060160009054906101000a900473ffffffffffffffffffffffffffffffffffffffff169050919050565b60066020528060005260406000206000915090505481565b60085481565b600260009054906101000a900473ffffffffffffffffffffffffffffffffffffffff1681565b600160009054906101000a900473ffffffffffffffffffffffffffffffffffffffff1681565b600060046000838152602001908152602001600020600201546004600084815260200190815260200160002060010154610a2d9190612613565b9050919050565b60606000610a40611d26565b67ffffffffffffffff811115610a5957610a586128a7565b5b604051908082528060200260200182016040528015610a9257816020015b610a7f611fe8565b815260200190600190039081610a775790505b509050600080600190505b600554811015610d0c5760016002811115610abb57610aba612154565b5b6004600083815260200190815260200160002060000160149054906101000a900460ff166002811115610af157610af0612154565b5b1480610b435750600280811115610b0b57610b0a612154565b5b6004600083815260200190815260200160002060000160149054906101000a900460ff166002811115610b4157610b40612154565b5b145b15610cf95760046000828152602001908152602001600020604051806101000160405290816000820160009054906101000a900473ffffffffffffffffffffffffffffffffffffffff1673ffffffffffffffffffffffffffffffffffffffff1673ffffffffffffffffffffffffffffffffffffffff1681526020016000820160149054906101000a900460ff166002811115610be257610be1612154565b5b6002811115610bf457610bf3612154565b5b81526020016001820154815260200160028201548152602001600382015481526020016004820160009054906101000a900473ffffffffffffffffffffffffffffffffffffffff1673ffffffffffffffffffffffffffffffffffffffff1673ffffffffffffffffffffffffffffffffffffffff168152602001600582015481526020016006820160009054906101000a900473ffffffffffffffffffffffffffffffffffffffff1673ffffffffffffffffffffffffffffffffffffffff1673ffffffffffffffffffffffffffffffffffffffff1681525050838381518110610cdf57610cde6128d6565b5b60200260200101819052508180610cf590612905565b9250505b8080610d0490612905565b915050610a9d565b50819250505090565b610d1d611e09565b610d276000611e87565b565b600c60009054906101000a900460ff16610d78576040517f08c379a0000000000000000000000000000000000000000000000000000000008152600401610d6f906129bf565b60405180910390fd5b6000600c60006101000a81548160ff02191690831515021790555060008211610dd6576040517f08c379a0000000000000000000000000000000000000000000000000000000008152600401610dcd90612a2b565b60405180910390fd5b60008111610e19576040517f08c379a0000000000000000000000000000000000000000000000000000000008152600401610e1090612a97565b60405180910390fd5b6000600660003373ffffffffffffffffffffffffffffffffffffffff1673ffffffffffffffffffffffffffffffffffffffff1681526020019081526020016000205414610e9b576040517f08c379a0000000000000000000000000000000000000000000000000000000008152600401610e9290612b29565b60405180910390fd5b8373ffffffffffffffffffffffffffffffffffffffff1663095ea7b330856040518363ffffffff1660e01b8152600401610ed69291906125bb565b600060405180830381600087803b158015610ef057600080fd5b505af1158015610f04573d6000803e3d6000fd5b505050508373ffffffffffffffffffffffffffffffffffffffff166323b872dd3330866040518463ffffffff1660e01b8152600401610f4593929190612b49565b600060405180830381600087803b158015610f5f57600080fd5b505af1158015610f73573d6000803e3d6000fd5b50505050600554600660003373ffffffffffffffffffffffffffffffffffffffff1673ffffffffffffffffffffffffffffffffffffffff168152602001908152602001600020819055503360046000600554815260200190815260200160002060000160006101000a81548173ffffffffffffffffffffffffffffffffffffffff021916908373ffffffffffffffffffffffffffffffffffffffff1602179055508160046000600554815260200190815260200160002060010181905550600160046000600554815260200190815260200160002060000160146101000a81548160ff0219169083600281111561106d5761106c612154565b5b021790555080600460006005548152602001908152602001600020600201819055508360046000600554815260200190815260200160002060040160006101000a81548173ffffffffffffffffffffffffffffffffffffffff021916908373ffffffffffffffffffffffffffffffffffffffff16021790555082600460006005548152602001908152602001600020600501819055506001600560008282546111169190612764565b925050819055507facd971b386cde69f342a40f49f63ae09d70ccb8975fc1258f220ae43eed8e44260055485858486604051611156959493929190612b80565b60405180910390a16001600c60006101000a81548160ff02191690831515021790555050505050565b60008060009054906101000a900473ffffffffffffffffffffffffffffffffffffffff16905090565b60055481565b600060076000848152602001908152602001600020549050600260009054906101000a900473ffffffffffffffffffffffffffffffffffffffff1673ffffffffffffffffffffffffffffffffffffffff163373ffffffffffffffffffffffffffffffffffffffff1614611256576040517f08c379a000000000000000000000000000000000000000000000000000000000815260040161124d90612c45565b60405180910390fd5b60028081111561126957611268612154565b5b6004600083815260200190815260200160002060000160149054906101000a900460ff16600281111561129f5761129e612154565b5b146112df576040517f08c379a00000000000000000000000000000000000000000000000000000000081526004016112d690612cb1565b60405180910390fd5b60008211611322576040517f08c379a000000000000000000000000000000000000000000000000000000000815260040161131990612d1d565b60405180910390fd5b60006004600083815260200190815260200160002060000160146101000a81548160ff0219169083600281111561135c5761135b612154565b5b02179055506000600660006004600085815260200190815260200160002060000160009054906101000a900473ffffffffffffffffffffffffffffffffffffffff1673ffffffffffffffffffffffffffffffffffffffff1673ffffffffffffffffffffffffffffffffffffffff1681526020019081526020016000208190555060006003600083815260200190815260200160002080549050836114009190612d6c565b90506000600360008481526020019081526020016000208281548110611429576114286128d6565b5b906000526020600020906002020160000160009054906101000a900473ffffffffffffffffffffffffffffffffffffffff1690506004600084815260200190815260200160002060040160009054906101000a900473ffffffffffffffffffffffffffffffffffffffff1673ffffffffffffffffffffffffffffffffffffffff166323b872dd308360046000888152602001908152602001600020600501546040518463ffffffff1660e01b81526004016114e693929190612b49565b600060405180830381600087803b15801561150057600080fd5b505af1158015611514573d6000803e3d6000fd5b505050506000600460008581526020019081526020016000206002015460046000868152602001908152602001600020600101546115529190612613565b90506000600954600854836115679190612613565b6115719190612d9d565b9050600081836115819190612dce565b905081600a60008282546115959190612764565b92505081905550600b54600a5411156115b1576115b0611f4b565b5b6004600087815260200190815260200160002060000160009054906101000a900473ffffffffffffffffffffffffffffffffffffffff1673ffffffffffffffffffffffffffffffffffffffff166108fc829081150290604051600060405180830381858888f1935050505015801561162d573d6000803e3d6000fd5b506000600660003373ffffffffffffffffffffffffffffffffffffffff1673ffffffffffffffffffffffffffffffffffffffff1681526020019081526020016000205050836004600088815260200190815260200160002060060160006101000a81548173ffffffffffffffffffffffffffffffffffffffff021916908373ffffffffffffffffffffffffffffffffffffffff1602179055507fb4d601e7092e672cbffcd1512cc6592c35b9947e1ebfeea7647231887a52244786856040516116f7929190612e02565b60405180910390a15050505050505050565b611711611e09565b80600b8190555050565b6004600082815260200190815260200160002060000160009054906101000a900473ffffffffffffffffffffffffffffffffffffffff1673ffffffffffffffffffffffffffffffffffffffff163373ffffffffffffffffffffffffffffffffffffffff16146117bf576040517f08c379a00000000000000000000000000000000000000000000000000000000081526004016117b690612e9d565b60405180910390fd5b600160028111156117d3576117d2612154565b5b6004600083815260200190815260200160002060000160149054906101000a900460ff16600281111561180957611808612154565b5b14611849576040517f08c379a000000000000000000000000000000000000000000000000000000000815260040161184090612744565b60405180910390fd5b6000600460008381526020019081526020016000206002015460046000848152602001908152602001600020600301541015611b11576000905060006004600084815260200190815260200160002060000160146101000a81548160ff021916908360028111156118bd576118bc612154565b5b02179055506004600083815260200190815260200160002060040160009054906101000a900473ffffffffffffffffffffffffffffffffffffffff1673ffffffffffffffffffffffffffffffffffffffff166323b872dd306004600086815260200190815260200160002060000160009054906101000a900473ffffffffffffffffffffffffffffffffffffffff1660046000878152602001908152602001600020600501546040518463ffffffff1660e01b815260040161198193929190612b49565b600060405180830381600087803b15801561199b57600080fd5b505af11580156119af573d6000803e3d6000fd5b5050505060005b6003600084815260200190815260200160002080549050811015611ac65760006003600085815260200190815260200160002082815481106119fb576119fa6128d6565b5b906000526020600020906002020160000160009054906101000a900473ffffffffffffffffffffffffffffffffffffffff1690506000600360008681526020019081526020016000208381548110611a5657611a556128d6565b5b90600052602060002090600202016001015490508173ffffffffffffffffffffffffffffffffffffffff166108fc829081150290604051600060405180830381858888f19350505050158015611ab0573d6000803e3d6000fd5b5050508080611abe90612905565b9150506119b6565b506000600660003373ffffffffffffffffffffffffffffffffffffffff1673ffffffffffffffffffffffffffffffffffffffff16815260200190815260200160002081905550611c05565b6001905060026004600084815260200190815260200160002060000160146101000a81548160ff02191690836002811115611b4f57611b4e612154565b5b02179055506000600260009054906101000a900473ffffffffffffffffffffffffffffffffffffffff1673ffffffffffffffffffffffffffffffffffffffff1663aacc5a176040518163ffffffff1660e01b81526004016020604051808303816000875af1158015611bc5573d6000803e3d6000fd5b505050506040513d601f19601f82011682018060405250810190611be99190612ed2565b9050826007600083815260200190815260200160002081905550505b7f3704bc5c908f802348cdf578bceb2ce84b92f2a38dc1de7179c846b226ef471a8282604051611c36929190612f1a565b60405180910390a15050565b60036020528160005260406000208181548110611c5e57600080fd5b9060005260206000209060020201600091509150508060000160009054906101000a900473ffffffffffffffffffffffffffffffffffffffff16908060010154905082565b611cab611e09565b600073ffffffffffffffffffffffffffffffffffffffff168173ffffffffffffffffffffffffffffffffffffffff1603611d1a576040517f08c379a0000000000000000000000000000000000000000000000000000000008152600401611d1190612fb5565b60405180910390fd5b611d2381611e87565b50565b600080600090506000600190505b600554811015611e015760016002811115611d5257611d51612154565b5b6004600083815260200190815260200160002060000160149054906101000a900460ff166002811115611d8857611d87612154565b5b1480611dda5750600280811115611da257611da1612154565b5b6004600083815260200190815260200160002060000160149054906101000a900460ff166002811115611dd857611dd7612154565b5b145b15611dee578180611dea90612905565b9250505b8080611df990612905565b915050611d34565b508091505090565b611e11611fe0565b73ffffffffffffffffffffffffffffffffffffffff16611e2f61117f565b73ffffffffffffffffffffffffffffffffffffffff1614611e85576040517f08c379a0000000000000000000000000000000000000000000000000000000008152600401611e7c90613021565b60405180910390fd5b565b60008060009054906101000a900473ffffffffffffffffffffffffffffffffffffffff169050816000806101000a81548173ffffffffffffffffffffffffffffffffffffffff021916908373ffffffffffffffffffffffffffffffffffffffff1602179055508173ffffffffffffffffffffffffffffffffffffffff168173ffffffffffffffffffffffffffffffffffffffff167f8be0079c531659141344cd1fd0a4f28419497f9722a3daafe3b4186f6b6457e060405160405180910390a35050565b6000600a5490506000600a81905550600160009054906101000a900473ffffffffffffffffffffffffffffffffffffffff1673ffffffffffffffffffffffffffffffffffffffff1663d0f73a2b826040518263ffffffff1660e01b81526004016000604051808303818588803b158015611fc457600080fd5b505af1158015611fd8573d6000803e3d6000fd5b505050505050565b600033905090565b604051806101000160405280600073ffffffffffffffffffffffffffffffffffffffff1681526020016000600281111561202557612024612154565b5b8152602001600081526020016000815260200160008152602001600073ffffffffffffffffffffffffffffffffffffffff16815260200160008152602001600073ffffffffffffffffffffffffffffffffffffffff1681525090565b6000819050919050565b61209481612081565b82525050565b60006020820190506120af600083018461208b565b92915050565b600080fd5b6120c381612081565b81146120ce57600080fd5b50565b6000813590506120e0816120ba565b92915050565b6000602082840312156120fc576120fb6120b5565b5b600061210a848285016120d1565b91505092915050565b600073ffffffffffffffffffffffffffffffffffffffff82169050919050565b600061213e82612113565b9050919050565b61214e81612133565b82525050565b7f4e487b7100000000000000000000000000000000000000000000000000000000600052602160045260246000fd5b6003811061219457612193612154565b5b50565b60008190506121a582612183565b919050565b60006121b582612197565b9050919050565b6121c5816121aa565b82525050565b6000610100820190506121e1600083018b612145565b6121ee602083018a6121bc565b6121fb604083018961208b565b612208606083018861208b565b612215608083018761208b565b61222260a0830186612145565b61222f60c083018561208b565b61223c60e0830184612145565b9998505050505050505050565b600080604083850312156122605761225f6120b5565b5b600061226e858286016120d1565b925050602061227f858286016120d1565b9150509250929050565b600060208201905061229e6000830184612145565b92915050565b6122ad81612133565b81146122b857600080fd5b50565b6000813590506122ca816122a4565b92915050565b6000602082840312156122e6576122e56120b5565b5b60006122f4848285016122bb565b91505092915050565b6000819050919050565b600061232261231d61231884612113565b6122fd565b612113565b9050919050565b600061233482612307565b9050919050565b600061234682612329565b9050919050565b6123568161233b565b82525050565b6000602082019050612371600083018461234d565b92915050565b600061238282612329565b9050919050565b61239281612377565b82525050565b60006020820190506123ad6000830184612389565b92915050565b600081519050919050565b600082825260208201905092915050565b6000819050602082019050919050565b6123e881612133565b82525050565b6123f7816121aa565b82525050565b61240681612081565b82525050565b6101008201600082015161242360008501826123df565b50602082015161243660208501826123ee565b50604082015161244960408501826123fd565b50606082015161245c60608501826123fd565b50608082015161246f60808501826123fd565b5060a082015161248260a08501826123df565b5060c082015161249560c08501826123fd565b5060e08201516124a860e08501826123df565b50505050565b60006124ba838361240c565b6101008301905092915050565b6000602082019050919050565b60006124df826123b3565b6124e981856123be565b93506124f4836123cf565b8060005b8381101561252557815161250c88826124ae565b9750612517836124c7565b9250506001810190506124f8565b5085935050505092915050565b6000602082019050818103600083015261254c81846124d4565b905092915050565b6000806000806080858703121561256e5761256d6120b5565b5b600061257c878288016122bb565b945050602061258d878288016120d1565b935050604061259e878288016120d1565b92505060606125af878288016120d1565b91505092959194509250565b60006040820190506125d06000830185612145565b6125dd602083018461208b565b9392505050565b7f4e487b7100000000000000000000000000000000000000000000000000000000600052601160045260246000fd5b600061261e82612081565b915061262983612081565b925082820261263781612081565b9150828204841483151761264e5761264d6125e4565b5b5092915050565b600082825260208201905092915050565b7f57726f6e672070726963652c20636865636b20746865207469636b657420707260008201527f6963650000000000000000000000000000000000000000000000000000000000602082015250565b60006126c2602383612655565b91506126cd82612666565b604082019050919050565b600060208201905081810360008301526126f1816126b5565b9050919050565b7f54686520726166666c65206861736e2774206576656e20737461727465642100600082015250565b600061272e601f83612655565b9150612739826126f8565b602082019050919050565b6000602082019050818103600083015261275d81612721565b9050919050565b600061276f82612081565b915061277a83612081565b9250828201905080821115612792576127916125e4565b5b92915050565b7f54686520726166666c652069732066756c6c0000000000000000000000000000600082015250565b60006127ce601283612655565b91506127d982612798565b602082019050919050565b600060208201905081810360008301526127fd816127c1565b9050919050565b6000606082019050612819600083018661208b565b6128266020830185612145565b612833604083018461208b565b949350505050565b7f526166666c65206e6f7420636c6f736564207965742100000000000000000000600082015250565b6000612871601683612655565b915061287c8261283b565b602082019050919050565b600060208201905081810360008301526128a081612864565b9050919050565b7f4e487b7100000000000000000000000000000000000000000000000000000000600052604160045260246000fd5b7f4e487b7100000000000000000000000000000000000000000000000000000000600052603260045260246000fd5b600061291082612081565b91507fffffffffffffffffffffffffffffffffffffffffffffffffffffffffffffffff8203612942576129416125e4565b5b600182019050919050565b7f41206e657720726166666c6520686173206265656e20737461727465642c206a60008201527f7573742077616974206120626974000000000000000000000000000000000000602082015250565b60006129a9602e83612655565b91506129b48261294d565b604082019050919050565b600060208201905081810360008301526129d88161299c565b9050919050565b7f5469636b65742070726963652063616e27742062652030000000000000000000600082015250565b6000612a15601783612655565b9150612a20826129df565b602082019050919050565b60006020820190508181036000830152612a4481612a08565b9050919050565b7f5469636b657420616d6f756e742063616e277420626520300000000000000000600082015250565b6000612a81601883612655565b9150612a8c82612a4b565b602082019050919050565b60006020820190508181036000830152612ab081612a74565b9050919050565b7f596f7520616c72656164792068617665206120726166666c652072756e6e696e60008201527f6700000000000000000000000000000000000000000000000000000000000000602082015250565b6000612b13602183612655565b9150612b1e82612ab7565b604082019050919050565b60006020820190508181036000830152612b4281612b06565b9050919050565b6000606082019050612b5e6000830186612145565b612b6b6020830185612145565b612b78604083018461208b565b949350505050565b600060a082019050612b95600083018861208b565b612ba26020830187612145565b612baf604083018661208b565b612bbc606083018561208b565b612bc9608083018461208b565b9695505050505050565b7f4f6e6c79207468652052616e646f6d4e756d626572436f6e73756d657220636f60008201527f6e74726163742063616e2063616c6c20746869732066756e6374696f6e000000602082015250565b6000612c2f603d83612655565b9150612c3a82612bd3565b604082019050919050565b60006020820190508181036000830152612c5e81612c22565b9050919050565b7f596f75206172656e277420617420746861742073746167652079657421000000600082015250565b6000612c9b601d83612655565b9150612ca682612c65565b602082019050919050565b60006020820190508181036000830152612cca81612c8e565b9050919050565b7f72616e646f6d2d6e6f742d666f756e6400000000000000000000000000000000600082015250565b6000612d07601083612655565b9150612d1282612cd1565b602082019050919050565b60006020820190508181036000830152612d3681612cfa565b9050919050565b7f4e487b7100000000000000000000000000000000000000000000000000000000600052601260045260246000fd5b6000612d7782612081565b9150612d8283612081565b925082612d9257612d91612d3d565b5b828206905092915050565b6000612da882612081565b9150612db383612081565b925082612dc357612dc2612d3d565b5b828204905092915050565b6000612dd982612081565b9150612de483612081565b9250828203905081811115612dfc57612dfb6125e4565b5b92915050565b6000604082019050612e17600083018561208b565b612e246020830184612145565b9392505050565b7f596f7520617265206e6f7420746865206f776e6572206f66207468697320726160008201527f66666c6500000000000000000000000000000000000000000000000000000000602082015250565b6000612e87602483612655565b9150612e9282612e2b565b604082019050919050565b60006020820190508181036000830152612eb681612e7a565b9050919050565b600081519050612ecc816120ba565b92915050565b600060208284031215612ee857612ee76120b5565b5b6000612ef684828501612ebd565b91505092915050565b60008115159050919050565b612f1481612eff565b82525050565b6000604082019050612f2f600083018561208b565b612f3c6020830184612f0b565b9392505050565b7f4f776e61626c653a206e6577206f776e657220697320746865207a65726f206160008201527f6464726573730000000000000000000000000000000000000000000000000000602082015250565b6000612f9f602683612655565b9150612faa82612f43565b604082019050919050565b60006020820190508181036000830152612fce81612f92565b9050919050565b7f4f776e61626c653a2063616c6c6572206973206e6f7420746865206f776e6572600082015250565b600061300b602083612655565b915061301682612fd5565b602082019050919050565b6000602082019050818103600083015261303a81612ffe565b905091905056fea26469706673582212202ac8af95241ec6093f3b1026fa35cf2bf46065ab801aa28c35ebb553e132097864736f6c63430008110033",
  "linkReferences": {},
  "deployedLinkReferences": {}
}