{
  "_format": "hh-sol-artifact-1",
  "contractName": "Raffle",
  "sourceName": "contracts/Raffle.sol",
  "abi": [
    {
      "inputs": [
        {
          "internalType": "address",
          "name": "random_address",
          "type": "address"
        },
        {
          "internalType": "address",
          "name": "_funds_manager_address",
          "type": "address"
        }
      ],
      "stateMutability": "nonpayable",
      "type": "constructor"
    },
    {
      "anonymous": false,
      "inputs": [
        {
          "indexed": true,
          "internalType": "address",
          "name": "previousOwner",
          "type": "address"
        },
        {
          "indexed": true,
          "internalType": "address",
          "name": "newOwner",
          "type": "address"
        }
      ],
      "name": "OwnershipTransferred",
      "type": "event"
    },
    {
      "anonymous": false,
      "inputs": [
        {
          "indexed": false,
          "internalType": "uint256",
          "name": "raffleId",
          "type": "uint256"
        },
        {
          "indexed": false,
          "internalType": "bool",
          "name": "tickets_fully_sold",
          "type": "bool"
        }
      ],
      "name": "RaffleEnded",
      "type": "event"
    },
    {
      "anonymous": false,
      "inputs": [
        {
          "indexed": false,
          "internalType": "uint256",
          "name": "raffleId",
          "type": "uint256"
        },
        {
          "indexed": false,
          "internalType": "address",
          "name": "player",
          "type": "address"
        },
        {
          "indexed": false,
          "internalType": "uint256",
          "name": "ticket_amount",
          "type": "uint256"
        }
      ],
      "name": "RaffleEntered",
      "type": "event"
    },
    {
      "anonymous": false,
      "inputs": [
        {
          "indexed": false,
          "internalType": "uint256",
          "name": "raffleId",
          "type": "uint256"
        },
        {
          "indexed": false,
          "internalType": "address",
          "name": "NFTcontract",
          "type": "address"
        },
        {
          "indexed": false,
          "internalType": "uint256",
          "name": "NFTid",
          "type": "uint256"
        },
        {
          "indexed": false,
          "internalType": "uint256",
          "name": "ticket_amount",
          "type": "uint256"
        },
        {
          "indexed": false,
          "internalType": "uint256",
          "name": "ticket_price",
          "type": "uint256"
        }
      ],
      "name": "RaffleStarted",
      "type": "event"
    },
    {
      "anonymous": false,
      "inputs": [
        {
          "indexed": false,
          "internalType": "uint256",
          "name": "raffleId",
          "type": "uint256"
        },
        {
          "indexed": false,
          "internalType": "address",
          "name": "winner",
          "type": "address"
        }
      ],
      "name": "RaffleWinner",
      "type": "event"
    },
    {
      "inputs": [
        {
          "internalType": "uint256",
          "name": "_raffleId",
          "type": "uint256"
        }
      ],
      "name": "end_raffle",
      "outputs": [],
      "stateMutability": "nonpayable",
      "type": "function"
    },
    {
      "inputs": [
        {
          "internalType": "uint256",
          "name": "_raffleId",
          "type": "uint256"
        },
        {
          "internalType": "uint256",
          "name": "_ticket_amount",
          "type": "uint256"
        }
      ],
      "name": "enter",
      "outputs": [],
      "stateMutability": "payable",
      "type": "function"
    },
    {
      "inputs": [],
      "name": "fee_balance",
      "outputs": [
        {
          "internalType": "uint256",
          "name": "",
          "type": "uint256"
        }
      ],
      "stateMutability": "view",
      "type": "function"
    },
    {
      "inputs": [],
      "name": "funds_manager",
      "outputs": [
        {
          "internalType": "contract FundsManager",
          "name": "",
          "type": "address"
        }
      ],
      "stateMutability": "view",
      "type": "function"
    },
    {
      "inputs": [],
      "name": "get_current_raffles",
      "outputs": [
        {
          "components": [
            {
              "internalType": "address",
              "name": "owner",
              "type": "address"
            },
            {
              "internalType": "enum Raffle.RAFFLE_STATE",
              "name": "raffle_state",
              "type": "uint8"
            },
            {
              "internalType": "uint256",
              "name": "ticket_price",
              "type": "uint256"
            },
            {
              "internalType": "uint256",
              "name": "ticket_amount",
              "type": "uint256"
            },
            {
              "internalType": "uint256",
              "name": "ticket_sold",
              "type": "uint256"
            },
            {
              "internalType": "address",
              "name": "NFTcontract",
              "type": "address"
            },
            {
              "internalType": "uint256",
              "name": "NFTid",
              "type": "uint256"
            },
            {
              "internalType": "address",
              "name": "winner",
              "type": "address"
            }
          ],
          "internalType": "struct Raffle.raffle[]",
          "name": "",
          "type": "tuple[]"
        }
      ],
      "stateMutability": "view",
      "type": "function"
    },
    {
      "inputs": [],
      "name": "get_past_raffles",
      "outputs": [
        {
          "components": [
            {
              "internalType": "address",
              "name": "owner",
              "type": "address"
            },
            {
              "internalType": "enum Raffle.RAFFLE_STATE",
              "name": "raffle_state",
              "type": "uint8"
            },
            {
              "internalType": "uint256",
              "name": "ticket_price",
              "type": "uint256"
            },
            {
              "internalType": "uint256",
              "name": "ticket_amount",
              "type": "uint256"
            },
            {
              "internalType": "uint256",
              "name": "ticket_sold",
              "type": "uint256"
            },
            {
              "internalType": "address",
              "name": "NFTcontract",
              "type": "address"
            },
            {
              "internalType": "uint256",
              "name": "NFTid",
              "type": "uint256"
            },
            {
              "internalType": "address",
              "name": "winner",
              "type": "address"
            }
          ],
          "internalType": "struct Raffle.raffle[]",
          "name": "",
          "type": "tuple[]"
        }
      ],
      "stateMutability": "view",
      "type": "function"
    },
    {
      "inputs": [
        {
          "internalType": "uint256",
          "name": "_raffleId",
          "type": "uint256"
        }
      ],
      "name": "get_pot",
      "outputs": [
        {
          "internalType": "uint256",
          "name": "",
          "type": "uint256"
        }
      ],
      "stateMutability": "view",
      "type": "function"
    },
    {
      "inputs": [
        {
          "internalType": "uint256",
          "name": "_raffleId",
          "type": "uint256"
        }
      ],
      "name": "get_winner",
      "outputs": [
        {
          "internalType": "address",
          "name": "",
          "type": "address"
        }
      ],
      "stateMutability": "view",
      "type": "function"
    },
    {
      "inputs": [
        {
          "internalType": "uint256",
          "name": "",
          "type": "uint256"
        }
      ],
      "name": "lotteries",
      "outputs": [
        {
          "internalType": "address",
          "name": "owner",
          "type": "address"
        },
        {
          "internalType": "enum Raffle.RAFFLE_STATE",
          "name": "raffle_state",
          "type": "uint8"
        },
        {
          "internalType": "uint256",
          "name": "ticket_price",
          "type": "uint256"
        },
        {
          "internalType": "uint256",
          "name": "ticket_amount",
          "type": "uint256"
        },
        {
          "internalType": "uint256",
          "name": "ticket_sold",
          "type": "uint256"
        },
        {
          "internalType": "address",
          "name": "NFTcontract",
          "type": "address"
        },
        {
          "internalType": "uint256",
          "name": "NFTid",
          "type": "uint256"
        },
        {
          "internalType": "address",
          "name": "winner",
          "type": "address"
        }
      ],
      "stateMutability": "view",
      "type": "function"
    },
    {
      "inputs": [],
      "name": "min_fee_balance",
      "outputs": [
        {
          "internalType": "uint256",
          "name": "",
          "type": "uint256"
        }
      ],
      "stateMutability": "view",
      "type": "function"
    },
    {
      "inputs": [],
      "name": "owner",
      "outputs": [
        {
          "internalType": "address",
          "name": "",
          "type": "address"
        }
      ],
      "stateMutability": "view",
      "type": "function"
    },
    {
      "inputs": [
        {
          "internalType": "address",
          "name": "",
          "type": "address"
        }
      ],
      "name": "ownerRaffleId",
      "outputs": [
        {
          "internalType": "uint256",
          "name": "",
          "type": "uint256"
        }
      ],
      "stateMutability": "view",
      "type": "function"
    },
    {
      "inputs": [],
      "name": "raffleId",
      "outputs": [
        {
          "internalType": "uint256",
          "name": "",
          "type": "uint256"
        }
      ],
      "stateMutability": "view",
      "type": "function"
    },
    {
      "inputs": [
        {
          "internalType": "uint256",
          "name": "",
          "type": "uint256"
        },
        {
          "internalType": "uint256",
          "name": "",
          "type": "uint256"
        }
      ],
      "name": "raffleId_to_playerInfo",
      "outputs": [
        {
          "internalType": "address",
          "name": "player",
          "type": "address"
        },
        {
          "internalType": "uint256",
          "name": "amount_paid",
          "type": "uint256"
        }
      ],
      "stateMutability": "view",
      "type": "function"
    },
    {
      "inputs": [
        {
          "internalType": "uint256",
          "name": "requestId",
          "type": "uint256"
        },
        {
          "internalType": "uint256",
          "name": "random",
          "type": "uint256"
        }
      ],
      "name": "raffle_result",
      "outputs": [],
      "stateMutability": "nonpayable",
      "type": "function"
    },
    {
      "inputs": [],
      "name": "random_contract",
      "outputs": [
        {
          "internalType": "contract RandomNumberConsumer",
          "name": "",
          "type": "address"
        }
      ],
      "stateMutability": "view",
      "type": "function"
    },
    {
      "inputs": [],
      "name": "renounceOwnership",
      "outputs": [],
      "stateMutability": "nonpayable",
      "type": "function"
    },
    {
      "inputs": [
        {
          "internalType": "uint256",
          "name": "",
          "type": "uint256"
        }
      ],
      "name": "requestId_to_raffleId",
      "outputs": [
        {
          "internalType": "uint256",
          "name": "",
          "type": "uint256"
        }
      ],
      "stateMutability": "view",
      "type": "function"
    },
    {
      "inputs": [
        {
          "internalType": "uint256",
          "name": "_min_fee_balance",
          "type": "uint256"
        }
      ],
      "name": "setMinFeeBalance",
      "outputs": [],
      "stateMutability": "nonpayable",
      "type": "function"
    },
    {
      "inputs": [
        {
          "internalType": "address",
          "name": "_NFTcontract",
          "type": "address"
        },
        {
          "internalType": "uint256",
          "name": "_NFTid",
          "type": "uint256"
        },
        {
          "internalType": "uint256",
          "name": "_ticket_price",
          "type": "uint256"
        },
        {
          "internalType": "uint256",
          "name": "_ticket_amount",
          "type": "uint256"
        }
      ],
      "name": "start_new_raffle",
      "outputs": [],
      "stateMutability": "nonpayable",
      "type": "function"
    },
    {
      "inputs": [
        {
          "internalType": "address",
          "name": "newOwner",
          "type": "address"
        }
      ],
      "name": "transferOwnership",
      "outputs": [],
      "stateMutability": "nonpayable",
      "type": "function"
    },
    {
      "inputs": [],
      "name": "winning_fee",
      "outputs": [
        {
          "internalType": "uint256",
          "name": "",
          "type": "uint256"
        }
      ],
      "stateMutability": "view",
      "type": "function"
    },
    {
      "inputs": [],
      "name": "winning_fee_divisor",
      "outputs": [
        {
          "internalType": "uint256",
          "name": "",
          "type": "uint256"
        }
      ],
      "stateMutability": "view",
      "type": "function"
    }
  ],
  "bytecode": "0x60806040526002600855606460095566470de4df820000600b556001600c60006101000a81548160ff0219169083151502179055503480156200004157600080fd5b50604051620036063803806200360683398181016040528101906200006791906200024f565b620000876200007b6200011960201b60201c565b6200012160201b60201c565b81600260006101000a81548173ffffffffffffffffffffffffffffffffffffffff021916908373ffffffffffffffffffffffffffffffffffffffff16021790555080600160006101000a81548173ffffffffffffffffffffffffffffffffffffffff021916908373ffffffffffffffffffffffffffffffffffffffff1602179055506001600581905550505062000296565b600033905090565b60008060009054906101000a900473ffffffffffffffffffffffffffffffffffffffff169050816000806101000a81548173ffffffffffffffffffffffffffffffffffffffff021916908373ffffffffffffffffffffffffffffffffffffffff1602179055508173ffffffffffffffffffffffffffffffffffffffff168173ffffffffffffffffffffffffffffffffffffffff167f8be0079c531659141344cd1fd0a4f28419497f9722a3daafe3b4186f6b6457e060405160405180910390a35050565b600080fd5b600073ffffffffffffffffffffffffffffffffffffffff82169050919050565b60006200021782620001ea565b9050919050565b62000229816200020a565b81146200023557600080fd5b50565b60008151905062000249816200021e565b92915050565b60008060408385031215620002695762000268620001e5565b5b6000620002798582860162000238565b92505060206200028c8582860162000238565b9150509250929050565b61336080620002a66000396000f3fe6080604052600436106101405760003560e01c80636644b44b116100b6578063b375603c1161006f578063b375603c1461045c578063bef10fb914610487578063cfd4595b146104b0578063e065e551146104d9578063e39cdfe414610502578063f2fde38b1461054057610140565b80636644b44b1461035e5780636681042014610389578063689643ea146103c6578063715018a6146103f157806383426738146104085780638da5cb5b1461043157610140565b806323972aef1161010857806323972aef14610247578063243dc4091461026357806326cffc69146102a057806336b3c80f146102dd57806337b45fa8146103085780635ff7348b1461033357610140565b8063021a12d4146101455780630321d94f1461017057806311e6a59b146101ad5780631398e076146101d85780631769f0491461021c575b600080fd5b34801561015157600080fd5b5061015a610569565b6040516101679190612383565b60405180910390f35b34801561017c57600080fd5b50610197600480360381019061019291906123cf565b61056f565b6040516101a49190612383565b60405180910390f35b3480156101b957600080fd5b506101c2610587565b6040516101cf9190612383565b60405180910390f35b3480156101e457600080fd5b506101ff60048036038101906101fa91906123cf565b61058d565b6040516102139897969594939291906124b4565b60405180910390f35b34801561022857600080fd5b50610231610642565b60405161023e9190612383565b60405180910390f35b610261600480360381019061025c9190612532565b610648565b005b34801561026f57600080fd5b5061028a600480360381019061028591906123cf565b6108f6565b6040516102979190612572565b60405180910390f35b3480156102ac57600080fd5b506102c760048036038101906102c291906125b9565b6109bf565b6040516102d49190612383565b60405180910390f35b3480156102e957600080fd5b506102f26109d7565b6040516102ff9190612383565b60405180910390f35b34801561031457600080fd5b5061031d6109dd565b60405161032a9190612645565b60405180910390f35b34801561033f57600080fd5b50610348610a03565b6040516103559190612681565b60405180910390f35b34801561036a57600080fd5b50610373610a29565b604051610380919061281b565b60405180910390f35b34801561039557600080fd5b506103b060048036038101906103ab91906123cf565b610cb8565b6040516103bd9190612383565b60405180910390f35b3480156103d257600080fd5b506103db610cf9565b6040516103e8919061281b565b60405180910390f35b3480156103fd57600080fd5b50610406610fda565b005b34801561041457600080fd5b5061042f600480360381019061042a919061283d565b610fee565b005b34801561043d57600080fd5b506104466113d7565b6040516104539190612572565b60405180910390f35b34801561046857600080fd5b50610471611400565b60405161047e9190612383565b60405180910390f35b34801561049357600080fd5b506104ae60048036038101906104a99190612532565b611406565b005b3480156104bc57600080fd5b506104d760048036038101906104d291906123cf565b611961565b005b3480156104e557600080fd5b5061050060048036038101906104fb91906123cf565b611973565b005b34801561050e57600080fd5b5061052960048036038101906105249190612532565b611e9a565b6040516105379291906128a4565b60405180910390f35b34801561054c57600080fd5b50610567600480360381019061056291906125b9565b611efb565b005b60095481565b60076020528060005260406000206000915090505481565b600b5481565b60046020528060005260406000206000915090508060000160009054906101000a900473ffffffffffffffffffffffffffffffffffffffff16908060000160149054906101000a900460ff16908060010154908060020154908060030154908060040160009054906101000a900473ffffffffffffffffffffffffffffffffffffffff16908060050154908060060160009054906101000a900473ffffffffffffffffffffffffffffffffffffffff16905088565b600a5481565b60046000838152602001908152602001600020600101548161066a91906128fc565b34146106ab576040517f08c379a00000000000000000000000000000000000000000000000000000000081526004016106a2906129c1565b60405180910390fd5b600160028111156106bf576106be61243d565b5b6004600084815260200190815260200160002060000160149054906101000a900460ff1660028111156106f5576106f461243d565b5b14610735576040517f08c379a000000000000000000000000000000000000000000000000000000000815260040161072c90612a2d565b60405180910390fd5b600460008381526020019081526020016000206002015481600460008581526020019081526020016000206003015461076e9190612a4d565b11156107af576040517f08c379a00000000000000000000000000000000000000000000000000000000081526004016107a690612acd565b60405180910390fd5b6003600083815260200190815260200160002060405180604001604052803373ffffffffffffffffffffffffffffffffffffffff16815260200160046000868152602001908152602001600020600101548461080b91906128fc565b815250908060018154018082558091505060019003906000526020600020906002020160009091909190915060008201518160000160006101000a81548173ffffffffffffffffffffffffffffffffffffffff021916908373ffffffffffffffffffffffffffffffffffffffff160217905550602082015181600101555050806004600084815260200190815260200160002060030160008282546108b09190612a4d565b925050819055507f31ed7968c068023ef5cbf0834bb1d883bedc82dc6e9e44065bc1919184dded358233836040516108ea93929190612aed565b60405180910390a15050565b600080600281111561090b5761090a61243d565b5b6004600084815260200190815260200160002060000160149054906101000a900460ff1660028111156109415761094061243d565b5b14610981576040517f08c379a000000000000000000000000000000000000000000000000000000000815260040161097890612b70565b60405180910390fd5b6004600083815260200190815260200160002060060160009054906101000a900473ffffffffffffffffffffffffffffffffffffffff169050919050565b60066020528060005260406000206000915090505481565b60085481565b600260009054906101000a900473ffffffffffffffffffffffffffffffffffffffff1681565b600160009054906101000a900473ffffffffffffffffffffffffffffffffffffffff1681565b60606000610a35611f7e565b67ffffffffffffffff811115610a4e57610a4d612b90565b5b604051908082528060200260200182016040528015610a8757816020015b610a746122d1565b815260200190600190039081610a6c5790505b509050600080600190505b600554811015610caf5760006002811115610ab057610aaf61243d565b5b6004600083815260200190815260200160002060000160149054906101000a900460ff166002811115610ae657610ae561243d565b5b03610c9c5760046000828152602001908152602001600020604051806101000160405290816000820160009054906101000a900473ffffffffffffffffffffffffffffffffffffffff1673ffffffffffffffffffffffffffffffffffffffff1673ffffffffffffffffffffffffffffffffffffffff1681526020016000820160149054906101000a900460ff166002811115610b8557610b8461243d565b5b6002811115610b9757610b9661243d565b5b81526020016001820154815260200160028201548152602001600382015481526020016004820160009054906101000a900473ffffffffffffffffffffffffffffffffffffffff1673ffffffffffffffffffffffffffffffffffffffff1673ffffffffffffffffffffffffffffffffffffffff168152602001600582015481526020016006820160009054906101000a900473ffffffffffffffffffffffffffffffffffffffff1673ffffffffffffffffffffffffffffffffffffffff1673ffffffffffffffffffffffffffffffffffffffff1681525050838381518110610c8257610c81612bbf565b5b60200260200101819052508180610c9890612bee565b9250505b8080610ca790612bee565b915050610a92565b50819250505090565b600060046000838152602001908152602001600020600201546004600084815260200190815260200160002060010154610cf291906128fc565b9050919050565b60606000610d0561200f565b67ffffffffffffffff811115610d1e57610d1d612b90565b5b604051908082528060200260200182016040528015610d5757816020015b610d446122d1565b815260200190600190039081610d3c5790505b509050600080600190505b600554811015610fd15760016002811115610d8057610d7f61243d565b5b6004600083815260200190815260200160002060000160149054906101000a900460ff166002811115610db657610db561243d565b5b1480610e085750600280811115610dd057610dcf61243d565b5b6004600083815260200190815260200160002060000160149054906101000a900460ff166002811115610e0657610e0561243d565b5b145b15610fbe5760046000828152602001908152602001600020604051806101000160405290816000820160009054906101000a900473ffffffffffffffffffffffffffffffffffffffff1673ffffffffffffffffffffffffffffffffffffffff1673ffffffffffffffffffffffffffffffffffffffff1681526020016000820160149054906101000a900460ff166002811115610ea757610ea661243d565b5b6002811115610eb957610eb861243d565b5b81526020016001820154815260200160028201548152602001600382015481526020016004820160009054906101000a900473ffffffffffffffffffffffffffffffffffffffff1673ffffffffffffffffffffffffffffffffffffffff1673ffffffffffffffffffffffffffffffffffffffff168152602001600582015481526020016006820160009054906101000a900473ffffffffffffffffffffffffffffffffffffffff1673ffffffffffffffffffffffffffffffffffffffff1673ffffffffffffffffffffffffffffffffffffffff1681525050838381518110610fa457610fa3612bbf565b5b60200260200101819052508180610fba90612bee565b9250505b8080610fc990612bee565b915050610d62565b50819250505090565b610fe26120f2565b610fec6000612170565b565b600c60009054906101000a900460ff1661103d576040517f08c379a000000000000000000000000000000000000000000000000000000000815260040161103490612ca8565b60405180910390fd5b6000600c60006101000a81548160ff0219169083151502179055506000821161109b576040517f08c379a000000000000000000000000000000000000000000000000000000000815260040161109290612d14565b60405180910390fd5b600081116110de576040517f08c379a00000000000000000000000000000000000000000000000000000000081526004016110d590612d80565b60405180910390fd5b6000600660003373ffffffffffffffffffffffffffffffffffffffff1673ffffffffffffffffffffffffffffffffffffffff1681526020019081526020016000205414611160576040517f08c379a000000000000000000000000000000000000000000000000000000000815260040161115790612e12565b60405180910390fd5b8373ffffffffffffffffffffffffffffffffffffffff166323b872dd3330866040518463ffffffff1660e01b815260040161119d93929190612e32565b600060405180830381600087803b1580156111b757600080fd5b505af11580156111cb573d6000803e3d6000fd5b50505050600554600660003373ffffffffffffffffffffffffffffffffffffffff1673ffffffffffffffffffffffffffffffffffffffff168152602001908152602001600020819055503360046000600554815260200190815260200160002060000160006101000a81548173ffffffffffffffffffffffffffffffffffffffff021916908373ffffffffffffffffffffffffffffffffffffffff1602179055508160046000600554815260200190815260200160002060010181905550600160046000600554815260200190815260200160002060000160146101000a81548160ff021916908360028111156112c5576112c461243d565b5b021790555080600460006005548152602001908152602001600020600201819055508360046000600554815260200190815260200160002060040160006101000a81548173ffffffffffffffffffffffffffffffffffffffff021916908373ffffffffffffffffffffffffffffffffffffffff160217905550826004600060055481526020019081526020016000206005018190555060016005600082825461136e9190612a4d565b925050819055507facd971b386cde69f342a40f49f63ae09d70ccb8975fc1258f220ae43eed8e442600554858584866040516113ae959493929190612e69565b60405180910390a16001600c60006101000a81548160ff02191690831515021790555050505050565b60008060009054906101000a900473ffffffffffffffffffffffffffffffffffffffff16905090565b60055481565b600060076000848152602001908152602001600020549050600260009054906101000a900473ffffffffffffffffffffffffffffffffffffffff1673ffffffffffffffffffffffffffffffffffffffff163373ffffffffffffffffffffffffffffffffffffffff16146114ae576040517f08c379a00000000000000000000000000000000000000000000000000000000081526004016114a590612f2e565b60405180910390fd5b6002808111156114c1576114c061243d565b5b6004600083815260200190815260200160002060000160149054906101000a900460ff1660028111156114f7576114f661243d565b5b14611537576040517f08c379a000000000000000000000000000000000000000000000000000000000815260040161152e90612f9a565b60405180910390fd5b6000821161157a576040517f08c379a000000000000000000000000000000000000000000000000000000000815260040161157190613006565b60405180910390fd5b60006004600083815260200190815260200160002060000160146101000a81548160ff021916908360028111156115b4576115b361243d565b5b02179055506000600660006004600085815260200190815260200160002060000160009054906101000a900473ffffffffffffffffffffffffffffffffffffffff1673ffffffffffffffffffffffffffffffffffffffff1673ffffffffffffffffffffffffffffffffffffffff1681526020019081526020016000208190555060006003600083815260200190815260200160002080549050836116589190613055565b9050600060036000848152602001908152602001600020828154811061168157611680612bbf565b5b906000526020600020906002020160000160009054906101000a900473ffffffffffffffffffffffffffffffffffffffff1690506004600084815260200190815260200160002060040160009054906101000a900473ffffffffffffffffffffffffffffffffffffffff1673ffffffffffffffffffffffffffffffffffffffff166323b872dd308360046000888152602001908152602001600020600501546040518463ffffffff1660e01b815260040161173e93929190612e32565b600060405180830381600087803b15801561175857600080fd5b505af115801561176c573d6000803e3d6000fd5b505050506000600460008581526020019081526020016000206002015460046000868152602001908152602001600020600101546117aa91906128fc565b90506000600954600854836117bf91906128fc565b6117c99190613086565b9050600081836117d991906130b7565b905081600a60008282546117ed9190612a4d565b92505081905550600b54600a54111561180957611808612234565b5b6004600087815260200190815260200160002060000160009054906101000a900473ffffffffffffffffffffffffffffffffffffffff1673ffffffffffffffffffffffffffffffffffffffff166108fc829081150290604051600060405180830381858888f19350505050158015611885573d6000803e3d6000fd5b506000600660003373ffffffffffffffffffffffffffffffffffffffff1673ffffffffffffffffffffffffffffffffffffffff1681526020019081526020016000205050836004600088815260200190815260200160002060060160006101000a81548173ffffffffffffffffffffffffffffffffffffffff021916908373ffffffffffffffffffffffffffffffffffffffff1602179055507fb4d601e7092e672cbffcd1512cc6592c35b9947e1ebfeea7647231887a522447868560405161194f9291906130eb565b60405180910390a15050505050505050565b6119696120f2565b80600b8190555050565b6004600082815260200190815260200160002060000160009054906101000a900473ffffffffffffffffffffffffffffffffffffffff1673ffffffffffffffffffffffffffffffffffffffff163373ffffffffffffffffffffffffffffffffffffffff1614611a17576040517f08c379a0000000000000000000000000000000000000000000000000000000008152600401611a0e90613186565b60405180910390fd5b60016002811115611a2b57611a2a61243d565b5b6004600083815260200190815260200160002060000160149054906101000a900460ff166002811115611a6157611a6061243d565b5b14611aa1576040517f08c379a0000000000000000000000000000000000000000000000000000000008152600401611a9890612a2d565b60405180910390fd5b6000600460008381526020019081526020016000206002015460046000848152602001908152602001600020600301541015611d69576000905060006004600084815260200190815260200160002060000160146101000a81548160ff02191690836002811115611b1557611b1461243d565b5b02179055506004600083815260200190815260200160002060040160009054906101000a900473ffffffffffffffffffffffffffffffffffffffff1673ffffffffffffffffffffffffffffffffffffffff166323b872dd306004600086815260200190815260200160002060000160009054906101000a900473ffffffffffffffffffffffffffffffffffffffff1660046000878152602001908152602001600020600501546040518463ffffffff1660e01b8152600401611bd993929190612e32565b600060405180830381600087803b158015611bf357600080fd5b505af1158015611c07573d6000803e3d6000fd5b5050505060005b6003600084815260200190815260200160002080549050811015611d1e576000600360008581526020019081526020016000208281548110611c5357611c52612bbf565b5b906000526020600020906002020160000160009054906101000a900473ffffffffffffffffffffffffffffffffffffffff1690506000600360008681526020019081526020016000208381548110611cae57611cad612bbf565b5b90600052602060002090600202016001015490508173ffffffffffffffffffffffffffffffffffffffff166108fc829081150290604051600060405180830381858888f19350505050158015611d08573d6000803e3d6000fd5b5050508080611d1690612bee565b915050611c0e565b506000600660003373ffffffffffffffffffffffffffffffffffffffff1673ffffffffffffffffffffffffffffffffffffffff16815260200190815260200160002081905550611e5d565b6001905060026004600084815260200190815260200160002060000160146101000a81548160ff02191690836002811115611da757611da661243d565b5b02179055506000600260009054906101000a900473ffffffffffffffffffffffffffffffffffffffff1673ffffffffffffffffffffffffffffffffffffffff1663aacc5a176040518163ffffffff1660e01b81526004016020604051808303816000875af1158015611e1d573d6000803e3d6000fd5b505050506040513d601f19601f82011682018060405250810190611e4191906131bb565b9050826007600083815260200190815260200160002081905550505b7f3704bc5c908f802348cdf578bceb2ce84b92f2a38dc1de7179c846b226ef471a8282604051611e8e929190613203565b60405180910390a15050565b60036020528160005260406000208181548110611eb657600080fd5b9060005260206000209060020201600091509150508060000160009054906101000a900473ffffffffffffffffffffffffffffffffffffffff16908060010154905082565b611f036120f2565b600073ffffffffffffffffffffffffffffffffffffffff168173ffffffffffffffffffffffffffffffffffffffff1603611f72576040517f08c379a0000000000000000000000000000000000000000000000000000000008152600401611f699061329e565b60405180910390fd5b611f7b81612170565b50565b600080600090506000600190505b6005548110156120075760006002811115611faa57611fa961243d565b5b6004600083815260200190815260200160002060000160149054906101000a900460ff166002811115611fe057611fdf61243d565b5b03611ff4578180611ff090612bee565b9250505b8080611fff90612bee565b915050611f8c565b508091505090565b600080600090506000600190505b6005548110156120ea576001600281111561203b5761203a61243d565b5b6004600083815260200190815260200160002060000160149054906101000a900460ff1660028111156120715761207061243d565b5b14806120c3575060028081111561208b5761208a61243d565b5b6004600083815260200190815260200160002060000160149054906101000a900460ff1660028111156120c1576120c061243d565b5b145b156120d75781806120d390612bee565b9250505b80806120e290612bee565b91505061201d565b508091505090565b6120fa6122c9565b73ffffffffffffffffffffffffffffffffffffffff166121186113d7565b73ffffffffffffffffffffffffffffffffffffffff161461216e576040517f08c379a00000000000000000000000000000000000000000000000000000000081526004016121659061330a565b60405180910390fd5b565b60008060009054906101000a900473ffffffffffffffffffffffffffffffffffffffff169050816000806101000a81548173ffffffffffffffffffffffffffffffffffffffff021916908373ffffffffffffffffffffffffffffffffffffffff1602179055508173ffffffffffffffffffffffffffffffffffffffff168173ffffffffffffffffffffffffffffffffffffffff167f8be0079c531659141344cd1fd0a4f28419497f9722a3daafe3b4186f6b6457e060405160405180910390a35050565b6000600a5490506000600a81905550600160009054906101000a900473ffffffffffffffffffffffffffffffffffffffff1673ffffffffffffffffffffffffffffffffffffffff1663d0f73a2b826040518263ffffffff1660e01b81526004016000604051808303818588803b1580156122ad57600080fd5b505af11580156122c1573d6000803e3d6000fd5b505050505050565b600033905090565b604051806101000160405280600073ffffffffffffffffffffffffffffffffffffffff1681526020016000600281111561230e5761230d61243d565b5b8152602001600081526020016000815260200160008152602001600073ffffffffffffffffffffffffffffffffffffffff16815260200160008152602001600073ffffffffffffffffffffffffffffffffffffffff1681525090565b6000819050919050565b61237d8161236a565b82525050565b60006020820190506123986000830184612374565b92915050565b600080fd5b6123ac8161236a565b81146123b757600080fd5b50565b6000813590506123c9816123a3565b92915050565b6000602082840312156123e5576123e461239e565b5b60006123f3848285016123ba565b91505092915050565b600073ffffffffffffffffffffffffffffffffffffffff82169050919050565b6000612427826123fc565b9050919050565b6124378161241c565b82525050565b7f4e487b7100000000000000000000000000000000000000000000000000000000600052602160045260246000fd5b6003811061247d5761247c61243d565b5b50565b600081905061248e8261246c565b919050565b600061249e82612480565b9050919050565b6124ae81612493565b82525050565b6000610100820190506124ca600083018b61242e565b6124d7602083018a6124a5565b6124e46040830189612374565b6124f16060830188612374565b6124fe6080830187612374565b61250b60a083018661242e565b61251860c0830185612374565b61252560e083018461242e565b9998505050505050505050565b600080604083850312156125495761254861239e565b5b6000612557858286016123ba565b9250506020612568858286016123ba565b9150509250929050565b6000602082019050612587600083018461242e565b92915050565b6125968161241c565b81146125a157600080fd5b50565b6000813590506125b38161258d565b92915050565b6000602082840312156125cf576125ce61239e565b5b60006125dd848285016125a4565b91505092915050565b6000819050919050565b600061260b612606612601846123fc565b6125e6565b6123fc565b9050919050565b600061261d826125f0565b9050919050565b600061262f82612612565b9050919050565b61263f81612624565b82525050565b600060208201905061265a6000830184612636565b92915050565b600061266b82612612565b9050919050565b61267b81612660565b82525050565b60006020820190506126966000830184612672565b92915050565b600081519050919050565b600082825260208201905092915050565b6000819050602082019050919050565b6126d18161241c565b82525050565b6126e081612493565b82525050565b6126ef8161236a565b82525050565b6101008201600082015161270c60008501826126c8565b50602082015161271f60208501826126d7565b50604082015161273260408501826126e6565b50606082015161274560608501826126e6565b50608082015161275860808501826126e6565b5060a082015161276b60a08501826126c8565b5060c082015161277e60c08501826126e6565b5060e082015161279160e08501826126c8565b50505050565b60006127a383836126f5565b6101008301905092915050565b6000602082019050919050565b60006127c88261269c565b6127d281856126a7565b93506127dd836126b8565b8060005b8381101561280e5781516127f58882612797565b9750612800836127b0565b9250506001810190506127e1565b5085935050505092915050565b6000602082019050818103600083015261283581846127bd565b905092915050565b600080600080608085870312156128575761285661239e565b5b6000612865878288016125a4565b9450506020612876878288016123ba565b9350506040612887878288016123ba565b9250506060612898878288016123ba565b91505092959194509250565b60006040820190506128b9600083018561242e565b6128c66020830184612374565b9392505050565b7f4e487b7100000000000000000000000000000000000000000000000000000000600052601160045260246000fd5b60006129078261236a565b91506129128361236a565b92508282026129208161236a565b91508282048414831517612937576129366128cd565b5b5092915050565b600082825260208201905092915050565b7f57726f6e672070726963652c20636865636b20746865207469636b657420707260008201527f6963650000000000000000000000000000000000000000000000000000000000602082015250565b60006129ab60238361293e565b91506129b68261294f565b604082019050919050565b600060208201905081810360008301526129da8161299e565b9050919050565b7f54686520726166666c65206861736e2774206576656e20737461727465642100600082015250565b6000612a17601f8361293e565b9150612a22826129e1565b602082019050919050565b60006020820190508181036000830152612a4681612a0a565b9050919050565b6000612a588261236a565b9150612a638361236a565b9250828201905080821115612a7b57612a7a6128cd565b5b92915050565b7f54686520726166666c652069732066756c6c0000000000000000000000000000600082015250565b6000612ab760128361293e565b9150612ac282612a81565b602082019050919050565b60006020820190508181036000830152612ae681612aaa565b9050919050565b6000606082019050612b026000830186612374565b612b0f602083018561242e565b612b1c6040830184612374565b949350505050565b7f526166666c65206e6f7420636c6f736564207965742100000000000000000000600082015250565b6000612b5a60168361293e565b9150612b6582612b24565b602082019050919050565b60006020820190508181036000830152612b8981612b4d565b9050919050565b7f4e487b7100000000000000000000000000000000000000000000000000000000600052604160045260246000fd5b7f4e487b7100000000000000000000000000000000000000000000000000000000600052603260045260246000fd5b6000612bf98261236a565b91507fffffffffffffffffffffffffffffffffffffffffffffffffffffffffffffffff8203612c2b57612c2a6128cd565b5b600182019050919050565b7f41206e657720726166666c6520686173206265656e20737461727465642c206a60008201527f7573742077616974206120626974000000000000000000000000000000000000602082015250565b6000612c92602e8361293e565b9150612c9d82612c36565b604082019050919050565b60006020820190508181036000830152612cc181612c85565b9050919050565b7f5469636b65742070726963652063616e27742062652030000000000000000000600082015250565b6000612cfe60178361293e565b9150612d0982612cc8565b602082019050919050565b60006020820190508181036000830152612d2d81612cf1565b9050919050565b7f5469636b657420616d6f756e742063616e277420626520300000000000000000600082015250565b6000612d6a60188361293e565b9150612d7582612d34565b602082019050919050565b60006020820190508181036000830152612d9981612d5d565b9050919050565b7f596f7520616c72656164792068617665206120726166666c652072756e6e696e60008201527f6700000000000000000000000000000000000000000000000000000000000000602082015250565b6000612dfc60218361293e565b9150612e0782612da0565b604082019050919050565b60006020820190508181036000830152612e2b81612def565b9050919050565b6000606082019050612e47600083018661242e565b612e54602083018561242e565b612e616040830184612374565b949350505050565b600060a082019050612e7e6000830188612374565b612e8b602083018761242e565b612e986040830186612374565b612ea56060830185612374565b612eb26080830184612374565b9695505050505050565b7f4f6e6c79207468652052616e646f6d4e756d626572436f6e73756d657220636f60008201527f6e74726163742063616e2063616c6c20746869732066756e6374696f6e000000602082015250565b6000612f18603d8361293e565b9150612f2382612ebc565b604082019050919050565b60006020820190508181036000830152612f4781612f0b565b9050919050565b7f596f75206172656e277420617420746861742073746167652079657421000000600082015250565b6000612f84601d8361293e565b9150612f8f82612f4e565b602082019050919050565b60006020820190508181036000830152612fb381612f77565b9050919050565b7f72616e646f6d2d6e6f742d666f756e6400000000000000000000000000000000600082015250565b6000612ff060108361293e565b9150612ffb82612fba565b602082019050919050565b6000602082019050818103600083015261301f81612fe3565b9050919050565b7f4e487b7100000000000000000000000000000000000000000000000000000000600052601260045260246000fd5b60006130608261236a565b915061306b8361236a565b92508261307b5761307a613026565b5b828206905092915050565b60006130918261236a565b915061309c8361236a565b9250826130ac576130ab613026565b5b828204905092915050565b60006130c28261236a565b91506130cd8361236a565b92508282039050818111156130e5576130e46128cd565b5b92915050565b60006040820190506131006000830185612374565b61310d602083018461242e565b9392505050565b7f596f7520617265206e6f7420746865206f776e6572206f66207468697320726160008201527f66666c6500000000000000000000000000000000000000000000000000000000602082015250565b600061317060248361293e565b915061317b82613114565b604082019050919050565b6000602082019050818103600083015261319f81613163565b9050919050565b6000815190506131b5816123a3565b92915050565b6000602082840312156131d1576131d061239e565b5b60006131df848285016131a6565b91505092915050565b60008115159050919050565b6131fd816131e8565b82525050565b60006040820190506132186000830185612374565b61322560208301846131f4565b9392505050565b7f4f776e61626c653a206e6577206f776e657220697320746865207a65726f206160008201527f6464726573730000000000000000000000000000000000000000000000000000602082015250565b600061328860268361293e565b91506132938261322c565b604082019050919050565b600060208201905081810360008301526132b78161327b565b9050919050565b7f4f776e61626c653a2063616c6c6572206973206e6f7420746865206f776e6572600082015250565b60006132f460208361293e565b91506132ff826132be565b602082019050919050565b60006020820190508181036000830152613323816132e7565b905091905056fea26469706673582212202037921c622a561ee1b7ba046d2281a08d081fb3538e0ca8668fe4436024974f64736f6c63430008110033",
  "linkReferences": {},
  "deployedLinkReferences": {}
}