{
  "_format": "hh-sol-artifact-1",
  "contractName": "Raffle",
  "sourceName": "contracts/Raffle.sol",
  "abi": [
    {
      "inputs": [
        {
          "internalType": "address",
          "name": "random_address",
          "type": "address"
        },
        {
          "internalType": "address",
          "name": "_funds_manager_address",
          "type": "address"
        }
      ],
      "stateMutability": "nonpayable",
      "type": "constructor"
    },
    {
      "anonymous": false,
      "inputs": [
        {
          "indexed": true,
          "internalType": "address",
          "name": "previousOwner",
          "type": "address"
        },
        {
          "indexed": true,
          "internalType": "address",
          "name": "newOwner",
          "type": "address"
        }
      ],
      "name": "OwnershipTransferred",
      "type": "event"
    },
    {
      "anonymous": false,
      "inputs": [
        {
          "indexed": false,
          "internalType": "uint256",
          "name": "raffleId",
          "type": "uint256"
        },
        {
          "indexed": false,
          "internalType": "bool",
          "name": "tickets_fully_sold",
          "type": "bool"
        }
      ],
      "name": "RaffleEnded",
      "type": "event"
    },
    {
      "anonymous": false,
      "inputs": [
        {
          "indexed": false,
          "internalType": "uint256",
          "name": "raffleId",
          "type": "uint256"
        },
        {
          "indexed": false,
          "internalType": "address",
          "name": "player",
          "type": "address"
        },
        {
          "indexed": false,
          "internalType": "uint256",
          "name": "ticket_amount",
          "type": "uint256"
        }
      ],
      "name": "RaffleEntered",
      "type": "event"
    },
    {
      "anonymous": false,
      "inputs": [
        {
          "indexed": false,
          "internalType": "uint256",
          "name": "raffleId",
          "type": "uint256"
        },
        {
          "indexed": false,
          "internalType": "address",
          "name": "NFTcontract",
          "type": "address"
        },
        {
          "indexed": false,
          "internalType": "uint256",
          "name": "NFTid",
          "type": "uint256"
        },
        {
          "indexed": false,
          "internalType": "uint256",
          "name": "ticket_amount",
          "type": "uint256"
        },
        {
          "indexed": false,
          "internalType": "uint256",
          "name": "ticket_price",
          "type": "uint256"
        }
      ],
      "name": "RaffleStarted",
      "type": "event"
    },
    {
      "anonymous": false,
      "inputs": [
        {
          "indexed": false,
          "internalType": "uint256",
          "name": "raffleId",
          "type": "uint256"
        },
        {
          "indexed": false,
          "internalType": "address",
          "name": "winner",
          "type": "address"
        }
      ],
      "name": "RaffleWinner",
      "type": "event"
    },
    {
      "inputs": [
        {
          "internalType": "uint256",
          "name": "_raffleId",
          "type": "uint256"
        }
      ],
      "name": "end_raffle",
      "outputs": [],
      "stateMutability": "nonpayable",
      "type": "function"
    },
    {
      "inputs": [
        {
          "internalType": "uint256",
          "name": "_raffleId",
          "type": "uint256"
        },
        {
          "internalType": "uint256",
          "name": "_ticket_amount",
          "type": "uint256"
        }
      ],
      "name": "enter",
      "outputs": [],
      "stateMutability": "payable",
      "type": "function"
    },
    {
      "inputs": [],
      "name": "fee_balance",
      "outputs": [
        {
          "internalType": "uint256",
          "name": "",
          "type": "uint256"
        }
      ],
      "stateMutability": "view",
      "type": "function"
    },
    {
      "inputs": [],
      "name": "funds_manager",
      "outputs": [
        {
          "internalType": "contract FundsManager",
          "name": "",
          "type": "address"
        }
      ],
      "stateMutability": "view",
      "type": "function"
    },
    {
      "inputs": [],
      "name": "get_current_raffles",
      "outputs": [
        {
          "components": [
            {
              "internalType": "address",
              "name": "owner",
              "type": "address"
            },
            {
              "internalType": "enum Raffle.RAFFLE_STATE",
              "name": "raffle_state",
              "type": "uint8"
            },
            {
              "internalType": "uint256",
              "name": "ticket_price",
              "type": "uint256"
            },
            {
              "internalType": "uint256",
              "name": "ticket_amount",
              "type": "uint256"
            },
            {
              "internalType": "uint256",
              "name": "ticket_sold",
              "type": "uint256"
            },
            {
              "internalType": "address",
              "name": "NFTcontract",
              "type": "address"
            },
            {
              "internalType": "uint256",
              "name": "NFTid",
              "type": "uint256"
            },
            {
              "internalType": "address",
              "name": "winner",
              "type": "address"
            }
          ],
          "internalType": "struct Raffle.raffle[]",
          "name": "",
          "type": "tuple[]"
        }
      ],
      "stateMutability": "view",
      "type": "function"
    },
    {
      "inputs": [
        {
          "internalType": "uint256",
          "name": "",
          "type": "uint256"
        }
      ],
      "name": "lotteries",
      "outputs": [
        {
          "internalType": "address",
          "name": "owner",
          "type": "address"
        },
        {
          "internalType": "enum Raffle.RAFFLE_STATE",
          "name": "raffle_state",
          "type": "uint8"
        },
        {
          "internalType": "uint256",
          "name": "ticket_price",
          "type": "uint256"
        },
        {
          "internalType": "uint256",
          "name": "ticket_amount",
          "type": "uint256"
        },
        {
          "internalType": "uint256",
          "name": "ticket_sold",
          "type": "uint256"
        },
        {
          "internalType": "address",
          "name": "NFTcontract",
          "type": "address"
        },
        {
          "internalType": "uint256",
          "name": "NFTid",
          "type": "uint256"
        },
        {
          "internalType": "address",
          "name": "winner",
          "type": "address"
        }
      ],
      "stateMutability": "view",
      "type": "function"
    },
    {
      "inputs": [],
      "name": "min_fee_balance",
      "outputs": [
        {
          "internalType": "uint256",
          "name": "",
          "type": "uint256"
        }
      ],
      "stateMutability": "view",
      "type": "function"
    },
    {
      "inputs": [],
      "name": "owner",
      "outputs": [
        {
          "internalType": "address",
          "name": "",
          "type": "address"
        }
      ],
      "stateMutability": "view",
      "type": "function"
    },
    {
      "inputs": [
        {
          "internalType": "address",
          "name": "",
          "type": "address"
        }
      ],
      "name": "ownerRaffleId",
      "outputs": [
        {
          "internalType": "uint256",
          "name": "",
          "type": "uint256"
        }
      ],
      "stateMutability": "view",
      "type": "function"
    },
    {
      "inputs": [],
      "name": "raffleId",
      "outputs": [
        {
          "internalType": "uint256",
          "name": "",
          "type": "uint256"
        }
      ],
      "stateMutability": "view",
      "type": "function"
    },
    {
      "inputs": [
        {
          "internalType": "uint256",
          "name": "",
          "type": "uint256"
        },
        {
          "internalType": "uint256",
          "name": "",
          "type": "uint256"
        }
      ],
      "name": "raffleId_to_playerInfo",
      "outputs": [
        {
          "internalType": "address",
          "name": "player",
          "type": "address"
        },
        {
          "internalType": "uint256",
          "name": "amount_paid",
          "type": "uint256"
        }
      ],
      "stateMutability": "view",
      "type": "function"
    },
    {
      "inputs": [
        {
          "internalType": "uint256",
          "name": "requestId",
          "type": "uint256"
        },
        {
          "internalType": "uint256",
          "name": "random",
          "type": "uint256"
        }
      ],
      "name": "raffle_result",
      "outputs": [],
      "stateMutability": "nonpayable",
      "type": "function"
    },
    {
      "inputs": [],
      "name": "random_contract",
      "outputs": [
        {
          "internalType": "contract RandomNumberConsumer",
          "name": "",
          "type": "address"
        }
      ],
      "stateMutability": "view",
      "type": "function"
    },
    {
      "inputs": [],
      "name": "renounceOwnership",
      "outputs": [],
      "stateMutability": "nonpayable",
      "type": "function"
    },
    {
      "inputs": [
        {
          "internalType": "uint256",
          "name": "",
          "type": "uint256"
        }
      ],
      "name": "requestId_to_raffleId",
      "outputs": [
        {
          "internalType": "uint256",
          "name": "",
          "type": "uint256"
        }
      ],
      "stateMutability": "view",
      "type": "function"
    },
    {
      "inputs": [
        {
          "internalType": "uint256",
          "name": "_min_fee_balance",
          "type": "uint256"
        }
      ],
      "name": "setMinFeeBalance",
      "outputs": [],
      "stateMutability": "nonpayable",
      "type": "function"
    },
    {
      "inputs": [
        {
          "internalType": "uint256",
          "name": "_winning_fee",
          "type": "uint256"
        }
      ],
      "name": "setWinningFee",
      "outputs": [],
      "stateMutability": "nonpayable",
      "type": "function"
    },
    {
      "inputs": [
        {
          "internalType": "address",
          "name": "_NFTcontract",
          "type": "address"
        },
        {
          "internalType": "uint256",
          "name": "_NFTid",
          "type": "uint256"
        },
        {
          "internalType": "uint256",
          "name": "_ticket_price",
          "type": "uint256"
        },
        {
          "internalType": "uint256",
          "name": "_ticket_amount",
          "type": "uint256"
        }
      ],
      "name": "start_new_raffle",
      "outputs": [],
      "stateMutability": "nonpayable",
      "type": "function"
    },
    {
      "inputs": [
        {
          "internalType": "address",
          "name": "newOwner",
          "type": "address"
        }
      ],
      "name": "transferOwnership",
      "outputs": [],
      "stateMutability": "nonpayable",
      "type": "function"
    },
    {
      "inputs": [],
      "name": "winning_fee",
      "outputs": [
        {
          "internalType": "uint256",
          "name": "",
          "type": "uint256"
        }
      ],
      "stateMutability": "view",
      "type": "function"
    },
    {
      "inputs": [],
      "name": "winning_fee_divisor",
      "outputs": [
        {
          "internalType": "uint256",
          "name": "",
          "type": "uint256"
        }
      ],
      "stateMutability": "view",
      "type": "function"
    }
  ],
  "bytecode": "0x60806040526002600855606460095566470de4df820000600b556001600c60006101000a81548160ff0219169083151502179055503480156200004157600080fd5b50604051620030f0380380620030f083398181016040528101906200006791906200024f565b620000876200007b6200011960201b60201c565b6200012160201b60201c565b81600260006101000a81548173ffffffffffffffffffffffffffffffffffffffff021916908373ffffffffffffffffffffffffffffffffffffffff16021790555080600160006101000a81548173ffffffffffffffffffffffffffffffffffffffff021916908373ffffffffffffffffffffffffffffffffffffffff1602179055506001600581905550505062000296565b600033905090565b60008060009054906101000a900473ffffffffffffffffffffffffffffffffffffffff169050816000806101000a81548173ffffffffffffffffffffffffffffffffffffffff021916908373ffffffffffffffffffffffffffffffffffffffff1602179055508173ffffffffffffffffffffffffffffffffffffffff168173ffffffffffffffffffffffffffffffffffffffff167f8be0079c531659141344cd1fd0a4f28419497f9722a3daafe3b4186f6b6457e060405160405180910390a35050565b600080fd5b600073ffffffffffffffffffffffffffffffffffffffff82169050919050565b60006200021782620001ea565b9050919050565b62000229816200020a565b81146200023557600080fd5b50565b60008151905062000249816200021e565b92915050565b60008060408385031215620002695762000268620001e5565b5b6000620002798582860162000238565b92505060206200028c8582860162000238565b9150509250929050565b612e4a80620002a66000396000f3fe60806040526004361061012a5760003560e01c8063689643ea116100ab578063b375603c1161006f578063b375603c146103ca578063bef10fb9146103f5578063cfd4595b1461041e578063e065e55114610447578063e39cdfe414610470578063f2fde38b146104ae5761012a565b8063689643ea1461030b578063715018a61461033657806372b513d51461034d57806383426738146103765780638da5cb5b1461039f5761012a565b806323972aef116100f257806323972aef1461023157806326cffc691461024d57806336b3c80f1461028a57806337b45fa8146102b55780635ff7348b146102e05761012a565b8063021a12d41461012f5780630321d94f1461015a57806311e6a59b146101975780631398e076146101c25780631769f04914610206575b600080fd5b34801561013b57600080fd5b506101446104d7565b6040516101519190611ed9565b60405180910390f35b34801561016657600080fd5b50610181600480360381019061017c9190611f25565b6104dd565b60405161018e9190611ed9565b60405180910390f35b3480156101a357600080fd5b506101ac6104f5565b6040516101b99190611ed9565b60405180910390f35b3480156101ce57600080fd5b506101e960048036038101906101e49190611f25565b6104fb565b6040516101fd98979695949392919061200a565b60405180910390f35b34801561021257600080fd5b5061021b6105b0565b6040516102289190611ed9565b60405180910390f35b61024b60048036038101906102469190612088565b6105b6565b005b34801561025957600080fd5b50610274600480360381019061026f91906120f4565b610864565b6040516102819190611ed9565b60405180910390f35b34801561029657600080fd5b5061029f61087c565b6040516102ac9190611ed9565b60405180910390f35b3480156102c157600080fd5b506102ca610882565b6040516102d79190612180565b60405180910390f35b3480156102ec57600080fd5b506102f56108a8565b60405161030291906121bc565b60405180910390f35b34801561031757600080fd5b506103206108ce565b60405161032d9190612356565b60405180910390f35b34801561034257600080fd5b5061034b610baf565b005b34801561035957600080fd5b50610374600480360381019061036f9190611f25565b610bc3565b005b34801561038257600080fd5b5061039d60048036038101906103989190612378565b610bd5565b005b3480156103ab57600080fd5b506103b4610fbe565b6040516103c191906123df565b60405180910390f35b3480156103d657600080fd5b506103df610fe7565b6040516103ec9190611ed9565b60405180910390f35b34801561040157600080fd5b5061041c60048036038101906104179190612088565b610fed565b005b34801561042a57600080fd5b5061044560048036038101906104409190611f25565b611548565b005b34801561045357600080fd5b5061046e60048036038101906104699190611f25565b61155a565b005b34801561047c57600080fd5b5061049760048036038101906104929190612088565b611a81565b6040516104a59291906123fa565b60405180910390f35b3480156104ba57600080fd5b506104d560048036038101906104d091906120f4565b611ae2565b005b60095481565b60076020528060005260406000206000915090505481565b600b5481565b60046020528060005260406000206000915090508060000160009054906101000a900473ffffffffffffffffffffffffffffffffffffffff16908060000160149054906101000a900460ff16908060010154908060020154908060030154908060040160009054906101000a900473ffffffffffffffffffffffffffffffffffffffff16908060050154908060060160009054906101000a900473ffffffffffffffffffffffffffffffffffffffff16905088565b600a5481565b6004600083815260200190815260200160002060010154816105d89190612452565b3414610619576040517f08c379a000000000000000000000000000000000000000000000000000000000815260040161061090612517565b60405180910390fd5b6001600281111561062d5761062c611f93565b5b6004600084815260200190815260200160002060000160149054906101000a900460ff16600281111561066357610662611f93565b5b146106a3576040517f08c379a000000000000000000000000000000000000000000000000000000000815260040161069a90612583565b60405180910390fd5b60046000838152602001908152602001600020600201548160046000858152602001908152602001600020600301546106dc91906125a3565b111561071d576040517f08c379a000000000000000000000000000000000000000000000000000000000815260040161071490612623565b60405180910390fd5b6003600083815260200190815260200160002060405180604001604052803373ffffffffffffffffffffffffffffffffffffffff1681526020016004600086815260200190815260200160002060010154846107799190612452565b815250908060018154018082558091505060019003906000526020600020906002020160009091909190915060008201518160000160006101000a81548173ffffffffffffffffffffffffffffffffffffffff021916908373ffffffffffffffffffffffffffffffffffffffff1602179055506020820151816001015550508060046000848152602001908152602001600020600301600082825461081e91906125a3565b925050819055507f31ed7968c068023ef5cbf0834bb1d883bedc82dc6e9e44065bc1919184dded3582338360405161085893929190612643565b60405180910390a15050565b60066020528060005260406000206000915090505481565b60085481565b600260009054906101000a900473ffffffffffffffffffffffffffffffffffffffff1681565b600160009054906101000a900473ffffffffffffffffffffffffffffffffffffffff1681565b606060006108da611b65565b67ffffffffffffffff8111156108f3576108f261267a565b5b60405190808252806020026020018201604052801561092c57816020015b610919611e27565b8152602001906001900390816109115790505b509050600080600190505b600554811015610ba6576001600281111561095557610954611f93565b5b6004600083815260200190815260200160002060000160149054906101000a900460ff16600281111561098b5761098a611f93565b5b14806109dd57506002808111156109a5576109a4611f93565b5b6004600083815260200190815260200160002060000160149054906101000a900460ff1660028111156109db576109da611f93565b5b145b15610b935760046000828152602001908152602001600020604051806101000160405290816000820160009054906101000a900473ffffffffffffffffffffffffffffffffffffffff1673ffffffffffffffffffffffffffffffffffffffff1673ffffffffffffffffffffffffffffffffffffffff1681526020016000820160149054906101000a900460ff166002811115610a7c57610a7b611f93565b5b6002811115610a8e57610a8d611f93565b5b81526020016001820154815260200160028201548152602001600382015481526020016004820160009054906101000a900473ffffffffffffffffffffffffffffffffffffffff1673ffffffffffffffffffffffffffffffffffffffff1673ffffffffffffffffffffffffffffffffffffffff168152602001600582015481526020016006820160009054906101000a900473ffffffffffffffffffffffffffffffffffffffff1673ffffffffffffffffffffffffffffffffffffffff1673ffffffffffffffffffffffffffffffffffffffff1681525050838381518110610b7957610b786126a9565b5b60200260200101819052508180610b8f906126d8565b9250505b8080610b9e906126d8565b915050610937565b50819250505090565b610bb7611c48565b610bc16000611cc6565b565b610bcb611c48565b8060088190555050565b600c60009054906101000a900460ff16610c24576040517f08c379a0000000000000000000000000000000000000000000000000000000008152600401610c1b90612792565b60405180910390fd5b6000600c60006101000a81548160ff02191690831515021790555060008211610c82576040517f08c379a0000000000000000000000000000000000000000000000000000000008152600401610c79906127fe565b60405180910390fd5b60008111610cc5576040517f08c379a0000000000000000000000000000000000000000000000000000000008152600401610cbc9061286a565b60405180910390fd5b6000600660003373ffffffffffffffffffffffffffffffffffffffff1673ffffffffffffffffffffffffffffffffffffffff1681526020019081526020016000205414610d47576040517f08c379a0000000000000000000000000000000000000000000000000000000008152600401610d3e906128fc565b60405180910390fd5b8373ffffffffffffffffffffffffffffffffffffffff166323b872dd3330866040518463ffffffff1660e01b8152600401610d849392919061291c565b600060405180830381600087803b158015610d9e57600080fd5b505af1158015610db2573d6000803e3d6000fd5b50505050600554600660003373ffffffffffffffffffffffffffffffffffffffff1673ffffffffffffffffffffffffffffffffffffffff168152602001908152602001600020819055503360046000600554815260200190815260200160002060000160006101000a81548173ffffffffffffffffffffffffffffffffffffffff021916908373ffffffffffffffffffffffffffffffffffffffff1602179055508160046000600554815260200190815260200160002060010181905550600160046000600554815260200190815260200160002060000160146101000a81548160ff02191690836002811115610eac57610eab611f93565b5b021790555080600460006005548152602001908152602001600020600201819055508360046000600554815260200190815260200160002060040160006101000a81548173ffffffffffffffffffffffffffffffffffffffff021916908373ffffffffffffffffffffffffffffffffffffffff1602179055508260046000600554815260200190815260200160002060050181905550600160056000828254610f5591906125a3565b925050819055507facd971b386cde69f342a40f49f63ae09d70ccb8975fc1258f220ae43eed8e44260055485858486604051610f95959493929190612953565b60405180910390a16001600c60006101000a81548160ff02191690831515021790555050505050565b60008060009054906101000a900473ffffffffffffffffffffffffffffffffffffffff16905090565b60055481565b600260009054906101000a900473ffffffffffffffffffffffffffffffffffffffff1673ffffffffffffffffffffffffffffffffffffffff163373ffffffffffffffffffffffffffffffffffffffff161461107d576040517f08c379a000000000000000000000000000000000000000000000000000000000815260040161107490612a18565b60405180910390fd5b6000600760008481526020019081526020016000205490506002808111156110a8576110a7611f93565b5b6004600083815260200190815260200160002060000160149054906101000a900460ff1660028111156110de576110dd611f93565b5b1461111e576040517f08c379a000000000000000000000000000000000000000000000000000000000815260040161111590612a84565b60405180910390fd5b60008211611161576040517f08c379a000000000000000000000000000000000000000000000000000000000815260040161115890612af0565b60405180910390fd5b60006004600083815260200190815260200160002060000160146101000a81548160ff0219169083600281111561119b5761119a611f93565b5b02179055506000600660006004600085815260200190815260200160002060000160009054906101000a900473ffffffffffffffffffffffffffffffffffffffff1673ffffffffffffffffffffffffffffffffffffffff1673ffffffffffffffffffffffffffffffffffffffff16815260200190815260200160002081905550600060036000838152602001908152602001600020805490508361123f9190612b3f565b90506000600360008481526020019081526020016000208281548110611268576112676126a9565b5b906000526020600020906002020160000160009054906101000a900473ffffffffffffffffffffffffffffffffffffffff1690506004600084815260200190815260200160002060040160009054906101000a900473ffffffffffffffffffffffffffffffffffffffff1673ffffffffffffffffffffffffffffffffffffffff166323b872dd308360046000888152602001908152602001600020600501546040518463ffffffff1660e01b81526004016113259392919061291c565b600060405180830381600087803b15801561133f57600080fd5b505af1158015611353573d6000803e3d6000fd5b505050506000600460008581526020019081526020016000206002015460046000868152602001908152602001600020600101546113919190612452565b90506000600954600854836113a69190612452565b6113b09190612b70565b9050600081836113c09190612ba1565b905081600a60008282546113d491906125a3565b92505081905550600b54600a5411156113f0576113ef611d8a565b5b6004600087815260200190815260200160002060000160009054906101000a900473ffffffffffffffffffffffffffffffffffffffff1673ffffffffffffffffffffffffffffffffffffffff166108fc829081150290604051600060405180830381858888f1935050505015801561146c573d6000803e3d6000fd5b506000600660003373ffffffffffffffffffffffffffffffffffffffff1673ffffffffffffffffffffffffffffffffffffffff1681526020019081526020016000205050836004600088815260200190815260200160002060060160006101000a81548173ffffffffffffffffffffffffffffffffffffffff021916908373ffffffffffffffffffffffffffffffffffffffff1602179055507fb4d601e7092e672cbffcd1512cc6592c35b9947e1ebfeea7647231887a5224478685604051611536929190612bd5565b60405180910390a15050505050505050565b611550611c48565b80600b8190555050565b6004600082815260200190815260200160002060000160009054906101000a900473ffffffffffffffffffffffffffffffffffffffff1673ffffffffffffffffffffffffffffffffffffffff163373ffffffffffffffffffffffffffffffffffffffff16146115fe576040517f08c379a00000000000000000000000000000000000000000000000000000000081526004016115f590612c70565b60405180910390fd5b6001600281111561161257611611611f93565b5b6004600083815260200190815260200160002060000160149054906101000a900460ff16600281111561164857611647611f93565b5b14611688576040517f08c379a000000000000000000000000000000000000000000000000000000000815260040161167f90612583565b60405180910390fd5b6000600460008381526020019081526020016000206002015460046000848152602001908152602001600020600301541015611950576000905060006004600084815260200190815260200160002060000160146101000a81548160ff021916908360028111156116fc576116fb611f93565b5b02179055506004600083815260200190815260200160002060040160009054906101000a900473ffffffffffffffffffffffffffffffffffffffff1673ffffffffffffffffffffffffffffffffffffffff166323b872dd306004600086815260200190815260200160002060000160009054906101000a900473ffffffffffffffffffffffffffffffffffffffff1660046000878152602001908152602001600020600501546040518463ffffffff1660e01b81526004016117c09392919061291c565b600060405180830381600087803b1580156117da57600080fd5b505af11580156117ee573d6000803e3d6000fd5b5050505060005b600360008481526020019081526020016000208054905081101561190557600060036000858152602001908152602001600020828154811061183a576118396126a9565b5b906000526020600020906002020160000160009054906101000a900473ffffffffffffffffffffffffffffffffffffffff1690506000600360008681526020019081526020016000208381548110611895576118946126a9565b5b90600052602060002090600202016001015490508173ffffffffffffffffffffffffffffffffffffffff166108fc829081150290604051600060405180830381858888f193505050501580156118ef573d6000803e3d6000fd5b50505080806118fd906126d8565b9150506117f5565b506000600660003373ffffffffffffffffffffffffffffffffffffffff1673ffffffffffffffffffffffffffffffffffffffff16815260200190815260200160002081905550611a44565b6001905060026004600084815260200190815260200160002060000160146101000a81548160ff0219169083600281111561198e5761198d611f93565b5b02179055506000600260009054906101000a900473ffffffffffffffffffffffffffffffffffffffff1673ffffffffffffffffffffffffffffffffffffffff1663aacc5a176040518163ffffffff1660e01b81526004016020604051808303816000875af1158015611a04573d6000803e3d6000fd5b505050506040513d601f19601f82011682018060405250810190611a289190612ca5565b9050826007600083815260200190815260200160002081905550505b7f3704bc5c908f802348cdf578bceb2ce84b92f2a38dc1de7179c846b226ef471a8282604051611a75929190612ced565b60405180910390a15050565b60036020528160005260406000208181548110611a9d57600080fd5b9060005260206000209060020201600091509150508060000160009054906101000a900473ffffffffffffffffffffffffffffffffffffffff16908060010154905082565b611aea611c48565b600073ffffffffffffffffffffffffffffffffffffffff168173ffffffffffffffffffffffffffffffffffffffff1603611b59576040517f08c379a0000000000000000000000000000000000000000000000000000000008152600401611b5090612d88565b60405180910390fd5b611b6281611cc6565b50565b600080600090506000600190505b600554811015611c405760016002811115611b9157611b90611f93565b5b6004600083815260200190815260200160002060000160149054906101000a900460ff166002811115611bc757611bc6611f93565b5b1480611c195750600280811115611be157611be0611f93565b5b6004600083815260200190815260200160002060000160149054906101000a900460ff166002811115611c1757611c16611f93565b5b145b15611c2d578180611c29906126d8565b9250505b8080611c38906126d8565b915050611b73565b508091505090565b611c50611e1f565b73ffffffffffffffffffffffffffffffffffffffff16611c6e610fbe565b73ffffffffffffffffffffffffffffffffffffffff1614611cc4576040517f08c379a0000000000000000000000000000000000000000000000000000000008152600401611cbb90612df4565b60405180910390fd5b565b60008060009054906101000a900473ffffffffffffffffffffffffffffffffffffffff169050816000806101000a81548173ffffffffffffffffffffffffffffffffffffffff021916908373ffffffffffffffffffffffffffffffffffffffff1602179055508173ffffffffffffffffffffffffffffffffffffffff168173ffffffffffffffffffffffffffffffffffffffff167f8be0079c531659141344cd1fd0a4f28419497f9722a3daafe3b4186f6b6457e060405160405180910390a35050565b6000600a5490506000600a81905550600160009054906101000a900473ffffffffffffffffffffffffffffffffffffffff1673ffffffffffffffffffffffffffffffffffffffff1663d0f73a2b826040518263ffffffff1660e01b81526004016000604051808303818588803b158015611e0357600080fd5b505af1158015611e17573d6000803e3d6000fd5b505050505050565b600033905090565b604051806101000160405280600073ffffffffffffffffffffffffffffffffffffffff16815260200160006002811115611e6457611e63611f93565b5b8152602001600081526020016000815260200160008152602001600073ffffffffffffffffffffffffffffffffffffffff16815260200160008152602001600073ffffffffffffffffffffffffffffffffffffffff1681525090565b6000819050919050565b611ed381611ec0565b82525050565b6000602082019050611eee6000830184611eca565b92915050565b600080fd5b611f0281611ec0565b8114611f0d57600080fd5b50565b600081359050611f1f81611ef9565b92915050565b600060208284031215611f3b57611f3a611ef4565b5b6000611f4984828501611f10565b91505092915050565b600073ffffffffffffffffffffffffffffffffffffffff82169050919050565b6000611f7d82611f52565b9050919050565b611f8d81611f72565b82525050565b7f4e487b7100000000000000000000000000000000000000000000000000000000600052602160045260246000fd5b60038110611fd357611fd2611f93565b5b50565b6000819050611fe482611fc2565b919050565b6000611ff482611fd6565b9050919050565b61200481611fe9565b82525050565b600061010082019050612020600083018b611f84565b61202d602083018a611ffb565b61203a6040830189611eca565b6120476060830188611eca565b6120546080830187611eca565b61206160a0830186611f84565b61206e60c0830185611eca565b61207b60e0830184611f84565b9998505050505050505050565b6000806040838503121561209f5761209e611ef4565b5b60006120ad85828601611f10565b92505060206120be85828601611f10565b9150509250929050565b6120d181611f72565b81146120dc57600080fd5b50565b6000813590506120ee816120c8565b92915050565b60006020828403121561210a57612109611ef4565b5b6000612118848285016120df565b91505092915050565b6000819050919050565b600061214661214161213c84611f52565b612121565b611f52565b9050919050565b60006121588261212b565b9050919050565b600061216a8261214d565b9050919050565b61217a8161215f565b82525050565b60006020820190506121956000830184612171565b92915050565b60006121a68261214d565b9050919050565b6121b68161219b565b82525050565b60006020820190506121d160008301846121ad565b92915050565b600081519050919050565b600082825260208201905092915050565b6000819050602082019050919050565b61220c81611f72565b82525050565b61221b81611fe9565b82525050565b61222a81611ec0565b82525050565b610100820160008201516122476000850182612203565b50602082015161225a6020850182612212565b50604082015161226d6040850182612221565b5060608201516122806060850182612221565b5060808201516122936080850182612221565b5060a08201516122a660a0850182612203565b5060c08201516122b960c0850182612221565b5060e08201516122cc60e0850182612203565b50505050565b60006122de8383612230565b6101008301905092915050565b6000602082019050919050565b6000612303826121d7565b61230d81856121e2565b9350612318836121f3565b8060005b8381101561234957815161233088826122d2565b975061233b836122eb565b92505060018101905061231c565b5085935050505092915050565b6000602082019050818103600083015261237081846122f8565b905092915050565b6000806000806080858703121561239257612391611ef4565b5b60006123a0878288016120df565b94505060206123b187828801611f10565b93505060406123c287828801611f10565b92505060606123d387828801611f10565b91505092959194509250565b60006020820190506123f46000830184611f84565b92915050565b600060408201905061240f6000830185611f84565b61241c6020830184611eca565b9392505050565b7f4e487b7100000000000000000000000000000000000000000000000000000000600052601160045260246000fd5b600061245d82611ec0565b915061246883611ec0565b925082820261247681611ec0565b9150828204841483151761248d5761248c612423565b5b5092915050565b600082825260208201905092915050565b7f57726f6e672070726963652c20636865636b20746865207469636b657420707260008201527f6963650000000000000000000000000000000000000000000000000000000000602082015250565b6000612501602383612494565b915061250c826124a5565b604082019050919050565b60006020820190508181036000830152612530816124f4565b9050919050565b7f54686520726166666c65206861736e2774206576656e20737461727465642100600082015250565b600061256d601f83612494565b915061257882612537565b602082019050919050565b6000602082019050818103600083015261259c81612560565b9050919050565b60006125ae82611ec0565b91506125b983611ec0565b92508282019050808211156125d1576125d0612423565b5b92915050565b7f54686520726166666c652069732066756c6c0000000000000000000000000000600082015250565b600061260d601283612494565b9150612618826125d7565b602082019050919050565b6000602082019050818103600083015261263c81612600565b9050919050565b60006060820190506126586000830186611eca565b6126656020830185611f84565b6126726040830184611eca565b949350505050565b7f4e487b7100000000000000000000000000000000000000000000000000000000600052604160045260246000fd5b7f4e487b7100000000000000000000000000000000000000000000000000000000600052603260045260246000fd5b60006126e382611ec0565b91507fffffffffffffffffffffffffffffffffffffffffffffffffffffffffffffffff820361271557612714612423565b5b600182019050919050565b7f41206e657720726166666c6520686173206265656e20737461727465642c206a60008201527f7573742077616974206120626974000000000000000000000000000000000000602082015250565b600061277c602e83612494565b915061278782612720565b604082019050919050565b600060208201905081810360008301526127ab8161276f565b9050919050565b7f5469636b65742070726963652063616e27742062652030000000000000000000600082015250565b60006127e8601783612494565b91506127f3826127b2565b602082019050919050565b60006020820190508181036000830152612817816127db565b9050919050565b7f5469636b657420616d6f756e742063616e277420626520300000000000000000600082015250565b6000612854601883612494565b915061285f8261281e565b602082019050919050565b6000602082019050818103600083015261288381612847565b9050919050565b7f596f7520616c72656164792068617665206120726166666c652072756e6e696e60008201527f6700000000000000000000000000000000000000000000000000000000000000602082015250565b60006128e6602183612494565b91506128f18261288a565b604082019050919050565b60006020820190508181036000830152612915816128d9565b9050919050565b60006060820190506129316000830186611f84565b61293e6020830185611f84565b61294b6040830184611eca565b949350505050565b600060a0820190506129686000830188611eca565b6129756020830187611f84565b6129826040830186611eca565b61298f6060830185611eca565b61299c6080830184611eca565b9695505050505050565b7f4f6e6c79207468652052616e646f6d4e756d626572436f6e73756d657220636f60008201527f6e74726163742063616e2063616c6c20746869732066756e6374696f6e000000602082015250565b6000612a02603d83612494565b9150612a0d826129a6565b604082019050919050565b60006020820190508181036000830152612a31816129f5565b9050919050565b7f596f75206172656e277420617420746861742073746167652079657421000000600082015250565b6000612a6e601d83612494565b9150612a7982612a38565b602082019050919050565b60006020820190508181036000830152612a9d81612a61565b9050919050565b7f72616e646f6d2d6e6f742d666f756e6400000000000000000000000000000000600082015250565b6000612ada601083612494565b9150612ae582612aa4565b602082019050919050565b60006020820190508181036000830152612b0981612acd565b9050919050565b7f4e487b7100000000000000000000000000000000000000000000000000000000600052601260045260246000fd5b6000612b4a82611ec0565b9150612b5583611ec0565b925082612b6557612b64612b10565b5b828206905092915050565b6000612b7b82611ec0565b9150612b8683611ec0565b925082612b9657612b95612b10565b5b828204905092915050565b6000612bac82611ec0565b9150612bb783611ec0565b9250828203905081811115612bcf57612bce612423565b5b92915050565b6000604082019050612bea6000830185611eca565b612bf76020830184611f84565b9392505050565b7f596f7520617265206e6f7420746865206f776e6572206f66207468697320726160008201527f66666c6500000000000000000000000000000000000000000000000000000000602082015250565b6000612c5a602483612494565b9150612c6582612bfe565b604082019050919050565b60006020820190508181036000830152612c8981612c4d565b9050919050565b600081519050612c9f81611ef9565b92915050565b600060208284031215612cbb57612cba611ef4565b5b6000612cc984828501612c90565b91505092915050565b60008115159050919050565b612ce781612cd2565b82525050565b6000604082019050612d026000830185611eca565b612d0f6020830184612cde565b9392505050565b7f4f776e61626c653a206e6577206f776e657220697320746865207a65726f206160008201527f6464726573730000000000000000000000000000000000000000000000000000602082015250565b6000612d72602683612494565b9150612d7d82612d16565b604082019050919050565b60006020820190508181036000830152612da181612d65565b9050919050565b7f4f776e61626c653a2063616c6c6572206973206e6f7420746865206f776e6572600082015250565b6000612dde602083612494565b9150612de982612da8565b602082019050919050565b60006020820190508181036000830152612e0d81612dd1565b905091905056fea2646970667358221220729d184823962d89d993dc7007540ef8185fed1f1e5a8a2f2323a035a1becdad64736f6c63430008110033",
  "linkReferences": {},
  "deployedLinkReferences": {}
}