{
  "_format": "hh-sol-artifact-1",
  "contractName": "Raffle",
  "sourceName": "contracts/Raffle.sol",
  "abi": [
    {
      "inputs": [
        {
          "internalType": "address",
          "name": "random_address",
          "type": "address"
        },
        {
          "internalType": "address",
          "name": "_funds_manager_address",
          "type": "address"
        }
      ],
      "stateMutability": "nonpayable",
      "type": "constructor"
    },
    {
      "anonymous": false,
      "inputs": [
        {
          "indexed": true,
          "internalType": "address",
          "name": "previousOwner",
          "type": "address"
        },
        {
          "indexed": true,
          "internalType": "address",
          "name": "newOwner",
          "type": "address"
        }
      ],
      "name": "OwnershipTransferred",
      "type": "event"
    },
    {
      "anonymous": false,
      "inputs": [
        {
          "indexed": false,
          "internalType": "uint256",
          "name": "raffleId",
          "type": "uint256"
        },
        {
          "indexed": false,
          "internalType": "bool",
          "name": "tickets_fully_sold",
          "type": "bool"
        }
      ],
      "name": "RaffleEnded",
      "type": "event"
    },
    {
      "anonymous": false,
      "inputs": [
        {
          "indexed": false,
          "internalType": "uint256",
          "name": "raffleId",
          "type": "uint256"
        },
        {
          "indexed": false,
          "internalType": "address",
          "name": "player",
          "type": "address"
        },
        {
          "indexed": false,
          "internalType": "uint256",
          "name": "ticket_amount",
          "type": "uint256"
        }
      ],
      "name": "RaffleEntered",
      "type": "event"
    },
    {
      "anonymous": false,
      "inputs": [
        {
          "indexed": false,
          "internalType": "uint256",
          "name": "raffleId",
          "type": "uint256"
        },
        {
          "indexed": false,
          "internalType": "address",
          "name": "NFTcontract",
          "type": "address"
        },
        {
          "indexed": false,
          "internalType": "uint256",
          "name": "NFTid",
          "type": "uint256"
        },
        {
          "indexed": false,
          "internalType": "uint256",
          "name": "ticket_amount",
          "type": "uint256"
        },
        {
          "indexed": false,
          "internalType": "uint256",
          "name": "ticket_price",
          "type": "uint256"
        }
      ],
      "name": "RaffleStarted",
      "type": "event"
    },
    {
      "anonymous": false,
      "inputs": [
        {
          "indexed": false,
          "internalType": "uint256",
          "name": "raffleId",
          "type": "uint256"
        },
        {
          "indexed": false,
          "internalType": "address",
          "name": "winner",
          "type": "address"
        }
      ],
      "name": "RaffleWinner",
      "type": "event"
    },
    {
      "inputs": [
        {
          "internalType": "uint256",
          "name": "_raffleId",
          "type": "uint256"
        }
      ],
      "name": "end_raffle",
      "outputs": [],
      "stateMutability": "nonpayable",
      "type": "function"
    },
    {
      "inputs": [
        {
          "internalType": "uint256",
          "name": "_raffleId",
          "type": "uint256"
        },
        {
          "internalType": "uint256",
          "name": "_ticket_amount",
          "type": "uint256"
        }
      ],
      "name": "enter",
      "outputs": [],
      "stateMutability": "payable",
      "type": "function"
    },
    {
      "inputs": [],
      "name": "fee_balance",
      "outputs": [
        {
          "internalType": "uint256",
          "name": "",
          "type": "uint256"
        }
      ],
      "stateMutability": "view",
      "type": "function"
    },
    {
      "inputs": [],
      "name": "funds_manager",
      "outputs": [
        {
          "internalType": "contract FundsManager",
          "name": "",
          "type": "address"
        }
      ],
      "stateMutability": "view",
      "type": "function"
    },
    {
      "inputs": [
        {
          "internalType": "uint256",
          "name": "_raffleId",
          "type": "uint256"
        }
      ],
      "name": "get_players",
      "outputs": [
        {
          "internalType": "address[]",
          "name": "",
          "type": "address[]"
        }
      ],
      "stateMutability": "view",
      "type": "function"
    },
    {
      "inputs": [
        {
          "internalType": "uint256",
          "name": "_raffleId",
          "type": "uint256"
        }
      ],
      "name": "get_pot",
      "outputs": [
        {
          "internalType": "uint256",
          "name": "",
          "type": "uint256"
        }
      ],
      "stateMutability": "view",
      "type": "function"
    },
    {
      "inputs": [
        {
          "internalType": "uint256",
          "name": "_raffleId",
          "type": "uint256"
        }
      ],
      "name": "get_raffle_state",
      "outputs": [
        {
          "internalType": "enum Raffle.RAFFLE_STATE",
          "name": "",
          "type": "uint8"
        }
      ],
      "stateMutability": "view",
      "type": "function"
    },
    {
      "inputs": [
        {
          "internalType": "uint256",
          "name": "",
          "type": "uint256"
        }
      ],
      "name": "lotteries",
      "outputs": [
        {
          "internalType": "address",
          "name": "owner",
          "type": "address"
        },
        {
          "internalType": "enum Raffle.RAFFLE_STATE",
          "name": "raffle_state",
          "type": "uint8"
        },
        {
          "internalType": "uint256",
          "name": "ticket_price",
          "type": "uint256"
        },
        {
          "internalType": "uint256",
          "name": "ticket_amount",
          "type": "uint256"
        },
        {
          "internalType": "uint256",
          "name": "ticket_sold",
          "type": "uint256"
        },
        {
          "internalType": "address",
          "name": "NFTcontract",
          "type": "address"
        },
        {
          "internalType": "uint256",
          "name": "NFTid",
          "type": "uint256"
        }
      ],
      "stateMutability": "view",
      "type": "function"
    },
    {
      "inputs": [],
      "name": "min_fee_balance",
      "outputs": [
        {
          "internalType": "uint256",
          "name": "",
          "type": "uint256"
        }
      ],
      "stateMutability": "view",
      "type": "function"
    },
    {
      "inputs": [],
      "name": "owner",
      "outputs": [
        {
          "internalType": "address",
          "name": "",
          "type": "address"
        }
      ],
      "stateMutability": "view",
      "type": "function"
    },
    {
      "inputs": [
        {
          "internalType": "address",
          "name": "",
          "type": "address"
        }
      ],
      "name": "ownerRaffleId",
      "outputs": [
        {
          "internalType": "uint256",
          "name": "",
          "type": "uint256"
        }
      ],
      "stateMutability": "view",
      "type": "function"
    },
    {
      "inputs": [],
      "name": "raffleId",
      "outputs": [
        {
          "internalType": "uint256",
          "name": "",
          "type": "uint256"
        }
      ],
      "stateMutability": "view",
      "type": "function"
    },
    {
      "inputs": [
        {
          "internalType": "uint256",
          "name": "requestId",
          "type": "uint256"
        },
        {
          "internalType": "uint256",
          "name": "random",
          "type": "uint256"
        }
      ],
      "name": "raffle_result",
      "outputs": [],
      "stateMutability": "nonpayable",
      "type": "function"
    },
    {
      "inputs": [],
      "name": "random_contract",
      "outputs": [
        {
          "internalType": "contract RandomNumberConsumer",
          "name": "",
          "type": "address"
        }
      ],
      "stateMutability": "view",
      "type": "function"
    },
    {
      "inputs": [],
      "name": "renounceOwnership",
      "outputs": [],
      "stateMutability": "nonpayable",
      "type": "function"
    },
    {
      "inputs": [
        {
          "internalType": "uint256",
          "name": "",
          "type": "uint256"
        }
      ],
      "name": "requestId_to_raffleId",
      "outputs": [
        {
          "internalType": "uint256",
          "name": "",
          "type": "uint256"
        }
      ],
      "stateMutability": "view",
      "type": "function"
    },
    {
      "inputs": [
        {
          "internalType": "uint256",
          "name": "_min_fee_balance",
          "type": "uint256"
        }
      ],
      "name": "setMinFeeBalance",
      "outputs": [],
      "stateMutability": "nonpayable",
      "type": "function"
    },
    {
      "inputs": [
        {
          "internalType": "address",
          "name": "_NFTcontract",
          "type": "address"
        },
        {
          "internalType": "uint256",
          "name": "_NFTid",
          "type": "uint256"
        },
        {
          "internalType": "uint256",
          "name": "_ticket_price",
          "type": "uint256"
        },
        {
          "internalType": "uint256",
          "name": "_ticket_amount",
          "type": "uint256"
        }
      ],
      "name": "start_new_raffle",
      "outputs": [],
      "stateMutability": "nonpayable",
      "type": "function"
    },
    {
      "inputs": [
        {
          "internalType": "address",
          "name": "newOwner",
          "type": "address"
        }
      ],
      "name": "transferOwnership",
      "outputs": [],
      "stateMutability": "nonpayable",
      "type": "function"
    },
    {
      "inputs": [],
      "name": "winning_fee",
      "outputs": [
        {
          "internalType": "uint256",
          "name": "",
          "type": "uint256"
        }
      ],
      "stateMutability": "view",
      "type": "function"
    },
    {
      "inputs": [],
      "name": "winning_fee_divisor",
      "outputs": [
        {
          "internalType": "uint256",
          "name": "",
          "type": "uint256"
        }
      ],
      "stateMutability": "view",
      "type": "function"
    }
  ],
  "bytecode": "0x60806040526002600755606460085566470de4df820000600a556001600b60006101000a81548160ff0219169083151502179055503480156200004157600080fd5b5060405162002c1038038062002c1083398181016040528101906200006791906200024f565b620000876200007b6200011960201b60201c565b6200012160201b60201c565b81600260006101000a81548173ffffffffffffffffffffffffffffffffffffffff021916908373ffffffffffffffffffffffffffffffffffffffff16021790555080600160006101000a81548173ffffffffffffffffffffffffffffffffffffffff021916908373ffffffffffffffffffffffffffffffffffffffff1602179055506001600481905550505062000296565b600033905090565b60008060009054906101000a900473ffffffffffffffffffffffffffffffffffffffff169050816000806101000a81548173ffffffffffffffffffffffffffffffffffffffff021916908373ffffffffffffffffffffffffffffffffffffffff1602179055508173ffffffffffffffffffffffffffffffffffffffff168173ffffffffffffffffffffffffffffffffffffffff167f8be0079c531659141344cd1fd0a4f28419497f9722a3daafe3b4186f6b6457e060405160405180910390a35050565b600080fd5b600073ffffffffffffffffffffffffffffffffffffffff82169050919050565b60006200021782620001ea565b9050919050565b62000229816200020a565b81146200023557600080fd5b50565b60008151905062000249816200021e565b92915050565b60008060408385031215620002695762000268620001e5565b5b6000620002798582860162000238565b92505060206200028c8582860162000238565b9150509250929050565b61296a80620002a66000396000f3fe60806040526004361061012a5760003560e01c80634fcfa539116100ab5780638da5cb5b1161006f5780638da5cb5b14610401578063b375603c1461042c578063bef10fb914610457578063cfd4595b14610480578063e065e551146104a9578063f2fde38b146104d25761012a565b80634fcfa5391461031c5780635ff7348b146103595780636681042014610384578063715018a6146103c157806383426738146103d85761012a565b80631769f049116100f25780631769f0491461024257806323972aef1461026d57806326cffc691461028957806336b3c80f146102c657806337b45fa8146102f15761012a565b8063021a12d41461012f5780630321d94f1461015a57806310812d8f1461019757806311e6a59b146101d45780631398e076146101ff575b600080fd5b34801561013b57600080fd5b506101446104fb565b6040516101519190611b06565b60405180910390f35b34801561016657600080fd5b50610181600480360381019061017c9190611b52565b610501565b60405161018e9190611b06565b60405180910390f35b3480156101a357600080fd5b506101be60048036038101906101b99190611b52565b610519565b6040516101cb9190611c6f565b60405180910390f35b3480156101e057600080fd5b506101e96105bd565b6040516101f69190611b06565b60405180910390f35b34801561020b57600080fd5b5061022660048036038101906102219190611b52565b6105c3565b6040516102399796959493929190611d17565b60405180910390f35b34801561024e57600080fd5b50610257610652565b6040516102649190611b06565b60405180910390f35b61028760048036038101906102829190611d86565b610658565b005b34801561029557600080fd5b506102b060048036038101906102ab9190611df2565b61092d565b6040516102bd9190611b06565b60405180910390f35b3480156102d257600080fd5b506102db610945565b6040516102e89190611b06565b60405180910390f35b3480156102fd57600080fd5b5061030661094b565b6040516103139190611e7e565b60405180910390f35b34801561032857600080fd5b50610343600480360381019061033e9190611b52565b610971565b6040516103509190611e99565b60405180910390f35b34801561036557600080fd5b5061036e61099e565b60405161037b9190611ed5565b60405180910390f35b34801561039057600080fd5b506103ab60048036038101906103a69190611b52565b6109c4565b6040516103b89190611b06565b60405180910390f35b3480156103cd57600080fd5b506103d6610a05565b005b3480156103e457600080fd5b506103ff60048036038101906103fa9190611ef0565b610a19565b005b34801561040d57600080fd5b50610416610e02565b6040516104239190611f57565b60405180910390f35b34801561043857600080fd5b50610441610e2b565b60405161044e9190611b06565b60405180910390f35b34801561046357600080fd5b5061047e60048036038101906104799190611d86565b610e31565b005b34801561048c57600080fd5b506104a760048036038101906104a29190611b52565b611336565b005b3480156104b557600080fd5b506104d060048036038101906104cb9190611b52565b611348565b005b3480156104de57600080fd5b506104f960048036038101906104f49190611df2565b61188b565b005b60085481565b60066020528060005260406000206000915090505481565b6060600360008381526020019081526020016000206006018054806020026020016040519081016040528092919081815260200182805480156105b157602002820191906000526020600020905b8160009054906101000a900473ffffffffffffffffffffffffffffffffffffffff1673ffffffffffffffffffffffffffffffffffffffff1681526020019060010190808311610567575b50505050509050919050565b600a5481565b60036020528060005260406000206000915090508060000160009054906101000a900473ffffffffffffffffffffffffffffffffffffffff16908060000160149054906101000a900460ff16908060010154908060020154908060030154908060040160009054906101000a900473ffffffffffffffffffffffffffffffffffffffff16908060050154905087565b60095481565b60036000838152602001908152602001600020600101548161067a9190611fa1565b34146106bb576040517f08c379a00000000000000000000000000000000000000000000000000000000081526004016106b290612066565b60405180910390fd5b600160028111156106cf576106ce611ca0565b5b6003600084815260200190815260200160002060000160149054906101000a900460ff16600281111561070557610704611ca0565b5b14610745576040517f08c379a000000000000000000000000000000000000000000000000000000000815260040161073c906120d2565b60405180910390fd5b600360008381526020019081526020016000206002015481600360008581526020019081526020016000206003015461077e91906120f2565b11156107bf576040517f08c379a00000000000000000000000000000000000000000000000000000000081526004016107b690612172565b60405180910390fd5b60036000838152602001908152602001600020600601339080600181540180825580915050600190039060005260206000200160009091909190916101000a81548173ffffffffffffffffffffffffffffffffffffffff021916908373ffffffffffffffffffffffffffffffffffffffff1602179055506003600083815260200190815260200160002060010154816108589190611fa1565b6003600084815260200190815260200160002060070160003373ffffffffffffffffffffffffffffffffffffffff1673ffffffffffffffffffffffffffffffffffffffff16815260200190815260200160002060008282546108ba91906120f2565b92505081905550806003600084815260200190815260200160002060030160008282546108e791906120f2565b925050819055507f31ed7968c068023ef5cbf0834bb1d883bedc82dc6e9e44065bc1919184dded3582338360405161092193929190612192565b60405180910390a15050565b60056020528060005260406000206000915090505481565b60075481565b600260009054906101000a900473ffffffffffffffffffffffffffffffffffffffff1681565b60006003600083815260200190815260200160002060000160149054906101000a900460ff169050919050565b600160009054906101000a900473ffffffffffffffffffffffffffffffffffffffff1681565b6000600360008381526020019081526020016000206002015460036000848152602001908152602001600020600101546109fe9190611fa1565b9050919050565b610a0d61190e565b610a17600061198c565b565b600b60009054906101000a900460ff16610a68576040517f08c379a0000000000000000000000000000000000000000000000000000000008152600401610a5f9061223b565b60405180910390fd5b6000600b60006101000a81548160ff02191690831515021790555060008211610ac6576040517f08c379a0000000000000000000000000000000000000000000000000000000008152600401610abd906122a7565b60405180910390fd5b60008111610b09576040517f08c379a0000000000000000000000000000000000000000000000000000000008152600401610b0090612313565b60405180910390fd5b6000600560003373ffffffffffffffffffffffffffffffffffffffff1673ffffffffffffffffffffffffffffffffffffffff1681526020019081526020016000205414610b8b576040517f08c379a0000000000000000000000000000000000000000000000000000000008152600401610b82906123a5565b60405180910390fd5b8373ffffffffffffffffffffffffffffffffffffffff166323b872dd3330866040518463ffffffff1660e01b8152600401610bc8939291906123c5565b600060405180830381600087803b158015610be257600080fd5b505af1158015610bf6573d6000803e3d6000fd5b50505050600454600560003373ffffffffffffffffffffffffffffffffffffffff1673ffffffffffffffffffffffffffffffffffffffff168152602001908152602001600020819055503360036000600454815260200190815260200160002060000160006101000a81548173ffffffffffffffffffffffffffffffffffffffff021916908373ffffffffffffffffffffffffffffffffffffffff1602179055508160036000600454815260200190815260200160002060010181905550600160036000600454815260200190815260200160002060000160146101000a81548160ff02191690836002811115610cf057610cef611ca0565b5b021790555080600360006004548152602001908152602001600020600201819055508360036000600454815260200190815260200160002060040160006101000a81548173ffffffffffffffffffffffffffffffffffffffff021916908373ffffffffffffffffffffffffffffffffffffffff1602179055508260036000600454815260200190815260200160002060050181905550600160046000828254610d9991906120f2565b925050819055507facd971b386cde69f342a40f49f63ae09d70ccb8975fc1258f220ae43eed8e44260045485858486604051610dd99594939291906123fc565b60405180910390a16001600b60006101000a81548160ff02191690831515021790555050505050565b60008060009054906101000a900473ffffffffffffffffffffffffffffffffffffffff16905090565b60045481565b600060066000848152602001908152602001600020549050600260009054906101000a900473ffffffffffffffffffffffffffffffffffffffff1673ffffffffffffffffffffffffffffffffffffffff163373ffffffffffffffffffffffffffffffffffffffff1614610ed9576040517f08c379a0000000000000000000000000000000000000000000000000000000008152600401610ed0906124c1565b60405180910390fd5b600280811115610eec57610eeb611ca0565b5b6003600083815260200190815260200160002060000160149054906101000a900460ff166002811115610f2257610f21611ca0565b5b14610f62576040517f08c379a0000000000000000000000000000000000000000000000000000000008152600401610f599061252d565b60405180910390fd5b60008211610fa5576040517f08c379a0000000000000000000000000000000000000000000000000000000008152600401610f9c90612599565b60405180910390fd5b60006003600083815260200190815260200160002060000160146101000a81548160ff02191690836002811115610fdf57610fde611ca0565b5b02179055506000600560006003600085815260200190815260200160002060000160009054906101000a900473ffffffffffffffffffffffffffffffffffffffff1673ffffffffffffffffffffffffffffffffffffffff1673ffffffffffffffffffffffffffffffffffffffff16815260200190815260200160002081905550600060036000838152602001908152602001600020600601805490508361108691906125e8565b905060006003600084815260200190815260200160002060060182815481106110b2576110b1612619565b5b9060005260206000200160009054906101000a900473ffffffffffffffffffffffffffffffffffffffff1690506003600084815260200190815260200160002060040160009054906101000a900473ffffffffffffffffffffffffffffffffffffffff1673ffffffffffffffffffffffffffffffffffffffff166323b872dd308360036000888152602001908152602001600020600501546040518463ffffffff1660e01b8152600401611168939291906123c5565b600060405180830381600087803b15801561118257600080fd5b505af1158015611196573d6000803e3d6000fd5b505050506000600360008581526020019081526020016000206002015460036000868152602001908152602001600020600101546111d49190611fa1565b90506000600854600754836111e99190611fa1565b6111f39190612648565b9050600081836112039190612679565b9050816009600082825461121791906120f2565b92505081905550600a54600954111561123357611232611a50565b5b6003600087815260200190815260200160002060000160009054906101000a900473ffffffffffffffffffffffffffffffffffffffff1673ffffffffffffffffffffffffffffffffffffffff166108fc829081150290604051600060405180830381858888f193505050501580156112af573d6000803e3d6000fd5b506000600560003373ffffffffffffffffffffffffffffffffffffffff1673ffffffffffffffffffffffffffffffffffffffff16815260200190815260200160002050507fb4d601e7092e672cbffcd1512cc6592c35b9947e1ebfeea7647231887a52244786856040516113249291906126ad565b60405180910390a15050505050505050565b61133e61190e565b80600a8190555050565b6003600082815260200190815260200160002060000160009054906101000a900473ffffffffffffffffffffffffffffffffffffffff1673ffffffffffffffffffffffffffffffffffffffff163373ffffffffffffffffffffffffffffffffffffffff16146113ec576040517f08c379a00000000000000000000000000000000000000000000000000000000081526004016113e390612748565b60405180910390fd5b60016002811115611400576113ff611ca0565b5b6003600083815260200190815260200160002060000160149054906101000a900460ff16600281111561143657611435611ca0565b5b14611476576040517f08c379a000000000000000000000000000000000000000000000000000000000815260040161146d906120d2565b60405180910390fd5b600060036000838152602001908152602001600020600201546003600084815260200190815260200160002060030154101561175a576000905060006003600084815260200190815260200160002060000160146101000a81548160ff021916908360028111156114ea576114e9611ca0565b5b02179055506003600083815260200190815260200160002060040160009054906101000a900473ffffffffffffffffffffffffffffffffffffffff1673ffffffffffffffffffffffffffffffffffffffff166323b872dd306003600086815260200190815260200160002060000160009054906101000a900473ffffffffffffffffffffffffffffffffffffffff1660036000878152602001908152602001600020600501546040518463ffffffff1660e01b81526004016115ae939291906123c5565b600060405180830381600087803b1580156115c857600080fd5b505af11580156115dc573d6000803e3d6000fd5b5050505060005b600360008481526020019081526020016000206006018054905081101561170f57600060036000858152602001908152602001600020600601828154811061162e5761162d612619565b5b9060005260206000200160009054906101000a900473ffffffffffffffffffffffffffffffffffffffff16905060006003600086815260200190815260200160002060070160008373ffffffffffffffffffffffffffffffffffffffff1673ffffffffffffffffffffffffffffffffffffffff1681526020019081526020016000205490508173ffffffffffffffffffffffffffffffffffffffff166108fc829081150290604051600060405180830381858888f193505050501580156116f9573d6000803e3d6000fd5b505050808061170790612768565b9150506115e3565b506000600560003373ffffffffffffffffffffffffffffffffffffffff1673ffffffffffffffffffffffffffffffffffffffff1681526020019081526020016000208190555061184e565b6001905060026003600084815260200190815260200160002060000160146101000a81548160ff0219169083600281111561179857611797611ca0565b5b02179055506000600260009054906101000a900473ffffffffffffffffffffffffffffffffffffffff1673ffffffffffffffffffffffffffffffffffffffff1663aacc5a176040518163ffffffff1660e01b81526004016020604051808303816000875af115801561180e573d6000803e3d6000fd5b505050506040513d601f19601f8201168201806040525081019061183291906127c5565b9050826006600083815260200190815260200160002081905550505b7f3704bc5c908f802348cdf578bceb2ce84b92f2a38dc1de7179c846b226ef471a828260405161187f92919061280d565b60405180910390a15050565b61189361190e565b600073ffffffffffffffffffffffffffffffffffffffff168173ffffffffffffffffffffffffffffffffffffffff1603611902576040517f08c379a00000000000000000000000000000000000000000000000000000000081526004016118f9906128a8565b60405180910390fd5b61190b8161198c565b50565b611916611ae5565b73ffffffffffffffffffffffffffffffffffffffff16611934610e02565b73ffffffffffffffffffffffffffffffffffffffff161461198a576040517f08c379a000000000000000000000000000000000000000000000000000000000815260040161198190612914565b60405180910390fd5b565b60008060009054906101000a900473ffffffffffffffffffffffffffffffffffffffff169050816000806101000a81548173ffffffffffffffffffffffffffffffffffffffff021916908373ffffffffffffffffffffffffffffffffffffffff1602179055508173ffffffffffffffffffffffffffffffffffffffff168173ffffffffffffffffffffffffffffffffffffffff167f8be0079c531659141344cd1fd0a4f28419497f9722a3daafe3b4186f6b6457e060405160405180910390a35050565b600060095490506000600981905550600160009054906101000a900473ffffffffffffffffffffffffffffffffffffffff1673ffffffffffffffffffffffffffffffffffffffff1663d0f73a2b826040518263ffffffff1660e01b81526004016000604051808303818588803b158015611ac957600080fd5b505af1158015611add573d6000803e3d6000fd5b505050505050565b600033905090565b6000819050919050565b611b0081611aed565b82525050565b6000602082019050611b1b6000830184611af7565b92915050565b600080fd5b611b2f81611aed565b8114611b3a57600080fd5b50565b600081359050611b4c81611b26565b92915050565b600060208284031215611b6857611b67611b21565b5b6000611b7684828501611b3d565b91505092915050565b600081519050919050565b600082825260208201905092915050565b6000819050602082019050919050565b600073ffffffffffffffffffffffffffffffffffffffff82169050919050565b6000611bd682611bab565b9050919050565b611be681611bcb565b82525050565b6000611bf88383611bdd565b60208301905092915050565b6000602082019050919050565b6000611c1c82611b7f565b611c268185611b8a565b9350611c3183611b9b565b8060005b83811015611c62578151611c498882611bec565b9750611c5483611c04565b925050600181019050611c35565b5085935050505092915050565b60006020820190508181036000830152611c898184611c11565b905092915050565b611c9a81611bcb565b82525050565b7f4e487b7100000000000000000000000000000000000000000000000000000000600052602160045260246000fd5b60038110611ce057611cdf611ca0565b5b50565b6000819050611cf182611ccf565b919050565b6000611d0182611ce3565b9050919050565b611d1181611cf6565b82525050565b600060e082019050611d2c600083018a611c91565b611d396020830189611d08565b611d466040830188611af7565b611d536060830187611af7565b611d606080830186611af7565b611d6d60a0830185611c91565b611d7a60c0830184611af7565b98975050505050505050565b60008060408385031215611d9d57611d9c611b21565b5b6000611dab85828601611b3d565b9250506020611dbc85828601611b3d565b9150509250929050565b611dcf81611bcb565b8114611dda57600080fd5b50565b600081359050611dec81611dc6565b92915050565b600060208284031215611e0857611e07611b21565b5b6000611e1684828501611ddd565b91505092915050565b6000819050919050565b6000611e44611e3f611e3a84611bab565b611e1f565b611bab565b9050919050565b6000611e5682611e29565b9050919050565b6000611e6882611e4b565b9050919050565b611e7881611e5d565b82525050565b6000602082019050611e936000830184611e6f565b92915050565b6000602082019050611eae6000830184611d08565b92915050565b6000611ebf82611e4b565b9050919050565b611ecf81611eb4565b82525050565b6000602082019050611eea6000830184611ec6565b92915050565b60008060008060808587031215611f0a57611f09611b21565b5b6000611f1887828801611ddd565b9450506020611f2987828801611b3d565b9350506040611f3a87828801611b3d565b9250506060611f4b87828801611b3d565b91505092959194509250565b6000602082019050611f6c6000830184611c91565b92915050565b7f4e487b7100000000000000000000000000000000000000000000000000000000600052601160045260246000fd5b6000611fac82611aed565b9150611fb783611aed565b9250828202611fc581611aed565b91508282048414831517611fdc57611fdb611f72565b5b5092915050565b600082825260208201905092915050565b7f57726f6e672070726963652c20636865636b20746865207469636b657420707260008201527f6963650000000000000000000000000000000000000000000000000000000000602082015250565b6000612050602383611fe3565b915061205b82611ff4565b604082019050919050565b6000602082019050818103600083015261207f81612043565b9050919050565b7f54686520726166666c65206861736e2774206576656e20737461727465642100600082015250565b60006120bc601f83611fe3565b91506120c782612086565b602082019050919050565b600060208201905081810360008301526120eb816120af565b9050919050565b60006120fd82611aed565b915061210883611aed565b92508282019050808211156121205761211f611f72565b5b92915050565b7f54686520726166666c652069732066756c6c0000000000000000000000000000600082015250565b600061215c601283611fe3565b915061216782612126565b602082019050919050565b6000602082019050818103600083015261218b8161214f565b9050919050565b60006060820190506121a76000830186611af7565b6121b46020830185611c91565b6121c16040830184611af7565b949350505050565b7f41206e657720726166666c6520686173206265656e20737461727465642c206a60008201527f7573742077616974206120626974000000000000000000000000000000000000602082015250565b6000612225602e83611fe3565b9150612230826121c9565b604082019050919050565b6000602082019050818103600083015261225481612218565b9050919050565b7f5469636b65742070726963652063616e27742062652030000000000000000000600082015250565b6000612291601783611fe3565b915061229c8261225b565b602082019050919050565b600060208201905081810360008301526122c081612284565b9050919050565b7f5469636b657420616d6f756e742063616e277420626520300000000000000000600082015250565b60006122fd601883611fe3565b9150612308826122c7565b602082019050919050565b6000602082019050818103600083015261232c816122f0565b9050919050565b7f596f7520616c72656164792068617665206120726166666c652072756e6e696e60008201527f6700000000000000000000000000000000000000000000000000000000000000602082015250565b600061238f602183611fe3565b915061239a82612333565b604082019050919050565b600060208201905081810360008301526123be81612382565b9050919050565b60006060820190506123da6000830186611c91565b6123e76020830185611c91565b6123f46040830184611af7565b949350505050565b600060a0820190506124116000830188611af7565b61241e6020830187611c91565b61242b6040830186611af7565b6124386060830185611af7565b6124456080830184611af7565b9695505050505050565b7f4f6e6c79207468652052616e646f6d4e756d626572436f6e73756d657220636f60008201527f6e74726163742063616e2063616c6c20746869732066756e6374696f6e000000602082015250565b60006124ab603d83611fe3565b91506124b68261244f565b604082019050919050565b600060208201905081810360008301526124da8161249e565b9050919050565b7f596f75206172656e277420617420746861742073746167652079657421000000600082015250565b6000612517601d83611fe3565b9150612522826124e1565b602082019050919050565b600060208201905081810360008301526125468161250a565b9050919050565b7f72616e646f6d2d6e6f742d666f756e6400000000000000000000000000000000600082015250565b6000612583601083611fe3565b915061258e8261254d565b602082019050919050565b600060208201905081810360008301526125b281612576565b9050919050565b7f4e487b7100000000000000000000000000000000000000000000000000000000600052601260045260246000fd5b60006125f382611aed565b91506125fe83611aed565b92508261260e5761260d6125b9565b5b828206905092915050565b7f4e487b7100000000000000000000000000000000000000000000000000000000600052603260045260246000fd5b600061265382611aed565b915061265e83611aed565b92508261266e5761266d6125b9565b5b828204905092915050565b600061268482611aed565b915061268f83611aed565b92508282039050818111156126a7576126a6611f72565b5b92915050565b60006040820190506126c26000830185611af7565b6126cf6020830184611c91565b9392505050565b7f596f7520617265206e6f7420746865206f776e6572206f66207468697320726160008201527f66666c6500000000000000000000000000000000000000000000000000000000602082015250565b6000612732602483611fe3565b915061273d826126d6565b604082019050919050565b6000602082019050818103600083015261276181612725565b9050919050565b600061277382611aed565b91507fffffffffffffffffffffffffffffffffffffffffffffffffffffffffffffffff82036127a5576127a4611f72565b5b600182019050919050565b6000815190506127bf81611b26565b92915050565b6000602082840312156127db576127da611b21565b5b60006127e9848285016127b0565b91505092915050565b60008115159050919050565b612807816127f2565b82525050565b60006040820190506128226000830185611af7565b61282f60208301846127fe565b9392505050565b7f4f776e61626c653a206e6577206f776e657220697320746865207a65726f206160008201527f6464726573730000000000000000000000000000000000000000000000000000602082015250565b6000612892602683611fe3565b915061289d82612836565b604082019050919050565b600060208201905081810360008301526128c181612885565b9050919050565b7f4f776e61626c653a2063616c6c6572206973206e6f7420746865206f776e6572600082015250565b60006128fe602083611fe3565b9150612909826128c8565b602082019050919050565b6000602082019050818103600083015261292d816128f1565b905091905056fea2646970667358221220d77f97f1f89046ed3430f8a5be50c66e207b610a215a84031ba884845a14fb4b64736f6c63430008110033",
  "linkReferences": {},
  "deployedLinkReferences": {}
}