{
  "_format": "hh-sol-artifact-1",
  "contractName": "RandomNumberConsumer",
  "sourceName": "contracts/Random.sol",
  "abi": [
    {
      "inputs": [],
      "stateMutability": "nonpayable",
      "type": "constructor"
    },
    {
      "anonymous": false,
      "inputs": [
        {
          "indexed": true,
          "internalType": "address",
          "name": "previousOwner",
          "type": "address"
        },
        {
          "indexed": true,
          "internalType": "address",
          "name": "newOwner",
          "type": "address"
        }
      ],
      "name": "OwnershipTransferred",
      "type": "event"
    },
    {
      "inputs": [],
      "name": "flip_contract",
      "outputs": [
        {
          "internalType": "contract CoinFlip",
          "name": "",
          "type": "address"
        }
      ],
      "stateMutability": "view",
      "type": "function"
    },
    {
      "inputs": [],
      "name": "getRandom",
      "outputs": [
        {
          "internalType": "uint256",
          "name": "",
          "type": "uint256"
        }
      ],
      "stateMutability": "nonpayable",
      "type": "function"
    },
    {
      "inputs": [],
      "name": "only_once_counter",
      "outputs": [
        {
          "internalType": "uint256",
          "name": "",
          "type": "uint256"
        }
      ],
      "stateMutability": "view",
      "type": "function"
    },
    {
      "inputs": [],
      "name": "owner",
      "outputs": [
        {
          "internalType": "address",
          "name": "",
          "type": "address"
        }
      ],
      "stateMutability": "view",
      "type": "function"
    },
    {
      "inputs": [],
      "name": "raffle_contract",
      "outputs": [
        {
          "internalType": "contract Raffle",
          "name": "",
          "type": "address"
        }
      ],
      "stateMutability": "view",
      "type": "function"
    },
    {
      "inputs": [
        {
          "internalType": "uint256",
          "name": "",
          "type": "uint256"
        }
      ],
      "name": "random_numbers",
      "outputs": [
        {
          "internalType": "uint256",
          "name": "",
          "type": "uint256"
        }
      ],
      "stateMutability": "view",
      "type": "function"
    },
    {
      "inputs": [
        {
          "internalType": "uint256",
          "name": "_requestId",
          "type": "uint256"
        },
        {
          "internalType": "uint256[]",
          "name": "_randomWords",
          "type": "uint256[]"
        }
      ],
      "name": "rawFulfillRandomWords",
      "outputs": [],
      "stateMutability": "nonpayable",
      "type": "function"
    },
    {
      "inputs": [],
      "name": "renounceOwnership",
      "outputs": [],
      "stateMutability": "nonpayable",
      "type": "function"
    },
    {
      "inputs": [
        {
          "internalType": "uint32",
          "name": "gas_limit",
          "type": "uint32"
        }
      ],
      "name": "set_callback_gas_limit",
      "outputs": [],
      "stateMutability": "nonpayable",
      "type": "function"
    },
    {
      "inputs": [
        {
          "internalType": "address payable",
          "name": "flip_address",
          "type": "address"
        },
        {
          "internalType": "address",
          "name": "raffle_address",
          "type": "address"
        }
      ],
      "name": "set_contracts",
      "outputs": [],
      "stateMutability": "nonpayable",
      "type": "function"
    },
    {
      "inputs": [
        {
          "internalType": "address",
          "name": "link_address",
          "type": "address"
        }
      ],
      "name": "set_link_address",
      "outputs": [],
      "stateMutability": "nonpayable",
      "type": "function"
    },
    {
      "inputs": [
        {
          "internalType": "uint16",
          "name": "confirmations",
          "type": "uint16"
        }
      ],
      "name": "set_request_confirmations",
      "outputs": [],
      "stateMutability": "nonpayable",
      "type": "function"
    },
    {
      "inputs": [
        {
          "internalType": "address",
          "name": "wrapper_address",
          "type": "address"
        }
      ],
      "name": "set_wrapper_address",
      "outputs": [],
      "stateMutability": "nonpayable",
      "type": "function"
    },
    {
      "inputs": [
        {
          "internalType": "address",
          "name": "newOwner",
          "type": "address"
        }
      ],
      "name": "transferOwnership",
      "outputs": [],
      "stateMutability": "nonpayable",
      "type": "function"
    }
  ],
  "bytecode": "0x60c060405262249f00600560006101000a81548163ffffffff021916908363ffffffff1602179055506003600560046101000a81548161ffff021916908361ffff1602179055506001600560066101000a81548163ffffffff021916908363ffffffff16021790555073fafedb041c0dd4fa2dc0d87a6b0979ee6fa7af5f6005600a6101000a81548173ffffffffffffffffffffffffffffffffffffffff021916908373ffffffffffffffffffffffffffffffffffffffff1602179055507338336bdae79747a1d2c4e6c67bbf382244287ca6600660006101000a81548173ffffffffffffffffffffffffffffffffffffffff021916908373ffffffffffffffffffffffffffffffffffffffff160217905550600060075534801561012357600080fd5b506005600a9054906101000a900473ffffffffffffffffffffffffffffffffffffffff16600660009054906101000a900473ffffffffffffffffffffffffffffffffffffffff168173ffffffffffffffffffffffffffffffffffffffff1660808173ffffffffffffffffffffffffffffffffffffffff16815250508073ffffffffffffffffffffffffffffffffffffffff1660a08173ffffffffffffffffffffffffffffffffffffffff168152505050506101f06101e56101f560201b60201c565b6101fd60201b60201c565b6102c1565b600033905090565b60008060009054906101000a900473ffffffffffffffffffffffffffffffffffffffff169050816000806101000a81548173ffffffffffffffffffffffffffffffffffffffff021916908373ffffffffffffffffffffffffffffffffffffffff1602179055508173ffffffffffffffffffffffffffffffffffffffff168173ffffffffffffffffffffffffffffffffffffffff167f8be0079c531659141344cd1fd0a4f28419497f9722a3daafe3b4186f6b6457e060405160405180910390a35050565b60805160a05161199b610302600039600081816102ad0152818161084101528181610c8501528181610ca60152610dc601526000610c49015261199b6000f3fe608060405234801561001057600080fd5b50600436106100ea5760003560e01c806386b968e21161008c578063aacc5a1711610066578063aacc5a171461020d578063b28a658c1461022b578063db71895914610249578063f2fde38b14610267576100ea565b806386b968e2146101b55780638da5cb5b146101d15780639233b195146101ef576100ea565b80634a29a112116100c85780634a29a112146101435780634cffa46914610173578063715018a61461018f5780637cb4169914610199576100ea565b80631f116d95146100ef5780631fe543e31461010b5780633d65998914610127575b600080fd5b61010960048036038101906101049190610eb2565b610283565b005b6101256004803603810190610120919061106e565b6102ab565b005b610141600480360381019061013c9190611166565b610347565b005b61015d600480360381019061015891906111a6565b610434565b60405161016a91906111e2565b60405180910390f35b61018d60048036038101906101889190611239565b61044c565b005b610197610478565b005b6101b360048036038101906101ae9190611266565b61048c565b005b6101cf60048036038101906101ca9190611266565b6104d8565b005b6101d9610524565b6040516101e691906112a2565b60405180910390f35b6101f761054d565b604051610204919061131c565b60405180910390f35b610215610573565b60405161022291906111e2565b60405180910390f35b610233610712565b60405161024091906111e2565b60405180910390f35b610251610718565b60405161025e919061136a565b60405180910390f35b610281600480360381019061027c9190611266565b61073e565b005b61028b6107c1565b80600560046101000a81548161ffff021916908361ffff16021790555050565b7f000000000000000000000000000000000000000000000000000000000000000073ffffffffffffffffffffffffffffffffffffffff163373ffffffffffffffffffffffffffffffffffffffff1614610339576040517f08c379a0000000000000000000000000000000000000000000000000000000008152600401610330906113e2565b60405180910390fd5b610343828261083f565b5050565b60006007541461038c576040517f08c379a00000000000000000000000000000000000000000000000000000000081526004016103839061144e565b60405180910390fd5b6103946107c1565b81600160006101000a81548173ffffffffffffffffffffffffffffffffffffffff021916908373ffffffffffffffffffffffffffffffffffffffff16021790555080600260006101000a81548173ffffffffffffffffffffffffffffffffffffffff021916908373ffffffffffffffffffffffffffffffffffffffff160217905550600160076000828254610429919061149d565b925050819055505050565b60046020528060005260406000206000915090505481565b6104546107c1565b80600560006101000a81548163ffffffff021916908363ffffffff16021790555050565b6104806107c1565b61048a6000610b81565b565b6104946107c1565b80600660006101000a81548173ffffffffffffffffffffffffffffffffffffffff021916908373ffffffffffffffffffffffffffffffffffffffff16021790555050565b6104e06107c1565b806005600a6101000a81548173ffffffffffffffffffffffffffffffffffffffff021916908373ffffffffffffffffffffffffffffffffffffffff16021790555050565b60008060009054906101000a900473ffffffffffffffffffffffffffffffffffffffff16905090565b600260009054906101000a900473ffffffffffffffffffffffffffffffffffffffff1681565b6000600160009054906101000a900473ffffffffffffffffffffffffffffffffffffffff1673ffffffffffffffffffffffffffffffffffffffff163373ffffffffffffffffffffffffffffffffffffffff16148061061e5750600260009054906101000a900473ffffffffffffffffffffffffffffffffffffffff1673ffffffffffffffffffffffffffffffffffffffff163373ffffffffffffffffffffffffffffffffffffffff16145b61065d576040517f08c379a000000000000000000000000000000000000000000000000000000000815260040161065490611543565b60405180910390fd5b600061069e600560009054906101000a900463ffffffff16600560049054906101000a900461ffff16600560069054906101000a900463ffffffff16610c45565b905060006004600083815260200190815260200160002081905550336003600083815260200190815260200160002060006101000a81548173ffffffffffffffffffffffffffffffffffffffff021916908373ffffffffffffffffffffffffffffffffffffffff1602179055508091505090565b60075481565b600160009054906101000a900473ffffffffffffffffffffffffffffffffffffffff1681565b6107466107c1565b600073ffffffffffffffffffffffffffffffffffffffff168173ffffffffffffffffffffffffffffffffffffffff16036107b5576040517f08c379a00000000000000000000000000000000000000000000000000000000081526004016107ac906115d5565b60405180910390fd5b6107be81610b81565b50565b6107c9610e5c565b73ffffffffffffffffffffffffffffffffffffffff166107e7610524565b73ffffffffffffffffffffffffffffffffffffffff161461083d576040517f08c379a000000000000000000000000000000000000000000000000000000000815260040161083490611641565b60405180910390fd5b565b7f000000000000000000000000000000000000000000000000000000000000000073ffffffffffffffffffffffffffffffffffffffff163373ffffffffffffffffffffffffffffffffffffffff16146108cd576040517f08c379a00000000000000000000000000000000000000000000000000000000081526004016108c4906116ad565b60405180910390fd5b806000815181106108e1576108e06116cd565b5b6020026020010151600460008481526020019081526020016000208190555060006003600084815260200190815260200160002060009054906101000a900473ffffffffffffffffffffffffffffffffffffffff169050600260009054906101000a900473ffffffffffffffffffffffffffffffffffffffff1673ffffffffffffffffffffffffffffffffffffffff168173ffffffffffffffffffffffffffffffffffffffff1603610a3c57600260009054906101000a900473ffffffffffffffffffffffffffffffffffffffff1673ffffffffffffffffffffffffffffffffffffffff1663bef10fb984846000815181106109e0576109df6116cd565b5b60200260200101516040518363ffffffff1660e01b8152600401610a059291906116fc565b600060405180830381600087803b158015610a1f57600080fd5b505af1158015610a33573d6000803e3d6000fd5b50505050610b7c565b600160009054906101000a900473ffffffffffffffffffffffffffffffffffffffff1673ffffffffffffffffffffffffffffffffffffffff168173ffffffffffffffffffffffffffffffffffffffff1603610b4057600160009054906101000a900473ffffffffffffffffffffffffffffffffffffffff1673ffffffffffffffffffffffffffffffffffffffff1663585d45868484600081518110610ae457610ae36116cd565b5b60200260200101516040518363ffffffff1660e01b8152600401610b099291906116fc565b600060405180830381600087803b158015610b2357600080fd5b505af1158015610b37573d6000803e3d6000fd5b50505050610b7b565b6040517f08c379a0000000000000000000000000000000000000000000000000000000008152600401610b7290611771565b60405180910390fd5b5b505050565b60008060009054906101000a900473ffffffffffffffffffffffffffffffffffffffff169050816000806101000a81548173ffffffffffffffffffffffffffffffffffffffff021916908373ffffffffffffffffffffffffffffffffffffffff1602179055508173ffffffffffffffffffffffffffffffffffffffff168173ffffffffffffffffffffffffffffffffffffffff167f8be0079c531659141344cd1fd0a4f28419497f9722a3daafe3b4186f6b6457e060405160405180910390a35050565b60007f000000000000000000000000000000000000000000000000000000000000000073ffffffffffffffffffffffffffffffffffffffff16634000aea07f00000000000000000000000000000000000000000000000000000000000000007f000000000000000000000000000000000000000000000000000000000000000073ffffffffffffffffffffffffffffffffffffffff16634306d354886040518263ffffffff1660e01b8152600401610cfd91906117a0565b602060405180830381865afa158015610d1a573d6000803e3d6000fd5b505050506040513d601f19601f82011682018060405250810190610d3e91906117d0565b878787604051602001610d539392919061180c565b6040516020818303038152906040526040518463ffffffff1660e01b8152600401610d80939291906118c2565b6020604051808303816000875af1158015610d9f573d6000803e3d6000fd5b505050506040513d601f19601f82011682018060405250810190610dc39190611938565b507f000000000000000000000000000000000000000000000000000000000000000073ffffffffffffffffffffffffffffffffffffffff1663fc2a88c36040518163ffffffff1660e01b8152600401602060405180830381865afa158015610e2f573d6000803e3d6000fd5b505050506040513d601f19601f82011682018060405250810190610e5391906117d0565b90509392505050565b600033905090565b6000604051905090565b600080fd5b600080fd5b600061ffff82169050919050565b610e8f81610e78565b8114610e9a57600080fd5b50565b600081359050610eac81610e86565b92915050565b600060208284031215610ec857610ec7610e6e565b5b6000610ed684828501610e9d565b91505092915050565b6000819050919050565b610ef281610edf565b8114610efd57600080fd5b50565b600081359050610f0f81610ee9565b92915050565b600080fd5b6000601f19601f8301169050919050565b7f4e487b7100000000000000000000000000000000000000000000000000000000600052604160045260246000fd5b610f6382610f1a565b810181811067ffffffffffffffff82111715610f8257610f81610f2b565b5b80604052505050565b6000610f95610e64565b9050610fa18282610f5a565b919050565b600067ffffffffffffffff821115610fc157610fc0610f2b565b5b602082029050602081019050919050565b600080fd5b6000610fea610fe584610fa6565b610f8b565b9050808382526020820190506020840283018581111561100d5761100c610fd2565b5b835b8181101561103657806110228882610f00565b84526020840193505060208101905061100f565b5050509392505050565b600082601f83011261105557611054610f15565b5b8135611065848260208601610fd7565b91505092915050565b6000806040838503121561108557611084610e6e565b5b600061109385828601610f00565b925050602083013567ffffffffffffffff8111156110b4576110b3610e73565b5b6110c085828601611040565b9150509250929050565b600073ffffffffffffffffffffffffffffffffffffffff82169050919050565b60006110f5826110ca565b9050919050565b611105816110ea565b811461111057600080fd5b50565b600081359050611122816110fc565b92915050565b6000611133826110ca565b9050919050565b61114381611128565b811461114e57600080fd5b50565b6000813590506111608161113a565b92915050565b6000806040838503121561117d5761117c610e6e565b5b600061118b85828601611113565b925050602061119c85828601611151565b9150509250929050565b6000602082840312156111bc576111bb610e6e565b5b60006111ca84828501610f00565b91505092915050565b6111dc81610edf565b82525050565b60006020820190506111f760008301846111d3565b92915050565b600063ffffffff82169050919050565b611216816111fd565b811461122157600080fd5b50565b6000813590506112338161120d565b92915050565b60006020828403121561124f5761124e610e6e565b5b600061125d84828501611224565b91505092915050565b60006020828403121561127c5761127b610e6e565b5b600061128a84828501611151565b91505092915050565b61129c81611128565b82525050565b60006020820190506112b76000830184611293565b92915050565b6000819050919050565b60006112e26112dd6112d8846110ca565b6112bd565b6110ca565b9050919050565b60006112f4826112c7565b9050919050565b6000611306826112e9565b9050919050565b611316816112fb565b82525050565b6000602082019050611331600083018461130d565b92915050565b6000611342826112c7565b9050919050565b600061135482611337565b9050919050565b61136481611349565b82525050565b600060208201905061137f600083018461135b565b92915050565b600082825260208201905092915050565b7f6f6e6c792056524620563220777261707065722063616e2066756c66696c6c00600082015250565b60006113cc601f83611385565b91506113d782611396565b602082019050919050565b600060208201905081810360008301526113fb816113bf565b9050919050565b7f43616e206f6e6c792062652063616c6c6564206f6e6365000000000000000000600082015250565b6000611438601783611385565b915061144382611402565b602082019050919050565b600060208201905081810360008301526114678161142b565b9050919050565b7f4e487b7100000000000000000000000000000000000000000000000000000000600052601160045260246000fd5b60006114a882610edf565b91506114b383610edf565b92508282019050808211156114cb576114ca61146e565b5b92915050565b7f4f6e6c792074686520436f696e466c69702f526166666c6520636f6e7472616360008201527f742063616e2063616c6c20746869732066756e6374696f6e0000000000000000602082015250565b600061152d603883611385565b9150611538826114d1565b604082019050919050565b6000602082019050818103600083015261155c81611520565b9050919050565b7f4f776e61626c653a206e6577206f776e657220697320746865207a65726f206160008201527f6464726573730000000000000000000000000000000000000000000000000000602082015250565b60006115bf602683611385565b91506115ca82611563565b604082019050919050565b600060208201905081810360008301526115ee816115b2565b9050919050565b7f4f776e61626c653a2063616c6c6572206973206e6f7420746865206f776e6572600082015250565b600061162b602083611385565b9150611636826115f5565b602082019050919050565b6000602082019050818103600083015261165a8161161e565b9050919050565b7f4f6e6c79205652465f56325f575241505045522063616e2066756c66696c6c00600082015250565b6000611697601f83611385565b91506116a282611661565b602082019050919050565b600060208201905081810360008301526116c68161168a565b9050919050565b7f4e487b7100000000000000000000000000000000000000000000000000000000600052603260045260246000fd5b600060408201905061171160008301856111d3565b61171e60208301846111d3565b9392505050565b7f43616c6c6572206e6f74207265636f676e697a65640000000000000000000000600082015250565b600061175b601583611385565b915061176682611725565b602082019050919050565b6000602082019050818103600083015261178a8161174e565b9050919050565b61179a816111fd565b82525050565b60006020820190506117b56000830184611791565b92915050565b6000815190506117ca81610ee9565b92915050565b6000602082840312156117e6576117e5610e6e565b5b60006117f4848285016117bb565b91505092915050565b61180681610e78565b82525050565b60006060820190506118216000830186611791565b61182e60208301856117fd565b61183b6040830184611791565b949350505050565b600081519050919050565b600082825260208201905092915050565b60005b8381101561187d578082015181840152602081019050611862565b60008484015250505050565b600061189482611843565b61189e818561184e565b93506118ae81856020860161185f565b6118b781610f1a565b840191505092915050565b60006060820190506118d76000830186611293565b6118e460208301856111d3565b81810360408301526118f68184611889565b9050949350505050565b60008115159050919050565b61191581611900565b811461192057600080fd5b50565b6000815190506119328161190c565b92915050565b60006020828403121561194e5761194d610e6e565b5b600061195c84828501611923565b9150509291505056fea26469706673582212206eebe580ca31f15aac4a178f6b2ea7924ce64d58aed1561fee1de02a636a67ac64736f6c63430008110033",
  "linkReferences": {},
  "deployedLinkReferences": {}
}