{
  "_format": "hh-sol-artifact-1",
  "contractName": "CoinFlip",
  "sourceName": "contracts/CoinFlip.sol",
  "abi": [
    {
      "inputs": [
        {
          "internalType": "address",
          "name": "_random_address",
          "type": "address"
        },
        {
          "internalType": "address",
          "name": "_funds_manager",
          "type": "address"
        }
      ],
      "stateMutability": "nonpayable",
      "type": "constructor"
    },
    {
      "anonymous": false,
      "inputs": [
        {
          "indexed": false,
          "internalType": "address",
          "name": "sender",
          "type": "address"
        },
        {
          "indexed": false,
          "internalType": "uint256",
          "name": "amount",
          "type": "uint256"
        }
      ],
      "name": "FTMReceived",
      "type": "event"
    },
    {
      "anonymous": false,
      "inputs": [
        {
          "indexed": false,
          "internalType": "address",
          "name": "player",
          "type": "address"
        },
        {
          "indexed": false,
          "internalType": "uint256",
          "name": "amount",
          "type": "uint256"
        },
        {
          "indexed": false,
          "internalType": "uint256",
          "name": "bet",
          "type": "uint256"
        },
        {
          "indexed": false,
          "internalType": "uint256",
          "name": "request_id",
          "type": "uint256"
        }
      ],
      "name": "GamePlay",
      "type": "event"
    },
    {
      "anonymous": false,
      "inputs": [
        {
          "indexed": false,
          "internalType": "address",
          "name": "player",
          "type": "address"
        },
        {
          "indexed": false,
          "internalType": "uint256",
          "name": "random_number",
          "type": "uint256"
        },
        {
          "indexed": false,
          "internalType": "uint256",
          "name": "bet",
          "type": "uint256"
        }
      ],
      "name": "GameResult",
      "type": "event"
    },
    {
      "anonymous": false,
      "inputs": [
        {
          "indexed": true,
          "internalType": "address",
          "name": "previousOwner",
          "type": "address"
        },
        {
          "indexed": true,
          "internalType": "address",
          "name": "newOwner",
          "type": "address"
        }
      ],
      "name": "OwnershipTransferred",
      "type": "event"
    },
    {
      "stateMutability": "payable",
      "type": "fallback"
    },
    {
      "inputs": [
        {
          "internalType": "uint256",
          "name": "",
          "type": "uint256"
        }
      ],
      "name": "amounts",
      "outputs": [
        {
          "internalType": "uint256",
          "name": "",
          "type": "uint256"
        }
      ],
      "stateMutability": "view",
      "type": "function"
    },
    {
      "inputs": [],
      "name": "fee_balance",
      "outputs": [
        {
          "internalType": "uint256",
          "name": "",
          "type": "uint256"
        }
      ],
      "stateMutability": "view",
      "type": "function"
    },
    {
      "inputs": [
        {
          "internalType": "uint256",
          "name": "requestId",
          "type": "uint256"
        },
        {
          "internalType": "uint256",
          "name": "random_number",
          "type": "uint256"
        }
      ],
      "name": "flip_result",
      "outputs": [],
      "stateMutability": "nonpayable",
      "type": "function"
    },
    {
      "inputs": [],
      "name": "funds_manager",
      "outputs": [
        {
          "internalType": "contract FundsManager",
          "name": "",
          "type": "address"
        }
      ],
      "stateMutability": "view",
      "type": "function"
    },
    {
      "inputs": [
        {
          "internalType": "uint256",
          "name": "",
          "type": "uint256"
        }
      ],
      "name": "games",
      "outputs": [
        {
          "internalType": "address",
          "name": "player",
          "type": "address"
        },
        {
          "internalType": "uint256",
          "name": "bet",
          "type": "uint256"
        },
        {
          "internalType": "uint256",
          "name": "amount",
          "type": "uint256"
        },
        {
          "internalType": "bool",
          "name": "ended",
          "type": "bool"
        },
        {
          "internalType": "bool",
          "name": "won",
          "type": "bool"
        }
      ],
      "stateMutability": "view",
      "type": "function"
    },
    {
      "inputs": [
        {
          "internalType": "address",
          "name": "user",
          "type": "address"
        }
      ],
      "name": "getGameInfo",
      "outputs": [
        {
          "components": [
            {
              "internalType": "address",
              "name": "player",
              "type": "address"
            },
            {
              "internalType": "uint256",
              "name": "bet",
              "type": "uint256"
            },
            {
              "internalType": "uint256",
              "name": "amount",
              "type": "uint256"
            },
            {
              "internalType": "bool",
              "name": "ended",
              "type": "bool"
            },
            {
              "internalType": "bool",
              "name": "won",
              "type": "bool"
            }
          ],
          "internalType": "struct CoinFlip.Game",
          "name": "",
          "type": "tuple"
        }
      ],
      "stateMutability": "view",
      "type": "function"
    },
    {
      "inputs": [],
      "name": "min_balance_factor",
      "outputs": [
        {
          "internalType": "uint256",
          "name": "",
          "type": "uint256"
        }
      ],
      "stateMutability": "view",
      "type": "function"
    },
    {
      "inputs": [],
      "name": "min_fee_balance",
      "outputs": [
        {
          "internalType": "uint256",
          "name": "",
          "type": "uint256"
        }
      ],
      "stateMutability": "view",
      "type": "function"
    },
    {
      "inputs": [],
      "name": "owner",
      "outputs": [
        {
          "internalType": "address",
          "name": "",
          "type": "address"
        }
      ],
      "stateMutability": "view",
      "type": "function"
    },
    {
      "inputs": [
        {
          "internalType": "uint256",
          "name": "_bet",
          "type": "uint256"
        }
      ],
      "name": "play",
      "outputs": [],
      "stateMutability": "payable",
      "type": "function"
    },
    {
      "inputs": [],
      "name": "random_contract",
      "outputs": [
        {
          "internalType": "contract RandomNumberConsumer",
          "name": "",
          "type": "address"
        }
      ],
      "stateMutability": "view",
      "type": "function"
    },
    {
      "inputs": [],
      "name": "renounceOwnership",
      "outputs": [],
      "stateMutability": "nonpayable",
      "type": "function"
    },
    {
      "inputs": [
        {
          "internalType": "address",
          "name": "",
          "type": "address"
        }
      ],
      "name": "request_ids",
      "outputs": [
        {
          "internalType": "uint256",
          "name": "",
          "type": "uint256"
        }
      ],
      "stateMutability": "view",
      "type": "function"
    },
    {
      "inputs": [
        {
          "internalType": "uint256[]",
          "name": "_amounts",
          "type": "uint256[]"
        }
      ],
      "name": "setAmounts",
      "outputs": [],
      "stateMutability": "nonpayable",
      "type": "function"
    },
    {
      "inputs": [
        {
          "internalType": "address",
          "name": "_funds_manager_address",
          "type": "address"
        }
      ],
      "name": "setFundsManagerContract",
      "outputs": [],
      "stateMutability": "nonpayable",
      "type": "function"
    },
    {
      "inputs": [
        {
          "internalType": "uint256",
          "name": "_min_fee_balance",
          "type": "uint256"
        }
      ],
      "name": "setMinFee",
      "outputs": [],
      "stateMutability": "nonpayable",
      "type": "function"
    },
    {
      "inputs": [
        {
          "internalType": "address",
          "name": "random_address",
          "type": "address"
        }
      ],
      "name": "setRandomContract",
      "outputs": [],
      "stateMutability": "nonpayable",
      "type": "function"
    },
    {
      "inputs": [
        {
          "internalType": "uint256",
          "name": "_winning_fee",
          "type": "uint256"
        }
      ],
      "name": "setWinningFee",
      "outputs": [],
      "stateMutability": "nonpayable",
      "type": "function"
    },
    {
      "inputs": [
        {
          "internalType": "address",
          "name": "newOwner",
          "type": "address"
        }
      ],
      "name": "transferOwnership",
      "outputs": [],
      "stateMutability": "nonpayable",
      "type": "function"
    },
    {
      "inputs": [],
      "name": "winning_fee",
      "outputs": [
        {
          "internalType": "uint256",
          "name": "",
          "type": "uint256"
        }
      ],
      "stateMutability": "view",
      "type": "function"
    },
    {
      "inputs": [],
      "name": "winning_fee_divisor",
      "outputs": [
        {
          "internalType": "uint256",
          "name": "",
          "type": "uint256"
        }
      ],
      "stateMutability": "view",
      "type": "function"
    },
    {
      "inputs": [],
      "name": "withdraw",
      "outputs": [],
      "stateMutability": "nonpayable",
      "type": "function"
    },
    {
      "stateMutability": "payable",
      "type": "receive"
    }
  ],
  "bytecode": "0x6080604052604051806060016040528067016345785d8a000067ffffffffffffffff1681526020016706f05b59d3b2000067ffffffffffffffff168152602001670de0b6b3a764000067ffffffffffffffff168152506003906003620000679291906200022c565b50600360045560326005556103e8600655662386f26fc10000600b553480156200009057600080fd5b5060405162002552380380620025528339818101604052810190620000b6919062000313565b620000d6620000ca6200016060201b60201c565b6200016860201b60201c565b81600160006101000a81548173ffffffffffffffffffffffffffffffffffffffff021916908373ffffffffffffffffffffffffffffffffffffffff16021790555080600260006101000a81548173ffffffffffffffffffffffffffffffffffffffff021916908373ffffffffffffffffffffffffffffffffffffffff16021790555050506200035a565b600033905090565b60008060009054906101000a900473ffffffffffffffffffffffffffffffffffffffff169050816000806101000a81548173ffffffffffffffffffffffffffffffffffffffff021916908373ffffffffffffffffffffffffffffffffffffffff1602179055508173ffffffffffffffffffffffffffffffffffffffff168173ffffffffffffffffffffffffffffffffffffffff167f8be0079c531659141344cd1fd0a4f28419497f9722a3daafe3b4186f6b6457e060405160405180910390a35050565b82805482825590600052602060002090810192821562000277579160200282015b8281111562000276578251829067ffffffffffffffff169055916020019190600101906200024d565b5b5090506200028691906200028a565b5090565b5b80821115620002a55760008160009055506001016200028b565b5090565b600080fd5b600073ffffffffffffffffffffffffffffffffffffffff82169050919050565b6000620002db82620002ae565b9050919050565b620002ed81620002ce565b8114620002f957600080fd5b50565b6000815190506200030d81620002e2565b92915050565b600080604083850312156200032d576200032c620002a9565b5b60006200033d85828601620002fc565b92505060206200035085828601620002fc565b9150509250929050565b6121e8806200036a6000396000f3fe6080604052600436106101395760003560e01c806345f0a44f116100ab578063715018a61161006f578063715018a61461048557806372b513d51461049c578063805e97c9146104c55780638da5cb5b146104ee578063ca6b282b14610519578063f2fde38b1461054457610179565b806345f0a44f1461039b5780634d4f17bb146103d8578063585d4586146104155780635ff7348b1461043e5780636898f82b1461046957610179565b80631769f049116100fd5780631769f049146102b157806331ac9920146102dc57806336b3c80f1461030557806337b45fa8146103305780633ccfd60b1461035b5780634331153c1461037257610179565b8063021a12d4146101b45780630933e3a7146101df5780630ea901d214610208578063117a5b901461024557806311e6a59b1461028657610179565b36610179577f627a1f2a33e46fb65cae23da2cb008aaa316ab9137e564b1b802a06811b99101333460405161016f929190611570565b60405180910390a1005b7f627a1f2a33e46fb65cae23da2cb008aaa316ab9137e564b1b802a06811b9910133346040516101aa929190611570565b60405180910390a1005b3480156101c057600080fd5b506101c961056d565b6040516101d69190611599565b60405180910390f35b3480156101eb57600080fd5b50610206600480360381019061020191906115f4565b610573565b005b34801561021457600080fd5b5061022f600480360381019061022a91906115f4565b6105bf565b60405161023c91906116c2565b60405180910390f35b34801561025157600080fd5b5061026c60048036038101906102679190611709565b6106cb565b60405161027d959493929190611745565b60405180910390f35b34801561029257600080fd5b5061029b61073b565b6040516102a89190611599565b60405180910390f35b3480156102bd57600080fd5b506102c6610741565b6040516102d39190611599565b60405180910390f35b3480156102e857600080fd5b5061030360048036038101906102fe9190611709565b610747565b005b34801561031157600080fd5b5061031a610759565b6040516103279190611599565b60405180910390f35b34801561033c57600080fd5b5061034561075f565b60405161035291906117f7565b60405180910390f35b34801561036757600080fd5b50610370610785565b005b34801561037e57600080fd5b506103996004803603810190610394919061196b565b6107d6565b005b3480156103a757600080fd5b506103c260048036038101906103bd9190611709565b61083c565b6040516103cf9190611599565b60405180910390f35b3480156103e457600080fd5b506103ff60048036038101906103fa91906115f4565b610860565b60405161040c9190611599565b60405180910390f35b34801561042157600080fd5b5061043c600480360381019061043791906119b4565b610878565b005b34801561044a57600080fd5b50610453610cd1565b6040516104609190611a15565b60405180910390f35b610483600480360381019061047e9190611709565b610cf7565b005b34801561049157600080fd5b5061049a611160565b005b3480156104a857600080fd5b506104c360048036038101906104be9190611709565b611174565b005b3480156104d157600080fd5b506104ec60048036038101906104e791906115f4565b611186565b005b3480156104fa57600080fd5b506105036111d2565b6040516105109190611a30565b60405180910390f35b34801561052557600080fd5b5061052e6111fb565b60405161053b9190611599565b60405180910390f35b34801561055057600080fd5b5061056b600480360381019061056691906115f4565b611201565b005b60065481565b61057b611284565b80600160006101000a81548173ffffffffffffffffffffffffffffffffffffffff021916908373ffffffffffffffffffffffffffffffffffffffff16021790555050565b6105c7611463565b60076000600860008573ffffffffffffffffffffffffffffffffffffffff1673ffffffffffffffffffffffffffffffffffffffff1681526020019081526020016000205481526020019081526020016000206040518060a00160405290816000820160009054906101000a900473ffffffffffffffffffffffffffffffffffffffff1673ffffffffffffffffffffffffffffffffffffffff1673ffffffffffffffffffffffffffffffffffffffff16815260200160018201548152602001600282015481526020016003820160009054906101000a900460ff161515151581526020016003820160019054906101000a900460ff1615151515815250509050919050565b60076020528060005260406000206000915090508060000160009054906101000a900473ffffffffffffffffffffffffffffffffffffffff16908060010154908060020154908060030160009054906101000a900460ff16908060030160019054906101000a900460ff16905085565b600b5481565b600a5481565b61074f611284565b80600b8190555050565b60055481565b600160009054906101000a900473ffffffffffffffffffffffffffffffffffffffff1681565b61078d611284565b3373ffffffffffffffffffffffffffffffffffffffff166108fc479081150290604051600060405180830381858888f193505050501580156107d3573d6000803e3d6000fd5b50565b6107de611284565b6003815114610822576040517f08c379a000000000000000000000000000000000000000000000000000000000815260040161081990611aa8565b60405180910390fd5b80600390805190602001906108389291906114ac565b5050565b6003818154811061084c57600080fd5b906000526020600020016000915090505481565b60086020528060005260406000206000915090505481565b600160009054906101000a900473ffffffffffffffffffffffffffffffffffffffff1673ffffffffffffffffffffffffffffffffffffffff163373ffffffffffffffffffffffffffffffffffffffff1614610908576040517f08c379a00000000000000000000000000000000000000000000000000000000081526004016108ff90611b3a565b60405180910390fd5b600015156007600084815260200190815260200160002060030160009054906101000a900460ff16151514610972576040517f08c379a000000000000000000000000000000000000000000000000000000000815260040161096990611ba6565b60405180910390fd5b600073ffffffffffffffffffffffffffffffffffffffff166007600084815260200190815260200160002060000160009054906101000a900473ffffffffffffffffffffffffffffffffffffffff1673ffffffffffffffffffffffffffffffffffffffff1603610a17576040517f08c379a0000000000000000000000000000000000000000000000000000000008152600401610a0e90611c12565b60405180910390fd5b60016007600084815260200190815260200160002060030160006101000a81548160ff0219169083151502179055506000600960006007600086815260200190815260200160002060000160009054906101000a900473ffffffffffffffffffffffffffffffffffffffff1673ffffffffffffffffffffffffffffffffffffffff1673ffffffffffffffffffffffffffffffffffffffff16815260200190815260200160002060006101000a81548160ff0219169083151502179055506000600282610ae39190611c61565b905060076000848152602001908152602001600020600101548103610c455760006006546005546007600087815260200190815260200160002060020154610b2b9190611cc1565b610b359190611d03565b905080600a6000828254610b499190611d34565b92505081905550600b54600a5410610b6457610b63611302565b5b60008160026007600088815260200190815260200160002060020154610b8a9190611cc1565b610b949190611d68565b90506007600086815260200190815260200160002060000160009054906101000a900473ffffffffffffffffffffffffffffffffffffffff1673ffffffffffffffffffffffffffffffffffffffff166108fc829081150290604051600060405180830381858888f19350505050158015610c12573d6000803e3d6000fd5b5060016007600087815260200190815260200160002060030160016101000a81548160ff02191690831515021790555050505b7f761bbf8ad882003774e8650d36faa00fdea1a75836949dfb7eb6ac36fe29505c6007600085815260200190815260200160002060000160009054906101000a900473ffffffffffffffffffffffffffffffffffffffff16826007600087815260200190815260200160002060010154604051610cc493929190611d9c565b60405180910390a1505050565b600260009054906101000a900473ffffffffffffffffffffffffffffffffffffffff1681565b60006001811115610d0b57610d0a611dd3565b5b811480610d295750600180811115610d2657610d25611dd3565b5b81145b610d68576040517f08c379a0000000000000000000000000000000000000000000000000000000008152600401610d5f90611e74565b60405180910390fd5b6003600081548110610d7d57610d7c611e94565b5b9060005260206000200154341480610db357506003600181548110610da557610da4611e94565b5b906000526020600020015434145b80610ddc57506003600281548110610dce57610dcd611e94565b5b906000526020600020015434145b610e1b576040517f08c379a0000000000000000000000000000000000000000000000000000000008152600401610e1290611f0f565b60405180910390fd5b600960003373ffffffffffffffffffffffffffffffffffffffff1673ffffffffffffffffffffffffffffffffffffffff16815260200190815260200160002060009054906101000a900460ff1615610ea8576040517f08c379a0000000000000000000000000000000000000000000000000000000008152600401610e9f90611fa1565b60405180910390fd5b34600454610eb69190611cc1565b471015610ef8576040517f08c379a0000000000000000000000000000000000000000000000000000000008152600401610eef9061200d565b60405180910390fd5b6000600160009054906101000a900473ffffffffffffffffffffffffffffffffffffffff1673ffffffffffffffffffffffffffffffffffffffff1663aacc5a176040518163ffffffff1660e01b81526004016020604051808303816000875af1158015610f69573d6000803e3d6000fd5b505050506040513d601f19601f82011682018060405250810190610f8d9190612042565b90506040518060a001604052803373ffffffffffffffffffffffffffffffffffffffff168152602001838152602001348152602001600015158152602001600015158152506007600083815260200190815260200160002060008201518160000160006101000a81548173ffffffffffffffffffffffffffffffffffffffff021916908373ffffffffffffffffffffffffffffffffffffffff160217905550602082015181600101556040820151816002015560608201518160030160006101000a81548160ff02191690831515021790555060808201518160030160016101000a81548160ff02191690831515021790555090505080600860003373ffffffffffffffffffffffffffffffffffffffff1673ffffffffffffffffffffffffffffffffffffffff168152602001908152602001600020819055506001600960003373ffffffffffffffffffffffffffffffffffffffff1673ffffffffffffffffffffffffffffffffffffffff16815260200190815260200160002060006101000a81548160ff0219169083151502179055507ff19de367e8d44bb3aeb3b9c1c86dc5ab6f74caced54e8846e99221a5c5e9879f33348484604051611154949392919061206f565b60405180910390a15050565b611168611284565b6111726000611397565b565b61117c611284565b8060058190555050565b61118e611284565b80600260006101000a81548173ffffffffffffffffffffffffffffffffffffffff021916908373ffffffffffffffffffffffffffffffffffffffff16021790555050565b60008060009054906101000a900473ffffffffffffffffffffffffffffffffffffffff16905090565b60045481565b611209611284565b600073ffffffffffffffffffffffffffffffffffffffff168173ffffffffffffffffffffffffffffffffffffffff1603611278576040517f08c379a000000000000000000000000000000000000000000000000000000000815260040161126f90612126565b60405180910390fd5b61128181611397565b50565b61128c61145b565b73ffffffffffffffffffffffffffffffffffffffff166112aa6111d2565b73ffffffffffffffffffffffffffffffffffffffff1614611300576040517f08c379a00000000000000000000000000000000000000000000000000000000081526004016112f790612192565b60405180910390fd5b565b6000600a5490506000600a81905550600260009054906101000a900473ffffffffffffffffffffffffffffffffffffffff1673ffffffffffffffffffffffffffffffffffffffff1663d0f73a2b826040518263ffffffff1660e01b81526004016000604051808303818588803b15801561137b57600080fd5b505af115801561138f573d6000803e3d6000fd5b505050505050565b60008060009054906101000a900473ffffffffffffffffffffffffffffffffffffffff169050816000806101000a81548173ffffffffffffffffffffffffffffffffffffffff021916908373ffffffffffffffffffffffffffffffffffffffff1602179055508173ffffffffffffffffffffffffffffffffffffffff168173ffffffffffffffffffffffffffffffffffffffff167f8be0079c531659141344cd1fd0a4f28419497f9722a3daafe3b4186f6b6457e060405160405180910390a35050565b600033905090565b6040518060a00160405280600073ffffffffffffffffffffffffffffffffffffffff16815260200160008152602001600081526020016000151581526020016000151581525090565b8280548282559060005260206000209081019282156114e8579160200282015b828111156114e75782518255916020019190600101906114cc565b5b5090506114f591906114f9565b5090565b5b808211156115125760008160009055506001016114fa565b5090565b600073ffffffffffffffffffffffffffffffffffffffff82169050919050565b600061154182611516565b9050919050565b61155181611536565b82525050565b6000819050919050565b61156a81611557565b82525050565b60006040820190506115856000830185611548565b6115926020830184611561565b9392505050565b60006020820190506115ae6000830184611561565b92915050565b6000604051905090565b600080fd5b600080fd5b6115d181611536565b81146115dc57600080fd5b50565b6000813590506115ee816115c8565b92915050565b60006020828403121561160a576116096115be565b5b6000611618848285016115df565b91505092915050565b61162a81611536565b82525050565b61163981611557565b82525050565b60008115159050919050565b6116548161163f565b82525050565b60a0820160008201516116706000850182611621565b5060208201516116836020850182611630565b5060408201516116966040850182611630565b5060608201516116a9606085018261164b565b5060808201516116bc608085018261164b565b50505050565b600060a0820190506116d7600083018461165a565b92915050565b6116e681611557565b81146116f157600080fd5b50565b600081359050611703816116dd565b92915050565b60006020828403121561171f5761171e6115be565b5b600061172d848285016116f4565b91505092915050565b61173f8161163f565b82525050565b600060a08201905061175a6000830188611548565b6117676020830187611561565b6117746040830186611561565b6117816060830185611736565b61178e6080830184611736565b9695505050505050565b6000819050919050565b60006117bd6117b86117b384611516565b611798565b611516565b9050919050565b60006117cf826117a2565b9050919050565b60006117e1826117c4565b9050919050565b6117f1816117d6565b82525050565b600060208201905061180c60008301846117e8565b92915050565b600080fd5b6000601f19601f8301169050919050565b7f4e487b7100000000000000000000000000000000000000000000000000000000600052604160045260246000fd5b61186082611817565b810181811067ffffffffffffffff8211171561187f5761187e611828565b5b80604052505050565b60006118926115b4565b905061189e8282611857565b919050565b600067ffffffffffffffff8211156118be576118bd611828565b5b602082029050602081019050919050565b600080fd5b60006118e76118e2846118a3565b611888565b9050808382526020820190506020840283018581111561190a576119096118cf565b5b835b81811015611933578061191f88826116f4565b84526020840193505060208101905061190c565b5050509392505050565b600082601f83011261195257611951611812565b5b81356119628482602086016118d4565b91505092915050565b600060208284031215611981576119806115be565b5b600082013567ffffffffffffffff81111561199f5761199e6115c3565b5b6119ab8482850161193d565b91505092915050565b600080604083850312156119cb576119ca6115be565b5b60006119d9858286016116f4565b92505060206119ea858286016116f4565b9150509250929050565b60006119ff826117c4565b9050919050565b611a0f816119f4565b82525050565b6000602082019050611a2a6000830184611a06565b92915050565b6000602082019050611a456000830184611548565b92915050565b600082825260208201905092915050565b7f4172726179206d7573742068617665203320656c656d656e7473000000000000600082015250565b6000611a92601a83611a4b565b9150611a9d82611a5c565b602082019050919050565b60006020820190508181036000830152611ac181611a85565b9050919050565b7f4f6e6c79207468652052616e646f6d4e756d626572436f6e73756d657220636f60008201527f6e74726163742063616e2063616c6c20746869732066756e6374696f6e000000602082015250565b6000611b24603d83611a4b565b9150611b2f82611ac8565b604082019050919050565b60006020820190508181036000830152611b5381611b17565b9050919050565b7f47616d6520616c726561647920656e6465640000000000000000000000000000600082015250565b6000611b90601283611a4b565b9150611b9b82611b5a565b602082019050919050565b60006020820190508181036000830152611bbf81611b83565b9050919050565b7f4e6f2067616d6520666f756e6420776974682074686973206964000000000000600082015250565b6000611bfc601a83611a4b565b9150611c0782611bc6565b602082019050919050565b60006020820190508181036000830152611c2b81611bef565b9050919050565b7f4e487b7100000000000000000000000000000000000000000000000000000000600052601260045260246000fd5b6000611c6c82611557565b9150611c7783611557565b925082611c8757611c86611c32565b5b828206905092915050565b7f4e487b7100000000000000000000000000000000000000000000000000000000600052601160045260246000fd5b6000611ccc82611557565b9150611cd783611557565b9250828202611ce581611557565b91508282048414831517611cfc57611cfb611c92565b5b5092915050565b6000611d0e82611557565b9150611d1983611557565b925082611d2957611d28611c32565b5b828204905092915050565b6000611d3f82611557565b9150611d4a83611557565b9250828201905080821115611d6257611d61611c92565b5b92915050565b6000611d7382611557565b9150611d7e83611557565b9250828203905081811115611d9657611d95611c92565b5b92915050565b6000606082019050611db16000830186611548565b611dbe6020830185611561565b611dcb6040830184611561565b949350505050565b7f4e487b7100000000000000000000000000000000000000000000000000000000600052602160045260246000fd5b7f596f75206d75737420677565737320656974686572206865616473206f72207460008201527f61696c7300000000000000000000000000000000000000000000000000000000602082015250565b6000611e5e602483611a4b565b9150611e6982611e02565b604082019050919050565b60006020820190508181036000830152611e8d81611e51565b9050919050565b7f4e487b7100000000000000000000000000000000000000000000000000000000600052603260045260246000fd5b7f416d6f756e742073656e74206e6f7420636f7272656374000000000000000000600082015250565b6000611ef9601783611a4b565b9150611f0482611ec3565b602082019050919050565b60006020820190508181036000830152611f2881611eec565b9050919050565b7f596f752061726520616c726561647920706c6179696e6720612067616d652c2060008201527f7761697420666f7220746865206f7574636f6d65000000000000000000000000602082015250565b6000611f8b603483611a4b565b9150611f9682611f2f565b604082019050919050565b60006020820190508181036000830152611fba81611f7e565b9050919050565b7f436f6e74726163742062616c616e636520746f6f206c6f770000000000000000600082015250565b6000611ff7601883611a4b565b915061200282611fc1565b602082019050919050565b6000602082019050818103600083015261202681611fea565b9050919050565b60008151905061203c816116dd565b92915050565b600060208284031215612058576120576115be565b5b60006120668482850161202d565b91505092915050565b60006080820190506120846000830187611548565b6120916020830186611561565b61209e6040830185611561565b6120ab6060830184611561565b95945050505050565b7f4f776e61626c653a206e6577206f776e657220697320746865207a65726f206160008201527f6464726573730000000000000000000000000000000000000000000000000000602082015250565b6000612110602683611a4b565b915061211b826120b4565b604082019050919050565b6000602082019050818103600083015261213f81612103565b9050919050565b7f4f776e61626c653a2063616c6c6572206973206e6f7420746865206f776e6572600082015250565b600061217c602083611a4b565b915061218782612146565b602082019050919050565b600060208201905081810360008301526121ab8161216f565b905091905056fea2646970667358221220cfaf0a14bda263c9966e7e925943a254c535958e96ba4b674c53ded26c464dba64736f6c63430008110033",
  "linkReferences": {},
  "deployedLinkReferences": {}
}