{
  "_format": "hh-sol-artifact-1",
  "contractName": "CoinFlip",
  "sourceName": "contracts/CoinFlip.sol",
  "abi": [
    {
      "inputs": [
        {
          "internalType": "address",
          "name": "_random_address",
          "type": "address"
        },
        {
          "internalType": "address",
          "name": "_funds_manager",
          "type": "address"
        }
      ],
      "stateMutability": "nonpayable",
      "type": "constructor"
    },
    {
      "anonymous": false,
      "inputs": [
        {
          "indexed": false,
          "internalType": "address",
          "name": "sender",
          "type": "address"
        },
        {
          "indexed": false,
          "internalType": "uint256",
          "name": "amount",
          "type": "uint256"
        }
      ],
      "name": "FTMReceived",
      "type": "event"
    },
    {
      "anonymous": false,
      "inputs": [
        {
          "indexed": false,
          "internalType": "address",
          "name": "player",
          "type": "address"
        },
        {
          "indexed": false,
          "internalType": "uint256",
          "name": "amount",
          "type": "uint256"
        },
        {
          "indexed": false,
          "internalType": "uint256",
          "name": "bet",
          "type": "uint256"
        },
        {
          "indexed": false,
          "internalType": "uint256",
          "name": "request_id",
          "type": "uint256"
        }
      ],
      "name": "GamePlay",
      "type": "event"
    },
    {
      "anonymous": false,
      "inputs": [
        {
          "indexed": false,
          "internalType": "address",
          "name": "player",
          "type": "address"
        },
        {
          "indexed": false,
          "internalType": "uint256",
          "name": "random_number",
          "type": "uint256"
        },
        {
          "indexed": false,
          "internalType": "uint256",
          "name": "bet",
          "type": "uint256"
        }
      ],
      "name": "GameResult",
      "type": "event"
    },
    {
      "anonymous": false,
      "inputs": [
        {
          "indexed": true,
          "internalType": "address",
          "name": "previousOwner",
          "type": "address"
        },
        {
          "indexed": true,
          "internalType": "address",
          "name": "newOwner",
          "type": "address"
        }
      ],
      "name": "OwnershipTransferred",
      "type": "event"
    },
    {
      "stateMutability": "payable",
      "type": "fallback"
    },
    {
      "inputs": [
        {
          "internalType": "uint256",
          "name": "",
          "type": "uint256"
        }
      ],
      "name": "amounts",
      "outputs": [
        {
          "internalType": "uint256",
          "name": "",
          "type": "uint256"
        }
      ],
      "stateMutability": "view",
      "type": "function"
    },
    {
      "inputs": [],
      "name": "fee_balance",
      "outputs": [
        {
          "internalType": "uint256",
          "name": "",
          "type": "uint256"
        }
      ],
      "stateMutability": "view",
      "type": "function"
    },
    {
      "inputs": [
        {
          "internalType": "uint256",
          "name": "requestId",
          "type": "uint256"
        },
        {
          "internalType": "uint256",
          "name": "random_number",
          "type": "uint256"
        }
      ],
      "name": "flip_result",
      "outputs": [],
      "stateMutability": "nonpayable",
      "type": "function"
    },
    {
      "inputs": [],
      "name": "funds_manager",
      "outputs": [
        {
          "internalType": "address",
          "name": "",
          "type": "address"
        }
      ],
      "stateMutability": "view",
      "type": "function"
    },
    {
      "inputs": [
        {
          "internalType": "uint256",
          "name": "",
          "type": "uint256"
        }
      ],
      "name": "games",
      "outputs": [
        {
          "internalType": "address",
          "name": "player",
          "type": "address"
        },
        {
          "internalType": "uint256",
          "name": "bet",
          "type": "uint256"
        },
        {
          "internalType": "uint256",
          "name": "amount",
          "type": "uint256"
        },
        {
          "internalType": "bool",
          "name": "ended",
          "type": "bool"
        },
        {
          "internalType": "bool",
          "name": "won",
          "type": "bool"
        }
      ],
      "stateMutability": "view",
      "type": "function"
    },
    {
      "inputs": [],
      "name": "min_balance_factor",
      "outputs": [
        {
          "internalType": "uint256",
          "name": "",
          "type": "uint256"
        }
      ],
      "stateMutability": "view",
      "type": "function"
    },
    {
      "inputs": [],
      "name": "min_fee_balance",
      "outputs": [
        {
          "internalType": "uint256",
          "name": "",
          "type": "uint256"
        }
      ],
      "stateMutability": "view",
      "type": "function"
    },
    {
      "inputs": [],
      "name": "owner",
      "outputs": [
        {
          "internalType": "address",
          "name": "",
          "type": "address"
        }
      ],
      "stateMutability": "view",
      "type": "function"
    },
    {
      "inputs": [
        {
          "internalType": "uint256",
          "name": "_bet",
          "type": "uint256"
        }
      ],
      "name": "play",
      "outputs": [],
      "stateMutability": "payable",
      "type": "function"
    },
    {
      "inputs": [],
      "name": "random_contract",
      "outputs": [
        {
          "internalType": "contract RandomNumberConsumer",
          "name": "",
          "type": "address"
        }
      ],
      "stateMutability": "view",
      "type": "function"
    },
    {
      "inputs": [],
      "name": "renounceOwnership",
      "outputs": [],
      "stateMutability": "nonpayable",
      "type": "function"
    },
    {
      "inputs": [
        {
          "internalType": "address",
          "name": "",
          "type": "address"
        }
      ],
      "name": "request_ids",
      "outputs": [
        {
          "internalType": "uint256",
          "name": "",
          "type": "uint256"
        }
      ],
      "stateMutability": "view",
      "type": "function"
    },
    {
      "inputs": [
        {
          "internalType": "uint256[]",
          "name": "_amounts",
          "type": "uint256[]"
        }
      ],
      "name": "setAmounts",
      "outputs": [],
      "stateMutability": "nonpayable",
      "type": "function"
    },
    {
      "inputs": [
        {
          "internalType": "address",
          "name": "_funds_manager",
          "type": "address"
        }
      ],
      "name": "setFundsManager",
      "outputs": [],
      "stateMutability": "nonpayable",
      "type": "function"
    },
    {
      "inputs": [
        {
          "internalType": "uint256",
          "name": "_min_fee_balance",
          "type": "uint256"
        }
      ],
      "name": "setMinFee",
      "outputs": [],
      "stateMutability": "nonpayable",
      "type": "function"
    },
    {
      "inputs": [
        {
          "internalType": "address",
          "name": "random_address",
          "type": "address"
        }
      ],
      "name": "setRandomContract",
      "outputs": [],
      "stateMutability": "nonpayable",
      "type": "function"
    },
    {
      "inputs": [
        {
          "internalType": "uint256",
          "name": "_winning_fee",
          "type": "uint256"
        }
      ],
      "name": "setWinningFee",
      "outputs": [],
      "stateMutability": "nonpayable",
      "type": "function"
    },
    {
      "inputs": [
        {
          "internalType": "address",
          "name": "newOwner",
          "type": "address"
        }
      ],
      "name": "transferOwnership",
      "outputs": [],
      "stateMutability": "nonpayable",
      "type": "function"
    },
    {
      "inputs": [],
      "name": "winning_fee",
      "outputs": [
        {
          "internalType": "uint256",
          "name": "",
          "type": "uint256"
        }
      ],
      "stateMutability": "view",
      "type": "function"
    },
    {
      "inputs": [],
      "name": "winning_fee_divisor",
      "outputs": [
        {
          "internalType": "uint256",
          "name": "",
          "type": "uint256"
        }
      ],
      "stateMutability": "view",
      "type": "function"
    },
    {
      "inputs": [],
      "name": "withdraw",
      "outputs": [],
      "stateMutability": "nonpayable",
      "type": "function"
    },
    {
      "stateMutability": "payable",
      "type": "receive"
    }
  ],
  "bytecode": "0x6080604052604051806060016040528067016345785d8a000067ffffffffffffffff1681526020016706f05b59d3b2000067ffffffffffffffff168152602001670de0b6b3a764000067ffffffffffffffff168152506002906003620000679291906200022b565b506003805560326004556103e8600555666a94d74f430000600b553480156200008f57600080fd5b50604051620022ad380380620022ad8339818101604052810190620000b5919062000312565b620000d5620000c96200015f60201b60201c565b6200016760201b60201c565b81600160006101000a81548173ffffffffffffffffffffffffffffffffffffffff021916908373ffffffffffffffffffffffffffffffffffffffff16021790555080600a60006101000a81548173ffffffffffffffffffffffffffffffffffffffff021916908373ffffffffffffffffffffffffffffffffffffffff160217905550505062000359565b600033905090565b60008060009054906101000a900473ffffffffffffffffffffffffffffffffffffffff169050816000806101000a81548173ffffffffffffffffffffffffffffffffffffffff021916908373ffffffffffffffffffffffffffffffffffffffff1602179055508173ffffffffffffffffffffffffffffffffffffffff168173ffffffffffffffffffffffffffffffffffffffff167f8be0079c531659141344cd1fd0a4f28419497f9722a3daafe3b4186f6b6457e060405160405180910390a35050565b82805482825590600052602060002090810192821562000276579160200282015b8281111562000275578251829067ffffffffffffffff169055916020019190600101906200024c565b5b50905062000285919062000289565b5090565b5b80821115620002a45760008160009055506001016200028a565b5090565b600080fd5b600073ffffffffffffffffffffffffffffffffffffffff82169050919050565b6000620002da82620002ad565b9050919050565b620002ec81620002cd565b8114620002f857600080fd5b50565b6000815190506200030c81620002e1565b92915050565b600080604083850312156200032c576200032b620002a8565b5b60006200033c85828601620002fb565b92505060206200034f85828601620002fb565b9150509250929050565b611f4480620003696000396000f3fe60806040526004361061012e5760003560e01c806345f0a44f116100ab578063715018a61161006f578063715018a61461043d57806372b513d5146104545780638da5cb5b1461047d57806399c7e2e8146104a8578063ca6b282b146104d1578063f2fde38b146104fc5761016e565b806345f0a44f146103535780634d4f17bb14610390578063585d4586146103cd5780635ff7348b146103f65780636898f82b146104215761016e565b806331ac9920116100f257806331ac99201461029457806336b3c80f146102bd57806337b45fa8146102e85780633ccfd60b146103135780634331153c1461032a5761016e565b8063021a12d4146101a95780630933e3a7146101d4578063117a5b90146101fd57806311e6a59b1461023e5780631769f049146102695761016e565b3661016e577f627a1f2a33e46fb65cae23da2cb008aaa316ab9137e564b1b802a06811b9910133346040516101649291906113b8565b60405180910390a1005b7f627a1f2a33e46fb65cae23da2cb008aaa316ab9137e564b1b802a06811b99101333460405161019f9291906113b8565b60405180910390a1005b3480156101b557600080fd5b506101be610525565b6040516101cb91906113e1565b60405180910390f35b3480156101e057600080fd5b506101fb60048036038101906101f6919061143c565b61052b565b005b34801561020957600080fd5b50610224600480360381019061021f9190611495565b610577565b6040516102359594939291906114dd565b60405180910390f35b34801561024a57600080fd5b506102536105e7565b60405161026091906113e1565b60405180910390f35b34801561027557600080fd5b5061027e6105ed565b60405161028b91906113e1565b60405180910390f35b3480156102a057600080fd5b506102bb60048036038101906102b69190611495565b6105f3565b005b3480156102c957600080fd5b506102d2610605565b6040516102df91906113e1565b60405180910390f35b3480156102f457600080fd5b506102fd61060b565b60405161030a919061158f565b60405180910390f35b34801561031f57600080fd5b50610328610631565b005b34801561033657600080fd5b50610351600480360381019061034c9190611703565b610682565b005b34801561035f57600080fd5b5061037a60048036038101906103759190611495565b6106e8565b60405161038791906113e1565b60405180910390f35b34801561039c57600080fd5b506103b760048036038101906103b2919061143c565b61070c565b6040516103c491906113e1565b60405180910390f35b3480156103d957600080fd5b506103f460048036038101906103ef919061174c565b610724565b005b34801561040257600080fd5b5061040b610b7d565b604051610418919061178c565b60405180910390f35b61043b60048036038101906104369190611495565b610ba3565b005b34801561044957600080fd5b5061045261100b565b005b34801561046057600080fd5b5061047b60048036038101906104769190611495565b61101f565b005b34801561048957600080fd5b50610492611031565b60405161049f919061178c565b60405180910390f35b3480156104b457600080fd5b506104cf60048036038101906104ca919061143c565b61105a565b005b3480156104dd57600080fd5b506104e66110a6565b6040516104f391906113e1565b60405180910390f35b34801561050857600080fd5b50610523600480360381019061051e919061143c565b6110ac565b005b60055481565b61053361112f565b80600160006101000a81548173ffffffffffffffffffffffffffffffffffffffff021916908373ffffffffffffffffffffffffffffffffffffffff16021790555050565b60066020528060005260406000206000915090508060000160009054906101000a900473ffffffffffffffffffffffffffffffffffffffff16908060010154908060020154908060030160009054906101000a900460ff16908060030160019054906101000a900460ff16905085565b600b5481565b60095481565b6105fb61112f565b80600b8190555050565b60045481565b600160009054906101000a900473ffffffffffffffffffffffffffffffffffffffff1681565b61063961112f565b3373ffffffffffffffffffffffffffffffffffffffff166108fc479081150290604051600060405180830381858888f1935050505015801561067f573d6000803e3d6000fd5b50565b61068a61112f565b60038151146106ce576040517f08c379a00000000000000000000000000000000000000000000000000000000081526004016106c590611804565b60405180910390fd5b80600290805190602001906106e49291906112f4565b5050565b600281815481106106f857600080fd5b906000526020600020016000915090505481565b60076020528060005260406000206000915090505481565b600160009054906101000a900473ffffffffffffffffffffffffffffffffffffffff1673ffffffffffffffffffffffffffffffffffffffff163373ffffffffffffffffffffffffffffffffffffffff16146107b4576040517f08c379a00000000000000000000000000000000000000000000000000000000081526004016107ab90611896565b60405180910390fd5b600015156006600084815260200190815260200160002060030160009054906101000a900460ff1615151461081e576040517f08c379a000000000000000000000000000000000000000000000000000000000815260040161081590611902565b60405180910390fd5b600073ffffffffffffffffffffffffffffffffffffffff166006600084815260200190815260200160002060000160009054906101000a900473ffffffffffffffffffffffffffffffffffffffff1673ffffffffffffffffffffffffffffffffffffffff16036108c3576040517f08c379a00000000000000000000000000000000000000000000000000000000081526004016108ba9061196e565b60405180910390fd5b60016006600084815260200190815260200160002060030160006101000a81548160ff0219169083151502179055506000600860006006600086815260200190815260200160002060000160009054906101000a900473ffffffffffffffffffffffffffffffffffffffff1673ffffffffffffffffffffffffffffffffffffffff1673ffffffffffffffffffffffffffffffffffffffff16815260200190815260200160002060006101000a81548160ff021916908315150217905550600060028261098f91906119bd565b905060066000848152602001908152602001600020600101548103610af157600060055460045460066000878152602001908152602001600020600201546109d79190611a1d565b6109e19190611a5f565b905080600960008282546109f59190611a90565b92505081905550600b5460095410610a1057610a0f6111ad565b5b60008160026006600088815260200190815260200160002060020154610a369190611a1d565b610a409190611ac4565b90506006600086815260200190815260200160002060000160009054906101000a900473ffffffffffffffffffffffffffffffffffffffff1673ffffffffffffffffffffffffffffffffffffffff166108fc829081150290604051600060405180830381858888f19350505050158015610abe573d6000803e3d6000fd5b5060016006600087815260200190815260200160002060030160016101000a81548160ff02191690831515021790555050505b7f761bbf8ad882003774e8650d36faa00fdea1a75836949dfb7eb6ac36fe29505c6006600085815260200190815260200160002060000160009054906101000a900473ffffffffffffffffffffffffffffffffffffffff16826006600087815260200190815260200160002060010154604051610b7093929190611af8565b60405180910390a1505050565b600a60009054906101000a900473ffffffffffffffffffffffffffffffffffffffff1681565b60006001811115610bb757610bb6611b2f565b5b811480610bd55750600180811115610bd257610bd1611b2f565b5b81145b610c14576040517f08c379a0000000000000000000000000000000000000000000000000000000008152600401610c0b90611bd0565b60405180910390fd5b6002600081548110610c2957610c28611bf0565b5b9060005260206000200154341480610c5f57506002600181548110610c5157610c50611bf0565b5b906000526020600020015434145b80610c87575060028081548110610c7957610c78611bf0565b5b906000526020600020015434145b610cc6576040517f08c379a0000000000000000000000000000000000000000000000000000000008152600401610cbd90611c6b565b60405180910390fd5b600860003373ffffffffffffffffffffffffffffffffffffffff1673ffffffffffffffffffffffffffffffffffffffff16815260200190815260200160002060009054906101000a900460ff1615610d53576040517f08c379a0000000000000000000000000000000000000000000000000000000008152600401610d4a90611cfd565b60405180910390fd5b34600354610d619190611a1d565b471015610da3576040517f08c379a0000000000000000000000000000000000000000000000000000000008152600401610d9a90611d69565b60405180910390fd5b6000600160009054906101000a900473ffffffffffffffffffffffffffffffffffffffff1673ffffffffffffffffffffffffffffffffffffffff1663aacc5a176040518163ffffffff1660e01b81526004016020604051808303816000875af1158015610e14573d6000803e3d6000fd5b505050506040513d601f19601f82011682018060405250810190610e389190611d9e565b90506040518060a001604052803373ffffffffffffffffffffffffffffffffffffffff168152602001838152602001348152602001600015158152602001600015158152506006600083815260200190815260200160002060008201518160000160006101000a81548173ffffffffffffffffffffffffffffffffffffffff021916908373ffffffffffffffffffffffffffffffffffffffff160217905550602082015181600101556040820151816002015560608201518160030160006101000a81548160ff02191690831515021790555060808201518160030160016101000a81548160ff02191690831515021790555090505080600760003373ffffffffffffffffffffffffffffffffffffffff1673ffffffffffffffffffffffffffffffffffffffff168152602001908152602001600020819055506001600860003373ffffffffffffffffffffffffffffffffffffffff1673ffffffffffffffffffffffffffffffffffffffff16815260200190815260200160002060006101000a81548160ff0219169083151502179055507ff19de367e8d44bb3aeb3b9c1c86dc5ab6f74caced54e8846e99221a5c5e9879f33348484604051610fff9493929190611dcb565b60405180910390a15050565b61101361112f565b61101d6000611228565b565b61102761112f565b8060048190555050565b60008060009054906101000a900473ffffffffffffffffffffffffffffffffffffffff16905090565b61106261112f565b80600a60006101000a81548173ffffffffffffffffffffffffffffffffffffffff021916908373ffffffffffffffffffffffffffffffffffffffff16021790555050565b60035481565b6110b461112f565b600073ffffffffffffffffffffffffffffffffffffffff168173ffffffffffffffffffffffffffffffffffffffff1603611123576040517f08c379a000000000000000000000000000000000000000000000000000000000815260040161111a90611e82565b60405180910390fd5b61112c81611228565b50565b6111376112ec565b73ffffffffffffffffffffffffffffffffffffffff16611155611031565b73ffffffffffffffffffffffffffffffffffffffff16146111ab576040517f08c379a00000000000000000000000000000000000000000000000000000000081526004016111a290611eee565b60405180910390fd5b565b600060095490506000600981905550600a60009054906101000a900473ffffffffffffffffffffffffffffffffffffffff1673ffffffffffffffffffffffffffffffffffffffff166108fc829081150290604051600060405180830381858888f19350505050158015611224573d6000803e3d6000fd5b5050565b60008060009054906101000a900473ffffffffffffffffffffffffffffffffffffffff169050816000806101000a81548173ffffffffffffffffffffffffffffffffffffffff021916908373ffffffffffffffffffffffffffffffffffffffff1602179055508173ffffffffffffffffffffffffffffffffffffffff168173ffffffffffffffffffffffffffffffffffffffff167f8be0079c531659141344cd1fd0a4f28419497f9722a3daafe3b4186f6b6457e060405160405180910390a35050565b600033905090565b828054828255906000526020600020908101928215611330579160200282015b8281111561132f578251825591602001919060010190611314565b5b50905061133d9190611341565b5090565b5b8082111561135a576000816000905550600101611342565b5090565b600073ffffffffffffffffffffffffffffffffffffffff82169050919050565b60006113898261135e565b9050919050565b6113998161137e565b82525050565b6000819050919050565b6113b28161139f565b82525050565b60006040820190506113cd6000830185611390565b6113da60208301846113a9565b9392505050565b60006020820190506113f660008301846113a9565b92915050565b6000604051905090565b600080fd5b600080fd5b6114198161137e565b811461142457600080fd5b50565b60008135905061143681611410565b92915050565b60006020828403121561145257611451611406565b5b600061146084828501611427565b91505092915050565b6114728161139f565b811461147d57600080fd5b50565b60008135905061148f81611469565b92915050565b6000602082840312156114ab576114aa611406565b5b60006114b984828501611480565b91505092915050565b60008115159050919050565b6114d7816114c2565b82525050565b600060a0820190506114f26000830188611390565b6114ff60208301876113a9565b61150c60408301866113a9565b61151960608301856114ce565b61152660808301846114ce565b9695505050505050565b6000819050919050565b600061155561155061154b8461135e565b611530565b61135e565b9050919050565b60006115678261153a565b9050919050565b60006115798261155c565b9050919050565b6115898161156e565b82525050565b60006020820190506115a46000830184611580565b92915050565b600080fd5b6000601f19601f8301169050919050565b7f4e487b7100000000000000000000000000000000000000000000000000000000600052604160045260246000fd5b6115f8826115af565b810181811067ffffffffffffffff82111715611617576116166115c0565b5b80604052505050565b600061162a6113fc565b905061163682826115ef565b919050565b600067ffffffffffffffff821115611656576116556115c0565b5b602082029050602081019050919050565b600080fd5b600061167f61167a8461163b565b611620565b905080838252602082019050602084028301858111156116a2576116a1611667565b5b835b818110156116cb57806116b78882611480565b8452602084019350506020810190506116a4565b5050509392505050565b600082601f8301126116ea576116e96115aa565b5b81356116fa84826020860161166c565b91505092915050565b60006020828403121561171957611718611406565b5b600082013567ffffffffffffffff8111156117375761173661140b565b5b611743848285016116d5565b91505092915050565b6000806040838503121561176357611762611406565b5b600061177185828601611480565b925050602061178285828601611480565b9150509250929050565b60006020820190506117a16000830184611390565b92915050565b600082825260208201905092915050565b7f4172726179206d7573742068617665203320656c656d656e7473000000000000600082015250565b60006117ee601a836117a7565b91506117f9826117b8565b602082019050919050565b6000602082019050818103600083015261181d816117e1565b9050919050565b7f4f6e6c79207468652052616e646f6d4e756d626572436f6e73756d657220636f60008201527f6e74726163742063616e2063616c6c20746869732066756e6374696f6e000000602082015250565b6000611880603d836117a7565b915061188b82611824565b604082019050919050565b600060208201905081810360008301526118af81611873565b9050919050565b7f47616d6520616c726561647920656e6465640000000000000000000000000000600082015250565b60006118ec6012836117a7565b91506118f7826118b6565b602082019050919050565b6000602082019050818103600083015261191b816118df565b9050919050565b7f4e6f2067616d6520666f756e6420776974682074686973206964000000000000600082015250565b6000611958601a836117a7565b915061196382611922565b602082019050919050565b600060208201905081810360008301526119878161194b565b9050919050565b7f4e487b7100000000000000000000000000000000000000000000000000000000600052601260045260246000fd5b60006119c88261139f565b91506119d38361139f565b9250826119e3576119e261198e565b5b828206905092915050565b7f4e487b7100000000000000000000000000000000000000000000000000000000600052601160045260246000fd5b6000611a288261139f565b9150611a338361139f565b9250828202611a418161139f565b91508282048414831517611a5857611a576119ee565b5b5092915050565b6000611a6a8261139f565b9150611a758361139f565b925082611a8557611a8461198e565b5b828204905092915050565b6000611a9b8261139f565b9150611aa68361139f565b9250828201905080821115611abe57611abd6119ee565b5b92915050565b6000611acf8261139f565b9150611ada8361139f565b9250828203905081811115611af257611af16119ee565b5b92915050565b6000606082019050611b0d6000830186611390565b611b1a60208301856113a9565b611b2760408301846113a9565b949350505050565b7f4e487b7100000000000000000000000000000000000000000000000000000000600052602160045260246000fd5b7f596f75206d75737420677565737320656974686572206865616473206f72207460008201527f61696c7300000000000000000000000000000000000000000000000000000000602082015250565b6000611bba6024836117a7565b9150611bc582611b5e565b604082019050919050565b60006020820190508181036000830152611be981611bad565b9050919050565b7f4e487b7100000000000000000000000000000000000000000000000000000000600052603260045260246000fd5b7f416d6f756e742073656e74206e6f7420636f7272656374000000000000000000600082015250565b6000611c556017836117a7565b9150611c6082611c1f565b602082019050919050565b60006020820190508181036000830152611c8481611c48565b9050919050565b7f596f752061726520616c726561647920706c6179696e6720612067616d652c2060008201527f7761697420666f7220746865206f7574636f6d65000000000000000000000000602082015250565b6000611ce76034836117a7565b9150611cf282611c8b565b604082019050919050565b60006020820190508181036000830152611d1681611cda565b9050919050565b7f436f6e74726163742062616c616e636520746f6f206c6f770000000000000000600082015250565b6000611d536018836117a7565b9150611d5e82611d1d565b602082019050919050565b60006020820190508181036000830152611d8281611d46565b9050919050565b600081519050611d9881611469565b92915050565b600060208284031215611db457611db3611406565b5b6000611dc284828501611d89565b91505092915050565b6000608082019050611de06000830187611390565b611ded60208301866113a9565b611dfa60408301856113a9565b611e0760608301846113a9565b95945050505050565b7f4f776e61626c653a206e6577206f776e657220697320746865207a65726f206160008201527f6464726573730000000000000000000000000000000000000000000000000000602082015250565b6000611e6c6026836117a7565b9150611e7782611e10565b604082019050919050565b60006020820190508181036000830152611e9b81611e5f565b9050919050565b7f4f776e61626c653a2063616c6c6572206973206e6f7420746865206f776e6572600082015250565b6000611ed86020836117a7565b9150611ee382611ea2565b602082019050919050565b60006020820190508181036000830152611f0781611ecb565b905091905056fea26469706673582212209925b020100930f9e8555aaa79964d3933122746de999bfad2948b077b958e8364736f6c63430008110033",
  "linkReferences": {},
  "deployedLinkReferences": {}
}