{
  "_format": "hh-sol-artifact-1",
  "contractName": "Lottery",
  "sourceName": "contracts/lottery.sol",
  "abi": [
    {
      "inputs": [
        {
          "internalType": "address",
          "name": "randomness_address",
          "type": "address"
        },
        {
          "internalType": "address",
          "name": "_funds_manager",
          "type": "address"
        }
      ],
      "stateMutability": "nonpayable",
      "type": "constructor"
    },
    {
      "anonymous": false,
      "inputs": [
        {
          "indexed": false,
          "internalType": "uint256",
          "name": "lotteryId",
          "type": "uint256"
        },
        {
          "indexed": false,
          "internalType": "bool",
          "name": "tickets_fully_sold",
          "type": "bool"
        }
      ],
      "name": "LotteryEnded",
      "type": "event"
    },
    {
      "anonymous": false,
      "inputs": [
        {
          "indexed": false,
          "internalType": "uint256",
          "name": "lotteryId",
          "type": "uint256"
        },
        {
          "indexed": false,
          "internalType": "address",
          "name": "player",
          "type": "address"
        },
        {
          "indexed": false,
          "internalType": "uint256",
          "name": "ticket_amount",
          "type": "uint256"
        }
      ],
      "name": "LotteryEntered",
      "type": "event"
    },
    {
      "anonymous": false,
      "inputs": [
        {
          "indexed": false,
          "internalType": "uint256",
          "name": "lotteryId",
          "type": "uint256"
        },
        {
          "indexed": false,
          "internalType": "address",
          "name": "NFTcontract",
          "type": "address"
        },
        {
          "indexed": false,
          "internalType": "uint256",
          "name": "NFTid",
          "type": "uint256"
        },
        {
          "indexed": false,
          "internalType": "uint256",
          "name": "ticket_amount",
          "type": "uint256"
        },
        {
          "indexed": false,
          "internalType": "uint256",
          "name": "ticket_price",
          "type": "uint256"
        }
      ],
      "name": "LotteryStarted",
      "type": "event"
    },
    {
      "anonymous": false,
      "inputs": [
        {
          "indexed": false,
          "internalType": "uint256",
          "name": "lotteryId",
          "type": "uint256"
        },
        {
          "indexed": false,
          "internalType": "address",
          "name": "winner",
          "type": "address"
        }
      ],
      "name": "LotteryWinner",
      "type": "event"
    },
    {
      "inputs": [],
      "name": "emergency_withdraw",
      "outputs": [],
      "stateMutability": "nonpayable",
      "type": "function"
    },
    {
      "inputs": [
        {
          "internalType": "uint256",
          "name": "_lotteryId",
          "type": "uint256"
        }
      ],
      "name": "end_lottery",
      "outputs": [],
      "stateMutability": "nonpayable",
      "type": "function"
    },
    {
      "inputs": [
        {
          "internalType": "uint256",
          "name": "_lotteryId",
          "type": "uint256"
        },
        {
          "internalType": "uint256",
          "name": "_ticket_amount",
          "type": "uint256"
        }
      ],
      "name": "enter",
      "outputs": [],
      "stateMutability": "payable",
      "type": "function"
    },
    {
      "inputs": [],
      "name": "fee_balance",
      "outputs": [
        {
          "internalType": "uint256",
          "name": "",
          "type": "uint256"
        }
      ],
      "stateMutability": "view",
      "type": "function"
    },
    {
      "inputs": [],
      "name": "funds_manager",
      "outputs": [
        {
          "internalType": "address",
          "name": "",
          "type": "address"
        }
      ],
      "stateMutability": "view",
      "type": "function"
    },
    {
      "inputs": [
        {
          "internalType": "uint256",
          "name": "_lotteryId",
          "type": "uint256"
        }
      ],
      "name": "get_lottery_state",
      "outputs": [
        {
          "internalType": "enum Lottery.LOTTERY_STATE",
          "name": "",
          "type": "uint8"
        }
      ],
      "stateMutability": "view",
      "type": "function"
    },
    {
      "inputs": [
        {
          "internalType": "uint256",
          "name": "_lotteryId",
          "type": "uint256"
        }
      ],
      "name": "get_players",
      "outputs": [
        {
          "internalType": "address[]",
          "name": "",
          "type": "address[]"
        }
      ],
      "stateMutability": "view",
      "type": "function"
    },
    {
      "inputs": [
        {
          "internalType": "uint256",
          "name": "_lotteryId",
          "type": "uint256"
        }
      ],
      "name": "get_pot",
      "outputs": [
        {
          "internalType": "uint256",
          "name": "",
          "type": "uint256"
        }
      ],
      "stateMutability": "view",
      "type": "function"
    },
    {
      "inputs": [
        {
          "internalType": "uint256",
          "name": "",
          "type": "uint256"
        }
      ],
      "name": "lotteries",
      "outputs": [
        {
          "internalType": "address",
          "name": "owner",
          "type": "address"
        },
        {
          "internalType": "enum Lottery.LOTTERY_STATE",
          "name": "lottery_state",
          "type": "uint8"
        },
        {
          "internalType": "uint256",
          "name": "ticket_price",
          "type": "uint256"
        },
        {
          "internalType": "uint256",
          "name": "ticket_amount",
          "type": "uint256"
        },
        {
          "internalType": "uint256",
          "name": "ticket_sold",
          "type": "uint256"
        },
        {
          "internalType": "address",
          "name": "NFTcontract",
          "type": "address"
        },
        {
          "internalType": "uint256",
          "name": "NFTid",
          "type": "uint256"
        }
      ],
      "stateMutability": "view",
      "type": "function"
    },
    {
      "inputs": [],
      "name": "lotteryId",
      "outputs": [
        {
          "internalType": "uint256",
          "name": "",
          "type": "uint256"
        }
      ],
      "stateMutability": "view",
      "type": "function"
    },
    {
      "inputs": [
        {
          "internalType": "uint256",
          "name": "requestId",
          "type": "uint256"
        },
        {
          "internalType": "uint256",
          "name": "randomness",
          "type": "uint256"
        }
      ],
      "name": "lottery_result",
      "outputs": [],
      "stateMutability": "nonpayable",
      "type": "function"
    },
    {
      "inputs": [],
      "name": "owner",
      "outputs": [
        {
          "internalType": "address",
          "name": "",
          "type": "address"
        }
      ],
      "stateMutability": "view",
      "type": "function"
    },
    {
      "inputs": [
        {
          "internalType": "address",
          "name": "",
          "type": "address"
        }
      ],
      "name": "ownerLotteryId",
      "outputs": [
        {
          "internalType": "uint256",
          "name": "",
          "type": "uint256"
        }
      ],
      "stateMutability": "view",
      "type": "function"
    },
    {
      "inputs": [],
      "name": "randomness_contract",
      "outputs": [
        {
          "internalType": "contract RandomNumberConsumer",
          "name": "",
          "type": "address"
        }
      ],
      "stateMutability": "view",
      "type": "function"
    },
    {
      "inputs": [
        {
          "internalType": "uint256",
          "name": "",
          "type": "uint256"
        }
      ],
      "name": "requestId_to_lotteryId",
      "outputs": [
        {
          "internalType": "uint256",
          "name": "",
          "type": "uint256"
        }
      ],
      "stateMutability": "view",
      "type": "function"
    },
    {
      "inputs": [
        {
          "internalType": "address",
          "name": "_NFTcontract",
          "type": "address"
        },
        {
          "internalType": "uint256",
          "name": "_NFTid",
          "type": "uint256"
        },
        {
          "internalType": "uint256",
          "name": "_ticket_price",
          "type": "uint256"
        },
        {
          "internalType": "uint256",
          "name": "_ticket_amount",
          "type": "uint256"
        }
      ],
      "name": "start_new_lottery",
      "outputs": [],
      "stateMutability": "nonpayable",
      "type": "function"
    },
    {
      "inputs": [],
      "name": "winning_fee",
      "outputs": [
        {
          "internalType": "uint256",
          "name": "",
          "type": "uint256"
        }
      ],
      "stateMutability": "view",
      "type": "function"
    },
    {
      "inputs": [],
      "name": "winning_fee_divisor",
      "outputs": [
        {
          "internalType": "uint256",
          "name": "",
          "type": "uint256"
        }
      ],
      "stateMutability": "view",
      "type": "function"
    }
  ],
  "bytecode": "0x6080604052600260075560646008556001600a60006101000a81548160ff0219169083151502179055503480156200003657600080fd5b5060405162002ec538038062002ec583398181016040528101906200005c919062000198565b33600160006101000a81548173ffffffffffffffffffffffffffffffffffffffff021916908373ffffffffffffffffffffffffffffffffffffffff160217905550816000806101000a81548173ffffffffffffffffffffffffffffffffffffffff021916908373ffffffffffffffffffffffffffffffffffffffff16021790555080600260006101000a81548173ffffffffffffffffffffffffffffffffffffffff021916908373ffffffffffffffffffffffffffffffffffffffff16021790555060016004819055505050620001df565b600080fd5b600073ffffffffffffffffffffffffffffffffffffffff82169050919050565b6000620001608262000133565b9050919050565b620001728162000153565b81146200017e57600080fd5b50565b600081519050620001928162000167565b92915050565b60008060408385031215620001b257620001b16200012e565b5b6000620001c28582860162000181565b9250506020620001d58582860162000181565b9150509250929050565b612cd680620001ef6000396000f3fe6080604052600436106101095760003560e01c80636102b1ab116100955780638da5cb5b116100645780638da5cb5b1461038a57806392c68c67146103b5578063bdc41a40146103f2578063cbc1cfd21461041b578063e580f47b1461043257610109565b80636102b1ab146102d05780636565d223146102f957806366810420146103225780636a7223fc1461035f57610109565b80631769f049116100dc5780631769f049146101f657806323972aef1461022157806336b3c80f1461023d578063493eeb6e146102685780635ff7348b146102a557610109565b8063021a12d41461010e57806302c375521461013957806310812d8f146101765780631398e076146101b3575b600080fd5b34801561011a57600080fd5b5061012361045d565b6040516101309190611e3f565b60405180910390f35b34801561014557600080fd5b50610160600480360381019061015b9190611ebd565b610463565b60405161016d9190611e3f565b60405180910390f35b34801561018257600080fd5b5061019d60048036038101906101989190611f16565b61047b565b6040516101aa9190612001565b60405180910390f35b3480156101bf57600080fd5b506101da60048036038101906101d59190611f16565b61051f565b6040516101ed97969594939291906120a9565b60405180910390f35b34801561020257600080fd5b5061020b6105ae565b6040516102189190611e3f565b60405180910390f35b61023b60048036038101906102369190612118565b6105b4565b005b34801561024957600080fd5b50610252610889565b60405161025f9190611e3f565b60405180910390f35b34801561027457600080fd5b5061028f600480360381019061028a9190611f16565b61088f565b60405161029c9190612158565b60405180910390f35b3480156102b157600080fd5b506102ba6108bc565b6040516102c79190612173565b60405180910390f35b3480156102dc57600080fd5b506102f760048036038101906102f29190612118565b6108e2565b005b34801561030557600080fd5b50610320600480360381019061031b9190611f16565b610deb565b005b34801561032e57600080fd5b5061034960048036038101906103449190611f16565b61136b565b6040516103569190611e3f565b60405180910390f35b34801561036b57600080fd5b506103746113ac565b60405161038191906121ed565b60405180910390f35b34801561039657600080fd5b5061039f6113d0565b6040516103ac9190612173565b60405180910390f35b3480156103c157600080fd5b506103dc60048036038101906103d79190611f16565b6113f6565b6040516103e99190611e3f565b60405180910390f35b3480156103fe57600080fd5b5061041960048036038101906104149190612208565b61140e565b005b34801561042757600080fd5b506104306117f7565b005b34801561043e57600080fd5b50610447611bab565b6040516104549190611e3f565b60405180910390f35b60085481565b60056020528060005260406000206000915090505481565b60606003600083815260200190815260200160002060060180548060200260200160405190810160405280929190818152602001828054801561051357602002820191906000526020600020905b8160009054906101000a900473ffffffffffffffffffffffffffffffffffffffff1673ffffffffffffffffffffffffffffffffffffffff16815260200190600101908083116104c9575b50505050509050919050565b60036020528060005260406000206000915090508060000160009054906101000a900473ffffffffffffffffffffffffffffffffffffffff16908060000160149054906101000a900460ff16908060010154908060020154908060030154908060040160009054906101000a900473ffffffffffffffffffffffffffffffffffffffff16908060050154905087565b60095481565b6003600083815260200190815260200160002060010154816105d6919061229e565b3414610617576040517f08c379a000000000000000000000000000000000000000000000000000000000815260040161060e90612363565b60405180910390fd5b6001600281111561062b5761062a612032565b5b6003600084815260200190815260200160002060000160149054906101000a900460ff16600281111561066157610660612032565b5b146106a1576040517f08c379a0000000000000000000000000000000000000000000000000000000008152600401610698906123cf565b60405180910390fd5b60036000838152602001908152602001600020600201548160036000858152602001908152602001600020600301546106da91906123ef565b111561071b576040517f08c379a00000000000000000000000000000000000000000000000000000000081526004016107129061246f565b60405180910390fd5b60036000838152602001908152602001600020600601339080600181540180825580915050600190039060005260206000200160009091909190916101000a81548173ffffffffffffffffffffffffffffffffffffffff021916908373ffffffffffffffffffffffffffffffffffffffff1602179055506003600083815260200190815260200160002060010154816107b4919061229e565b6003600084815260200190815260200160002060070160003373ffffffffffffffffffffffffffffffffffffffff1673ffffffffffffffffffffffffffffffffffffffff168152602001908152602001600020600082825461081691906123ef565b925050819055508060036000848152602001908152602001600020600301600082825461084391906123ef565b925050819055507fd89b8985d462dcc0f343f72f43f1cfb87058fcbf847b83b81ca18ce204be941d82338360405161087d9392919061248f565b60405180910390a15050565b60075481565b60006003600083815260200190815260200160002060000160149054906101000a900460ff169050919050565b600260009054906101000a900473ffffffffffffffffffffffffffffffffffffffff1681565b60006006600084815260200190815260200160002054905060008054906101000a900473ffffffffffffffffffffffffffffffffffffffff1673ffffffffffffffffffffffffffffffffffffffff163373ffffffffffffffffffffffffffffffffffffffff1614610988576040517f08c379a000000000000000000000000000000000000000000000000000000000815260040161097f90612538565b60405180910390fd5b60028081111561099b5761099a612032565b5b6003600083815260200190815260200160002060000160149054906101000a900460ff1660028111156109d1576109d0612032565b5b14610a11576040517f08c379a0000000000000000000000000000000000000000000000000000000008152600401610a08906125a4565b60405180910390fd5b60008211610a54576040517f08c379a0000000000000000000000000000000000000000000000000000000008152600401610a4b90612610565b60405180910390fd5b60006003600083815260200190815260200160002060000160146101000a81548160ff02191690836002811115610a8e57610a8d612032565b5b02179055506000600560006003600085815260200190815260200160002060000160009054906101000a900473ffffffffffffffffffffffffffffffffffffffff1673ffffffffffffffffffffffffffffffffffffffff1673ffffffffffffffffffffffffffffffffffffffff168152602001908152602001600020819055506000600360008381526020019081526020016000206006018054905083610b35919061265f565b90506000600360008481526020019081526020016000206006018281548110610b6157610b60612690565b5b9060005260206000200160009054906101000a900473ffffffffffffffffffffffffffffffffffffffff1690506003600084815260200190815260200160002060040160009054906101000a900473ffffffffffffffffffffffffffffffffffffffff1673ffffffffffffffffffffffffffffffffffffffff166323b872dd308360036000888152602001908152602001600020600501546040518463ffffffff1660e01b8152600401610c17939291906126bf565b600060405180830381600087803b158015610c3157600080fd5b505af1158015610c45573d6000803e3d6000fd5b50505050600060036000858152602001908152602001600020600201546003600086815260200190815260200160002060010154610c83919061229e565b9050600060085460075483610c98919061229e565b610ca291906126f6565b905060008183610cb29190612727565b90508160096000828254610cc691906123ef565b92505081905550670de0b6b3a76400006009541115610ce857610ce7611bb1565b5b6003600087815260200190815260200160002060000160009054906101000a900473ffffffffffffffffffffffffffffffffffffffff1673ffffffffffffffffffffffffffffffffffffffff166108fc829081150290604051600060405180830381858888f19350505050158015610d64573d6000803e3d6000fd5b506000600560003373ffffffffffffffffffffffffffffffffffffffff1673ffffffffffffffffffffffffffffffffffffffff16815260200190815260200160002050507fe889741f811e43708e11c26f71911284b5b2fe112108a2f7c945229286192a948685604051610dd992919061275b565b60405180910390a15050505050505050565b6003600082815260200190815260200160002060000160009054906101000a900473ffffffffffffffffffffffffffffffffffffffff1673ffffffffffffffffffffffffffffffffffffffff163373ffffffffffffffffffffffffffffffffffffffff1614610e8f576040517f08c379a0000000000000000000000000000000000000000000000000000000008152600401610e86906127f6565b60405180910390fd5b60016002811115610ea357610ea2612032565b5b6003600083815260200190815260200160002060000160149054906101000a900460ff166002811115610ed957610ed8612032565b5b14610f19576040517f08c379a0000000000000000000000000000000000000000000000000000000008152600401610f10906123cf565b60405180910390fd5b60006003600083815260200190815260200160002060020154600360008481526020019081526020016000206003015410156111fd576000905060006003600084815260200190815260200160002060000160146101000a81548160ff02191690836002811115610f8d57610f8c612032565b5b02179055506003600083815260200190815260200160002060040160009054906101000a900473ffffffffffffffffffffffffffffffffffffffff1673ffffffffffffffffffffffffffffffffffffffff166323b872dd306003600086815260200190815260200160002060000160009054906101000a900473ffffffffffffffffffffffffffffffffffffffff1660036000878152602001908152602001600020600501546040518463ffffffff1660e01b8152600401611051939291906126bf565b600060405180830381600087803b15801561106b57600080fd5b505af115801561107f573d6000803e3d6000fd5b5050505060005b60036000848152602001908152602001600020600601805490508110156111b25760006003600085815260200190815260200160002060060182815481106110d1576110d0612690565b5b9060005260206000200160009054906101000a900473ffffffffffffffffffffffffffffffffffffffff16905060006003600086815260200190815260200160002060070160008373ffffffffffffffffffffffffffffffffffffffff1673ffffffffffffffffffffffffffffffffffffffff1681526020019081526020016000205490508173ffffffffffffffffffffffffffffffffffffffff166108fc829081150290604051600060405180830381858888f1935050505015801561119c573d6000803e3d6000fd5b50505080806111aa90612816565b915050611086565b506000600560003373ffffffffffffffffffffffffffffffffffffffff1673ffffffffffffffffffffffffffffffffffffffff1681526020019081526020016000208190555061132e565b61123b6040518060400160405280601281526020017f43616c63756c6174696e672077696e6e65720000000000000000000000000000815250611c2c565b6001905060026003600084815260200190815260200160002060000160146101000a81548160ff0219169083600281111561127957611278612032565b5b021790555060008060009054906101000a900473ffffffffffffffffffffffffffffffffffffffff1673ffffffffffffffffffffffffffffffffffffffff1663aacc5a176040518163ffffffff1660e01b81526004016020604051808303816000875af11580156112ee573d6000803e3d6000fd5b505050506040513d601f19601f820116820180604052508101906113129190612873565b9050826006600083815260200190815260200160002081905550505b7fc189b0ed6a4af0c11d1f5127e61fede48f58f5f615483eab9e1cca13ed739bed828260405161135f9291906128bb565b60405180910390a15050565b6000600360008381526020019081526020016000206002015460036000848152602001908152602001600020600101546113a5919061229e565b9050919050565b60008054906101000a900473ffffffffffffffffffffffffffffffffffffffff1681565b600160009054906101000a900473ffffffffffffffffffffffffffffffffffffffff1681565b60066020528060005260406000206000915090505481565b600a60009054906101000a900460ff1661145d576040517f08c379a000000000000000000000000000000000000000000000000000000000815260040161145490612956565b60405180910390fd5b6000600a60006101000a81548160ff021916908315150217905550600082116114bb576040517f08c379a00000000000000000000000000000000000000000000000000000000081526004016114b2906129c2565b60405180910390fd5b600081116114fe576040517f08c379a00000000000000000000000000000000000000000000000000000000081526004016114f590612a2e565b60405180910390fd5b6000600560003373ffffffffffffffffffffffffffffffffffffffff1673ffffffffffffffffffffffffffffffffffffffff1681526020019081526020016000205414611580576040517f08c379a000000000000000000000000000000000000000000000000000000000815260040161157790612ac0565b60405180910390fd5b8373ffffffffffffffffffffffffffffffffffffffff166323b872dd3330866040518463ffffffff1660e01b81526004016115bd939291906126bf565b600060405180830381600087803b1580156115d757600080fd5b505af11580156115eb573d6000803e3d6000fd5b50505050600454600560003373ffffffffffffffffffffffffffffffffffffffff1673ffffffffffffffffffffffffffffffffffffffff168152602001908152602001600020819055503360036000600454815260200190815260200160002060000160006101000a81548173ffffffffffffffffffffffffffffffffffffffff021916908373ffffffffffffffffffffffffffffffffffffffff1602179055508160036000600454815260200190815260200160002060010181905550600160036000600454815260200190815260200160002060000160146101000a81548160ff021916908360028111156116e5576116e4612032565b5b021790555080600360006004548152602001908152602001600020600201819055508360036000600454815260200190815260200160002060040160006101000a81548173ffffffffffffffffffffffffffffffffffffffff021916908373ffffffffffffffffffffffffffffffffffffffff160217905550826003600060045481526020019081526020016000206005018190555060016004600082825461178e91906123ef565b925050819055507f10b2daaade0df42e94c7587b1ae00ef20559842c9eca19d1d8be124e27a9f7eb600454858584866040516117ce959493929190612ae0565b60405180910390a16001600a60006101000a81548160ff02191690831515021790555050505050565b600160009054906101000a900473ffffffffffffffffffffffffffffffffffffffff1673ffffffffffffffffffffffffffffffffffffffff163373ffffffffffffffffffffffffffffffffffffffff1614611887576040517f08c379a000000000000000000000000000000000000000000000000000000000815260040161187e90612b7f565b60405180910390fd5b6118c56040518060400160405280601281526020017f456d657267656e63792077697468647261770000000000000000000000000000815250611c2c565b6119046040518060400160405280600b81526020017f42616c616e63653a20257300000000000000000000000000000000000000000081525047611cc5565b61197b6040518060400160405280601181526020017f4e465420636f6e7472616374203a20257300000000000000000000000000000081525060036000600454815260200190815260200160002060040160009054906101000a900473ffffffffffffffffffffffffffffffffffffffff16611d61565b6119d26040518060400160405280600b81526020017f4e4654206964203a20257300000000000000000000000000000000000000000081525060036000600454815260200190815260200160002060050154611cc5565b611a496040518060400160405280600a81526020017f4f776e6572203a2025730000000000000000000000000000000000000000000081525060036000600454815260200190815260200160002060000160009054906101000a900473ffffffffffffffffffffffffffffffffffffffff16611d61565b600160009054906101000a900473ffffffffffffffffffffffffffffffffffffffff1673ffffffffffffffffffffffffffffffffffffffff166108fc479081150290604051600060405180830381858888f19350505050158015611ab1573d6000803e3d6000fd5b5060036000600454815260200190815260200160002060040160009054906101000a900473ffffffffffffffffffffffffffffffffffffffff1673ffffffffffffffffffffffffffffffffffffffff166323b872dd3060036000600454815260200190815260200160002060000160009054906101000a900473ffffffffffffffffffffffffffffffffffffffff16600360006004548152602001908152602001600020600501546040518463ffffffff1660e01b8152600401611b77939291906126bf565b600060405180830381600087803b158015611b9157600080fd5b505af1158015611ba5573d6000803e3d6000fd5b50505050565b60045481565b600060095490506000600981905550600260009054906101000a900473ffffffffffffffffffffffffffffffffffffffff1673ffffffffffffffffffffffffffffffffffffffff166108fc829081150290604051600060405180830381858888f19350505050158015611c28573d6000803e3d6000fd5b5050565b611cc281604051602401611c409190612c1e565b6040516020818303038152906040527f41304fac000000000000000000000000000000000000000000000000000000007bffffffffffffffffffffffffffffffffffffffffffffffffffffffff19166020820180517bffffffffffffffffffffffffffffffffffffffffffffffffffffffff8381831617835250505050611dfd565b50565b611d5d8282604051602401611cdb929190612c40565b6040516020818303038152906040527fb60e72cc000000000000000000000000000000000000000000000000000000007bffffffffffffffffffffffffffffffffffffffffffffffffffffffff19166020820180517bffffffffffffffffffffffffffffffffffffffffffffffffffffffff8381831617835250505050611dfd565b5050565b611df98282604051602401611d77929190612c70565b6040516020818303038152906040527f319af333000000000000000000000000000000000000000000000000000000007bffffffffffffffffffffffffffffffffffffffffffffffffffffffff19166020820180517bffffffffffffffffffffffffffffffffffffffffffffffffffffffff8381831617835250505050611dfd565b5050565b60008151905060006a636f6e736f6c652e6c6f679050602083016000808483855afa5050505050565b6000819050919050565b611e3981611e26565b82525050565b6000602082019050611e546000830184611e30565b92915050565b600080fd5b600073ffffffffffffffffffffffffffffffffffffffff82169050919050565b6000611e8a82611e5f565b9050919050565b611e9a81611e7f565b8114611ea557600080fd5b50565b600081359050611eb781611e91565b92915050565b600060208284031215611ed357611ed2611e5a565b5b6000611ee184828501611ea8565b91505092915050565b611ef381611e26565b8114611efe57600080fd5b50565b600081359050611f1081611eea565b92915050565b600060208284031215611f2c57611f2b611e5a565b5b6000611f3a84828501611f01565b91505092915050565b600081519050919050565b600082825260208201905092915050565b6000819050602082019050919050565b611f7881611e7f565b82525050565b6000611f8a8383611f6f565b60208301905092915050565b6000602082019050919050565b6000611fae82611f43565b611fb88185611f4e565b9350611fc383611f5f565b8060005b83811015611ff4578151611fdb8882611f7e565b9750611fe683611f96565b925050600181019050611fc7565b5085935050505092915050565b6000602082019050818103600083015261201b8184611fa3565b905092915050565b61202c81611e7f565b82525050565b7f4e487b7100000000000000000000000000000000000000000000000000000000600052602160045260246000fd5b6003811061207257612071612032565b5b50565b600081905061208382612061565b919050565b600061209382612075565b9050919050565b6120a381612088565b82525050565b600060e0820190506120be600083018a612023565b6120cb602083018961209a565b6120d86040830188611e30565b6120e56060830187611e30565b6120f26080830186611e30565b6120ff60a0830185612023565b61210c60c0830184611e30565b98975050505050505050565b6000806040838503121561212f5761212e611e5a565b5b600061213d85828601611f01565b925050602061214e85828601611f01565b9150509250929050565b600060208201905061216d600083018461209a565b92915050565b60006020820190506121886000830184612023565b92915050565b6000819050919050565b60006121b36121ae6121a984611e5f565b61218e565b611e5f565b9050919050565b60006121c582612198565b9050919050565b60006121d7826121ba565b9050919050565b6121e7816121cc565b82525050565b600060208201905061220260008301846121de565b92915050565b6000806000806080858703121561222257612221611e5a565b5b600061223087828801611ea8565b945050602061224187828801611f01565b935050604061225287828801611f01565b925050606061226387828801611f01565b91505092959194509250565b7f4e487b7100000000000000000000000000000000000000000000000000000000600052601160045260246000fd5b60006122a982611e26565b91506122b483611e26565b92508282026122c281611e26565b915082820484148315176122d9576122d861226f565b5b5092915050565b600082825260208201905092915050565b7f57726f6e672070726963652c20636865636b20746865207469636b657420707260008201527f6963650000000000000000000000000000000000000000000000000000000000602082015250565b600061234d6023836122e0565b9150612358826122f1565b604082019050919050565b6000602082019050818103600083015261237c81612340565b9050919050565b7f546865206c6f7474657279206861736e2774206576656e207374617274656421600082015250565b60006123b96020836122e0565b91506123c482612383565b602082019050919050565b600060208201905081810360008301526123e8816123ac565b9050919050565b60006123fa82611e26565b915061240583611e26565b925082820190508082111561241d5761241c61226f565b5b92915050565b7f546865206c6f74746572792069732066756c6c00000000000000000000000000600082015250565b60006124596013836122e0565b915061246482612423565b602082019050919050565b600060208201905081810360008301526124888161244c565b9050919050565b60006060820190506124a46000830186611e30565b6124b16020830185612023565b6124be6040830184611e30565b949350505050565b7f4f6e6c79207468652052616e646f6d4e756d626572436f6e73756d657220636f60008201527f6e74726163742063616e2063616c6c20746869732066756e6374696f6e000000602082015250565b6000612522603d836122e0565b915061252d826124c6565b604082019050919050565b6000602082019050818103600083015261255181612515565b9050919050565b7f596f75206172656e277420617420746861742073746167652079657421000000600082015250565b600061258e601d836122e0565b915061259982612558565b602082019050919050565b600060208201905081810360008301526125bd81612581565b9050919050565b7f72616e646f6d2d6e6f742d666f756e6400000000000000000000000000000000600082015250565b60006125fa6010836122e0565b9150612605826125c4565b602082019050919050565b60006020820190508181036000830152612629816125ed565b9050919050565b7f4e487b7100000000000000000000000000000000000000000000000000000000600052601260045260246000fd5b600061266a82611e26565b915061267583611e26565b92508261268557612684612630565b5b828206905092915050565b7f4e487b7100000000000000000000000000000000000000000000000000000000600052603260045260246000fd5b60006060820190506126d46000830186612023565b6126e16020830185612023565b6126ee6040830184611e30565b949350505050565b600061270182611e26565b915061270c83611e26565b92508261271c5761271b612630565b5b828204905092915050565b600061273282611e26565b915061273d83611e26565b92508282039050818111156127555761275461226f565b5b92915050565b60006040820190506127706000830185611e30565b61277d6020830184612023565b9392505050565b7f596f7520617265206e6f7420746865206f776e6572206f662074686973206c6f60008201527f7474657279000000000000000000000000000000000000000000000000000000602082015250565b60006127e06025836122e0565b91506127eb82612784565b604082019050919050565b6000602082019050818103600083015261280f816127d3565b9050919050565b600061282182611e26565b91507fffffffffffffffffffffffffffffffffffffffffffffffffffffffffffffffff82036128535761285261226f565b5b600182019050919050565b60008151905061286d81611eea565b92915050565b60006020828403121561288957612888611e5a565b5b60006128978482850161285e565b91505092915050565b60008115159050919050565b6128b5816128a0565b82525050565b60006040820190506128d06000830185611e30565b6128dd60208301846128ac565b9392505050565b7f41206e6577206c6f747465727920686173206265656e20737461727465642c2060008201527f77616974206a7573742061206269740000000000000000000000000000000000602082015250565b6000612940602f836122e0565b915061294b826128e4565b604082019050919050565b6000602082019050818103600083015261296f81612933565b9050919050565b7f5469636b65742070726963652063616e27742062652030000000000000000000600082015250565b60006129ac6017836122e0565b91506129b782612976565b602082019050919050565b600060208201905081810360008301526129db8161299f565b9050919050565b7f5469636b657420616d6f756e742063616e277420626520300000000000000000600082015250565b6000612a186018836122e0565b9150612a23826129e2565b602082019050919050565b60006020820190508181036000830152612a4781612a0b565b9050919050565b7f596f7520616c726561647920686176652061206c6f74746572792072756e6e6960008201527f6e67000000000000000000000000000000000000000000000000000000000000602082015250565b6000612aaa6022836122e0565b9150612ab582612a4e565b604082019050919050565b60006020820190508181036000830152612ad981612a9d565b9050919050565b600060a082019050612af56000830188611e30565b612b026020830187612023565b612b0f6040830186611e30565b612b1c6060830185611e30565b612b296080830184611e30565b9695505050505050565b7f596f7520617265206e6f7420746865206f776e65720000000000000000000000600082015250565b6000612b696015836122e0565b9150612b7482612b33565b602082019050919050565b60006020820190508181036000830152612b9881612b5c565b9050919050565b600081519050919050565b60005b83811015612bc8578082015181840152602081019050612bad565b60008484015250505050565b6000601f19601f8301169050919050565b6000612bf082612b9f565b612bfa81856122e0565b9350612c0a818560208601612baa565b612c1381612bd4565b840191505092915050565b60006020820190508181036000830152612c388184612be5565b905092915050565b60006040820190508181036000830152612c5a8185612be5565b9050612c696020830184611e30565b9392505050565b60006040820190508181036000830152612c8a8185612be5565b9050612c996020830184612023565b939250505056fea2646970667358221220e3e5b626c8cffefb502234d617dd0b2c42371c7faf72ca65c2f1f8a6bd2d033064736f6c63430008110033",
  "linkReferences": {},
  "deployedLinkReferences": {}
}