{
  "_format": "hh-sol-artifact-1",
  "contractName": "Lottery",
  "sourceName": "contracts/lottery.sol",
  "abi": [
    {
      "inputs": [
        {
          "internalType": "address",
          "name": "randomness_address",
          "type": "address"
        }
      ],
      "stateMutability": "nonpayable",
      "type": "constructor"
    },
    {
      "anonymous": false,
      "inputs": [
        {
          "indexed": false,
          "internalType": "uint256",
          "name": "lotteryId",
          "type": "uint256"
        },
        {
          "indexed": false,
          "internalType": "bool",
          "name": "tickets_fully_sold",
          "type": "bool"
        }
      ],
      "name": "LotteryEnded",
      "type": "event"
    },
    {
      "anonymous": false,
      "inputs": [
        {
          "indexed": false,
          "internalType": "uint256",
          "name": "lotteryId",
          "type": "uint256"
        },
        {
          "indexed": false,
          "internalType": "address",
          "name": "player",
          "type": "address"
        },
        {
          "indexed": false,
          "internalType": "uint256",
          "name": "ticket_amount",
          "type": "uint256"
        }
      ],
      "name": "LotteryEntered",
      "type": "event"
    },
    {
      "anonymous": false,
      "inputs": [
        {
          "indexed": false,
          "internalType": "uint256",
          "name": "lotteryId",
          "type": "uint256"
        },
        {
          "indexed": false,
          "internalType": "address",
          "name": "NFTcontract",
          "type": "address"
        },
        {
          "indexed": false,
          "internalType": "uint256",
          "name": "NFTid",
          "type": "uint256"
        },
        {
          "indexed": false,
          "internalType": "uint256",
          "name": "ticket_amount",
          "type": "uint256"
        },
        {
          "indexed": false,
          "internalType": "uint256",
          "name": "ticket_price",
          "type": "uint256"
        }
      ],
      "name": "LotteryStarted",
      "type": "event"
    },
    {
      "anonymous": false,
      "inputs": [
        {
          "indexed": false,
          "internalType": "uint256",
          "name": "lotteryId",
          "type": "uint256"
        },
        {
          "indexed": false,
          "internalType": "address",
          "name": "winner",
          "type": "address"
        }
      ],
      "name": "LotteryWinner",
      "type": "event"
    },
    {
      "inputs": [
        {
          "internalType": "uint256",
          "name": "_lotteryId",
          "type": "uint256"
        }
      ],
      "name": "end_lottery",
      "outputs": [],
      "stateMutability": "nonpayable",
      "type": "function"
    },
    {
      "inputs": [
        {
          "internalType": "uint256",
          "name": "_lotteryId",
          "type": "uint256"
        },
        {
          "internalType": "uint256",
          "name": "_ticket_amount",
          "type": "uint256"
        }
      ],
      "name": "enter",
      "outputs": [],
      "stateMutability": "payable",
      "type": "function"
    },
    {
      "inputs": [],
      "name": "fee_balance",
      "outputs": [
        {
          "internalType": "uint256",
          "name": "",
          "type": "uint256"
        }
      ],
      "stateMutability": "view",
      "type": "function"
    },
    {
      "inputs": [],
      "name": "funds_manager",
      "outputs": [
        {
          "internalType": "address",
          "name": "",
          "type": "address"
        }
      ],
      "stateMutability": "view",
      "type": "function"
    },
    {
      "inputs": [
        {
          "internalType": "uint256",
          "name": "_lotteryId",
          "type": "uint256"
        }
      ],
      "name": "get_lottery_state",
      "outputs": [
        {
          "internalType": "enum Lottery.LOTTERY_STATE",
          "name": "",
          "type": "uint8"
        }
      ],
      "stateMutability": "view",
      "type": "function"
    },
    {
      "inputs": [
        {
          "internalType": "uint256",
          "name": "_lotteryId",
          "type": "uint256"
        }
      ],
      "name": "get_players",
      "outputs": [
        {
          "internalType": "address payable[]",
          "name": "",
          "type": "address[]"
        }
      ],
      "stateMutability": "view",
      "type": "function"
    },
    {
      "inputs": [
        {
          "internalType": "uint256",
          "name": "_lotteryId",
          "type": "uint256"
        }
      ],
      "name": "get_pot",
      "outputs": [
        {
          "internalType": "uint256",
          "name": "",
          "type": "uint256"
        }
      ],
      "stateMutability": "view",
      "type": "function"
    },
    {
      "inputs": [
        {
          "internalType": "uint256",
          "name": "",
          "type": "uint256"
        }
      ],
      "name": "lotteries",
      "outputs": [
        {
          "internalType": "address",
          "name": "owner",
          "type": "address"
        },
        {
          "internalType": "enum Lottery.LOTTERY_STATE",
          "name": "lottery_state",
          "type": "uint8"
        },
        {
          "internalType": "uint256",
          "name": "ticket_price",
          "type": "uint256"
        },
        {
          "internalType": "uint256",
          "name": "ticket_amount",
          "type": "uint256"
        },
        {
          "internalType": "uint256",
          "name": "ticket_sold",
          "type": "uint256"
        },
        {
          "internalType": "address",
          "name": "NFTcontract",
          "type": "address"
        },
        {
          "internalType": "uint256",
          "name": "NFTid",
          "type": "uint256"
        }
      ],
      "stateMutability": "view",
      "type": "function"
    },
    {
      "inputs": [],
      "name": "lotteryId",
      "outputs": [
        {
          "internalType": "uint256",
          "name": "",
          "type": "uint256"
        }
      ],
      "stateMutability": "view",
      "type": "function"
    },
    {
      "inputs": [
        {
          "internalType": "uint256",
          "name": "requestId",
          "type": "uint256"
        },
        {
          "internalType": "uint256",
          "name": "randomness",
          "type": "uint256"
        }
      ],
      "name": "lottery_result",
      "outputs": [],
      "stateMutability": "nonpayable",
      "type": "function"
    },
    {
      "inputs": [],
      "name": "owner",
      "outputs": [
        {
          "internalType": "address",
          "name": "",
          "type": "address"
        }
      ],
      "stateMutability": "view",
      "type": "function"
    },
    {
      "inputs": [
        {
          "internalType": "address",
          "name": "",
          "type": "address"
        }
      ],
      "name": "ownerLotteryId",
      "outputs": [
        {
          "internalType": "uint256",
          "name": "",
          "type": "uint256"
        }
      ],
      "stateMutability": "view",
      "type": "function"
    },
    {
      "inputs": [],
      "name": "randomness_contract",
      "outputs": [
        {
          "internalType": "contract RandomNumberConsumer",
          "name": "",
          "type": "address"
        }
      ],
      "stateMutability": "view",
      "type": "function"
    },
    {
      "inputs": [
        {
          "internalType": "uint256",
          "name": "",
          "type": "uint256"
        }
      ],
      "name": "requestId_to_lotteryId",
      "outputs": [
        {
          "internalType": "uint256",
          "name": "",
          "type": "uint256"
        }
      ],
      "stateMutability": "view",
      "type": "function"
    },
    {
      "inputs": [
        {
          "internalType": "address",
          "name": "_NFTcontract",
          "type": "address"
        },
        {
          "internalType": "uint256",
          "name": "_NFTid",
          "type": "uint256"
        },
        {
          "internalType": "uint256",
          "name": "_ticket_price",
          "type": "uint256"
        },
        {
          "internalType": "uint256",
          "name": "_ticket_amount",
          "type": "uint256"
        }
      ],
      "name": "start_new_lottery",
      "outputs": [],
      "stateMutability": "nonpayable",
      "type": "function"
    },
    {
      "inputs": [],
      "name": "winning_fee",
      "outputs": [
        {
          "internalType": "uint256",
          "name": "",
          "type": "uint256"
        }
      ],
      "stateMutability": "view",
      "type": "function"
    },
    {
      "inputs": [],
      "name": "winning_fee_divisor",
      "outputs": [
        {
          "internalType": "uint256",
          "name": "",
          "type": "uint256"
        }
      ],
      "stateMutability": "view",
      "type": "function"
    }
  ],
  "bytecode": "0x6080604052600260075560646008556001600a60006101000a81548160ff0219169083151502179055503480156200003657600080fd5b50604051620024c7380380620024c783398181016040528101906200005c919062000156565b33600160006101000a81548173ffffffffffffffffffffffffffffffffffffffff021916908373ffffffffffffffffffffffffffffffffffffffff160217905550806000806101000a81548173ffffffffffffffffffffffffffffffffffffffff021916908373ffffffffffffffffffffffffffffffffffffffff16021790555060016004819055505062000188565b600080fd5b600073ffffffffffffffffffffffffffffffffffffffff82169050919050565b60006200011e82620000f1565b9050919050565b620001308162000111565b81146200013c57600080fd5b50565b600081519050620001508162000125565b92915050565b6000602082840312156200016f576200016e620000ec565b5b60006200017f848285016200013f565b91505092915050565b61232f80620001986000396000f3fe6080604052600436106100fe5760003560e01c80635ff7348b116100955780636a7223fc116100645780636a7223fc146103545780638da5cb5b1461037f57806392c68c67146103aa578063bdc41a40146103e7578063e580f47b14610410576100fe565b80635ff7348b1461029a5780636102b1ab146102c55780636565d223146102ee5780636681042014610317576100fe565b80631769f049116100d15780631769f049146101eb57806323972aef1461021657806336b3c80f14610232578063493eeb6e1461025d576100fe565b8063021a12d41461010357806302c375521461012e57806310812d8f1461016b5780631398e076146101a8575b600080fd5b34801561010f57600080fd5b5061011861043b565b60405161012591906115e3565b60405180910390f35b34801561013a57600080fd5b5061015560048036038101906101509190611661565b610441565b60405161016291906115e3565b60405180910390f35b34801561017757600080fd5b50610192600480360381019061018d91906116ba565b610459565b60405161019f91906117b7565b60405180910390f35b3480156101b457600080fd5b506101cf60048036038101906101ca91906116ba565b6104fd565b6040516101e2979695949392919061185f565b60405180910390f35b3480156101f757600080fd5b5061020061058c565b60405161020d91906115e3565b60405180910390f35b610230600480360381019061022b91906118ce565b610592565b005b34801561023e57600080fd5b506102476107d1565b60405161025491906115e3565b60405180910390f35b34801561026957600080fd5b50610284600480360381019061027f91906116ba565b6107d7565b604051610291919061190e565b60405180910390f35b3480156102a657600080fd5b506102af610804565b6040516102bc9190611929565b60405180910390f35b3480156102d157600080fd5b506102ec60048036038101906102e791906118ce565b61082a565b005b3480156102fa57600080fd5b50610315600480360381019061031091906116ba565b610cf0565b005b34801561032357600080fd5b5061033e600480360381019061033991906116ba565b6110bd565b60405161034b91906115e3565b60405180910390f35b34801561036057600080fd5b506103696110fe565b60405161037691906119a3565b60405180910390f35b34801561038b57600080fd5b50610394611122565b6040516103a19190611929565b60405180910390f35b3480156103b657600080fd5b506103d160048036038101906103cc91906116ba565b611148565b6040516103de91906115e3565b60405180910390f35b3480156103f357600080fd5b5061040e600480360381019061040991906119be565b611160565b005b34801561041c57600080fd5b50610425611549565b60405161043291906115e3565b60405180910390f35b60085481565b60056020528060005260406000206000915090505481565b6060600360008381526020019081526020016000206006018054806020026020016040519081016040528092919081815260200182805480156104f157602002820191906000526020600020905b8160009054906101000a900473ffffffffffffffffffffffffffffffffffffffff1673ffffffffffffffffffffffffffffffffffffffff16815260200190600101908083116104a7575b50505050509050919050565b60036020528060005260406000206000915090508060000160009054906101000a900473ffffffffffffffffffffffffffffffffffffffff16908060000160149054906101000a900460ff16908060010154908060020154908060030154908060040160009054906101000a900473ffffffffffffffffffffffffffffffffffffffff16908060050154905087565b60095481565b600360008381526020019081526020016000206001015434146105ea576040517f08c379a00000000000000000000000000000000000000000000000000000000081526004016105e190611aa8565b60405180910390fd5b600060028111156105fe576105fd6117e8565b5b6003600084815260200190815260200160002060000160149054906101000a900460ff166002811115610634576106336117e8565b5b14610674576040517f08c379a000000000000000000000000000000000000000000000000000000000815260040161066b90611b14565b60405180910390fd5b60036000838152602001908152602001600020600201548160036000858152602001908152602001600020600301546106ad9190611b63565b11156106ee576040517f08c379a00000000000000000000000000000000000000000000000000000000081526004016106e590611be3565b60405180910390fd5b60036000838152602001908152602001600020600601339080600181540180825580915050600190039060005260206000200160009091909190916101000a81548173ffffffffffffffffffffffffffffffffffffffff021916908373ffffffffffffffffffffffffffffffffffffffff1602179055508060036000848152602001908152602001600020600301600082825461078b9190611b63565b925050819055507fd89b8985d462dcc0f343f72f43f1cfb87058fcbf847b83b81ca18ce204be941d8233836040516107c593929190611c03565b60405180910390a15050565b60075481565b60006003600083815260200190815260200160002060000160149054906101000a900460ff169050919050565b600260009054906101000a900473ffffffffffffffffffffffffffffffffffffffff1681565b60006006600084815260200190815260200160002054905060008054906101000a900473ffffffffffffffffffffffffffffffffffffffff1673ffffffffffffffffffffffffffffffffffffffff163373ffffffffffffffffffffffffffffffffffffffff16146108d0576040517f08c379a00000000000000000000000000000000000000000000000000000000081526004016108c790611cac565b60405180910390fd5b6002808111156108e3576108e26117e8565b5b6003600083815260200190815260200160002060000160149054906101000a900460ff166002811115610919576109186117e8565b5b14610959576040517f08c379a000000000000000000000000000000000000000000000000000000000815260040161095090611d18565b60405180910390fd5b6000821161099c576040517f08c379a000000000000000000000000000000000000000000000000000000000815260040161099390611d84565b60405180910390fd5b60016003600083815260200190815260200160002060000160146101000a81548160ff021916908360028111156109d6576109d56117e8565b5b02179055506000600560006003600085815260200190815260200160002060000160009054906101000a900473ffffffffffffffffffffffffffffffffffffffff1673ffffffffffffffffffffffffffffffffffffffff1673ffffffffffffffffffffffffffffffffffffffff168152602001908152602001600020819055506000600360008381526020019081526020016000206006018054905083610a7d9190611dd3565b90506000600360008481526020019081526020016000206006018281548110610aa957610aa8611e04565b5b9060005260206000200160009054906101000a900473ffffffffffffffffffffffffffffffffffffffff1690506003600084815260200190815260200160002060040160009054906101000a900473ffffffffffffffffffffffffffffffffffffffff1673ffffffffffffffffffffffffffffffffffffffff166323b872dd308360036000888152602001908152602001600020600501546040518463ffffffff1660e01b8152600401610b5f93929190611e54565b600060405180830381600087803b158015610b7957600080fd5b505af1158015610b8d573d6000803e3d6000fd5b50505050600060036000858152602001908152602001600020600201546003600086815260200190815260200160002060010154610bcb9190611e8b565b9050600060085460075483610be09190611e8b565b610bea9190611ecd565b905060008183610bfa9190611efe565b90508160096000828254610c0e9190611b63565b92505081905550670de0b6b3a76400006009541115610c3057610c2f61154f565b5b6003600087815260200190815260200160002060000160009054906101000a900473ffffffffffffffffffffffffffffffffffffffff1673ffffffffffffffffffffffffffffffffffffffff166108fc829081150290604051600060405180830381858888f19350505050158015610cac573d6000803e3d6000fd5b507fe889741f811e43708e11c26f71911284b5b2fe112108a2f7c945229286192a948685604051610cde929190611f32565b60405180910390a15050505050505050565b6003600082815260200190815260200160002060000160009054906101000a900473ffffffffffffffffffffffffffffffffffffffff1673ffffffffffffffffffffffffffffffffffffffff163373ffffffffffffffffffffffffffffffffffffffff1614610d94576040517f08c379a0000000000000000000000000000000000000000000000000000000008152600401610d8b90611fcd565b60405180910390fd5b60006002811115610da857610da76117e8565b5b6003600083815260200190815260200160002060000160149054906101000a900460ff166002811115610dde57610ddd6117e8565b5b14610e1e576040517f08c379a0000000000000000000000000000000000000000000000000000000008152600401610e1590611b14565b60405180910390fd5b6000600360008381526020019081526020016000206002015460036000848152602001908152602001600020600301541015610f8d576000905060016003600084815260200190815260200160002060000160146101000a81548160ff02191690836002811115610e9257610e916117e8565b5b02179055506003600083815260200190815260200160002060040160009054906101000a900473ffffffffffffffffffffffffffffffffffffffff1673ffffffffffffffffffffffffffffffffffffffff166323b872dd306003600086815260200190815260200160002060000160009054906101000a900473ffffffffffffffffffffffffffffffffffffffff1660036000878152602001908152602001600020600501546040518463ffffffff1660e01b8152600401610f5693929190611fed565b600060405180830381600087803b158015610f7057600080fd5b505af1158015610f84573d6000803e3d6000fd5b50505050611080565b6001905060026003600084815260200190815260200160002060000160146101000a81548160ff02191690836002811115610fcb57610fca6117e8565b5b021790555060008060009054906101000a900473ffffffffffffffffffffffffffffffffffffffff1673ffffffffffffffffffffffffffffffffffffffff1663aacc5a176040518163ffffffff1660e01b81526004016020604051808303816000875af1158015611040573d6000803e3d6000fd5b505050506040513d601f19601f820116820180604052508101906110649190612039565b9050826006600083815260200190815260200160002081905550505b7fc189b0ed6a4af0c11d1f5127e61fede48f58f5f615483eab9e1cca13ed739bed82826040516110b1929190612081565b60405180910390a15050565b6000600360008381526020019081526020016000206002015460036000848152602001908152602001600020600101546110f79190611e8b565b9050919050565b60008054906101000a900473ffffffffffffffffffffffffffffffffffffffff1681565b600160009054906101000a900473ffffffffffffffffffffffffffffffffffffffff1681565b60066020528060005260406000206000915090505481565b600a60009054906101000a900460ff166111af576040517f08c379a00000000000000000000000000000000000000000000000000000000081526004016111a69061211c565b60405180910390fd5b6000600a60006101000a81548160ff0219169083151502179055506000821161120d576040517f08c379a000000000000000000000000000000000000000000000000000000000815260040161120490612188565b60405180910390fd5b60008111611250576040517f08c379a0000000000000000000000000000000000000000000000000000000008152600401611247906121f4565b60405180910390fd5b6000600560003373ffffffffffffffffffffffffffffffffffffffff1673ffffffffffffffffffffffffffffffffffffffff16815260200190815260200160002054146112d2576040517f08c379a00000000000000000000000000000000000000000000000000000000081526004016112c990612286565b60405180910390fd5b8373ffffffffffffffffffffffffffffffffffffffff166323b872dd3330866040518463ffffffff1660e01b815260040161130f93929190611fed565b600060405180830381600087803b15801561132957600080fd5b505af115801561133d573d6000803e3d6000fd5b50505050600454600560003373ffffffffffffffffffffffffffffffffffffffff1673ffffffffffffffffffffffffffffffffffffffff168152602001908152602001600020819055503360036000600454815260200190815260200160002060000160006101000a81548173ffffffffffffffffffffffffffffffffffffffff021916908373ffffffffffffffffffffffffffffffffffffffff1602179055508160036000600454815260200190815260200160002060010181905550600060036000600454815260200190815260200160002060000160146101000a81548160ff02191690836002811115611437576114366117e8565b5b021790555080600360006004548152602001908152602001600020600201819055508360036000600454815260200190815260200160002060040160006101000a81548173ffffffffffffffffffffffffffffffffffffffff021916908373ffffffffffffffffffffffffffffffffffffffff16021790555082600360006004548152602001908152602001600020600501819055506001600460008282546114e09190611b63565b925050819055507f10b2daaade0df42e94c7587b1ae00ef20559842c9eca19d1d8be124e27a9f7eb600454858584866040516115209594939291906122a6565b60405180910390a16001600a60006101000a81548160ff02191690831515021790555050505050565b60045481565b600060095490506000600981905550600260009054906101000a900473ffffffffffffffffffffffffffffffffffffffff1673ffffffffffffffffffffffffffffffffffffffff166108fc829081150290604051600060405180830381858888f193505050501580156115c6573d6000803e3d6000fd5b5050565b6000819050919050565b6115dd816115ca565b82525050565b60006020820190506115f860008301846115d4565b92915050565b600080fd5b600073ffffffffffffffffffffffffffffffffffffffff82169050919050565b600061162e82611603565b9050919050565b61163e81611623565b811461164957600080fd5b50565b60008135905061165b81611635565b92915050565b600060208284031215611677576116766115fe565b5b60006116858482850161164c565b91505092915050565b611697816115ca565b81146116a257600080fd5b50565b6000813590506116b48161168e565b92915050565b6000602082840312156116d0576116cf6115fe565b5b60006116de848285016116a5565b91505092915050565b600081519050919050565b600082825260208201905092915050565b6000819050602082019050919050565b600061171e82611603565b9050919050565b61172e81611713565b82525050565b60006117408383611725565b60208301905092915050565b6000602082019050919050565b6000611764826116e7565b61176e81856116f2565b935061177983611703565b8060005b838110156117aa5781516117918882611734565b975061179c8361174c565b92505060018101905061177d565b5085935050505092915050565b600060208201905081810360008301526117d18184611759565b905092915050565b6117e281611623565b82525050565b7f4e487b7100000000000000000000000000000000000000000000000000000000600052602160045260246000fd5b60038110611828576118276117e8565b5b50565b600081905061183982611817565b919050565b60006118498261182b565b9050919050565b6118598161183e565b82525050565b600060e082019050611874600083018a6117d9565b6118816020830189611850565b61188e60408301886115d4565b61189b60608301876115d4565b6118a860808301866115d4565b6118b560a08301856117d9565b6118c260c08301846115d4565b98975050505050505050565b600080604083850312156118e5576118e46115fe565b5b60006118f3858286016116a5565b9250506020611904858286016116a5565b9150509250929050565b60006020820190506119236000830184611850565b92915050565b600060208201905061193e60008301846117d9565b92915050565b6000819050919050565b600061196961196461195f84611603565b611944565b611603565b9050919050565b600061197b8261194e565b9050919050565b600061198d82611970565b9050919050565b61199d81611982565b82525050565b60006020820190506119b86000830184611994565b92915050565b600080600080608085870312156119d8576119d76115fe565b5b60006119e68782880161164c565b94505060206119f7878288016116a5565b9350506040611a08878288016116a5565b9250506060611a19878288016116a5565b91505092959194509250565b600082825260208201905092915050565b7f57726f6e672070726963652c20636865636b20746865207469636b657420707260008201527f6963650000000000000000000000000000000000000000000000000000000000602082015250565b6000611a92602383611a25565b9150611a9d82611a36565b604082019050919050565b60006020820190508181036000830152611ac181611a85565b9050919050565b7f546865206c6f7474657279206861736e2774206576656e207374617274656421600082015250565b6000611afe602083611a25565b9150611b0982611ac8565b602082019050919050565b60006020820190508181036000830152611b2d81611af1565b9050919050565b7f4e487b7100000000000000000000000000000000000000000000000000000000600052601160045260246000fd5b6000611b6e826115ca565b9150611b79836115ca565b9250828201905080821115611b9157611b90611b34565b5b92915050565b7f546865206c6f74746572792069732066756c6c00000000000000000000000000600082015250565b6000611bcd601383611a25565b9150611bd882611b97565b602082019050919050565b60006020820190508181036000830152611bfc81611bc0565b9050919050565b6000606082019050611c1860008301866115d4565b611c2560208301856117d9565b611c3260408301846115d4565b949350505050565b7f4f6e6c79207468652052616e646f6d4e756d626572436f6e73756d657220636f60008201527f6e74726163742063616e2063616c6c20746869732066756e6374696f6e000000602082015250565b6000611c96603d83611a25565b9150611ca182611c3a565b604082019050919050565b60006020820190508181036000830152611cc581611c89565b9050919050565b7f596f75206172656e277420617420746861742073746167652079657421000000600082015250565b6000611d02601d83611a25565b9150611d0d82611ccc565b602082019050919050565b60006020820190508181036000830152611d3181611cf5565b9050919050565b7f72616e646f6d2d6e6f742d666f756e6400000000000000000000000000000000600082015250565b6000611d6e601083611a25565b9150611d7982611d38565b602082019050919050565b60006020820190508181036000830152611d9d81611d61565b9050919050565b7f4e487b7100000000000000000000000000000000000000000000000000000000600052601260045260246000fd5b6000611dde826115ca565b9150611de9836115ca565b925082611df957611df8611da4565b5b828206905092915050565b7f4e487b7100000000000000000000000000000000000000000000000000000000600052603260045260246000fd5b6000611e3e82611970565b9050919050565b611e4e81611e33565b82525050565b6000606082019050611e6960008301866117d9565b611e766020830185611e45565b611e8360408301846115d4565b949350505050565b6000611e96826115ca565b9150611ea1836115ca565b9250828202611eaf816115ca565b91508282048414831517611ec657611ec5611b34565b5b5092915050565b6000611ed8826115ca565b9150611ee3836115ca565b925082611ef357611ef2611da4565b5b828204905092915050565b6000611f09826115ca565b9150611f14836115ca565b9250828203905081811115611f2c57611f2b611b34565b5b92915050565b6000604082019050611f4760008301856115d4565b611f546020830184611e45565b9392505050565b7f596f7520617265206e6f7420746865206f776e6572206f662074686973206c6f60008201527f7474657279000000000000000000000000000000000000000000000000000000602082015250565b6000611fb7602583611a25565b9150611fc282611f5b565b604082019050919050565b60006020820190508181036000830152611fe681611faa565b9050919050565b600060608201905061200260008301866117d9565b61200f60208301856117d9565b61201c60408301846115d4565b949350505050565b6000815190506120338161168e565b92915050565b60006020828403121561204f5761204e6115fe565b5b600061205d84828501612024565b91505092915050565b60008115159050919050565b61207b81612066565b82525050565b600060408201905061209660008301856115d4565b6120a36020830184612072565b9392505050565b7f41206e6577206c6f747465727920686173206265656e20737461727465642c2060008201527f77616974206a7573742061206269740000000000000000000000000000000000602082015250565b6000612106602f83611a25565b9150612111826120aa565b604082019050919050565b60006020820190508181036000830152612135816120f9565b9050919050565b7f5469636b65742070726963652063616e27742062652030000000000000000000600082015250565b6000612172601783611a25565b915061217d8261213c565b602082019050919050565b600060208201905081810360008301526121a181612165565b9050919050565b7f5469636b657420616d6f756e742063616e277420626520300000000000000000600082015250565b60006121de601883611a25565b91506121e9826121a8565b602082019050919050565b6000602082019050818103600083015261220d816121d1565b9050919050565b7f596f7520616c726561647920686176652061206c6f74746572792072756e6e6960008201527f6e67000000000000000000000000000000000000000000000000000000000000602082015250565b6000612270602283611a25565b915061227b82612214565b604082019050919050565b6000602082019050818103600083015261229f81612263565b9050919050565b600060a0820190506122bb60008301886115d4565b6122c860208301876117d9565b6122d560408301866115d4565b6122e260608301856115d4565b6122ef60808301846115d4565b969550505050505056fea264697066735822122010834114d045a36b146350363fb4c03fa18e278486bc9317daa70e6c33ff8f7064736f6c63430008110033",
  "linkReferences": {},
  "deployedLinkReferences": {}
}