{
  "_format": "hh-sol-artifact-1",
  "contractName": "Staking",
  "sourceName": "contracts/Staking.sol",
  "abi": [
    {
      "inputs": [
        {
          "internalType": "address",
          "name": "_stakingNFT",
          "type": "address"
        }
      ],
      "stateMutability": "nonpayable",
      "type": "constructor"
    },
    {
      "anonymous": false,
      "inputs": [
        {
          "indexed": true,
          "internalType": "address",
          "name": "sender",
          "type": "address"
        },
        {
          "indexed": false,
          "internalType": "uint256",
          "name": "amount",
          "type": "uint256"
        }
      ],
      "name": "FTMReceived",
      "type": "event"
    },
    {
      "anonymous": false,
      "inputs": [
        {
          "indexed": true,
          "internalType": "address",
          "name": "sender",
          "type": "address"
        },
        {
          "indexed": false,
          "internalType": "uint256",
          "name": "amount",
          "type": "uint256"
        }
      ],
      "name": "NFTStaked",
      "type": "event"
    },
    {
      "anonymous": false,
      "inputs": [
        {
          "indexed": true,
          "internalType": "address",
          "name": "sender",
          "type": "address"
        },
        {
          "indexed": false,
          "internalType": "uint256",
          "name": "amount",
          "type": "uint256"
        }
      ],
      "name": "NFTUnstaked",
      "type": "event"
    },
    {
      "anonymous": false,
      "inputs": [
        {
          "indexed": true,
          "internalType": "address",
          "name": "previousOwner",
          "type": "address"
        },
        {
          "indexed": true,
          "internalType": "address",
          "name": "newOwner",
          "type": "address"
        }
      ],
      "name": "OwnershipTransferred",
      "type": "event"
    },
    {
      "anonymous": false,
      "inputs": [
        {
          "indexed": true,
          "internalType": "address",
          "name": "sender",
          "type": "address"
        },
        {
          "indexed": false,
          "internalType": "uint256",
          "name": "amount",
          "type": "uint256"
        }
      ],
      "name": "RewardsClaimed",
      "type": "event"
    },
    {
      "inputs": [],
      "name": "accumulatedRewardPerNFT",
      "outputs": [
        {
          "internalType": "uint256",
          "name": "",
          "type": "uint256"
        }
      ],
      "stateMutability": "view",
      "type": "function"
    },
    {
      "inputs": [
        {
          "internalType": "address",
          "name": "",
          "type": "address"
        }
      ],
      "name": "balanceOf",
      "outputs": [
        {
          "internalType": "uint256",
          "name": "",
          "type": "uint256"
        }
      ],
      "stateMutability": "view",
      "type": "function"
    },
    {
      "inputs": [],
      "name": "claimRewards",
      "outputs": [],
      "stateMutability": "nonpayable",
      "type": "function"
    },
    {
      "inputs": [],
      "name": "emergencyWithdraw",
      "outputs": [],
      "stateMutability": "nonpayable",
      "type": "function"
    },
    {
      "inputs": [],
      "name": "getRewardPerToken",
      "outputs": [
        {
          "internalType": "uint256",
          "name": "",
          "type": "uint256"
        }
      ],
      "stateMutability": "view",
      "type": "function"
    },
    {
      "inputs": [
        {
          "internalType": "address",
          "name": "_account",
          "type": "address"
        }
      ],
      "name": "getRewards",
      "outputs": [
        {
          "internalType": "uint256",
          "name": "",
          "type": "uint256"
        }
      ],
      "stateMutability": "view",
      "type": "function"
    },
    {
      "inputs": [],
      "name": "manage_new_funds",
      "outputs": [],
      "stateMutability": "payable",
      "type": "function"
    },
    {
      "inputs": [
        {
          "internalType": "address",
          "name": "",
          "type": "address"
        },
        {
          "internalType": "address",
          "name": "",
          "type": "address"
        },
        {
          "internalType": "uint256[]",
          "name": "",
          "type": "uint256[]"
        },
        {
          "internalType": "uint256[]",
          "name": "",
          "type": "uint256[]"
        },
        {
          "internalType": "bytes",
          "name": "",
          "type": "bytes"
        }
      ],
      "name": "onERC1155BatchReceived",
      "outputs": [
        {
          "internalType": "bytes4",
          "name": "",
          "type": "bytes4"
        }
      ],
      "stateMutability": "nonpayable",
      "type": "function"
    },
    {
      "inputs": [
        {
          "internalType": "address",
          "name": "",
          "type": "address"
        },
        {
          "internalType": "address",
          "name": "",
          "type": "address"
        },
        {
          "internalType": "uint256",
          "name": "",
          "type": "uint256"
        },
        {
          "internalType": "uint256",
          "name": "",
          "type": "uint256"
        },
        {
          "internalType": "bytes",
          "name": "",
          "type": "bytes"
        }
      ],
      "name": "onERC1155Received",
      "outputs": [
        {
          "internalType": "bytes4",
          "name": "",
          "type": "bytes4"
        }
      ],
      "stateMutability": "nonpayable",
      "type": "function"
    },
    {
      "inputs": [],
      "name": "owner",
      "outputs": [
        {
          "internalType": "address",
          "name": "",
          "type": "address"
        }
      ],
      "stateMutability": "view",
      "type": "function"
    },
    {
      "inputs": [],
      "name": "renounceOwnership",
      "outputs": [],
      "stateMutability": "nonpayable",
      "type": "function"
    },
    {
      "inputs": [
        {
          "internalType": "address",
          "name": "",
          "type": "address"
        }
      ],
      "name": "rewards",
      "outputs": [
        {
          "internalType": "uint256",
          "name": "",
          "type": "uint256"
        }
      ],
      "stateMutability": "view",
      "type": "function"
    },
    {
      "inputs": [
        {
          "internalType": "uint256",
          "name": "_duration",
          "type": "uint256"
        }
      ],
      "name": "setStakingDuration",
      "outputs": [],
      "stateMutability": "nonpayable",
      "type": "function"
    },
    {
      "inputs": [
        {
          "internalType": "uint256",
          "name": "_amount",
          "type": "uint256"
        }
      ],
      "name": "stake",
      "outputs": [],
      "stateMutability": "nonpayable",
      "type": "function"
    },
    {
      "inputs": [],
      "name": "stakingToken",
      "outputs": [
        {
          "internalType": "contract IERC1155",
          "name": "",
          "type": "address"
        }
      ],
      "stateMutability": "view",
      "type": "function"
    },
    {
      "inputs": [],
      "name": "staking_duration",
      "outputs": [
        {
          "internalType": "uint256",
          "name": "",
          "type": "uint256"
        }
      ],
      "stateMutability": "view",
      "type": "function"
    },
    {
      "inputs": [],
      "name": "staking_info",
      "outputs": [
        {
          "internalType": "uint256",
          "name": "start",
          "type": "uint256"
        },
        {
          "internalType": "uint256",
          "name": "reward_rate",
          "type": "uint256"
        }
      ],
      "stateMutability": "view",
      "type": "function"
    },
    {
      "inputs": [
        {
          "internalType": "bytes4",
          "name": "interfaceId",
          "type": "bytes4"
        }
      ],
      "name": "supportsInterface",
      "outputs": [
        {
          "internalType": "bool",
          "name": "",
          "type": "bool"
        }
      ],
      "stateMutability": "view",
      "type": "function"
    },
    {
      "inputs": [],
      "name": "totalStaked",
      "outputs": [
        {
          "internalType": "uint256",
          "name": "",
          "type": "uint256"
        }
      ],
      "stateMutability": "view",
      "type": "function"
    },
    {
      "inputs": [
        {
          "internalType": "address",
          "name": "newOwner",
          "type": "address"
        }
      ],
      "name": "transferOwnership",
      "outputs": [],
      "stateMutability": "nonpayable",
      "type": "function"
    },
    {
      "inputs": [
        {
          "internalType": "uint256",
          "name": "_amount",
          "type": "uint256"
        }
      ],
      "name": "unstake",
      "outputs": [],
      "stateMutability": "nonpayable",
      "type": "function"
    },
    {
      "inputs": [],
      "name": "updatedAt",
      "outputs": [
        {
          "internalType": "uint256",
          "name": "",
          "type": "uint256"
        }
      ],
      "stateMutability": "view",
      "type": "function"
    },
    {
      "inputs": [
        {
          "internalType": "address",
          "name": "",
          "type": "address"
        }
      ],
      "name": "userRewardPerTokenAccounted",
      "outputs": [
        {
          "internalType": "uint256",
          "name": "",
          "type": "uint256"
        }
      ],
      "stateMutability": "view",
      "type": "function"
    }
  ],
  "bytecode": "0x60a0604052620151806002553480156200001857600080fd5b5060405162001e6138038062001e6183398181016040528101906200003e9190620001cf565b6200005e620000526200009960201b60201c565b620000a160201b60201c565b8073ffffffffffffffffffffffffffffffffffffffff1660808173ffffffffffffffffffffffffffffffffffffffff16815250505062000201565b600033905090565b60008060009054906101000a900473ffffffffffffffffffffffffffffffffffffffff169050816000806101000a81548173ffffffffffffffffffffffffffffffffffffffff021916908373ffffffffffffffffffffffffffffffffffffffff1602179055508173ffffffffffffffffffffffffffffffffffffffff168173ffffffffffffffffffffffffffffffffffffffff167f8be0079c531659141344cd1fd0a4f28419497f9722a3daafe3b4186f6b6457e060405160405180910390a35050565b600080fd5b600073ffffffffffffffffffffffffffffffffffffffff82169050919050565b600062000197826200016a565b9050919050565b620001a9816200018a565b8114620001b557600080fd5b50565b600081519050620001c9816200019e565b92915050565b600060208284031215620001e857620001e762000165565b5b6000620001f884828501620001b8565b91505092915050565b608051611c366200022b6000396000818161074201528181610a7d0152610d0b0152611c366000f3fe6080604052600436106101405760003560e01c80637519ab50116100b6578063c23511e01161006f578063c23511e01461045e578063db2e21bc1461048a578063f23a6e61146104a1578063f2fde38b146104de578063f32dbf6814610507578063feca39001461051157610140565b80637519ab501461033a57806379ee54f714610365578063817b1cd2146103a25780638da5cb5b146103cd578063a694fc3a146103f8578063bc197c811461042157610140565b806339a392a21161010857806339a392a21461023c5780634f3d8145146102675780636a8ca6911461029257806370a08231146102bb578063715018a6146102f857806372f702f31461030f57610140565b806301ffc9a7146101455780630700037d1461018257806328e3a8b0146101bf5780632e17de78146101fc578063372500ab14610225575b600080fd5b34801561015157600080fd5b5061016c60048036038101906101679190611230565b61053c565b6040516101799190611278565b60405180910390f35b34801561018e57600080fd5b506101a960048036038101906101a491906112f1565b6105b6565b6040516101b69190611337565b60405180910390f35b3480156101cb57600080fd5b506101e660048036038101906101e191906112f1565b6105ce565b6040516101f39190611337565b60405180910390f35b34801561020857600080fd5b50610223600480360381019061021e919061137e565b6105e6565b005b34801561023157600080fd5b5061023a610824565b005b34801561024857600080fd5b50610251610a31565b60405161025e9190611337565b60405180910390f35b34801561027357600080fd5b5061027c610a37565b6040516102899190611337565b60405180910390f35b34801561029e57600080fd5b506102b960048036038101906102b4919061137e565b610a3d565b005b3480156102c757600080fd5b506102e260048036038101906102dd91906112f1565b610a4f565b6040516102ef9190611337565b60405180910390f35b34801561030457600080fd5b5061030d610a67565b005b34801561031b57600080fd5b50610324610a7b565b604051610331919061140a565b60405180910390f35b34801561034657600080fd5b5061034f610a9f565b60405161035c9190611337565b60405180910390f35b34801561037157600080fd5b5061038c600480360381019061038791906112f1565b610aa5565b6040516103999190611337565b60405180910390f35b3480156103ae57600080fd5b506103b7610bef565b6040516103c49190611337565b60405180910390f35b3480156103d957600080fd5b506103e2610bf5565b6040516103ef9190611434565b60405180910390f35b34801561040457600080fd5b5061041f600480360381019061041a919061137e565b610c1e565b005b34801561042d57600080fd5b506104486004803603810190610443919061165d565b610e5c565b604051610455919061173b565b60405180910390f35b34801561046a57600080fd5b50610473610e71565b604051610481929190611756565b60405180910390f35b34801561049657600080fd5b5061049f610e83565b005b3480156104ad57600080fd5b506104c860048036038101906104c3919061177f565b610edb565b6040516104d5919061173b565b60405180910390f35b3480156104ea57600080fd5b50610505600480360381019061050091906112f1565b610ef0565b005b61050f610f73565b005b34801561051d57600080fd5b50610526610fb7565b6040516105339190611337565b60405180910390f35b60007f4e2312e0000000000000000000000000000000000000000000000000000000007bffffffffffffffffffffffffffffffffffffffffffffffffffffffff1916827bffffffffffffffffffffffffffffffffffffffffffffffffffffffff191614806105af57506105ae82611010565b5b9050919050565b60056020528060005260406000206000915090505481565b60076020528060005260406000206000915090505481565b336105ef610fb7565b6009819055504260088190555061060581610aa5565b600560008373ffffffffffffffffffffffffffffffffffffffff1673ffffffffffffffffffffffffffffffffffffffff16815260200190815260200160002081905550600954600760008373ffffffffffffffffffffffffffffffffffffffff1673ffffffffffffffffffffffffffffffffffffffff16815260200190815260200160002081905550600082116106d1576040517f08c379a00000000000000000000000000000000000000000000000000000000081526004016106c890611873565b60405180910390fd5b81600660003373ffffffffffffffffffffffffffffffffffffffff1673ffffffffffffffffffffffffffffffffffffffff168152602001908152602001600020600082825461072091906118c2565b92505081905550816001600082825461073991906118c2565b925050819055507f000000000000000000000000000000000000000000000000000000000000000073ffffffffffffffffffffffffffffffffffffffff1663f242432a30336001866040518563ffffffff1660e01b81526004016107a09493929190611968565b600060405180830381600087803b1580156107ba57600080fd5b505af11580156107ce573d6000803e3d6000fd5b505050503373ffffffffffffffffffffffffffffffffffffffff167f963148346e3c93bb3eb4b4c296e2e13321ff22bf1118c91686cb1bfe4adcd918836040516108189190611337565b60405180910390a25050565b3361082d610fb7565b6009819055504260088190555061084381610aa5565b600560008373ffffffffffffffffffffffffffffffffffffffff1673ffffffffffffffffffffffffffffffffffffffff16815260200190815260200160002081905550600954600760008373ffffffffffffffffffffffffffffffffffffffff1673ffffffffffffffffffffffffffffffffffffffff168152602001908152602001600020819055506000600560003373ffffffffffffffffffffffffffffffffffffffff1673ffffffffffffffffffffffffffffffffffffffff16815260200190815260200160002054905060008111610953576040517f08c379a000000000000000000000000000000000000000000000000000000000815260040161094a90611a0c565b60405180910390fd5b6000600560003373ffffffffffffffffffffffffffffffffffffffff1673ffffffffffffffffffffffffffffffffffffffff168152602001908152602001600020819055503373ffffffffffffffffffffffffffffffffffffffff166108fc829081150290604051600060405180830381858888f193505050501580156109de573d6000803e3d6000fd5b503373ffffffffffffffffffffffffffffffffffffffff167ffc30cddea38e2bf4d6ea7d3f9ed3b6ad7f176419f4963bd81318067a4aee73fe82604051610a259190611337565b60405180910390a25050565b60025481565b60095481565b610a4561107a565b8060028190555050565b60066020528060005260406000206000915090505481565b610a6f61107a565b610a7960006110f8565b565b7f000000000000000000000000000000000000000000000000000000000000000081565b60085481565b600080600560008473ffffffffffffffffffffffffffffffffffffffff1673ffffffffffffffffffffffffffffffffffffffff1681526020019081526020016000205490506000610af4610fb7565b600660008673ffffffffffffffffffffffffffffffffffffffff1673ffffffffffffffffffffffffffffffffffffffff16815260200190815260200160002054610b3e9190611a2c565b90506000600760008673ffffffffffffffffffffffffffffffffffffffff1673ffffffffffffffffffffffffffffffffffffffff16815260200190815260200160002054600660008773ffffffffffffffffffffffffffffffffffffffff1673ffffffffffffffffffffffffffffffffffffffff16815260200190815260200160002054610bcc9190611a2c565b9050808284610bdb9190611a6e565b610be591906118c2565b9350505050919050565b60015481565b60008060009054906101000a900473ffffffffffffffffffffffffffffffffffffffff16905090565b33610c27610fb7565b60098190555042600881905550610c3d81610aa5565b600560008373ffffffffffffffffffffffffffffffffffffffff1673ffffffffffffffffffffffffffffffffffffffff16815260200190815260200160002081905550600954600760008373ffffffffffffffffffffffffffffffffffffffff1673ffffffffffffffffffffffffffffffffffffffff1681526020019081526020016000208190555060008211610d09576040517f08c379a0000000000000000000000000000000000000000000000000000000008152600401610d0090611873565b60405180910390fd5b7f000000000000000000000000000000000000000000000000000000000000000073ffffffffffffffffffffffffffffffffffffffff1663f242432a33306001866040518563ffffffff1660e01b8152600401610d699493929190611968565b600060405180830381600087803b158015610d8357600080fd5b505af1158015610d97573d6000803e3d6000fd5b505050508160016000828254610dad9190611a6e565b9250508190555081600660003373ffffffffffffffffffffffffffffffffffffffff1673ffffffffffffffffffffffffffffffffffffffff1681526020019081526020016000206000828254610e039190611a6e565b925050819055503373ffffffffffffffffffffffffffffffffffffffff167f0cda5cf38f6592672c7b4a22ff3d50874d1913629bd5ffedc27b7b40503d60fd83604051610e509190611337565b60405180910390a25050565b600063bc197c8160e01b905095945050505050565b60038060000154908060010154905082565b610e8b61107a565b610e93610bf5565b73ffffffffffffffffffffffffffffffffffffffff166108fc479081150290604051600060405180830381858888f19350505050158015610ed8573d6000803e3d6000fd5b50565b600063f23a6e6160e01b905095945050505050565b610ef861107a565b600073ffffffffffffffffffffffffffffffffffffffff168173ffffffffffffffffffffffffffffffffffffffff1603610f67576040517f08c379a0000000000000000000000000000000000000000000000000000000008152600401610f5e90611b14565b60405180910390fd5b610f70816110f8565b50565b600060036000015442610f8691906118c2565b9050600254811115610fb45760025447610fa09190611b63565b600360010181905550426003600001819055505b50565b60008060015403610fcc57600954905061100d565b600060015460085442610fdf91906118c2565b600360010154610fef9190611a2c565b610ff99190611b63565b9050806009546110099190611a6e565b9150505b90565b60007f01ffc9a7000000000000000000000000000000000000000000000000000000007bffffffffffffffffffffffffffffffffffffffffffffffffffffffff1916827bffffffffffffffffffffffffffffffffffffffffffffffffffffffff1916149050919050565b6110826111bc565b73ffffffffffffffffffffffffffffffffffffffff166110a0610bf5565b73ffffffffffffffffffffffffffffffffffffffff16146110f6576040517f08c379a00000000000000000000000000000000000000000000000000000000081526004016110ed90611be0565b60405180910390fd5b565b60008060009054906101000a900473ffffffffffffffffffffffffffffffffffffffff169050816000806101000a81548173ffffffffffffffffffffffffffffffffffffffff021916908373ffffffffffffffffffffffffffffffffffffffff1602179055508173ffffffffffffffffffffffffffffffffffffffff168173ffffffffffffffffffffffffffffffffffffffff167f8be0079c531659141344cd1fd0a4f28419497f9722a3daafe3b4186f6b6457e060405160405180910390a35050565b600033905090565b6000604051905090565b600080fd5b600080fd5b60007fffffffff0000000000000000000000000000000000000000000000000000000082169050919050565b61120d816111d8565b811461121857600080fd5b50565b60008135905061122a81611204565b92915050565b600060208284031215611246576112456111ce565b5b60006112548482850161121b565b91505092915050565b60008115159050919050565b6112728161125d565b82525050565b600060208201905061128d6000830184611269565b92915050565b600073ffffffffffffffffffffffffffffffffffffffff82169050919050565b60006112be82611293565b9050919050565b6112ce816112b3565b81146112d957600080fd5b50565b6000813590506112eb816112c5565b92915050565b600060208284031215611307576113066111ce565b5b6000611315848285016112dc565b91505092915050565b6000819050919050565b6113318161131e565b82525050565b600060208201905061134c6000830184611328565b92915050565b61135b8161131e565b811461136657600080fd5b50565b60008135905061137881611352565b92915050565b600060208284031215611394576113936111ce565b5b60006113a284828501611369565b91505092915050565b6000819050919050565b60006113d06113cb6113c684611293565b6113ab565b611293565b9050919050565b60006113e2826113b5565b9050919050565b60006113f4826113d7565b9050919050565b611404816113e9565b82525050565b600060208201905061141f60008301846113fb565b92915050565b61142e816112b3565b82525050565b60006020820190506114496000830184611425565b92915050565b600080fd5b6000601f19601f8301169050919050565b7f4e487b7100000000000000000000000000000000000000000000000000000000600052604160045260246000fd5b61149d82611454565b810181811067ffffffffffffffff821117156114bc576114bb611465565b5b80604052505050565b60006114cf6111c4565b90506114db8282611494565b919050565b600067ffffffffffffffff8211156114fb576114fa611465565b5b602082029050602081019050919050565b600080fd5b600061152461151f846114e0565b6114c5565b905080838252602082019050602084028301858111156115475761154661150c565b5b835b81811015611570578061155c8882611369565b845260208401935050602081019050611549565b5050509392505050565b600082601f83011261158f5761158e61144f565b5b813561159f848260208601611511565b91505092915050565b600080fd5b600067ffffffffffffffff8211156115c8576115c7611465565b5b6115d182611454565b9050602081019050919050565b82818337600083830152505050565b60006116006115fb846115ad565b6114c5565b90508281526020810184848401111561161c5761161b6115a8565b5b6116278482856115de565b509392505050565b600082601f8301126116445761164361144f565b5b81356116548482602086016115ed565b91505092915050565b600080600080600060a08688031215611679576116786111ce565b5b6000611687888289016112dc565b9550506020611698888289016112dc565b945050604086013567ffffffffffffffff8111156116b9576116b86111d3565b5b6116c58882890161157a565b935050606086013567ffffffffffffffff8111156116e6576116e56111d3565b5b6116f28882890161157a565b925050608086013567ffffffffffffffff811115611713576117126111d3565b5b61171f8882890161162f565b9150509295509295909350565b611735816111d8565b82525050565b6000602082019050611750600083018461172c565b92915050565b600060408201905061176b6000830185611328565b6117786020830184611328565b9392505050565b600080600080600060a0868803121561179b5761179a6111ce565b5b60006117a9888289016112dc565b95505060206117ba888289016112dc565b94505060406117cb88828901611369565b93505060606117dc88828901611369565b925050608086013567ffffffffffffffff8111156117fd576117fc6111d3565b5b6118098882890161162f565b9150509295509295909350565b600082825260208201905092915050565b7f616d6f756e74203d203000000000000000000000000000000000000000000000600082015250565b600061185d600a83611816565b915061186882611827565b602082019050919050565b6000602082019050818103600083015261188c81611850565b9050919050565b7f4e487b7100000000000000000000000000000000000000000000000000000000600052601160045260246000fd5b60006118cd8261131e565b91506118d88361131e565b92508282039050818111156118f0576118ef611893565b5b92915050565b6000819050919050565b600061191b611916611911846118f6565b6113ab565b61131e565b9050919050565b61192b81611900565b82525050565b600082825260208201905092915050565b50565b6000611952600083611931565b915061195d82611942565b600082019050919050565b600060a08201905061197d6000830187611425565b61198a6020830186611425565b6119976040830185611922565b6119a46060830184611328565b81810360808301526119b581611945565b905095945050505050565b7f4e6f207265776172647320746f20626520636c61696d65640000000000000000600082015250565b60006119f6601883611816565b9150611a01826119c0565b602082019050919050565b60006020820190508181036000830152611a25816119e9565b9050919050565b6000611a378261131e565b9150611a428361131e565b9250828202611a508161131e565b91508282048414831517611a6757611a66611893565b5b5092915050565b6000611a798261131e565b9150611a848361131e565b9250828201905080821115611a9c57611a9b611893565b5b92915050565b7f4f776e61626c653a206e6577206f776e657220697320746865207a65726f206160008201527f6464726573730000000000000000000000000000000000000000000000000000602082015250565b6000611afe602683611816565b9150611b0982611aa2565b604082019050919050565b60006020820190508181036000830152611b2d81611af1565b9050919050565b7f4e487b7100000000000000000000000000000000000000000000000000000000600052601260045260246000fd5b6000611b6e8261131e565b9150611b798361131e565b925082611b8957611b88611b34565b5b828204905092915050565b7f4f776e61626c653a2063616c6c6572206973206e6f7420746865206f776e6572600082015250565b6000611bca602083611816565b9150611bd582611b94565b602082019050919050565b60006020820190508181036000830152611bf981611bbd565b905091905056fea26469706673582212206eaeab1527626ab51a7f439050656d5f14f2069a64c9e7a0077b24283c2f982f64736f6c63430008110033",
  "linkReferences": {},
  "deployedLinkReferences": {}
}