{
  "_format": "hh-sol-artifact-1",
  "contractName": "Staking",
  "sourceName": "contracts/Staking.sol",
  "abi": [
    {
      "inputs": [
        {
          "internalType": "address",
          "name": "_stakingNFT",
          "type": "address"
        }
      ],
      "stateMutability": "nonpayable",
      "type": "constructor"
    },
    {
      "anonymous": false,
      "inputs": [
        {
          "indexed": true,
          "internalType": "address",
          "name": "sender",
          "type": "address"
        },
        {
          "indexed": false,
          "internalType": "uint256",
          "name": "amount",
          "type": "uint256"
        }
      ],
      "name": "FTMReceived",
      "type": "event"
    },
    {
      "anonymous": false,
      "inputs": [
        {
          "indexed": true,
          "internalType": "address",
          "name": "sender",
          "type": "address"
        },
        {
          "indexed": false,
          "internalType": "uint256",
          "name": "amount",
          "type": "uint256"
        }
      ],
      "name": "NFTStaked",
      "type": "event"
    },
    {
      "anonymous": false,
      "inputs": [
        {
          "indexed": true,
          "internalType": "address",
          "name": "sender",
          "type": "address"
        },
        {
          "indexed": false,
          "internalType": "uint256",
          "name": "amount",
          "type": "uint256"
        }
      ],
      "name": "NFTUnstaked",
      "type": "event"
    },
    {
      "anonymous": false,
      "inputs": [
        {
          "indexed": true,
          "internalType": "address",
          "name": "previousOwner",
          "type": "address"
        },
        {
          "indexed": true,
          "internalType": "address",
          "name": "newOwner",
          "type": "address"
        }
      ],
      "name": "OwnershipTransferred",
      "type": "event"
    },
    {
      "anonymous": false,
      "inputs": [
        {
          "indexed": true,
          "internalType": "address",
          "name": "sender",
          "type": "address"
        },
        {
          "indexed": false,
          "internalType": "uint256",
          "name": "amount",
          "type": "uint256"
        }
      ],
      "name": "RewardsClaimed",
      "type": "event"
    },
    {
      "inputs": [],
      "name": "accumulatedRewardPerNFT",
      "outputs": [
        {
          "internalType": "uint256",
          "name": "",
          "type": "uint256"
        }
      ],
      "stateMutability": "view",
      "type": "function"
    },
    {
      "inputs": [
        {
          "internalType": "address",
          "name": "",
          "type": "address"
        }
      ],
      "name": "balanceOf",
      "outputs": [
        {
          "internalType": "uint256",
          "name": "",
          "type": "uint256"
        }
      ],
      "stateMutability": "view",
      "type": "function"
    },
    {
      "inputs": [],
      "name": "claimRewards",
      "outputs": [],
      "stateMutability": "nonpayable",
      "type": "function"
    },
    {
      "inputs": [],
      "name": "funds_contract_address",
      "outputs": [
        {
          "internalType": "address",
          "name": "",
          "type": "address"
        }
      ],
      "stateMutability": "view",
      "type": "function"
    },
    {
      "inputs": [],
      "name": "getRewardPerToken",
      "outputs": [
        {
          "internalType": "uint256",
          "name": "",
          "type": "uint256"
        }
      ],
      "stateMutability": "view",
      "type": "function"
    },
    {
      "inputs": [
        {
          "internalType": "address",
          "name": "_account",
          "type": "address"
        }
      ],
      "name": "getRewards",
      "outputs": [
        {
          "internalType": "uint256",
          "name": "",
          "type": "uint256"
        }
      ],
      "stateMutability": "view",
      "type": "function"
    },
    {
      "inputs": [],
      "name": "incoming_funds",
      "outputs": [
        {
          "internalType": "uint256",
          "name": "",
          "type": "uint256"
        }
      ],
      "stateMutability": "view",
      "type": "function"
    },
    {
      "inputs": [],
      "name": "manage_new_funds",
      "outputs": [],
      "stateMutability": "payable",
      "type": "function"
    },
    {
      "inputs": [
        {
          "internalType": "address",
          "name": "",
          "type": "address"
        },
        {
          "internalType": "address",
          "name": "",
          "type": "address"
        },
        {
          "internalType": "uint256[]",
          "name": "",
          "type": "uint256[]"
        },
        {
          "internalType": "uint256[]",
          "name": "",
          "type": "uint256[]"
        },
        {
          "internalType": "bytes",
          "name": "",
          "type": "bytes"
        }
      ],
      "name": "onERC1155BatchReceived",
      "outputs": [
        {
          "internalType": "bytes4",
          "name": "",
          "type": "bytes4"
        }
      ],
      "stateMutability": "nonpayable",
      "type": "function"
    },
    {
      "inputs": [
        {
          "internalType": "address",
          "name": "",
          "type": "address"
        },
        {
          "internalType": "address",
          "name": "",
          "type": "address"
        },
        {
          "internalType": "uint256",
          "name": "",
          "type": "uint256"
        },
        {
          "internalType": "uint256",
          "name": "",
          "type": "uint256"
        },
        {
          "internalType": "bytes",
          "name": "",
          "type": "bytes"
        }
      ],
      "name": "onERC1155Received",
      "outputs": [
        {
          "internalType": "bytes4",
          "name": "",
          "type": "bytes4"
        }
      ],
      "stateMutability": "nonpayable",
      "type": "function"
    },
    {
      "inputs": [],
      "name": "only_once",
      "outputs": [
        {
          "internalType": "uint256",
          "name": "",
          "type": "uint256"
        }
      ],
      "stateMutability": "view",
      "type": "function"
    },
    {
      "inputs": [],
      "name": "owner",
      "outputs": [
        {
          "internalType": "address",
          "name": "",
          "type": "address"
        }
      ],
      "stateMutability": "view",
      "type": "function"
    },
    {
      "inputs": [],
      "name": "renounceOwnership",
      "outputs": [],
      "stateMutability": "nonpayable",
      "type": "function"
    },
    {
      "inputs": [
        {
          "internalType": "address",
          "name": "",
          "type": "address"
        }
      ],
      "name": "rewards",
      "outputs": [
        {
          "internalType": "uint256",
          "name": "",
          "type": "uint256"
        }
      ],
      "stateMutability": "view",
      "type": "function"
    },
    {
      "inputs": [
        {
          "internalType": "address",
          "name": "_funds_contract_address",
          "type": "address"
        }
      ],
      "name": "setFundsManagerContractAddress",
      "outputs": [],
      "stateMutability": "nonpayable",
      "type": "function"
    },
    {
      "inputs": [
        {
          "internalType": "uint256",
          "name": "_duration",
          "type": "uint256"
        }
      ],
      "name": "setStakingDuration",
      "outputs": [],
      "stateMutability": "nonpayable",
      "type": "function"
    },
    {
      "inputs": [
        {
          "internalType": "uint256",
          "name": "_amount",
          "type": "uint256"
        }
      ],
      "name": "stake",
      "outputs": [],
      "stateMutability": "nonpayable",
      "type": "function"
    },
    {
      "inputs": [],
      "name": "stakingToken",
      "outputs": [
        {
          "internalType": "contract IERC1155",
          "name": "",
          "type": "address"
        }
      ],
      "stateMutability": "view",
      "type": "function"
    },
    {
      "inputs": [],
      "name": "staking_duration",
      "outputs": [
        {
          "internalType": "uint256",
          "name": "",
          "type": "uint256"
        }
      ],
      "stateMutability": "view",
      "type": "function"
    },
    {
      "inputs": [],
      "name": "staking_info",
      "outputs": [
        {
          "internalType": "uint256",
          "name": "start",
          "type": "uint256"
        },
        {
          "internalType": "uint256",
          "name": "reward_rate",
          "type": "uint256"
        }
      ],
      "stateMutability": "view",
      "type": "function"
    },
    {
      "inputs": [
        {
          "internalType": "bytes4",
          "name": "interfaceId",
          "type": "bytes4"
        }
      ],
      "name": "supportsInterface",
      "outputs": [
        {
          "internalType": "bool",
          "name": "",
          "type": "bool"
        }
      ],
      "stateMutability": "view",
      "type": "function"
    },
    {
      "inputs": [],
      "name": "totalStaked",
      "outputs": [
        {
          "internalType": "uint256",
          "name": "",
          "type": "uint256"
        }
      ],
      "stateMutability": "view",
      "type": "function"
    },
    {
      "inputs": [
        {
          "internalType": "address",
          "name": "newOwner",
          "type": "address"
        }
      ],
      "name": "transferOwnership",
      "outputs": [],
      "stateMutability": "nonpayable",
      "type": "function"
    },
    {
      "inputs": [
        {
          "internalType": "uint256",
          "name": "_amount",
          "type": "uint256"
        }
      ],
      "name": "unstake",
      "outputs": [],
      "stateMutability": "nonpayable",
      "type": "function"
    },
    {
      "inputs": [],
      "name": "updatedAt",
      "outputs": [
        {
          "internalType": "uint256",
          "name": "",
          "type": "uint256"
        }
      ],
      "stateMutability": "view",
      "type": "function"
    },
    {
      "inputs": [
        {
          "internalType": "address",
          "name": "",
          "type": "address"
        }
      ],
      "name": "userRewardPerTokenAccounted",
      "outputs": [
        {
          "internalType": "uint256",
          "name": "",
          "type": "uint256"
        }
      ],
      "stateMutability": "view",
      "type": "function"
    }
  ],
  "bytecode": "0x60a06040526000600355620151806005553480156200001d57600080fd5b5060405162002170380380620021708339818101604052810190620000439190620001d4565b62000063620000576200009e60201b60201c565b620000a660201b60201c565b8073ffffffffffffffffffffffffffffffffffffffff1660808173ffffffffffffffffffffffffffffffffffffffff16815250505062000206565b600033905090565b60008060009054906101000a900473ffffffffffffffffffffffffffffffffffffffff169050816000806101000a81548173ffffffffffffffffffffffffffffffffffffffff021916908373ffffffffffffffffffffffffffffffffffffffff1602179055508173ffffffffffffffffffffffffffffffffffffffff168173ffffffffffffffffffffffffffffffffffffffff167f8be0079c531659141344cd1fd0a4f28419497f9722a3daafe3b4186f6b6457e060405160405180910390a35050565b600080fd5b600073ffffffffffffffffffffffffffffffffffffffff82169050919050565b60006200019c826200016f565b9050919050565b620001ae816200018f565b8114620001ba57600080fd5b50565b600081519050620001ce81620001a3565b92915050565b600060208284031215620001ed57620001ec6200016a565b5b6000620001fd84828501620001bd565b91505092915050565b608051611f40620002306000396000818161081c01528181610b7d0152610eb60152611f406000f3fe6080604052600436106101815760003560e01c80637519ab50116100d1578063bc197c811161008a578063f23a6e6111610064578063f23a6e6114610575578063f2fde38b146105b2578063f32dbf68146105db578063feca3900146105e557610181565b8063bc197c81146104e1578063c23511e01461051e578063dc7fd3531461054a57610181565b80637519ab50146103d157806379ee54f7146103fc5780637a4c060c14610439578063817b1cd2146104625780638da5cb5b1461048d578063a694fc3a146104b857610181565b806339a392a21161013e5780636a8ca691116101185780636a8ca6911461032957806370a0823114610352578063715018a61461038f57806372f702f3146103a657610181565b806339a392a2146102a85780634f3d8145146102d35780635c900466146102fe57610181565b806301ffc9a7146101865780630700037d146101c35780630d3b37b31461020057806328e3a8b01461022b5780632e17de7814610268578063372500ab14610291575b600080fd5b34801561019257600080fd5b506101ad60048036038101906101a8919061143c565b610610565b6040516101ba9190611484565b60405180910390f35b3480156101cf57600080fd5b506101ea60048036038101906101e591906114fd565b61068a565b6040516101f79190611543565b60405180910390f35b34801561020c57600080fd5b506102156106a2565b6040516102229190611543565b60405180910390f35b34801561023757600080fd5b50610252600480360381019061024d91906114fd565b6106a8565b60405161025f9190611543565b60405180910390f35b34801561027457600080fd5b5061028f600480360381019061028a919061158a565b6106c0565b005b34801561029d57600080fd5b506102a66108fe565b005b3480156102b457600080fd5b506102bd610b0b565b6040516102ca9190611543565b60405180910390f35b3480156102df57600080fd5b506102e8610b11565b6040516102f59190611543565b60405180910390f35b34801561030a57600080fd5b50610313610b17565b60405161032091906115c6565b60405180910390f35b34801561033557600080fd5b50610350600480360381019061034b919061158a565b610b3d565b005b34801561035e57600080fd5b50610379600480360381019061037491906114fd565b610b4f565b6040516103869190611543565b60405180910390f35b34801561039b57600080fd5b506103a4610b67565b005b3480156103b257600080fd5b506103bb610b7b565b6040516103c89190611640565b60405180910390f35b3480156103dd57600080fd5b506103e6610b9f565b6040516103f39190611543565b60405180910390f35b34801561040857600080fd5b50610423600480360381019061041e91906114fd565b610ba5565b6040516104309190611543565b60405180910390f35b34801561044557600080fd5b50610460600480360381019061045b91906114fd565b610cef565b005b34801561046e57600080fd5b50610477610d9a565b6040516104849190611543565b60405180910390f35b34801561049957600080fd5b506104a2610da0565b6040516104af91906115c6565b60405180910390f35b3480156104c457600080fd5b506104df60048036038101906104da919061158a565b610dc9565b005b3480156104ed57600080fd5b5061050860048036038101906105039190611869565b611007565b6040516105159190611947565b60405180910390f35b34801561052a57600080fd5b5061053361101c565b604051610541929190611962565b60405180910390f35b34801561055657600080fd5b5061055f61102e565b60405161056c9190611543565b60405180910390f35b34801561058157600080fd5b5061059c6004803603810190610597919061198b565b611034565b6040516105a99190611947565b60405180910390f35b3480156105be57600080fd5b506105d960048036038101906105d491906114fd565b611049565b005b6105e36110cc565b005b3480156105f157600080fd5b506105fa6111c3565b6040516106079190611543565b60405180910390f35b60007f4e2312e0000000000000000000000000000000000000000000000000000000007bffffffffffffffffffffffffffffffffffffffffffffffffffffffff1916827bffffffffffffffffffffffffffffffffffffffffffffffffffffffff1916148061068357506106828261121c565b5b9050919050565b60086020528060005260406000206000915090505481565b60025481565b600a6020528060005260406000206000915090505481565b336106c96111c3565b600c8190555042600b819055506106df81610ba5565b600860008373ffffffffffffffffffffffffffffffffffffffff1673ffffffffffffffffffffffffffffffffffffffff16815260200190815260200160002081905550600c54600a60008373ffffffffffffffffffffffffffffffffffffffff1673ffffffffffffffffffffffffffffffffffffffff16815260200190815260200160002081905550600082116107ab576040517f08c379a00000000000000000000000000000000000000000000000000000000081526004016107a290611a7f565b60405180910390fd5b81600960003373ffffffffffffffffffffffffffffffffffffffff1673ffffffffffffffffffffffffffffffffffffffff16815260200190815260200160002060008282546107fa9190611ace565b9250508190555081600460008282546108139190611ace565b925050819055507f000000000000000000000000000000000000000000000000000000000000000073ffffffffffffffffffffffffffffffffffffffff1663f242432a30336001866040518563ffffffff1660e01b815260040161087a9493929190611b74565b600060405180830381600087803b15801561089457600080fd5b505af11580156108a8573d6000803e3d6000fd5b505050503373ffffffffffffffffffffffffffffffffffffffff167f963148346e3c93bb3eb4b4c296e2e13321ff22bf1118c91686cb1bfe4adcd918836040516108f29190611543565b60405180910390a25050565b336109076111c3565b600c8190555042600b8190555061091d81610ba5565b600860008373ffffffffffffffffffffffffffffffffffffffff1673ffffffffffffffffffffffffffffffffffffffff16815260200190815260200160002081905550600c54600a60008373ffffffffffffffffffffffffffffffffffffffff1673ffffffffffffffffffffffffffffffffffffffff168152602001908152602001600020819055506000600860003373ffffffffffffffffffffffffffffffffffffffff1673ffffffffffffffffffffffffffffffffffffffff16815260200190815260200160002054905060008111610a2d576040517f08c379a0000000000000000000000000000000000000000000000000000000008152600401610a2490611c18565b60405180910390fd5b6000600860003373ffffffffffffffffffffffffffffffffffffffff1673ffffffffffffffffffffffffffffffffffffffff168152602001908152602001600020819055503373ffffffffffffffffffffffffffffffffffffffff166108fc829081150290604051600060405180830381858888f19350505050158015610ab8573d6000803e3d6000fd5b503373ffffffffffffffffffffffffffffffffffffffff167ffc30cddea38e2bf4d6ea7d3f9ed3b6ad7f176419f4963bd81318067a4aee73fe82604051610aff9190611543565b60405180910390a25050565b60055481565b600c5481565b600160009054906101000a900473ffffffffffffffffffffffffffffffffffffffff1681565b610b45611286565b8060058190555050565b60096020528060005260406000206000915090505481565b610b6f611286565b610b796000611304565b565b7f000000000000000000000000000000000000000000000000000000000000000081565b600b5481565b600080600860008473ffffffffffffffffffffffffffffffffffffffff1673ffffffffffffffffffffffffffffffffffffffff1681526020019081526020016000205490506000610bf46111c3565b600960008673ffffffffffffffffffffffffffffffffffffffff1673ffffffffffffffffffffffffffffffffffffffff16815260200190815260200160002054610c3e9190611c38565b90506000600a60008673ffffffffffffffffffffffffffffffffffffffff1673ffffffffffffffffffffffffffffffffffffffff16815260200190815260200160002054600960008773ffffffffffffffffffffffffffffffffffffffff1673ffffffffffffffffffffffffffffffffffffffff16815260200190815260200160002054610ccc9190611c38565b9050808284610cdb9190611c7a565b610ce59190611ace565b9350505050919050565b610cf7611286565b600060035414610d3c576040517f08c379a0000000000000000000000000000000000000000000000000000000008152600401610d3390611cfa565b60405180910390fd5b80600160006101000a81548173ffffffffffffffffffffffffffffffffffffffff021916908373ffffffffffffffffffffffffffffffffffffffff160217905550600160036000828254610d909190611c7a565b9250508190555050565b60045481565b60008060009054906101000a900473ffffffffffffffffffffffffffffffffffffffff16905090565b33610dd26111c3565b600c8190555042600b81905550610de881610ba5565b600860008373ffffffffffffffffffffffffffffffffffffffff1673ffffffffffffffffffffffffffffffffffffffff16815260200190815260200160002081905550600c54600a60008373ffffffffffffffffffffffffffffffffffffffff1673ffffffffffffffffffffffffffffffffffffffff1681526020019081526020016000208190555060008211610eb4576040517f08c379a0000000000000000000000000000000000000000000000000000000008152600401610eab90611a7f565b60405180910390fd5b7f000000000000000000000000000000000000000000000000000000000000000073ffffffffffffffffffffffffffffffffffffffff1663f242432a33306001866040518563ffffffff1660e01b8152600401610f149493929190611b74565b600060405180830381600087803b158015610f2e57600080fd5b505af1158015610f42573d6000803e3d6000fd5b505050508160046000828254610f589190611c7a565b9250508190555081600960003373ffffffffffffffffffffffffffffffffffffffff1673ffffffffffffffffffffffffffffffffffffffff1681526020019081526020016000206000828254610fae9190611c7a565b925050819055503373ffffffffffffffffffffffffffffffffffffffff167f0cda5cf38f6592672c7b4a22ff3d50874d1913629bd5ffedc27b7b40503d60fd83604051610ffb9190611543565b60405180910390a25050565b600063bc197c8160e01b905095945050505050565b60068060000154908060010154905082565b60035481565b600063f23a6e6160e01b905095945050505050565b611051611286565b600073ffffffffffffffffffffffffffffffffffffffff168173ffffffffffffffffffffffffffffffffffffffff16036110c0576040517f08c379a00000000000000000000000000000000000000000000000000000000081526004016110b790611d8c565b60405180910390fd5b6110c981611304565b50565b600160009054906101000a900473ffffffffffffffffffffffffffffffffffffffff1673ffffffffffffffffffffffffffffffffffffffff163373ffffffffffffffffffffffffffffffffffffffff161461115c576040517f08c379a000000000000000000000000000000000000000000000000000000000815260040161115390611e1e565b60405180910390fd5b60006006600001544261116f9190611ace565b905034600260008282546111839190611c7a565b925050819055506005548111156111c0576005546002546111a49190611e6d565b6006600101819055504260066000018190555060006002819055505b50565b600080600454036111d857600c549050611219565b6000600454600b54426111eb9190611ace565b6006600101546111fb9190611c38565b6112059190611e6d565b905080600c546112159190611c7a565b9150505b90565b60007f01ffc9a7000000000000000000000000000000000000000000000000000000007bffffffffffffffffffffffffffffffffffffffffffffffffffffffff1916827bffffffffffffffffffffffffffffffffffffffffffffffffffffffff1916149050919050565b61128e6113c8565b73ffffffffffffffffffffffffffffffffffffffff166112ac610da0565b73ffffffffffffffffffffffffffffffffffffffff1614611302576040517f08c379a00000000000000000000000000000000000000000000000000000000081526004016112f990611eea565b60405180910390fd5b565b60008060009054906101000a900473ffffffffffffffffffffffffffffffffffffffff169050816000806101000a81548173ffffffffffffffffffffffffffffffffffffffff021916908373ffffffffffffffffffffffffffffffffffffffff1602179055508173ffffffffffffffffffffffffffffffffffffffff168173ffffffffffffffffffffffffffffffffffffffff167f8be0079c531659141344cd1fd0a4f28419497f9722a3daafe3b4186f6b6457e060405160405180910390a35050565b600033905090565b6000604051905090565b600080fd5b600080fd5b60007fffffffff0000000000000000000000000000000000000000000000000000000082169050919050565b611419816113e4565b811461142457600080fd5b50565b60008135905061143681611410565b92915050565b600060208284031215611452576114516113da565b5b600061146084828501611427565b91505092915050565b60008115159050919050565b61147e81611469565b82525050565b60006020820190506114996000830184611475565b92915050565b600073ffffffffffffffffffffffffffffffffffffffff82169050919050565b60006114ca8261149f565b9050919050565b6114da816114bf565b81146114e557600080fd5b50565b6000813590506114f7816114d1565b92915050565b600060208284031215611513576115126113da565b5b6000611521848285016114e8565b91505092915050565b6000819050919050565b61153d8161152a565b82525050565b60006020820190506115586000830184611534565b92915050565b6115678161152a565b811461157257600080fd5b50565b6000813590506115848161155e565b92915050565b6000602082840312156115a05761159f6113da565b5b60006115ae84828501611575565b91505092915050565b6115c0816114bf565b82525050565b60006020820190506115db60008301846115b7565b92915050565b6000819050919050565b60006116066116016115fc8461149f565b6115e1565b61149f565b9050919050565b6000611618826115eb565b9050919050565b600061162a8261160d565b9050919050565b61163a8161161f565b82525050565b60006020820190506116556000830184611631565b92915050565b600080fd5b6000601f19601f8301169050919050565b7f4e487b7100000000000000000000000000000000000000000000000000000000600052604160045260246000fd5b6116a982611660565b810181811067ffffffffffffffff821117156116c8576116c7611671565b5b80604052505050565b60006116db6113d0565b90506116e782826116a0565b919050565b600067ffffffffffffffff82111561170757611706611671565b5b602082029050602081019050919050565b600080fd5b600061173061172b846116ec565b6116d1565b9050808382526020820190506020840283018581111561175357611752611718565b5b835b8181101561177c57806117688882611575565b845260208401935050602081019050611755565b5050509392505050565b600082601f83011261179b5761179a61165b565b5b81356117ab84826020860161171d565b91505092915050565b600080fd5b600067ffffffffffffffff8211156117d4576117d3611671565b5b6117dd82611660565b9050602081019050919050565b82818337600083830152505050565b600061180c611807846117b9565b6116d1565b905082815260208101848484011115611828576118276117b4565b5b6118338482856117ea565b509392505050565b600082601f8301126118505761184f61165b565b5b81356118608482602086016117f9565b91505092915050565b600080600080600060a08688031215611885576118846113da565b5b6000611893888289016114e8565b95505060206118a4888289016114e8565b945050604086013567ffffffffffffffff8111156118c5576118c46113df565b5b6118d188828901611786565b935050606086013567ffffffffffffffff8111156118f2576118f16113df565b5b6118fe88828901611786565b925050608086013567ffffffffffffffff81111561191f5761191e6113df565b5b61192b8882890161183b565b9150509295509295909350565b611941816113e4565b82525050565b600060208201905061195c6000830184611938565b92915050565b60006040820190506119776000830185611534565b6119846020830184611534565b9392505050565b600080600080600060a086880312156119a7576119a66113da565b5b60006119b5888289016114e8565b95505060206119c6888289016114e8565b94505060406119d788828901611575565b93505060606119e888828901611575565b925050608086013567ffffffffffffffff811115611a0957611a086113df565b5b611a158882890161183b565b9150509295509295909350565b600082825260208201905092915050565b7f616d6f756e74203d203000000000000000000000000000000000000000000000600082015250565b6000611a69600a83611a22565b9150611a7482611a33565b602082019050919050565b60006020820190508181036000830152611a9881611a5c565b9050919050565b7f4e487b7100000000000000000000000000000000000000000000000000000000600052601160045260246000fd5b6000611ad98261152a565b9150611ae48361152a565b9250828203905081811115611afc57611afb611a9f565b5b92915050565b6000819050919050565b6000611b27611b22611b1d84611b02565b6115e1565b61152a565b9050919050565b611b3781611b0c565b82525050565b600082825260208201905092915050565b50565b6000611b5e600083611b3d565b9150611b6982611b4e565b600082019050919050565b600060a082019050611b8960008301876115b7565b611b9660208301866115b7565b611ba36040830185611b2e565b611bb06060830184611534565b8181036080830152611bc181611b51565b905095945050505050565b7f4e6f207265776172647320746f20626520636c61696d65640000000000000000600082015250565b6000611c02601883611a22565b9150611c0d82611bcc565b602082019050919050565b60006020820190508181036000830152611c3181611bf5565b9050919050565b6000611c438261152a565b9150611c4e8361152a565b9250828202611c5c8161152a565b91508282048414831517611c7357611c72611a9f565b5b5092915050565b6000611c858261152a565b9150611c908361152a565b9250828201905080821115611ca857611ca7611a9f565b5b92915050565b7f46756e6374696f6e20616c72656164792063616c6c6564000000000000000000600082015250565b6000611ce4601783611a22565b9150611cef82611cae565b602082019050919050565b60006020820190508181036000830152611d1381611cd7565b9050919050565b7f4f776e61626c653a206e6577206f776e657220697320746865207a65726f206160008201527f6464726573730000000000000000000000000000000000000000000000000000602082015250565b6000611d76602683611a22565b9150611d8182611d1a565b604082019050919050565b60006020820190508181036000830152611da581611d69565b9050919050565b7f4f6e6c79207468652066756e6473206d616e6167657220636f6e74726163742060008201527f63616e2063616c6c20746869732066756e6374696f6e00000000000000000000602082015250565b6000611e08603683611a22565b9150611e1382611dac565b604082019050919050565b60006020820190508181036000830152611e3781611dfb565b9050919050565b7f4e487b7100000000000000000000000000000000000000000000000000000000600052601260045260246000fd5b6000611e788261152a565b9150611e838361152a565b925082611e9357611e92611e3e565b5b828204905092915050565b7f4f776e61626c653a2063616c6c6572206973206e6f7420746865206f776e6572600082015250565b6000611ed4602083611a22565b9150611edf82611e9e565b602082019050919050565b60006020820190508181036000830152611f0381611ec7565b905091905056fea264697066735822122057ef4f45e70f2fe36f457fdde6817776bf45d75b5e2820fb4971154281b7fa7c64736f6c63430008110033",
  "linkReferences": {},
  "deployedLinkReferences": {}
}