{
  "_format": "hh-sol-artifact-1",
  "contractName": "Staking",
  "sourceName": "contracts/Staking.sol",
  "abi": [
    {
      "inputs": [
        {
          "internalType": "address",
          "name": "_stakingNFT",
          "type": "address"
        }
      ],
      "stateMutability": "nonpayable",
      "type": "constructor"
    },
    {
      "anonymous": false,
      "inputs": [
        {
          "indexed": true,
          "internalType": "address",
          "name": "sender",
          "type": "address"
        },
        {
          "indexed": false,
          "internalType": "uint256",
          "name": "amount",
          "type": "uint256"
        }
      ],
      "name": "FTMReceived",
      "type": "event"
    },
    {
      "anonymous": false,
      "inputs": [
        {
          "indexed": true,
          "internalType": "address",
          "name": "sender",
          "type": "address"
        },
        {
          "indexed": false,
          "internalType": "uint256",
          "name": "amount",
          "type": "uint256"
        }
      ],
      "name": "NFTStaked",
      "type": "event"
    },
    {
      "anonymous": false,
      "inputs": [
        {
          "indexed": true,
          "internalType": "address",
          "name": "sender",
          "type": "address"
        },
        {
          "indexed": false,
          "internalType": "uint256",
          "name": "amount",
          "type": "uint256"
        }
      ],
      "name": "NFTUnstaked",
      "type": "event"
    },
    {
      "anonymous": false,
      "inputs": [
        {
          "indexed": true,
          "internalType": "address",
          "name": "previousOwner",
          "type": "address"
        },
        {
          "indexed": true,
          "internalType": "address",
          "name": "newOwner",
          "type": "address"
        }
      ],
      "name": "OwnershipTransferred",
      "type": "event"
    },
    {
      "anonymous": false,
      "inputs": [
        {
          "indexed": true,
          "internalType": "address",
          "name": "sender",
          "type": "address"
        },
        {
          "indexed": false,
          "internalType": "uint256",
          "name": "amount",
          "type": "uint256"
        }
      ],
      "name": "RewardsClaimed",
      "type": "event"
    },
    {
      "stateMutability": "payable",
      "type": "fallback"
    },
    {
      "inputs": [],
      "name": "accumulatedRewardPerNFT",
      "outputs": [
        {
          "internalType": "uint256",
          "name": "",
          "type": "uint256"
        }
      ],
      "stateMutability": "view",
      "type": "function"
    },
    {
      "inputs": [
        {
          "internalType": "address",
          "name": "",
          "type": "address"
        }
      ],
      "name": "balanceOf",
      "outputs": [
        {
          "internalType": "uint256",
          "name": "",
          "type": "uint256"
        }
      ],
      "stateMutability": "view",
      "type": "function"
    },
    {
      "inputs": [],
      "name": "claimRewards",
      "outputs": [],
      "stateMutability": "nonpayable",
      "type": "function"
    },
    {
      "inputs": [],
      "name": "emergencyWithdraw",
      "outputs": [],
      "stateMutability": "nonpayable",
      "type": "function"
    },
    {
      "inputs": [],
      "name": "getRewardPerToken",
      "outputs": [
        {
          "internalType": "uint256",
          "name": "",
          "type": "uint256"
        }
      ],
      "stateMutability": "view",
      "type": "function"
    },
    {
      "inputs": [
        {
          "internalType": "address",
          "name": "_account",
          "type": "address"
        }
      ],
      "name": "getRewards",
      "outputs": [
        {
          "internalType": "uint256",
          "name": "",
          "type": "uint256"
        }
      ],
      "stateMutability": "view",
      "type": "function"
    },
    {
      "inputs": [
        {
          "internalType": "address",
          "name": "",
          "type": "address"
        },
        {
          "internalType": "address",
          "name": "",
          "type": "address"
        },
        {
          "internalType": "uint256[]",
          "name": "",
          "type": "uint256[]"
        },
        {
          "internalType": "uint256[]",
          "name": "",
          "type": "uint256[]"
        },
        {
          "internalType": "bytes",
          "name": "",
          "type": "bytes"
        }
      ],
      "name": "onERC1155BatchReceived",
      "outputs": [
        {
          "internalType": "bytes4",
          "name": "",
          "type": "bytes4"
        }
      ],
      "stateMutability": "nonpayable",
      "type": "function"
    },
    {
      "inputs": [
        {
          "internalType": "address",
          "name": "",
          "type": "address"
        },
        {
          "internalType": "address",
          "name": "",
          "type": "address"
        },
        {
          "internalType": "uint256",
          "name": "",
          "type": "uint256"
        },
        {
          "internalType": "uint256",
          "name": "",
          "type": "uint256"
        },
        {
          "internalType": "bytes",
          "name": "",
          "type": "bytes"
        }
      ],
      "name": "onERC1155Received",
      "outputs": [
        {
          "internalType": "bytes4",
          "name": "",
          "type": "bytes4"
        }
      ],
      "stateMutability": "nonpayable",
      "type": "function"
    },
    {
      "inputs": [],
      "name": "owner",
      "outputs": [
        {
          "internalType": "address",
          "name": "",
          "type": "address"
        }
      ],
      "stateMutability": "view",
      "type": "function"
    },
    {
      "inputs": [],
      "name": "renounceOwnership",
      "outputs": [],
      "stateMutability": "nonpayable",
      "type": "function"
    },
    {
      "inputs": [
        {
          "internalType": "address",
          "name": "",
          "type": "address"
        }
      ],
      "name": "rewards",
      "outputs": [
        {
          "internalType": "uint256",
          "name": "",
          "type": "uint256"
        }
      ],
      "stateMutability": "view",
      "type": "function"
    },
    {
      "inputs": [
        {
          "internalType": "uint256",
          "name": "_duration",
          "type": "uint256"
        }
      ],
      "name": "setStakingDuration",
      "outputs": [],
      "stateMutability": "nonpayable",
      "type": "function"
    },
    {
      "inputs": [
        {
          "internalType": "uint256",
          "name": "_amount",
          "type": "uint256"
        }
      ],
      "name": "stake",
      "outputs": [],
      "stateMutability": "nonpayable",
      "type": "function"
    },
    {
      "inputs": [],
      "name": "stakingToken",
      "outputs": [
        {
          "internalType": "contract IERC1155",
          "name": "",
          "type": "address"
        }
      ],
      "stateMutability": "view",
      "type": "function"
    },
    {
      "inputs": [],
      "name": "staking_duration",
      "outputs": [
        {
          "internalType": "uint256",
          "name": "",
          "type": "uint256"
        }
      ],
      "stateMutability": "view",
      "type": "function"
    },
    {
      "inputs": [],
      "name": "staking_info",
      "outputs": [
        {
          "internalType": "uint256",
          "name": "start",
          "type": "uint256"
        },
        {
          "internalType": "uint256",
          "name": "reward_rate",
          "type": "uint256"
        }
      ],
      "stateMutability": "view",
      "type": "function"
    },
    {
      "inputs": [
        {
          "internalType": "bytes4",
          "name": "interfaceId",
          "type": "bytes4"
        }
      ],
      "name": "supportsInterface",
      "outputs": [
        {
          "internalType": "bool",
          "name": "",
          "type": "bool"
        }
      ],
      "stateMutability": "view",
      "type": "function"
    },
    {
      "inputs": [],
      "name": "totalStaked",
      "outputs": [
        {
          "internalType": "uint256",
          "name": "",
          "type": "uint256"
        }
      ],
      "stateMutability": "view",
      "type": "function"
    },
    {
      "inputs": [
        {
          "internalType": "address",
          "name": "newOwner",
          "type": "address"
        }
      ],
      "name": "transferOwnership",
      "outputs": [],
      "stateMutability": "nonpayable",
      "type": "function"
    },
    {
      "inputs": [
        {
          "internalType": "uint256",
          "name": "_amount",
          "type": "uint256"
        }
      ],
      "name": "unstake",
      "outputs": [],
      "stateMutability": "nonpayable",
      "type": "function"
    },
    {
      "inputs": [],
      "name": "updatedAt",
      "outputs": [
        {
          "internalType": "uint256",
          "name": "",
          "type": "uint256"
        }
      ],
      "stateMutability": "view",
      "type": "function"
    },
    {
      "inputs": [
        {
          "internalType": "address",
          "name": "",
          "type": "address"
        }
      ],
      "name": "userRewardPerTokenAccounted",
      "outputs": [
        {
          "internalType": "uint256",
          "name": "",
          "type": "uint256"
        }
      ],
      "stateMutability": "view",
      "type": "function"
    },
    {
      "stateMutability": "payable",
      "type": "receive"
    }
  ],
  "bytecode": "0x60a0604052620151806002553480156200001857600080fd5b5060405162001fa638038062001fa683398181016040528101906200003e9190620001cf565b6200005e620000526200009960201b60201c565b620000a160201b60201c565b8073ffffffffffffffffffffffffffffffffffffffff1660808173ffffffffffffffffffffffffffffffffffffffff16815250505062000201565b600033905090565b60008060009054906101000a900473ffffffffffffffffffffffffffffffffffffffff169050816000806101000a81548173ffffffffffffffffffffffffffffffffffffffff021916908373ffffffffffffffffffffffffffffffffffffffff1602179055508173ffffffffffffffffffffffffffffffffffffffff168173ffffffffffffffffffffffffffffffffffffffff167f8be0079c531659141344cd1fd0a4f28419497f9722a3daafe3b4186f6b6457e060405160405180910390a35050565b600080fd5b600073ffffffffffffffffffffffffffffffffffffffff82169050919050565b600062000197826200016a565b9050919050565b620001a9816200018a565b8114620001b557600080fd5b50565b600081519050620001c9816200019e565b92915050565b600060208284031215620001e857620001e762000165565b5b6000620001f884828501620001b8565b91505092915050565b608051611d7b6200022b6000396000818161083801528181610b730152610e010152611d7b6000f3fe6080604052600436106101395760003560e01c80637519ab50116100ab578063bc197c811161006f578063bc197c81146104ca578063c23511e014610507578063db2e21bc14610533578063f23a6e611461054a578063f2fde38b14610587578063feca3900146105b057610196565b80637519ab50146103e357806379ee54f71461040e578063817b1cd21461044b5780638da5cb5b14610476578063a694fc3a146104a157610196565b806339a392a2116100fd57806339a392a2146102e55780634f3d8145146103105780636a8ca6911461033b57806370a0823114610364578063715018a6146103a157806372f702f3146103b857610196565b806301ffc9a7146101ee5780630700037d1461022b57806328e3a8b0146102685780632e17de78146102a5578063372500ab146102ce57610196565b36610196576101466105db565b3373ffffffffffffffffffffffffffffffffffffffff167f627a1f2a33e46fb65cae23da2cb008aaa316ab9137e564b1b802a06811b991013460405161018c919061128f565b60405180910390a2005b61019e6105db565b3373ffffffffffffffffffffffffffffffffffffffff167f627a1f2a33e46fb65cae23da2cb008aaa316ab9137e564b1b802a06811b99101346040516101e4919061128f565b60405180910390a2005b3480156101fa57600080fd5b5061021560048036038101906102109190611316565b610632565b604051610222919061135e565b60405180910390f35b34801561023757600080fd5b50610252600480360381019061024d91906113d7565b6106ac565b60405161025f919061128f565b60405180910390f35b34801561027457600080fd5b5061028f600480360381019061028a91906113d7565b6106c4565b60405161029c919061128f565b60405180910390f35b3480156102b157600080fd5b506102cc60048036038101906102c79190611430565b6106dc565b005b3480156102da57600080fd5b506102e361091a565b005b3480156102f157600080fd5b506102fa610b27565b604051610307919061128f565b60405180910390f35b34801561031c57600080fd5b50610325610b2d565b604051610332919061128f565b60405180910390f35b34801561034757600080fd5b50610362600480360381019061035d9190611430565b610b33565b005b34801561037057600080fd5b5061038b600480360381019061038691906113d7565b610b45565b604051610398919061128f565b60405180910390f35b3480156103ad57600080fd5b506103b6610b5d565b005b3480156103c457600080fd5b506103cd610b71565b6040516103da91906114bc565b60405180910390f35b3480156103ef57600080fd5b506103f8610b95565b604051610405919061128f565b60405180910390f35b34801561041a57600080fd5b50610435600480360381019061043091906113d7565b610b9b565b604051610442919061128f565b60405180910390f35b34801561045757600080fd5b50610460610ce5565b60405161046d919061128f565b60405180910390f35b34801561048257600080fd5b5061048b610ceb565b60405161049891906114e6565b60405180910390f35b3480156104ad57600080fd5b506104c860048036038101906104c39190611430565b610d14565b005b3480156104d657600080fd5b506104f160048036038101906104ec919061170f565b610f52565b6040516104fe91906117ed565b60405180910390f35b34801561051357600080fd5b5061051c610f67565b60405161052a929190611808565b60405180910390f35b34801561053f57600080fd5b50610548610f79565b005b34801561055657600080fd5b50610571600480360381019061056c9190611831565b610fd1565b60405161057e91906117ed565b60405180910390f35b34801561059357600080fd5b506105ae60048036038101906105a991906113d7565b610fe6565b005b3480156105bc57600080fd5b506105c5611069565b6040516105d2919061128f565b60405180910390f35b6000600360000154426105ee91906118f7565b90506002548111801561060857506706f05b59d3b2000047115b1561062f576002544761061b919061195a565b600360010181905550426003600001819055505b50565b60007f4e2312e0000000000000000000000000000000000000000000000000000000007bffffffffffffffffffffffffffffffffffffffffffffffffffffffff1916827bffffffffffffffffffffffffffffffffffffffffffffffffffffffff191614806106a557506106a4826110c2565b5b9050919050565b60056020528060005260406000206000915090505481565b60076020528060005260406000206000915090505481565b336106e5611069565b600981905550426008819055506106fb81610b9b565b600560008373ffffffffffffffffffffffffffffffffffffffff1673ffffffffffffffffffffffffffffffffffffffff16815260200190815260200160002081905550600954600760008373ffffffffffffffffffffffffffffffffffffffff1673ffffffffffffffffffffffffffffffffffffffff16815260200190815260200160002081905550600082116107c7576040517f08c379a00000000000000000000000000000000000000000000000000000000081526004016107be906119e8565b60405180910390fd5b81600660003373ffffffffffffffffffffffffffffffffffffffff1673ffffffffffffffffffffffffffffffffffffffff168152602001908152602001600020600082825461081691906118f7565b92505081905550816001600082825461082f91906118f7565b925050819055507f000000000000000000000000000000000000000000000000000000000000000073ffffffffffffffffffffffffffffffffffffffff1663f242432a30336000866040518563ffffffff1660e01b81526004016108969493929190611a7a565b600060405180830381600087803b1580156108b057600080fd5b505af11580156108c4573d6000803e3d6000fd5b505050503373ffffffffffffffffffffffffffffffffffffffff167f963148346e3c93bb3eb4b4c296e2e13321ff22bf1118c91686cb1bfe4adcd9188360405161090e919061128f565b60405180910390a25050565b33610923611069565b6009819055504260088190555061093981610b9b565b600560008373ffffffffffffffffffffffffffffffffffffffff1673ffffffffffffffffffffffffffffffffffffffff16815260200190815260200160002081905550600954600760008373ffffffffffffffffffffffffffffffffffffffff1673ffffffffffffffffffffffffffffffffffffffff168152602001908152602001600020819055506000600560003373ffffffffffffffffffffffffffffffffffffffff1673ffffffffffffffffffffffffffffffffffffffff16815260200190815260200160002054905060008111610a49576040517f08c379a0000000000000000000000000000000000000000000000000000000008152600401610a4090611b1e565b60405180910390fd5b6000600560003373ffffffffffffffffffffffffffffffffffffffff1673ffffffffffffffffffffffffffffffffffffffff168152602001908152602001600020819055503373ffffffffffffffffffffffffffffffffffffffff166108fc829081150290604051600060405180830381858888f19350505050158015610ad4573d6000803e3d6000fd5b503373ffffffffffffffffffffffffffffffffffffffff167ffc30cddea38e2bf4d6ea7d3f9ed3b6ad7f176419f4963bd81318067a4aee73fe82604051610b1b919061128f565b60405180910390a25050565b60025481565b60095481565b610b3b61112c565b8060028190555050565b60066020528060005260406000206000915090505481565b610b6561112c565b610b6f60006111aa565b565b7f000000000000000000000000000000000000000000000000000000000000000081565b60085481565b600080600560008473ffffffffffffffffffffffffffffffffffffffff1673ffffffffffffffffffffffffffffffffffffffff1681526020019081526020016000205490506000610bea611069565b600660008673ffffffffffffffffffffffffffffffffffffffff1673ffffffffffffffffffffffffffffffffffffffff16815260200190815260200160002054610c349190611b3e565b90506000600760008673ffffffffffffffffffffffffffffffffffffffff1673ffffffffffffffffffffffffffffffffffffffff16815260200190815260200160002054600660008773ffffffffffffffffffffffffffffffffffffffff1673ffffffffffffffffffffffffffffffffffffffff16815260200190815260200160002054610cc29190611b3e565b9050808284610cd19190611b80565b610cdb91906118f7565b9350505050919050565b60015481565b60008060009054906101000a900473ffffffffffffffffffffffffffffffffffffffff16905090565b33610d1d611069565b60098190555042600881905550610d3381610b9b565b600560008373ffffffffffffffffffffffffffffffffffffffff1673ffffffffffffffffffffffffffffffffffffffff16815260200190815260200160002081905550600954600760008373ffffffffffffffffffffffffffffffffffffffff1673ffffffffffffffffffffffffffffffffffffffff1681526020019081526020016000208190555060008211610dff576040517f08c379a0000000000000000000000000000000000000000000000000000000008152600401610df6906119e8565b60405180910390fd5b7f000000000000000000000000000000000000000000000000000000000000000073ffffffffffffffffffffffffffffffffffffffff1663f242432a33306001866040518563ffffffff1660e01b8152600401610e5f9493929190611bef565b600060405180830381600087803b158015610e7957600080fd5b505af1158015610e8d573d6000803e3d6000fd5b505050508160016000828254610ea39190611b80565b9250508190555081600660003373ffffffffffffffffffffffffffffffffffffffff1673ffffffffffffffffffffffffffffffffffffffff1681526020019081526020016000206000828254610ef99190611b80565b925050819055503373ffffffffffffffffffffffffffffffffffffffff167f0cda5cf38f6592672c7b4a22ff3d50874d1913629bd5ffedc27b7b40503d60fd83604051610f46919061128f565b60405180910390a25050565b600063bc197c8160e01b905095945050505050565b60038060000154908060010154905082565b610f8161112c565b610f89610ceb565b73ffffffffffffffffffffffffffffffffffffffff166108fc479081150290604051600060405180830381858888f19350505050158015610fce573d6000803e3d6000fd5b50565b600063f23a6e6160e01b905095945050505050565b610fee61112c565b600073ffffffffffffffffffffffffffffffffffffffff168173ffffffffffffffffffffffffffffffffffffffff160361105d576040517f08c379a000000000000000000000000000000000000000000000000000000000815260040161105490611cb9565b60405180910390fd5b611066816111aa565b50565b6000806001540361107e5760095490506110bf565b60006001546008544261109191906118f7565b6003600101546110a19190611b3e565b6110ab919061195a565b9050806009546110bb9190611b80565b9150505b90565b60007f01ffc9a7000000000000000000000000000000000000000000000000000000007bffffffffffffffffffffffffffffffffffffffffffffffffffffffff1916827bffffffffffffffffffffffffffffffffffffffffffffffffffffffff1916149050919050565b61113461126e565b73ffffffffffffffffffffffffffffffffffffffff16611152610ceb565b73ffffffffffffffffffffffffffffffffffffffff16146111a8576040517f08c379a000000000000000000000000000000000000000000000000000000000815260040161119f90611d25565b60405180910390fd5b565b60008060009054906101000a900473ffffffffffffffffffffffffffffffffffffffff169050816000806101000a81548173ffffffffffffffffffffffffffffffffffffffff021916908373ffffffffffffffffffffffffffffffffffffffff1602179055508173ffffffffffffffffffffffffffffffffffffffff168173ffffffffffffffffffffffffffffffffffffffff167f8be0079c531659141344cd1fd0a4f28419497f9722a3daafe3b4186f6b6457e060405160405180910390a35050565b600033905090565b6000819050919050565b61128981611276565b82525050565b60006020820190506112a46000830184611280565b92915050565b6000604051905090565b600080fd5b600080fd5b60007fffffffff0000000000000000000000000000000000000000000000000000000082169050919050565b6112f3816112be565b81146112fe57600080fd5b50565b600081359050611310816112ea565b92915050565b60006020828403121561132c5761132b6112b4565b5b600061133a84828501611301565b91505092915050565b60008115159050919050565b61135881611343565b82525050565b6000602082019050611373600083018461134f565b92915050565b600073ffffffffffffffffffffffffffffffffffffffff82169050919050565b60006113a482611379565b9050919050565b6113b481611399565b81146113bf57600080fd5b50565b6000813590506113d1816113ab565b92915050565b6000602082840312156113ed576113ec6112b4565b5b60006113fb848285016113c2565b91505092915050565b61140d81611276565b811461141857600080fd5b50565b60008135905061142a81611404565b92915050565b600060208284031215611446576114456112b4565b5b60006114548482850161141b565b91505092915050565b6000819050919050565b600061148261147d61147884611379565b61145d565b611379565b9050919050565b600061149482611467565b9050919050565b60006114a682611489565b9050919050565b6114b68161149b565b82525050565b60006020820190506114d160008301846114ad565b92915050565b6114e081611399565b82525050565b60006020820190506114fb60008301846114d7565b92915050565b600080fd5b6000601f19601f8301169050919050565b7f4e487b7100000000000000000000000000000000000000000000000000000000600052604160045260246000fd5b61154f82611506565b810181811067ffffffffffffffff8211171561156e5761156d611517565b5b80604052505050565b60006115816112aa565b905061158d8282611546565b919050565b600067ffffffffffffffff8211156115ad576115ac611517565b5b602082029050602081019050919050565b600080fd5b60006115d66115d184611592565b611577565b905080838252602082019050602084028301858111156115f9576115f86115be565b5b835b81811015611622578061160e888261141b565b8452602084019350506020810190506115fb565b5050509392505050565b600082601f83011261164157611640611501565b5b81356116518482602086016115c3565b91505092915050565b600080fd5b600067ffffffffffffffff82111561167a57611679611517565b5b61168382611506565b9050602081019050919050565b82818337600083830152505050565b60006116b26116ad8461165f565b611577565b9050828152602081018484840111156116ce576116cd61165a565b5b6116d9848285611690565b509392505050565b600082601f8301126116f6576116f5611501565b5b813561170684826020860161169f565b91505092915050565b600080600080600060a0868803121561172b5761172a6112b4565b5b6000611739888289016113c2565b955050602061174a888289016113c2565b945050604086013567ffffffffffffffff81111561176b5761176a6112b9565b5b6117778882890161162c565b935050606086013567ffffffffffffffff811115611798576117976112b9565b5b6117a48882890161162c565b925050608086013567ffffffffffffffff8111156117c5576117c46112b9565b5b6117d1888289016116e1565b9150509295509295909350565b6117e7816112be565b82525050565b600060208201905061180260008301846117de565b92915050565b600060408201905061181d6000830185611280565b61182a6020830184611280565b9392505050565b600080600080600060a0868803121561184d5761184c6112b4565b5b600061185b888289016113c2565b955050602061186c888289016113c2565b945050604061187d8882890161141b565b935050606061188e8882890161141b565b925050608086013567ffffffffffffffff8111156118af576118ae6112b9565b5b6118bb888289016116e1565b9150509295509295909350565b7f4e487b7100000000000000000000000000000000000000000000000000000000600052601160045260246000fd5b600061190282611276565b915061190d83611276565b9250828203905081811115611925576119246118c8565b5b92915050565b7f4e487b7100000000000000000000000000000000000000000000000000000000600052601260045260246000fd5b600061196582611276565b915061197083611276565b9250826119805761197f61192b565b5b828204905092915050565b600082825260208201905092915050565b7f616d6f756e74203d203000000000000000000000000000000000000000000000600082015250565b60006119d2600a8361198b565b91506119dd8261199c565b602082019050919050565b60006020820190508181036000830152611a01816119c5565b9050919050565b6000819050919050565b6000611a2d611a28611a2384611a08565b61145d565b611276565b9050919050565b611a3d81611a12565b82525050565b600082825260208201905092915050565b50565b6000611a64600083611a43565b9150611a6f82611a54565b600082019050919050565b600060a082019050611a8f60008301876114d7565b611a9c60208301866114d7565b611aa96040830185611a34565b611ab66060830184611280565b8181036080830152611ac781611a57565b905095945050505050565b7f4e6f207265776172647320746f20626520636c61696d65640000000000000000600082015250565b6000611b0860188361198b565b9150611b1382611ad2565b602082019050919050565b60006020820190508181036000830152611b3781611afb565b9050919050565b6000611b4982611276565b9150611b5483611276565b9250828202611b6281611276565b91508282048414831517611b7957611b786118c8565b5b5092915050565b6000611b8b82611276565b9150611b9683611276565b9250828201905080821115611bae57611bad6118c8565b5b92915050565b6000819050919050565b6000611bd9611bd4611bcf84611bb4565b61145d565b611276565b9050919050565b611be981611bbe565b82525050565b600060a082019050611c0460008301876114d7565b611c1160208301866114d7565b611c1e6040830185611be0565b611c2b6060830184611280565b8181036080830152611c3c81611a57565b905095945050505050565b7f4f776e61626c653a206e6577206f776e657220697320746865207a65726f206160008201527f6464726573730000000000000000000000000000000000000000000000000000602082015250565b6000611ca360268361198b565b9150611cae82611c47565b604082019050919050565b60006020820190508181036000830152611cd281611c96565b9050919050565b7f4f776e61626c653a2063616c6c6572206973206e6f7420746865206f776e6572600082015250565b6000611d0f60208361198b565b9150611d1a82611cd9565b602082019050919050565b60006020820190508181036000830152611d3e81611d02565b905091905056fea26469706673582212201bd277f04c128ef069adb6fad89666eefecde1b2a80c7f19521a715ff89476de64736f6c63430008110033",
  "linkReferences": {},
  "deployedLinkReferences": {}
}