{
  "_format": "hh-sol-artifact-1",
  "contractName": "FundsManager",
  "sourceName": "contracts/FundsManager.sol",
  "abi": [
    {
      "inputs": [
        {
          "internalType": "address",
          "name": "_random_contract",
          "type": "address"
        },
        {
          "internalType": "address",
          "name": "_staking_contract",
          "type": "address"
        }
      ],
      "stateMutability": "nonpayable",
      "type": "constructor"
    },
    {
      "anonymous": false,
      "inputs": [
        {
          "indexed": true,
          "internalType": "address",
          "name": "previousOwner",
          "type": "address"
        },
        {
          "indexed": true,
          "internalType": "address",
          "name": "newOwner",
          "type": "address"
        }
      ],
      "name": "OwnershipTransferred",
      "type": "event"
    },
    {
      "anonymous": false,
      "inputs": [
        {
          "indexed": true,
          "internalType": "address",
          "name": "sender",
          "type": "address"
        },
        {
          "indexed": false,
          "internalType": "uint256",
          "name": "amount",
          "type": "uint256"
        }
      ],
      "name": "ReceivedFunds",
      "type": "event"
    },
    {
      "stateMutability": "payable",
      "type": "fallback"
    },
    {
      "inputs": [],
      "name": "emergencyWithdraw",
      "outputs": [],
      "stateMutability": "nonpayable",
      "type": "function"
    },
    {
      "inputs": [],
      "name": "min_link_balance",
      "outputs": [
        {
          "internalType": "uint256",
          "name": "",
          "type": "uint256"
        }
      ],
      "stateMutability": "view",
      "type": "function"
    },
    {
      "inputs": [],
      "name": "owner",
      "outputs": [
        {
          "internalType": "address",
          "name": "",
          "type": "address"
        }
      ],
      "stateMutability": "view",
      "type": "function"
    },
    {
      "inputs": [],
      "name": "percentage_balance_link",
      "outputs": [
        {
          "internalType": "uint256",
          "name": "",
          "type": "uint256"
        }
      ],
      "stateMutability": "view",
      "type": "function"
    },
    {
      "inputs": [],
      "name": "percentage_balance_link_divisor",
      "outputs": [
        {
          "internalType": "uint256",
          "name": "",
          "type": "uint256"
        }
      ],
      "stateMutability": "view",
      "type": "function"
    },
    {
      "inputs": [],
      "name": "random_contract",
      "outputs": [
        {
          "internalType": "address",
          "name": "",
          "type": "address"
        }
      ],
      "stateMutability": "view",
      "type": "function"
    },
    {
      "inputs": [],
      "name": "renounceOwnership",
      "outputs": [],
      "stateMutability": "nonpayable",
      "type": "function"
    },
    {
      "inputs": [
        {
          "internalType": "uint256",
          "name": "_min_link_balance",
          "type": "uint256"
        }
      ],
      "name": "setMinLinkBalance",
      "outputs": [],
      "stateMutability": "nonpayable",
      "type": "function"
    },
    {
      "inputs": [
        {
          "internalType": "uint256",
          "name": "_percentage_balance_link",
          "type": "uint256"
        }
      ],
      "name": "setPercentageBalanceLink",
      "outputs": [],
      "stateMutability": "nonpayable",
      "type": "function"
    },
    {
      "inputs": [
        {
          "internalType": "address",
          "name": "_random_contract",
          "type": "address"
        }
      ],
      "name": "setRandomContract",
      "outputs": [],
      "stateMutability": "nonpayable",
      "type": "function"
    },
    {
      "inputs": [
        {
          "internalType": "address",
          "name": "_staking_contract",
          "type": "address"
        }
      ],
      "name": "setStakinContract",
      "outputs": [],
      "stateMutability": "nonpayable",
      "type": "function"
    },
    {
      "inputs": [],
      "name": "staking_contract",
      "outputs": [
        {
          "internalType": "address",
          "name": "",
          "type": "address"
        }
      ],
      "stateMutability": "view",
      "type": "function"
    },
    {
      "inputs": [
        {
          "internalType": "address",
          "name": "newOwner",
          "type": "address"
        }
      ],
      "name": "transferOwnership",
      "outputs": [],
      "stateMutability": "nonpayable",
      "type": "function"
    },
    {
      "stateMutability": "payable",
      "type": "receive"
    }
  ],
  "bytecode": "0x6080604052670de0b6b3a7640000600355601460045560646005553480156200002757600080fd5b50604051620015da380380620015da83398181016040528101906200004d91906200022d565b6200006d62000061620000f760201b60201c565b620000ff60201b60201c565b81600160006101000a81548173ffffffffffffffffffffffffffffffffffffffff021916908373ffffffffffffffffffffffffffffffffffffffff16021790555080600260006101000a81548173ffffffffffffffffffffffffffffffffffffffff021916908373ffffffffffffffffffffffffffffffffffffffff160217905550505062000274565b600033905090565b60008060009054906101000a900473ffffffffffffffffffffffffffffffffffffffff169050816000806101000a81548173ffffffffffffffffffffffffffffffffffffffff021916908373ffffffffffffffffffffffffffffffffffffffff1602179055508173ffffffffffffffffffffffffffffffffffffffff168173ffffffffffffffffffffffffffffffffffffffff167f8be0079c531659141344cd1fd0a4f28419497f9722a3daafe3b4186f6b6457e060405160405180910390a35050565b600080fd5b600073ffffffffffffffffffffffffffffffffffffffff82169050919050565b6000620001f582620001c8565b9050919050565b6200020781620001e8565b81146200021357600080fd5b50565b6000815190506200022781620001fc565b92915050565b60008060408385031215620002475762000246620001c3565b5b6000620002578582860162000216565b92505060206200026a8582860162000216565b9150509250929050565b61135680620002846000396000f3fe6080604052600436106100c65760003560e01c80638da5cb5b1161007f578063d65e97d911610059578063d65e97d9146102e4578063db2e21bc1461030f578063e0eac5ee14610326578063f2fde38b1461034f57610123565b80638da5cb5b146102675780638f1e054f14610292578063b812ef53146102bb57610123565b80630933e3a71461017b57806337b45fa8146101a45780633cdf664c146101cf57806345a8c6fa146101fa5780635474a5e114610225578063715018a61461025057610123565b36610123576100d3610378565b3373ffffffffffffffffffffffffffffffffffffffff167f5741979df5f3e491501da74d3b0a83dd2496ab1f34929865b3e190a8ad75859a346040516101199190610bdf565b60405180910390a2005b61012b610378565b3373ffffffffffffffffffffffffffffffffffffffff167f5741979df5f3e491501da74d3b0a83dd2496ab1f34929865b3e190a8ad75859a346040516101719190610bdf565b60405180910390a2005b34801561018757600080fd5b506101a2600480360381019061019d9190610c6c565b61054b565b005b3480156101b057600080fd5b506101b9610597565b6040516101c69190610ca8565b60405180910390f35b3480156101db57600080fd5b506101e46105bd565b6040516101f19190610ca8565b60405180910390f35b34801561020657600080fd5b5061020f6105e3565b60405161021c9190610bdf565b60405180910390f35b34801561023157600080fd5b5061023a6105e9565b6040516102479190610bdf565b60405180910390f35b34801561025c57600080fd5b506102656105ef565b005b34801561027357600080fd5b5061027c610603565b6040516102899190610ca8565b60405180910390f35b34801561029e57600080fd5b506102b960048036038101906102b49190610c6c565b61062c565b005b3480156102c757600080fd5b506102e260048036038101906102dd9190610cef565b610678565b005b3480156102f057600080fd5b506102f961068a565b6040516103069190610bdf565b60405180910390f35b34801561031b57600080fd5b50610324610690565b005b34801561033257600080fd5b5061034d60048036038101906103489190610cef565b61080f565b005b34801561035b57600080fd5b5061037660048036038101906103719190610c6c565b610821565b005b600073fafedb041c0dd4fa2dc0d87a6b0979ee6fa7af5f73ffffffffffffffffffffffffffffffffffffffff166370a08231600160009054906101000a900473ffffffffffffffffffffffffffffffffffffffff166040518263ffffffff1660e01b81526004016103e99190610ca8565b602060405180830381865afa158015610406573d6000803e3d6000fd5b505050506040513d601f19601f8201168201806040525081019061042a9190610d31565b90506003548110156104de576000600554600454476104499190610d8d565b6104539190610dfe565b9050600081476104639190610e2f565b905061046e826108a4565b600260009054906101000a900473ffffffffffffffffffffffffffffffffffffffff1673ffffffffffffffffffffffffffffffffffffffff166108fc829081150290604051600060405180830381858888f193505050501580156104d6573d6000803e3d6000fd5b505050610548565b600260009054906101000a900473ffffffffffffffffffffffffffffffffffffffff1673ffffffffffffffffffffffffffffffffffffffff166108fc479081150290604051600060405180830381858888f19350505050158015610546573d6000803e3d6000fd5b505b50565b610553610a7c565b80600160006101000a81548173ffffffffffffffffffffffffffffffffffffffff021916908373ffffffffffffffffffffffffffffffffffffffff16021790555050565b600160009054906101000a900473ffffffffffffffffffffffffffffffffffffffff1681565b600260009054906101000a900473ffffffffffffffffffffffffffffffffffffffff1681565b60055481565b60045481565b6105f7610a7c565b6106016000610afa565b565b60008060009054906101000a900473ffffffffffffffffffffffffffffffffffffffff16905090565b610634610a7c565b80600260006101000a81548173ffffffffffffffffffffffffffffffffffffffff021916908373ffffffffffffffffffffffffffffffffffffffff16021790555050565b610680610a7c565b8060038190555050565b60035481565b610698610a7c565b6106a0610603565b73ffffffffffffffffffffffffffffffffffffffff166108fc479081150290604051600060405180830381858888f193505050501580156106e5573d6000803e3d6000fd5b5073fafedb041c0dd4fa2dc0d87a6b0979ee6fa7af5f73ffffffffffffffffffffffffffffffffffffffff1663a9059cbb61071e610603565b73fafedb041c0dd4fa2dc0d87a6b0979ee6fa7af5f73ffffffffffffffffffffffffffffffffffffffff166370a08231306040518263ffffffff1660e01b815260040161076b9190610ca8565b602060405180830381865afa158015610788573d6000803e3d6000fd5b505050506040513d601f19601f820116820180604052508101906107ac9190610d31565b6040518363ffffffff1660e01b81526004016107c9929190610e63565b6020604051808303816000875af11580156107e8573d6000803e3d6000fd5b505050506040513d601f19601f8201168201806040525081019061080c9190610ec4565b50565b610817610a7c565b8060048190555050565b610829610a7c565b600073ffffffffffffffffffffffffffffffffffffffff168173ffffffffffffffffffffffffffffffffffffffff1603610898576040517f08c379a000000000000000000000000000000000000000000000000000000000815260040161088f90610f74565b60405180910390fd5b6108a181610afa565b50565b6000600267ffffffffffffffff8111156108c1576108c0610f94565b5b6040519080825280602002602001820160405280156108ef5781602001602082028036833780820191505090505b50905073f1277d1ed8ad466beddf92ef448a1326619566218160008151811061091b5761091a610fc3565b5b602002602001019073ffffffffffffffffffffffffffffffffffffffff16908173ffffffffffffffffffffffffffffffffffffffff168152505073fafedb041c0dd4fa2dc0d87a6b0979ee6fa7af5f8160018151811061097e5761097d610fc3565b5b602002602001019073ffffffffffffffffffffffffffffffffffffffff16908173ffffffffffffffffffffffffffffffffffffffff168152505073a6ad18c2ac47803e193f75c3677b14bf19b9488373ffffffffffffffffffffffffffffffffffffffff16637ff36ab583600084600160009054906101000a900473ffffffffffffffffffffffffffffffffffffffff16426040518663ffffffff1660e01b8152600401610a2f94939291906110f5565b60006040518083038185885af1158015610a4d573d6000803e3d6000fd5b50505050506040513d6000823e3d601f19601f82011682018060405250810190610a77919061126b565b505050565b610a84610bbe565b73ffffffffffffffffffffffffffffffffffffffff16610aa2610603565b73ffffffffffffffffffffffffffffffffffffffff1614610af8576040517f08c379a0000000000000000000000000000000000000000000000000000000008152600401610aef90611300565b60405180910390fd5b565b60008060009054906101000a900473ffffffffffffffffffffffffffffffffffffffff169050816000806101000a81548173ffffffffffffffffffffffffffffffffffffffff021916908373ffffffffffffffffffffffffffffffffffffffff1602179055508173ffffffffffffffffffffffffffffffffffffffff168173ffffffffffffffffffffffffffffffffffffffff167f8be0079c531659141344cd1fd0a4f28419497f9722a3daafe3b4186f6b6457e060405160405180910390a35050565b600033905090565b6000819050919050565b610bd981610bc6565b82525050565b6000602082019050610bf46000830184610bd0565b92915050565b6000604051905090565b600080fd5b600080fd5b600073ffffffffffffffffffffffffffffffffffffffff82169050919050565b6000610c3982610c0e565b9050919050565b610c4981610c2e565b8114610c5457600080fd5b50565b600081359050610c6681610c40565b92915050565b600060208284031215610c8257610c81610c04565b5b6000610c9084828501610c57565b91505092915050565b610ca281610c2e565b82525050565b6000602082019050610cbd6000830184610c99565b92915050565b610ccc81610bc6565b8114610cd757600080fd5b50565b600081359050610ce981610cc3565b92915050565b600060208284031215610d0557610d04610c04565b5b6000610d1384828501610cda565b91505092915050565b600081519050610d2b81610cc3565b92915050565b600060208284031215610d4757610d46610c04565b5b6000610d5584828501610d1c565b91505092915050565b7f4e487b7100000000000000000000000000000000000000000000000000000000600052601160045260246000fd5b6000610d9882610bc6565b9150610da383610bc6565b9250828202610db181610bc6565b91508282048414831517610dc857610dc7610d5e565b5b5092915050565b7f4e487b7100000000000000000000000000000000000000000000000000000000600052601260045260246000fd5b6000610e0982610bc6565b9150610e1483610bc6565b925082610e2457610e23610dcf565b5b828204905092915050565b6000610e3a82610bc6565b9150610e4583610bc6565b9250828203905081811115610e5d57610e5c610d5e565b5b92915050565b6000604082019050610e786000830185610c99565b610e856020830184610bd0565b9392505050565b60008115159050919050565b610ea181610e8c565b8114610eac57600080fd5b50565b600081519050610ebe81610e98565b92915050565b600060208284031215610eda57610ed9610c04565b5b6000610ee884828501610eaf565b91505092915050565b600082825260208201905092915050565b7f4f776e61626c653a206e6577206f776e657220697320746865207a65726f206160008201527f6464726573730000000000000000000000000000000000000000000000000000602082015250565b6000610f5e602683610ef1565b9150610f6982610f02565b604082019050919050565b60006020820190508181036000830152610f8d81610f51565b9050919050565b7f4e487b7100000000000000000000000000000000000000000000000000000000600052604160045260246000fd5b7f4e487b7100000000000000000000000000000000000000000000000000000000600052603260045260246000fd5b6000819050919050565b6000819050919050565b600061102161101c61101784610ff2565b610ffc565b610bc6565b9050919050565b61103181611006565b82525050565b600081519050919050565b600082825260208201905092915050565b6000819050602082019050919050565b61106c81610c2e565b82525050565b600061107e8383611063565b60208301905092915050565b6000602082019050919050565b60006110a282611037565b6110ac8185611042565b93506110b783611053565b8060005b838110156110e85781516110cf8882611072565b97506110da8361108a565b9250506001810190506110bb565b5085935050505092915050565b600060808201905061110a6000830187611028565b818103602083015261111c8186611097565b905061112b6040830185610c99565b6111386060830184610bd0565b95945050505050565b600080fd5b6000601f19601f8301169050919050565b61116082611146565b810181811067ffffffffffffffff8211171561117f5761117e610f94565b5b80604052505050565b6000611192610bfa565b905061119e8282611157565b919050565b600067ffffffffffffffff8211156111be576111bd610f94565b5b602082029050602081019050919050565b600080fd5b60006111e76111e2846111a3565b611188565b9050808382526020820190506020840283018581111561120a576112096111cf565b5b835b81811015611233578061121f8882610d1c565b84526020840193505060208101905061120c565b5050509392505050565b600082601f83011261125257611251611141565b5b81516112628482602086016111d4565b91505092915050565b60006020828403121561128157611280610c04565b5b600082015167ffffffffffffffff81111561129f5761129e610c09565b5b6112ab8482850161123d565b91505092915050565b7f4f776e61626c653a2063616c6c6572206973206e6f7420746865206f776e6572600082015250565b60006112ea602083610ef1565b91506112f5826112b4565b602082019050919050565b60006020820190508181036000830152611319816112dd565b905091905056fea2646970667358221220db59c36976a80a76a4a5b07d18da1d4bcbaec43d47ba1bd6ed93fe8413208dde64736f6c63430008110033",
  "linkReferences": {},
  "deployedLinkReferences": {}
}