{
  "_format": "hh-sol-artifact-1",
  "contractName": "FundsManager",
  "sourceName": "contracts/FundsManager.sol",
  "abi": [
    {
      "inputs": [
        {
          "internalType": "address",
          "name": "_random_contract_address",
          "type": "address"
        },
        {
          "internalType": "address",
          "name": "_staking_contract_address",
          "type": "address"
        }
      ],
      "stateMutability": "nonpayable",
      "type": "constructor"
    },
    {
      "anonymous": false,
      "inputs": [
        {
          "indexed": true,
          "internalType": "address",
          "name": "previousOwner",
          "type": "address"
        },
        {
          "indexed": true,
          "internalType": "address",
          "name": "newOwner",
          "type": "address"
        }
      ],
      "name": "OwnershipTransferred",
      "type": "event"
    },
    {
      "anonymous": false,
      "inputs": [
        {
          "indexed": true,
          "internalType": "address",
          "name": "sender",
          "type": "address"
        },
        {
          "indexed": false,
          "internalType": "uint256",
          "name": "amount",
          "type": "uint256"
        }
      ],
      "name": "ReceivedFunds",
      "type": "event"
    },
    {
      "inputs": [],
      "name": "coinflip_contract_address",
      "outputs": [
        {
          "internalType": "address",
          "name": "",
          "type": "address"
        }
      ],
      "stateMutability": "view",
      "type": "function"
    },
    {
      "inputs": [],
      "name": "handle_funds",
      "outputs": [],
      "stateMutability": "payable",
      "type": "function"
    },
    {
      "inputs": [],
      "name": "min_link_balance",
      "outputs": [
        {
          "internalType": "uint256",
          "name": "",
          "type": "uint256"
        }
      ],
      "stateMutability": "view",
      "type": "function"
    },
    {
      "inputs": [],
      "name": "only_once",
      "outputs": [
        {
          "internalType": "uint256",
          "name": "",
          "type": "uint256"
        }
      ],
      "stateMutability": "view",
      "type": "function"
    },
    {
      "inputs": [],
      "name": "owner",
      "outputs": [
        {
          "internalType": "address",
          "name": "",
          "type": "address"
        }
      ],
      "stateMutability": "view",
      "type": "function"
    },
    {
      "inputs": [],
      "name": "percentage_balance_link",
      "outputs": [
        {
          "internalType": "uint256",
          "name": "",
          "type": "uint256"
        }
      ],
      "stateMutability": "view",
      "type": "function"
    },
    {
      "inputs": [],
      "name": "percentage_balance_link_divisor",
      "outputs": [
        {
          "internalType": "uint256",
          "name": "",
          "type": "uint256"
        }
      ],
      "stateMutability": "view",
      "type": "function"
    },
    {
      "inputs": [],
      "name": "raffle_contract_address",
      "outputs": [
        {
          "internalType": "address",
          "name": "",
          "type": "address"
        }
      ],
      "stateMutability": "view",
      "type": "function"
    },
    {
      "inputs": [],
      "name": "random_contract_address",
      "outputs": [
        {
          "internalType": "address",
          "name": "",
          "type": "address"
        }
      ],
      "stateMutability": "view",
      "type": "function"
    },
    {
      "inputs": [],
      "name": "renounceOwnership",
      "outputs": [],
      "stateMutability": "nonpayable",
      "type": "function"
    },
    {
      "inputs": [
        {
          "internalType": "address",
          "name": "_coinflip_contract_address",
          "type": "address"
        },
        {
          "internalType": "address",
          "name": "_raffle_contract_address",
          "type": "address"
        }
      ],
      "name": "setGamesContractAddresses",
      "outputs": [],
      "stateMutability": "nonpayable",
      "type": "function"
    },
    {
      "inputs": [
        {
          "internalType": "uint256",
          "name": "_min_link_balance",
          "type": "uint256"
        }
      ],
      "name": "setMinLinkBalance",
      "outputs": [],
      "stateMutability": "nonpayable",
      "type": "function"
    },
    {
      "inputs": [
        {
          "internalType": "uint256",
          "name": "_percentage_balance_link",
          "type": "uint256"
        }
      ],
      "name": "setPercentageBalanceLink",
      "outputs": [],
      "stateMutability": "nonpayable",
      "type": "function"
    },
    {
      "inputs": [],
      "name": "staking_contract",
      "outputs": [
        {
          "internalType": "contract Staking",
          "name": "",
          "type": "address"
        }
      ],
      "stateMutability": "view",
      "type": "function"
    },
    {
      "inputs": [
        {
          "internalType": "address",
          "name": "newOwner",
          "type": "address"
        }
      ],
      "name": "transferOwnership",
      "outputs": [],
      "stateMutability": "nonpayable",
      "type": "function"
    }
  ],
  "bytecode": "0x6080604052600060055567016345785d8a0000600655601460075560646008553480156200002c57600080fd5b506040516200173438038062001734833981810160405281019062000052919062000232565b6200007262000066620000fc60201b60201c565b6200010460201b60201c565b81600260006101000a81548173ffffffffffffffffffffffffffffffffffffffff021916908373ffffffffffffffffffffffffffffffffffffffff16021790555080600160006101000a81548173ffffffffffffffffffffffffffffffffffffffff021916908373ffffffffffffffffffffffffffffffffffffffff160217905550505062000279565b600033905090565b60008060009054906101000a900473ffffffffffffffffffffffffffffffffffffffff169050816000806101000a81548173ffffffffffffffffffffffffffffffffffffffff021916908373ffffffffffffffffffffffffffffffffffffffff1602179055508173ffffffffffffffffffffffffffffffffffffffff168173ffffffffffffffffffffffffffffffffffffffff167f8be0079c531659141344cd1fd0a4f28419497f9722a3daafe3b4186f6b6457e060405160405180910390a35050565b600080fd5b600073ffffffffffffffffffffffffffffffffffffffff82169050919050565b6000620001fa82620001cd565b9050919050565b6200020c81620001ed565b81146200021857600080fd5b50565b6000815190506200022c8162000201565b92915050565b600080604083850312156200024c576200024b620001c8565b5b60006200025c858286016200021b565b92505060206200026f858286016200021b565b9150509250929050565b6114ab80620002896000396000f3fe6080604052600436106100e85760003560e01c8063790ccb341161008a578063d65e97d911610059578063d65e97d91461028d578063dc7fd353146102b8578063e0eac5ee146102e3578063f2fde38b1461030c576100e8565b8063790ccb34146102045780638da5cb5b1461022f578063b812ef531461025a578063d0f73a2b14610283576100e8565b8063486301f6116100c6578063486301f61461016c5780635474a5e114610197578063603a27fa146101c2578063715018a6146101ed576100e8565b806332cbadb7146100ed5780633cdf664c1461011657806345a8c6fa14610141575b600080fd5b3480156100f957600080fd5b50610114600480360381019061010f9190610c39565b610335565b005b34801561012257600080fd5b5061012b610422565b6040516101389190610cd8565b60405180910390f35b34801561014d57600080fd5b50610156610448565b6040516101639190610d0c565b60405180910390f35b34801561017857600080fd5b5061018161044e565b60405161018e9190610d36565b60405180910390f35b3480156101a357600080fd5b506101ac610474565b6040516101b99190610d0c565b60405180910390f35b3480156101ce57600080fd5b506101d761047a565b6040516101e49190610d36565b60405180910390f35b3480156101f957600080fd5b506102026104a0565b005b34801561021057600080fd5b506102196104b4565b6040516102269190610d36565b60405180910390f35b34801561023b57600080fd5b506102446104da565b6040516102519190610d36565b60405180910390f35b34801561026657600080fd5b50610281600480360381019061027c9190610d7d565b610503565b005b61028b610515565b005b34801561029957600080fd5b506102a2610804565b6040516102af9190610d0c565b60405180910390f35b3480156102c457600080fd5b506102cd61080a565b6040516102da9190610d0c565b60405180910390f35b3480156102ef57600080fd5b5061030a60048036038101906103059190610d7d565b610810565b005b34801561031857600080fd5b50610333600480360381019061032e9190610daa565b610822565b005b61033d6108a5565b600060055414610382576040517f08c379a000000000000000000000000000000000000000000000000000000000815260040161037990610e34565b60405180910390fd5b81600360006101000a81548173ffffffffffffffffffffffffffffffffffffffff021916908373ffffffffffffffffffffffffffffffffffffffff16021790555080600460006101000a81548173ffffffffffffffffffffffffffffffffffffffff021916908373ffffffffffffffffffffffffffffffffffffffff1602179055506001600560008282546104179190610e83565b925050819055505050565b600160009054906101000a900473ffffffffffffffffffffffffffffffffffffffff1681565b60085481565b600460009054906101000a900473ffffffffffffffffffffffffffffffffffffffff1681565b60075481565b600260009054906101000a900473ffffffffffffffffffffffffffffffffffffffff1681565b6104a86108a5565b6104b26000610923565b565b600360009054906101000a900473ffffffffffffffffffffffffffffffffffffffff1681565b60008060009054906101000a900473ffffffffffffffffffffffffffffffffffffffff16905090565b61050b6108a5565b8060068190555050565b600360009054906101000a900473ffffffffffffffffffffffffffffffffffffffff1673ffffffffffffffffffffffffffffffffffffffff163373ffffffffffffffffffffffffffffffffffffffff1614806105be5750600460009054906101000a900473ffffffffffffffffffffffffffffffffffffffff1673ffffffffffffffffffffffffffffffffffffffff163373ffffffffffffffffffffffffffffffffffffffff16145b6105fd576040517f08c379a00000000000000000000000000000000000000000000000000000000081526004016105f490610f29565b60405180910390fd5b600073fafedb041c0dd4fa2dc0d87a6b0979ee6fa7af5f73ffffffffffffffffffffffffffffffffffffffff166370a08231600260009054906101000a900473ffffffffffffffffffffffffffffffffffffffff166040518263ffffffff1660e01b815260040161066e9190610d36565b602060405180830381865afa15801561068b573d6000803e3d6000fd5b505050506040513d601f19601f820116820180604052508101906106af9190610f5e565b905060065481101561077d576000600854600754476106ce9190610f8b565b6106d89190610ffc565b9050600081476106e8919061102d565b90506106f3826109e7565b600160009054906101000a900473ffffffffffffffffffffffffffffffffffffffff1673ffffffffffffffffffffffffffffffffffffffff1663f32dbf68826040518263ffffffff1660e01b81526004016000604051808303818588803b15801561075d57600080fd5b505af1158015610771573d6000803e3d6000fd5b50505050505050610801565b600160009054906101000a900473ffffffffffffffffffffffffffffffffffffffff1673ffffffffffffffffffffffffffffffffffffffff1663f32dbf68476040518263ffffffff1660e01b81526004016000604051808303818588803b1580156107e757600080fd5b505af11580156107fb573d6000803e3d6000fd5b50505050505b50565b60065481565b60055481565b6108186108a5565b8060078190555050565b61082a6108a5565b600073ffffffffffffffffffffffffffffffffffffffff168173ffffffffffffffffffffffffffffffffffffffff1603610899576040517f08c379a0000000000000000000000000000000000000000000000000000000008152600401610890906110d3565b60405180910390fd5b6108a281610923565b50565b6108ad610bbf565b73ffffffffffffffffffffffffffffffffffffffff166108cb6104da565b73ffffffffffffffffffffffffffffffffffffffff1614610921576040517f08c379a00000000000000000000000000000000000000000000000000000000081526004016109189061113f565b60405180910390fd5b565b60008060009054906101000a900473ffffffffffffffffffffffffffffffffffffffff169050816000806101000a81548173ffffffffffffffffffffffffffffffffffffffff021916908373ffffffffffffffffffffffffffffffffffffffff1602179055508173ffffffffffffffffffffffffffffffffffffffff168173ffffffffffffffffffffffffffffffffffffffff167f8be0079c531659141344cd1fd0a4f28419497f9722a3daafe3b4186f6b6457e060405160405180910390a35050565b6000600267ffffffffffffffff811115610a0457610a0361115f565b5b604051908082528060200260200182016040528015610a325781602001602082028036833780820191505090505b50905073f1277d1ed8ad466beddf92ef448a13266195662181600081518110610a5e57610a5d61118e565b5b602002602001019073ffffffffffffffffffffffffffffffffffffffff16908173ffffffffffffffffffffffffffffffffffffffff168152505073fafedb041c0dd4fa2dc0d87a6b0979ee6fa7af5f81600181518110610ac157610ac061118e565b5b602002602001019073ffffffffffffffffffffffffffffffffffffffff16908173ffffffffffffffffffffffffffffffffffffffff168152505073a6ad18c2ac47803e193f75c3677b14bf19b9488373ffffffffffffffffffffffffffffffffffffffff16637ff36ab583600084600260009054906101000a900473ffffffffffffffffffffffffffffffffffffffff16426040518663ffffffff1660e01b8152600401610b7294939291906112b6565b60006040518083038185885af1158015610b90573d6000803e3d6000fd5b50505050506040513d6000823e3d601f19601f82011682018060405250810190610bba919061142c565b505050565b600033905090565b6000604051905090565b600080fd5b600080fd5b600073ffffffffffffffffffffffffffffffffffffffff82169050919050565b6000610c0682610bdb565b9050919050565b610c1681610bfb565b8114610c2157600080fd5b50565b600081359050610c3381610c0d565b92915050565b60008060408385031215610c5057610c4f610bd1565b5b6000610c5e85828601610c24565b9250506020610c6f85828601610c24565b9150509250929050565b6000819050919050565b6000610c9e610c99610c9484610bdb565b610c79565b610bdb565b9050919050565b6000610cb082610c83565b9050919050565b6000610cc282610ca5565b9050919050565b610cd281610cb7565b82525050565b6000602082019050610ced6000830184610cc9565b92915050565b6000819050919050565b610d0681610cf3565b82525050565b6000602082019050610d216000830184610cfd565b92915050565b610d3081610bfb565b82525050565b6000602082019050610d4b6000830184610d27565b92915050565b610d5a81610cf3565b8114610d6557600080fd5b50565b600081359050610d7781610d51565b92915050565b600060208284031215610d9357610d92610bd1565b5b6000610da184828501610d68565b91505092915050565b600060208284031215610dc057610dbf610bd1565b5b6000610dce84828501610c24565b91505092915050565b600082825260208201905092915050565b7f46756e6374696f6e20616c72656164792063616c6c6564000000000000000000600082015250565b6000610e1e601783610dd7565b9150610e2982610de8565b602082019050919050565b60006020820190508181036000830152610e4d81610e11565b9050919050565b7f4e487b7100000000000000000000000000000000000000000000000000000000600052601160045260246000fd5b6000610e8e82610cf3565b9150610e9983610cf3565b9250828201905080821115610eb157610eb0610e54565b5b92915050565b7f4f6e6c79207468652067616d65732063616e2063616c6c20746869732066756e60008201527f6374696f6e000000000000000000000000000000000000000000000000000000602082015250565b6000610f13602583610dd7565b9150610f1e82610eb7565b604082019050919050565b60006020820190508181036000830152610f4281610f06565b9050919050565b600081519050610f5881610d51565b92915050565b600060208284031215610f7457610f73610bd1565b5b6000610f8284828501610f49565b91505092915050565b6000610f9682610cf3565b9150610fa183610cf3565b9250828202610faf81610cf3565b91508282048414831517610fc657610fc5610e54565b5b5092915050565b7f4e487b7100000000000000000000000000000000000000000000000000000000600052601260045260246000fd5b600061100782610cf3565b915061101283610cf3565b92508261102257611021610fcd565b5b828204905092915050565b600061103882610cf3565b915061104383610cf3565b925082820390508181111561105b5761105a610e54565b5b92915050565b7f4f776e61626c653a206e6577206f776e657220697320746865207a65726f206160008201527f6464726573730000000000000000000000000000000000000000000000000000602082015250565b60006110bd602683610dd7565b91506110c882611061565b604082019050919050565b600060208201905081810360008301526110ec816110b0565b9050919050565b7f4f776e61626c653a2063616c6c6572206973206e6f7420746865206f776e6572600082015250565b6000611129602083610dd7565b9150611134826110f3565b602082019050919050565b600060208201905081810360008301526111588161111c565b9050919050565b7f4e487b7100000000000000000000000000000000000000000000000000000000600052604160045260246000fd5b7f4e487b7100000000000000000000000000000000000000000000000000000000600052603260045260246000fd5b6000819050919050565b60006111e26111dd6111d8846111bd565b610c79565b610cf3565b9050919050565b6111f2816111c7565b82525050565b600081519050919050565b600082825260208201905092915050565b6000819050602082019050919050565b61122d81610bfb565b82525050565b600061123f8383611224565b60208301905092915050565b6000602082019050919050565b6000611263826111f8565b61126d8185611203565b935061127883611214565b8060005b838110156112a95781516112908882611233565b975061129b8361124b565b92505060018101905061127c565b5085935050505092915050565b60006080820190506112cb60008301876111e9565b81810360208301526112dd8186611258565b90506112ec6040830185610d27565b6112f96060830184610cfd565b95945050505050565b600080fd5b6000601f19601f8301169050919050565b61132182611307565b810181811067ffffffffffffffff821117156113405761133f61115f565b5b80604052505050565b6000611353610bc7565b905061135f8282611318565b919050565b600067ffffffffffffffff82111561137f5761137e61115f565b5b602082029050602081019050919050565b600080fd5b60006113a86113a384611364565b611349565b905080838252602082019050602084028301858111156113cb576113ca611390565b5b835b818110156113f457806113e08882610f49565b8452602084019350506020810190506113cd565b5050509392505050565b600082601f83011261141357611412611302565b5b8151611423848260208601611395565b91505092915050565b60006020828403121561144257611441610bd1565b5b600082015167ffffffffffffffff8111156114605761145f610bd6565b5b61146c848285016113fe565b9150509291505056fea26469706673582212200c04099507b6613b373e6edf90c88da0e75a79278ec8163be3a4da15e3fa94e464736f6c63430008110033",
  "linkReferences": {},
  "deployedLinkReferences": {}
}