{
  "_format": "hh-sol-artifact-1",
  "contractName": "FundsManager",
  "sourceName": "contracts/FundsManager.sol",
  "abi": [
    {
      "inputs": [
        {
          "internalType": "address",
          "name": "_random_contract_address",
          "type": "address"
        },
        {
          "internalType": "address",
          "name": "_staking_contract_address",
          "type": "address"
        }
      ],
      "stateMutability": "nonpayable",
      "type": "constructor"
    },
    {
      "anonymous": false,
      "inputs": [
        {
          "indexed": true,
          "internalType": "address",
          "name": "previousOwner",
          "type": "address"
        },
        {
          "indexed": true,
          "internalType": "address",
          "name": "newOwner",
          "type": "address"
        }
      ],
      "name": "OwnershipTransferred",
      "type": "event"
    },
    {
      "anonymous": false,
      "inputs": [
        {
          "indexed": true,
          "internalType": "address",
          "name": "sender",
          "type": "address"
        },
        {
          "indexed": false,
          "internalType": "uint256",
          "name": "amount",
          "type": "uint256"
        }
      ],
      "name": "ReceivedFunds",
      "type": "event"
    },
    {
      "inputs": [],
      "name": "emergencyWithdraw",
      "outputs": [],
      "stateMutability": "nonpayable",
      "type": "function"
    },
    {
      "inputs": [],
      "name": "handle_funds",
      "outputs": [],
      "stateMutability": "payable",
      "type": "function"
    },
    {
      "inputs": [],
      "name": "min_link_balance",
      "outputs": [
        {
          "internalType": "uint256",
          "name": "",
          "type": "uint256"
        }
      ],
      "stateMutability": "view",
      "type": "function"
    },
    {
      "inputs": [],
      "name": "owner",
      "outputs": [
        {
          "internalType": "address",
          "name": "",
          "type": "address"
        }
      ],
      "stateMutability": "view",
      "type": "function"
    },
    {
      "inputs": [],
      "name": "percentage_balance_link",
      "outputs": [
        {
          "internalType": "uint256",
          "name": "",
          "type": "uint256"
        }
      ],
      "stateMutability": "view",
      "type": "function"
    },
    {
      "inputs": [],
      "name": "percentage_balance_link_divisor",
      "outputs": [
        {
          "internalType": "uint256",
          "name": "",
          "type": "uint256"
        }
      ],
      "stateMutability": "view",
      "type": "function"
    },
    {
      "inputs": [],
      "name": "random_contract_address",
      "outputs": [
        {
          "internalType": "address",
          "name": "",
          "type": "address"
        }
      ],
      "stateMutability": "view",
      "type": "function"
    },
    {
      "inputs": [],
      "name": "renounceOwnership",
      "outputs": [],
      "stateMutability": "nonpayable",
      "type": "function"
    },
    {
      "inputs": [
        {
          "internalType": "uint256",
          "name": "_min_link_balance",
          "type": "uint256"
        }
      ],
      "name": "setMinLinkBalance",
      "outputs": [],
      "stateMutability": "nonpayable",
      "type": "function"
    },
    {
      "inputs": [
        {
          "internalType": "uint256",
          "name": "_percentage_balance_link",
          "type": "uint256"
        }
      ],
      "name": "setPercentageBalanceLink",
      "outputs": [],
      "stateMutability": "nonpayable",
      "type": "function"
    },
    {
      "inputs": [
        {
          "internalType": "address",
          "name": "_random_contract_address",
          "type": "address"
        }
      ],
      "name": "setRandomContract",
      "outputs": [],
      "stateMutability": "nonpayable",
      "type": "function"
    },
    {
      "inputs": [
        {
          "internalType": "address",
          "name": "_staking_contract_address",
          "type": "address"
        }
      ],
      "name": "setStakinContract",
      "outputs": [],
      "stateMutability": "nonpayable",
      "type": "function"
    },
    {
      "inputs": [],
      "name": "staking_contract",
      "outputs": [
        {
          "internalType": "contract Staking",
          "name": "",
          "type": "address"
        }
      ],
      "stateMutability": "view",
      "type": "function"
    },
    {
      "inputs": [
        {
          "internalType": "address",
          "name": "newOwner",
          "type": "address"
        }
      ],
      "name": "transferOwnership",
      "outputs": [],
      "stateMutability": "nonpayable",
      "type": "function"
    }
  ],
  "bytecode": "0x608060405267016345785d8a0000600355601460045560646005553480156200002757600080fd5b50604051620015ef380380620015ef83398181016040528101906200004d91906200022d565b6200006d62000061620000f760201b60201c565b620000ff60201b60201c565b81600260006101000a81548173ffffffffffffffffffffffffffffffffffffffff021916908373ffffffffffffffffffffffffffffffffffffffff16021790555080600160006101000a81548173ffffffffffffffffffffffffffffffffffffffff021916908373ffffffffffffffffffffffffffffffffffffffff160217905550505062000274565b600033905090565b60008060009054906101000a900473ffffffffffffffffffffffffffffffffffffffff169050816000806101000a81548173ffffffffffffffffffffffffffffffffffffffff021916908373ffffffffffffffffffffffffffffffffffffffff1602179055508173ffffffffffffffffffffffffffffffffffffffff168173ffffffffffffffffffffffffffffffffffffffff167f8be0079c531659141344cd1fd0a4f28419497f9722a3daafe3b4186f6b6457e060405160405180910390a35050565b600080fd5b600073ffffffffffffffffffffffffffffffffffffffff82169050919050565b6000620001f582620001c8565b9050919050565b6200020781620001e8565b81146200021357600080fd5b50565b6000815190506200022781620001fc565b92915050565b60008060408385031215620002475762000246620001c3565b5b6000620002578582860162000216565b92505060206200026a8582860162000216565b9150509250929050565b61136b80620002846000396000f3fe6080604052600436106100dd5760003560e01c80638f1e054f1161007f578063d65e97d911610059578063d65e97d914610255578063db2e21bc14610280578063e0eac5ee14610297578063f2fde38b146102c0576100dd565b80638f1e054f146101f9578063b812ef5314610222578063d0f73a2b1461024b576100dd565b80635474a5e1116100bb5780635474a5e114610161578063603a27fa1461018c578063715018a6146101b75780638da5cb5b146101ce576100dd565b80630933e3a7146100e25780633cdf664c1461010b57806345a8c6fa14610136575b600080fd5b3480156100ee57600080fd5b5061010960048036038101906101049190610bdd565b6102e9565b005b34801561011757600080fd5b50610120610335565b60405161012d9190610c69565b60405180910390f35b34801561014257600080fd5b5061014b61035b565b6040516101589190610c9d565b60405180910390f35b34801561016d57600080fd5b50610176610361565b6040516101839190610c9d565b60405180910390f35b34801561019857600080fd5b506101a1610367565b6040516101ae9190610cc7565b60405180910390f35b3480156101c357600080fd5b506101cc61038d565b005b3480156101da57600080fd5b506101e36103a1565b6040516101f09190610cc7565b60405180910390f35b34801561020557600080fd5b50610220600480360381019061021b9190610bdd565b6103ca565b005b34801561022e57600080fd5b5061024960048036038101906102449190610d0e565b610416565b005b610253610428565b005b34801561026157600080fd5b5061026a61062f565b6040516102779190610c9d565b60405180910390f35b34801561028c57600080fd5b50610295610635565b005b3480156102a357600080fd5b506102be60048036038101906102b99190610d0e565b6107b4565b005b3480156102cc57600080fd5b506102e760048036038101906102e29190610bdd565b6107c6565b005b6102f1610849565b80600260006101000a81548173ffffffffffffffffffffffffffffffffffffffff021916908373ffffffffffffffffffffffffffffffffffffffff16021790555050565b600160009054906101000a900473ffffffffffffffffffffffffffffffffffffffff1681565b60055481565b60045481565b600260009054906101000a900473ffffffffffffffffffffffffffffffffffffffff1681565b610395610849565b61039f60006108c7565b565b60008060009054906101000a900473ffffffffffffffffffffffffffffffffffffffff16905090565b6103d2610849565b80600160006101000a81548173ffffffffffffffffffffffffffffffffffffffff021916908373ffffffffffffffffffffffffffffffffffffffff16021790555050565b61041e610849565b8060038190555050565b600073fafedb041c0dd4fa2dc0d87a6b0979ee6fa7af5f73ffffffffffffffffffffffffffffffffffffffff166370a08231600260009054906101000a900473ffffffffffffffffffffffffffffffffffffffff166040518263ffffffff1660e01b81526004016104999190610cc7565b602060405180830381865afa1580156104b6573d6000803e3d6000fd5b505050506040513d601f19601f820116820180604052508101906104da9190610d50565b90506003548110156105a8576000600554600454476104f99190610dac565b6105039190610e1d565b9050600081476105139190610e4e565b905061051e8261098b565b600160009054906101000a900473ffffffffffffffffffffffffffffffffffffffff1673ffffffffffffffffffffffffffffffffffffffff1663f32dbf68826040518263ffffffff1660e01b81526004016000604051808303818588803b15801561058857600080fd5b505af115801561059c573d6000803e3d6000fd5b5050505050505061062c565b600160009054906101000a900473ffffffffffffffffffffffffffffffffffffffff1673ffffffffffffffffffffffffffffffffffffffff1663f32dbf68476040518263ffffffff1660e01b81526004016000604051808303818588803b15801561061257600080fd5b505af1158015610626573d6000803e3d6000fd5b50505050505b50565b60035481565b61063d610849565b6106456103a1565b73ffffffffffffffffffffffffffffffffffffffff166108fc479081150290604051600060405180830381858888f1935050505015801561068a573d6000803e3d6000fd5b5073fafedb041c0dd4fa2dc0d87a6b0979ee6fa7af5f73ffffffffffffffffffffffffffffffffffffffff1663a9059cbb6106c36103a1565b73fafedb041c0dd4fa2dc0d87a6b0979ee6fa7af5f73ffffffffffffffffffffffffffffffffffffffff166370a08231306040518263ffffffff1660e01b81526004016107109190610cc7565b602060405180830381865afa15801561072d573d6000803e3d6000fd5b505050506040513d601f19601f820116820180604052508101906107519190610d50565b6040518363ffffffff1660e01b815260040161076e929190610e82565b6020604051808303816000875af115801561078d573d6000803e3d6000fd5b505050506040513d601f19601f820116820180604052508101906107b19190610ee3565b50565b6107bc610849565b8060048190555050565b6107ce610849565b600073ffffffffffffffffffffffffffffffffffffffff168173ffffffffffffffffffffffffffffffffffffffff160361083d576040517f08c379a000000000000000000000000000000000000000000000000000000000815260040161083490610f93565b60405180910390fd5b610846816108c7565b50565b610851610b63565b73ffffffffffffffffffffffffffffffffffffffff1661086f6103a1565b73ffffffffffffffffffffffffffffffffffffffff16146108c5576040517f08c379a00000000000000000000000000000000000000000000000000000000081526004016108bc90610fff565b60405180910390fd5b565b60008060009054906101000a900473ffffffffffffffffffffffffffffffffffffffff169050816000806101000a81548173ffffffffffffffffffffffffffffffffffffffff021916908373ffffffffffffffffffffffffffffffffffffffff1602179055508173ffffffffffffffffffffffffffffffffffffffff168173ffffffffffffffffffffffffffffffffffffffff167f8be0079c531659141344cd1fd0a4f28419497f9722a3daafe3b4186f6b6457e060405160405180910390a35050565b6000600267ffffffffffffffff8111156109a8576109a761101f565b5b6040519080825280602002602001820160405280156109d65781602001602082028036833780820191505090505b50905073f1277d1ed8ad466beddf92ef448a13266195662181600081518110610a0257610a0161104e565b5b602002602001019073ffffffffffffffffffffffffffffffffffffffff16908173ffffffffffffffffffffffffffffffffffffffff168152505073fafedb041c0dd4fa2dc0d87a6b0979ee6fa7af5f81600181518110610a6557610a6461104e565b5b602002602001019073ffffffffffffffffffffffffffffffffffffffff16908173ffffffffffffffffffffffffffffffffffffffff168152505073a6ad18c2ac47803e193f75c3677b14bf19b9488373ffffffffffffffffffffffffffffffffffffffff16637ff36ab583600084600260009054906101000a900473ffffffffffffffffffffffffffffffffffffffff16426040518663ffffffff1660e01b8152600401610b169493929190611176565b60006040518083038185885af1158015610b34573d6000803e3d6000fd5b50505050506040513d6000823e3d601f19601f82011682018060405250810190610b5e91906112ec565b505050565b600033905090565b6000604051905090565b600080fd5b600080fd5b600073ffffffffffffffffffffffffffffffffffffffff82169050919050565b6000610baa82610b7f565b9050919050565b610bba81610b9f565b8114610bc557600080fd5b50565b600081359050610bd781610bb1565b92915050565b600060208284031215610bf357610bf2610b75565b5b6000610c0184828501610bc8565b91505092915050565b6000819050919050565b6000610c2f610c2a610c2584610b7f565b610c0a565b610b7f565b9050919050565b6000610c4182610c14565b9050919050565b6000610c5382610c36565b9050919050565b610c6381610c48565b82525050565b6000602082019050610c7e6000830184610c5a565b92915050565b6000819050919050565b610c9781610c84565b82525050565b6000602082019050610cb26000830184610c8e565b92915050565b610cc181610b9f565b82525050565b6000602082019050610cdc6000830184610cb8565b92915050565b610ceb81610c84565b8114610cf657600080fd5b50565b600081359050610d0881610ce2565b92915050565b600060208284031215610d2457610d23610b75565b5b6000610d3284828501610cf9565b91505092915050565b600081519050610d4a81610ce2565b92915050565b600060208284031215610d6657610d65610b75565b5b6000610d7484828501610d3b565b91505092915050565b7f4e487b7100000000000000000000000000000000000000000000000000000000600052601160045260246000fd5b6000610db782610c84565b9150610dc283610c84565b9250828202610dd081610c84565b91508282048414831517610de757610de6610d7d565b5b5092915050565b7f4e487b7100000000000000000000000000000000000000000000000000000000600052601260045260246000fd5b6000610e2882610c84565b9150610e3383610c84565b925082610e4357610e42610dee565b5b828204905092915050565b6000610e5982610c84565b9150610e6483610c84565b9250828203905081811115610e7c57610e7b610d7d565b5b92915050565b6000604082019050610e976000830185610cb8565b610ea46020830184610c8e565b9392505050565b60008115159050919050565b610ec081610eab565b8114610ecb57600080fd5b50565b600081519050610edd81610eb7565b92915050565b600060208284031215610ef957610ef8610b75565b5b6000610f0784828501610ece565b91505092915050565b600082825260208201905092915050565b7f4f776e61626c653a206e6577206f776e657220697320746865207a65726f206160008201527f6464726573730000000000000000000000000000000000000000000000000000602082015250565b6000610f7d602683610f10565b9150610f8882610f21565b604082019050919050565b60006020820190508181036000830152610fac81610f70565b9050919050565b7f4f776e61626c653a2063616c6c6572206973206e6f7420746865206f776e6572600082015250565b6000610fe9602083610f10565b9150610ff482610fb3565b602082019050919050565b6000602082019050818103600083015261101881610fdc565b9050919050565b7f4e487b7100000000000000000000000000000000000000000000000000000000600052604160045260246000fd5b7f4e487b7100000000000000000000000000000000000000000000000000000000600052603260045260246000fd5b6000819050919050565b60006110a261109d6110988461107d565b610c0a565b610c84565b9050919050565b6110b281611087565b82525050565b600081519050919050565b600082825260208201905092915050565b6000819050602082019050919050565b6110ed81610b9f565b82525050565b60006110ff83836110e4565b60208301905092915050565b6000602082019050919050565b6000611123826110b8565b61112d81856110c3565b9350611138836110d4565b8060005b8381101561116957815161115088826110f3565b975061115b8361110b565b92505060018101905061113c565b5085935050505092915050565b600060808201905061118b60008301876110a9565b818103602083015261119d8186611118565b90506111ac6040830185610cb8565b6111b96060830184610c8e565b95945050505050565b600080fd5b6000601f19601f8301169050919050565b6111e1826111c7565b810181811067ffffffffffffffff82111715611200576111ff61101f565b5b80604052505050565b6000611213610b6b565b905061121f82826111d8565b919050565b600067ffffffffffffffff82111561123f5761123e61101f565b5b602082029050602081019050919050565b600080fd5b600061126861126384611224565b611209565b9050808382526020820190506020840283018581111561128b5761128a611250565b5b835b818110156112b457806112a08882610d3b565b84526020840193505060208101905061128d565b5050509392505050565b600082601f8301126112d3576112d26111c2565b5b81516112e3848260208601611255565b91505092915050565b60006020828403121561130257611301610b75565b5b600082015167ffffffffffffffff8111156113205761131f610b7a565b5b61132c848285016112be565b9150509291505056fea2646970667358221220e73142a45363f9a03b4313ee098254abd427c8cf6aa8d8cc086a8b91265bd0c764736f6c63430008110033",
  "linkReferences": {},
  "deployedLinkReferences": {}
}