{
  "_format": "hh-sol-artifact-1",
  "contractName": "CoinFlip",
  "sourceName": "contracts/CoinFlip.sol",
  "abi": [
    {
      "inputs": [
        {
          "internalType": "address",
          "name": "_random_address",
          "type": "address"
        },
        {
          "internalType": "address",
          "name": "_funds_manager",
          "type": "address"
        }
      ],
      "stateMutability": "nonpayable",
      "type": "constructor"
    },
    {
      "anonymous": false,
      "inputs": [
        {
          "indexed": false,
          "internalType": "address",
          "name": "sender",
          "type": "address"
        },
        {
          "indexed": false,
          "internalType": "uint256",
          "name": "amount",
          "type": "uint256"
        }
      ],
      "name": "FTMReceived",
      "type": "event"
    },
    {
      "anonymous": false,
      "inputs": [
        {
          "indexed": false,
          "internalType": "address",
          "name": "player",
          "type": "address"
        },
        {
          "indexed": false,
          "internalType": "uint256",
          "name": "amount",
          "type": "uint256"
        },
        {
          "indexed": false,
          "internalType": "uint256",
          "name": "bet",
          "type": "uint256"
        },
        {
          "indexed": false,
          "internalType": "uint256",
          "name": "request_id",
          "type": "uint256"
        }
      ],
      "name": "GamePlay",
      "type": "event"
    },
    {
      "anonymous": false,
      "inputs": [
        {
          "indexed": false,
          "internalType": "address",
          "name": "player",
          "type": "address"
        },
        {
          "indexed": false,
          "internalType": "uint256",
          "name": "random_number",
          "type": "uint256"
        },
        {
          "indexed": false,
          "internalType": "uint256",
          "name": "bet",
          "type": "uint256"
        }
      ],
      "name": "GameResult",
      "type": "event"
    },
    {
      "anonymous": false,
      "inputs": [
        {
          "indexed": true,
          "internalType": "address",
          "name": "previousOwner",
          "type": "address"
        },
        {
          "indexed": true,
          "internalType": "address",
          "name": "newOwner",
          "type": "address"
        }
      ],
      "name": "OwnershipTransferred",
      "type": "event"
    },
    {
      "stateMutability": "payable",
      "type": "fallback"
    },
    {
      "inputs": [
        {
          "internalType": "uint256",
          "name": "",
          "type": "uint256"
        }
      ],
      "name": "amounts",
      "outputs": [
        {
          "internalType": "uint256",
          "name": "",
          "type": "uint256"
        }
      ],
      "stateMutability": "view",
      "type": "function"
    },
    {
      "inputs": [],
      "name": "fee_balance",
      "outputs": [
        {
          "internalType": "uint256",
          "name": "",
          "type": "uint256"
        }
      ],
      "stateMutability": "view",
      "type": "function"
    },
    {
      "inputs": [
        {
          "internalType": "uint256",
          "name": "requestId",
          "type": "uint256"
        },
        {
          "internalType": "uint256",
          "name": "random_number",
          "type": "uint256"
        }
      ],
      "name": "flip_result",
      "outputs": [],
      "stateMutability": "nonpayable",
      "type": "function"
    },
    {
      "inputs": [],
      "name": "funds_manager",
      "outputs": [
        {
          "internalType": "contract FundsManager",
          "name": "",
          "type": "address"
        }
      ],
      "stateMutability": "view",
      "type": "function"
    },
    {
      "inputs": [
        {
          "internalType": "uint256",
          "name": "",
          "type": "uint256"
        }
      ],
      "name": "games",
      "outputs": [
        {
          "internalType": "address",
          "name": "player",
          "type": "address"
        },
        {
          "internalType": "uint256",
          "name": "bet",
          "type": "uint256"
        },
        {
          "internalType": "uint256",
          "name": "amount",
          "type": "uint256"
        },
        {
          "internalType": "bool",
          "name": "ended",
          "type": "bool"
        },
        {
          "internalType": "bool",
          "name": "won",
          "type": "bool"
        }
      ],
      "stateMutability": "view",
      "type": "function"
    },
    {
      "inputs": [
        {
          "internalType": "address",
          "name": "user",
          "type": "address"
        }
      ],
      "name": "getGameInfo",
      "outputs": [
        {
          "components": [
            {
              "internalType": "address",
              "name": "player",
              "type": "address"
            },
            {
              "internalType": "uint256",
              "name": "bet",
              "type": "uint256"
            },
            {
              "internalType": "uint256",
              "name": "amount",
              "type": "uint256"
            },
            {
              "internalType": "bool",
              "name": "ended",
              "type": "bool"
            },
            {
              "internalType": "bool",
              "name": "won",
              "type": "bool"
            }
          ],
          "internalType": "struct CoinFlip.Game",
          "name": "",
          "type": "tuple"
        }
      ],
      "stateMutability": "view",
      "type": "function"
    },
    {
      "inputs": [],
      "name": "min_balance_factor",
      "outputs": [
        {
          "internalType": "uint256",
          "name": "",
          "type": "uint256"
        }
      ],
      "stateMutability": "view",
      "type": "function"
    },
    {
      "inputs": [],
      "name": "min_fee_balance",
      "outputs": [
        {
          "internalType": "uint256",
          "name": "",
          "type": "uint256"
        }
      ],
      "stateMutability": "view",
      "type": "function"
    },
    {
      "inputs": [],
      "name": "owner",
      "outputs": [
        {
          "internalType": "address",
          "name": "",
          "type": "address"
        }
      ],
      "stateMutability": "view",
      "type": "function"
    },
    {
      "inputs": [
        {
          "internalType": "uint256",
          "name": "_bet",
          "type": "uint256"
        }
      ],
      "name": "play",
      "outputs": [],
      "stateMutability": "payable",
      "type": "function"
    },
    {
      "inputs": [],
      "name": "random_contract",
      "outputs": [
        {
          "internalType": "contract RandomNumberConsumer",
          "name": "",
          "type": "address"
        }
      ],
      "stateMutability": "view",
      "type": "function"
    },
    {
      "inputs": [],
      "name": "renounceOwnership",
      "outputs": [],
      "stateMutability": "nonpayable",
      "type": "function"
    },
    {
      "inputs": [
        {
          "internalType": "address",
          "name": "",
          "type": "address"
        }
      ],
      "name": "request_ids",
      "outputs": [
        {
          "internalType": "uint256",
          "name": "",
          "type": "uint256"
        }
      ],
      "stateMutability": "view",
      "type": "function"
    },
    {
      "inputs": [
        {
          "internalType": "uint256[]",
          "name": "_amounts",
          "type": "uint256[]"
        }
      ],
      "name": "setAmounts",
      "outputs": [],
      "stateMutability": "nonpayable",
      "type": "function"
    },
    {
      "inputs": [
        {
          "internalType": "uint256",
          "name": "_min_fee_balance",
          "type": "uint256"
        }
      ],
      "name": "setMinFee",
      "outputs": [],
      "stateMutability": "nonpayable",
      "type": "function"
    },
    {
      "inputs": [
        {
          "internalType": "uint256",
          "name": "_winning_fee",
          "type": "uint256"
        }
      ],
      "name": "setWinningFee",
      "outputs": [],
      "stateMutability": "nonpayable",
      "type": "function"
    },
    {
      "inputs": [
        {
          "internalType": "address",
          "name": "newOwner",
          "type": "address"
        }
      ],
      "name": "transferOwnership",
      "outputs": [],
      "stateMutability": "nonpayable",
      "type": "function"
    },
    {
      "inputs": [],
      "name": "winning_fee",
      "outputs": [
        {
          "internalType": "uint256",
          "name": "",
          "type": "uint256"
        }
      ],
      "stateMutability": "view",
      "type": "function"
    },
    {
      "inputs": [],
      "name": "winning_fee_divisor",
      "outputs": [
        {
          "internalType": "uint256",
          "name": "",
          "type": "uint256"
        }
      ],
      "stateMutability": "view",
      "type": "function"
    },
    {
      "stateMutability": "payable",
      "type": "receive"
    }
  ],
  "bytecode": "0x6080604052604051806060016040528067016345785d8a000067ffffffffffffffff1681526020016706f05b59d3b2000067ffffffffffffffff168152602001670de0b6b3a764000067ffffffffffffffff168152506003906003620000679291906200022c565b50600360045560326005556103e8600655662386f26fc10000600b553480156200009057600080fd5b50604051620023df380380620023df8339818101604052810190620000b6919062000313565b620000d6620000ca6200016060201b60201c565b6200016860201b60201c565b81600160006101000a81548173ffffffffffffffffffffffffffffffffffffffff021916908373ffffffffffffffffffffffffffffffffffffffff16021790555080600260006101000a81548173ffffffffffffffffffffffffffffffffffffffff021916908373ffffffffffffffffffffffffffffffffffffffff16021790555050506200035a565b600033905090565b60008060009054906101000a900473ffffffffffffffffffffffffffffffffffffffff169050816000806101000a81548173ffffffffffffffffffffffffffffffffffffffff021916908373ffffffffffffffffffffffffffffffffffffffff1602179055508173ffffffffffffffffffffffffffffffffffffffff168173ffffffffffffffffffffffffffffffffffffffff167f8be0079c531659141344cd1fd0a4f28419497f9722a3daafe3b4186f6b6457e060405160405180910390a35050565b82805482825590600052602060002090810192821562000277579160200282015b8281111562000276578251829067ffffffffffffffff169055916020019190600101906200024d565b5b5090506200028691906200028a565b5090565b5b80821115620002a55760008160009055506001016200028b565b5090565b600080fd5b600073ffffffffffffffffffffffffffffffffffffffff82169050919050565b6000620002db82620002ae565b9050919050565b620002ed81620002ce565b8114620002f957600080fd5b50565b6000815190506200030d81620002e2565b92915050565b600080604083850312156200032d576200032c620002a9565b5b60006200033d85828601620002fc565b92505060206200035085828601620002fc565b9150509250929050565b612075806200036a6000396000f3fe6080604052600436106101185760003560e01c806345f0a44f116100a0578063715018a611610064578063715018a61461042457806372b513d51461043b5780638da5cb5b14610464578063ca6b282b1461048f578063f2fde38b146104ba57610158565b806345f0a44f1461033a5780634d4f17bb14610377578063585d4586146103b45780635ff7348b146103dd5780636898f82b1461040857610158565b80631769f049116100e75780631769f0491461026757806331ac99201461029257806336b3c80f146102bb57806337b45fa8146102e65780634331153c1461031157610158565b8063021a12d4146101935780630ea901d2146101be578063117a5b90146101fb57806311e6a59b1461023c57610158565b36610158577f627a1f2a33e46fb65cae23da2cb008aaa316ab9137e564b1b802a06811b99101333460405161014e9291906113fd565b60405180910390a1005b7f627a1f2a33e46fb65cae23da2cb008aaa316ab9137e564b1b802a06811b9910133346040516101899291906113fd565b60405180910390a1005b34801561019f57600080fd5b506101a86104e3565b6040516101b59190611426565b60405180910390f35b3480156101ca57600080fd5b506101e560048036038101906101e09190611481565b6104e9565b6040516101f2919061154f565b60405180910390f35b34801561020757600080fd5b50610222600480360381019061021d9190611596565b6105f5565b6040516102339594939291906115d2565b60405180910390f35b34801561024857600080fd5b50610251610665565b60405161025e9190611426565b60405180910390f35b34801561027357600080fd5b5061027c61066b565b6040516102899190611426565b60405180910390f35b34801561029e57600080fd5b506102b960048036038101906102b49190611596565b610671565b005b3480156102c757600080fd5b506102d0610683565b6040516102dd9190611426565b60405180910390f35b3480156102f257600080fd5b506102fb610689565b6040516103089190611684565b60405180910390f35b34801561031d57600080fd5b50610338600480360381019061033391906117f8565b6106af565b005b34801561034657600080fd5b50610361600480360381019061035c9190611596565b610715565b60405161036e9190611426565b60405180910390f35b34801561038357600080fd5b5061039e60048036038101906103999190611481565b610739565b6040516103ab9190611426565b60405180910390f35b3480156103c057600080fd5b506103db60048036038101906103d69190611841565b610751565b005b3480156103e957600080fd5b506103f2610baa565b6040516103ff91906118a2565b60405180910390f35b610422600480360381019061041d9190611596565b610bd0565b005b34801561043057600080fd5b50610439611039565b005b34801561044757600080fd5b50610462600480360381019061045d9190611596565b61104d565b005b34801561047057600080fd5b5061047961105f565b60405161048691906118bd565b60405180910390f35b34801561049b57600080fd5b506104a4611088565b6040516104b19190611426565b60405180910390f35b3480156104c657600080fd5b506104e160048036038101906104dc9190611481565b61108e565b005b60065481565b6104f16112f0565b60076000600860008573ffffffffffffffffffffffffffffffffffffffff1673ffffffffffffffffffffffffffffffffffffffff1681526020019081526020016000205481526020019081526020016000206040518060a00160405290816000820160009054906101000a900473ffffffffffffffffffffffffffffffffffffffff1673ffffffffffffffffffffffffffffffffffffffff1673ffffffffffffffffffffffffffffffffffffffff16815260200160018201548152602001600282015481526020016003820160009054906101000a900460ff161515151581526020016003820160019054906101000a900460ff1615151515815250509050919050565b60076020528060005260406000206000915090508060000160009054906101000a900473ffffffffffffffffffffffffffffffffffffffff16908060010154908060020154908060030160009054906101000a900460ff16908060030160019054906101000a900460ff16905085565b600b5481565b600a5481565b610679611111565b80600b8190555050565b60055481565b600160009054906101000a900473ffffffffffffffffffffffffffffffffffffffff1681565b6106b7611111565b60038151146106fb576040517f08c379a00000000000000000000000000000000000000000000000000000000081526004016106f290611935565b60405180910390fd5b8060039080519060200190610711929190611339565b5050565b6003818154811061072557600080fd5b906000526020600020016000915090505481565b60086020528060005260406000206000915090505481565b600160009054906101000a900473ffffffffffffffffffffffffffffffffffffffff1673ffffffffffffffffffffffffffffffffffffffff163373ffffffffffffffffffffffffffffffffffffffff16146107e1576040517f08c379a00000000000000000000000000000000000000000000000000000000081526004016107d8906119c7565b60405180910390fd5b600015156007600084815260200190815260200160002060030160009054906101000a900460ff1615151461084b576040517f08c379a000000000000000000000000000000000000000000000000000000000815260040161084290611a33565b60405180910390fd5b600073ffffffffffffffffffffffffffffffffffffffff166007600084815260200190815260200160002060000160009054906101000a900473ffffffffffffffffffffffffffffffffffffffff1673ffffffffffffffffffffffffffffffffffffffff16036108f0576040517f08c379a00000000000000000000000000000000000000000000000000000000081526004016108e790611a9f565b60405180910390fd5b60016007600084815260200190815260200160002060030160006101000a81548160ff0219169083151502179055506000600960006007600086815260200190815260200160002060000160009054906101000a900473ffffffffffffffffffffffffffffffffffffffff1673ffffffffffffffffffffffffffffffffffffffff1673ffffffffffffffffffffffffffffffffffffffff16815260200190815260200160002060006101000a81548160ff02191690831515021790555060006002826109bc9190611aee565b905060076000848152602001908152602001600020600101548103610b1e5760006006546005546007600087815260200190815260200160002060020154610a049190611b4e565b610a0e9190611b90565b905080600a6000828254610a229190611bc1565b92505081905550600b54600a5410610a3d57610a3c61118f565b5b60008160026007600088815260200190815260200160002060020154610a639190611b4e565b610a6d9190611bf5565b90506007600086815260200190815260200160002060000160009054906101000a900473ffffffffffffffffffffffffffffffffffffffff1673ffffffffffffffffffffffffffffffffffffffff166108fc829081150290604051600060405180830381858888f19350505050158015610aeb573d6000803e3d6000fd5b5060016007600087815260200190815260200160002060030160016101000a81548160ff02191690831515021790555050505b7f761bbf8ad882003774e8650d36faa00fdea1a75836949dfb7eb6ac36fe29505c6007600085815260200190815260200160002060000160009054906101000a900473ffffffffffffffffffffffffffffffffffffffff16826007600087815260200190815260200160002060010154604051610b9d93929190611c29565b60405180910390a1505050565b600260009054906101000a900473ffffffffffffffffffffffffffffffffffffffff1681565b60006001811115610be457610be3611c60565b5b811480610c025750600180811115610bff57610bfe611c60565b5b81145b610c41576040517f08c379a0000000000000000000000000000000000000000000000000000000008152600401610c3890611d01565b60405180910390fd5b6003600081548110610c5657610c55611d21565b5b9060005260206000200154341480610c8c57506003600181548110610c7e57610c7d611d21565b5b906000526020600020015434145b80610cb557506003600281548110610ca757610ca6611d21565b5b906000526020600020015434145b610cf4576040517f08c379a0000000000000000000000000000000000000000000000000000000008152600401610ceb90611d9c565b60405180910390fd5b600960003373ffffffffffffffffffffffffffffffffffffffff1673ffffffffffffffffffffffffffffffffffffffff16815260200190815260200160002060009054906101000a900460ff1615610d81576040517f08c379a0000000000000000000000000000000000000000000000000000000008152600401610d7890611e2e565b60405180910390fd5b34600454610d8f9190611b4e565b471015610dd1576040517f08c379a0000000000000000000000000000000000000000000000000000000008152600401610dc890611e9a565b60405180910390fd5b6000600160009054906101000a900473ffffffffffffffffffffffffffffffffffffffff1673ffffffffffffffffffffffffffffffffffffffff1663aacc5a176040518163ffffffff1660e01b81526004016020604051808303816000875af1158015610e42573d6000803e3d6000fd5b505050506040513d601f19601f82011682018060405250810190610e669190611ecf565b90506040518060a001604052803373ffffffffffffffffffffffffffffffffffffffff168152602001838152602001348152602001600015158152602001600015158152506007600083815260200190815260200160002060008201518160000160006101000a81548173ffffffffffffffffffffffffffffffffffffffff021916908373ffffffffffffffffffffffffffffffffffffffff160217905550602082015181600101556040820151816002015560608201518160030160006101000a81548160ff02191690831515021790555060808201518160030160016101000a81548160ff02191690831515021790555090505080600860003373ffffffffffffffffffffffffffffffffffffffff1673ffffffffffffffffffffffffffffffffffffffff168152602001908152602001600020819055506001600960003373ffffffffffffffffffffffffffffffffffffffff1673ffffffffffffffffffffffffffffffffffffffff16815260200190815260200160002060006101000a81548160ff0219169083151502179055507ff19de367e8d44bb3aeb3b9c1c86dc5ab6f74caced54e8846e99221a5c5e9879f3334848460405161102d9493929190611efc565b60405180910390a15050565b611041611111565b61104b6000611224565b565b611055611111565b8060058190555050565b60008060009054906101000a900473ffffffffffffffffffffffffffffffffffffffff16905090565b60045481565b611096611111565b600073ffffffffffffffffffffffffffffffffffffffff168173ffffffffffffffffffffffffffffffffffffffff1603611105576040517f08c379a00000000000000000000000000000000000000000000000000000000081526004016110fc90611fb3565b60405180910390fd5b61110e81611224565b50565b6111196112e8565b73ffffffffffffffffffffffffffffffffffffffff1661113761105f565b73ffffffffffffffffffffffffffffffffffffffff161461118d576040517f08c379a00000000000000000000000000000000000000000000000000000000081526004016111849061201f565b60405180910390fd5b565b6000600a5490506000600a81905550600260009054906101000a900473ffffffffffffffffffffffffffffffffffffffff1673ffffffffffffffffffffffffffffffffffffffff1663d0f73a2b826040518263ffffffff1660e01b81526004016000604051808303818588803b15801561120857600080fd5b505af115801561121c573d6000803e3d6000fd5b505050505050565b60008060009054906101000a900473ffffffffffffffffffffffffffffffffffffffff169050816000806101000a81548173ffffffffffffffffffffffffffffffffffffffff021916908373ffffffffffffffffffffffffffffffffffffffff1602179055508173ffffffffffffffffffffffffffffffffffffffff168173ffffffffffffffffffffffffffffffffffffffff167f8be0079c531659141344cd1fd0a4f28419497f9722a3daafe3b4186f6b6457e060405160405180910390a35050565b600033905090565b6040518060a00160405280600073ffffffffffffffffffffffffffffffffffffffff16815260200160008152602001600081526020016000151581526020016000151581525090565b828054828255906000526020600020908101928215611375579160200282015b82811115611374578251825591602001919060010190611359565b5b5090506113829190611386565b5090565b5b8082111561139f576000816000905550600101611387565b5090565b600073ffffffffffffffffffffffffffffffffffffffff82169050919050565b60006113ce826113a3565b9050919050565b6113de816113c3565b82525050565b6000819050919050565b6113f7816113e4565b82525050565b600060408201905061141260008301856113d5565b61141f60208301846113ee565b9392505050565b600060208201905061143b60008301846113ee565b92915050565b6000604051905090565b600080fd5b600080fd5b61145e816113c3565b811461146957600080fd5b50565b60008135905061147b81611455565b92915050565b6000602082840312156114975761149661144b565b5b60006114a58482850161146c565b91505092915050565b6114b7816113c3565b82525050565b6114c6816113e4565b82525050565b60008115159050919050565b6114e1816114cc565b82525050565b60a0820160008201516114fd60008501826114ae565b50602082015161151060208501826114bd565b50604082015161152360408501826114bd565b50606082015161153660608501826114d8565b50608082015161154960808501826114d8565b50505050565b600060a08201905061156460008301846114e7565b92915050565b611573816113e4565b811461157e57600080fd5b50565b6000813590506115908161156a565b92915050565b6000602082840312156115ac576115ab61144b565b5b60006115ba84828501611581565b91505092915050565b6115cc816114cc565b82525050565b600060a0820190506115e760008301886113d5565b6115f460208301876113ee565b61160160408301866113ee565b61160e60608301856115c3565b61161b60808301846115c3565b9695505050505050565b6000819050919050565b600061164a611645611640846113a3565b611625565b6113a3565b9050919050565b600061165c8261162f565b9050919050565b600061166e82611651565b9050919050565b61167e81611663565b82525050565b60006020820190506116996000830184611675565b92915050565b600080fd5b6000601f19601f8301169050919050565b7f4e487b7100000000000000000000000000000000000000000000000000000000600052604160045260246000fd5b6116ed826116a4565b810181811067ffffffffffffffff8211171561170c5761170b6116b5565b5b80604052505050565b600061171f611441565b905061172b82826116e4565b919050565b600067ffffffffffffffff82111561174b5761174a6116b5565b5b602082029050602081019050919050565b600080fd5b600061177461176f84611730565b611715565b905080838252602082019050602084028301858111156117975761179661175c565b5b835b818110156117c057806117ac8882611581565b845260208401935050602081019050611799565b5050509392505050565b600082601f8301126117df576117de61169f565b5b81356117ef848260208601611761565b91505092915050565b60006020828403121561180e5761180d61144b565b5b600082013567ffffffffffffffff81111561182c5761182b611450565b5b611838848285016117ca565b91505092915050565b600080604083850312156118585761185761144b565b5b600061186685828601611581565b925050602061187785828601611581565b9150509250929050565b600061188c82611651565b9050919050565b61189c81611881565b82525050565b60006020820190506118b76000830184611893565b92915050565b60006020820190506118d260008301846113d5565b92915050565b600082825260208201905092915050565b7f4172726179206d7573742068617665203320656c656d656e7473000000000000600082015250565b600061191f601a836118d8565b915061192a826118e9565b602082019050919050565b6000602082019050818103600083015261194e81611912565b9050919050565b7f4f6e6c79207468652052616e646f6d4e756d626572436f6e73756d657220636f60008201527f6e74726163742063616e2063616c6c20746869732066756e6374696f6e000000602082015250565b60006119b1603d836118d8565b91506119bc82611955565b604082019050919050565b600060208201905081810360008301526119e0816119a4565b9050919050565b7f47616d6520616c726561647920656e6465640000000000000000000000000000600082015250565b6000611a1d6012836118d8565b9150611a28826119e7565b602082019050919050565b60006020820190508181036000830152611a4c81611a10565b9050919050565b7f4e6f2067616d6520666f756e6420776974682074686973206964000000000000600082015250565b6000611a89601a836118d8565b9150611a9482611a53565b602082019050919050565b60006020820190508181036000830152611ab881611a7c565b9050919050565b7f4e487b7100000000000000000000000000000000000000000000000000000000600052601260045260246000fd5b6000611af9826113e4565b9150611b04836113e4565b925082611b1457611b13611abf565b5b828206905092915050565b7f4e487b7100000000000000000000000000000000000000000000000000000000600052601160045260246000fd5b6000611b59826113e4565b9150611b64836113e4565b9250828202611b72816113e4565b91508282048414831517611b8957611b88611b1f565b5b5092915050565b6000611b9b826113e4565b9150611ba6836113e4565b925082611bb657611bb5611abf565b5b828204905092915050565b6000611bcc826113e4565b9150611bd7836113e4565b9250828201905080821115611bef57611bee611b1f565b5b92915050565b6000611c00826113e4565b9150611c0b836113e4565b9250828203905081811115611c2357611c22611b1f565b5b92915050565b6000606082019050611c3e60008301866113d5565b611c4b60208301856113ee565b611c5860408301846113ee565b949350505050565b7f4e487b7100000000000000000000000000000000000000000000000000000000600052602160045260246000fd5b7f596f75206d75737420677565737320656974686572206865616473206f72207460008201527f61696c7300000000000000000000000000000000000000000000000000000000602082015250565b6000611ceb6024836118d8565b9150611cf682611c8f565b604082019050919050565b60006020820190508181036000830152611d1a81611cde565b9050919050565b7f4e487b7100000000000000000000000000000000000000000000000000000000600052603260045260246000fd5b7f416d6f756e742073656e74206e6f7420636f7272656374000000000000000000600082015250565b6000611d866017836118d8565b9150611d9182611d50565b602082019050919050565b60006020820190508181036000830152611db581611d79565b9050919050565b7f596f752061726520616c726561647920706c6179696e6720612067616d652c2060008201527f7761697420666f7220746865206f7574636f6d65000000000000000000000000602082015250565b6000611e186034836118d8565b9150611e2382611dbc565b604082019050919050565b60006020820190508181036000830152611e4781611e0b565b9050919050565b7f436f6e74726163742062616c616e636520746f6f206c6f770000000000000000600082015250565b6000611e846018836118d8565b9150611e8f82611e4e565b602082019050919050565b60006020820190508181036000830152611eb381611e77565b9050919050565b600081519050611ec98161156a565b92915050565b600060208284031215611ee557611ee461144b565b5b6000611ef384828501611eba565b91505092915050565b6000608082019050611f1160008301876113d5565b611f1e60208301866113ee565b611f2b60408301856113ee565b611f3860608301846113ee565b95945050505050565b7f4f776e61626c653a206e6577206f776e657220697320746865207a65726f206160008201527f6464726573730000000000000000000000000000000000000000000000000000602082015250565b6000611f9d6026836118d8565b9150611fa882611f41565b604082019050919050565b60006020820190508181036000830152611fcc81611f90565b9050919050565b7f4f776e61626c653a2063616c6c6572206973206e6f7420746865206f776e6572600082015250565b60006120096020836118d8565b915061201482611fd3565b602082019050919050565b6000602082019050818103600083015261203881611ffc565b905091905056fea264697066735822122058ef6bb194f39e89f44903644e3542ef1cfbe7910d63a0c736965e96d3fc2cfd64736f6c63430008110033",
  "linkReferences": {},
  "deployedLinkReferences": {}
}