{
  "_format": "hh-sol-artifact-1",
  "contractName": "Obake",
  "sourceName": "contracts/MintObake.sol",
  "abi": [
    {
      "inputs": [
        {
          "internalType": "string",
          "name": "uri",
          "type": "string"
        }
      ],
      "stateMutability": "nonpayable",
      "type": "constructor"
    },
    {
      "anonymous": false,
      "inputs": [
        {
          "indexed": true,
          "internalType": "address",
          "name": "account",
          "type": "address"
        },
        {
          "indexed": true,
          "internalType": "address",
          "name": "operator",
          "type": "address"
        },
        {
          "indexed": false,
          "internalType": "bool",
          "name": "approved",
          "type": "bool"
        }
      ],
      "name": "ApprovalForAll",
      "type": "event"
    },
    {
      "anonymous": false,
      "inputs": [
        {
          "indexed": true,
          "internalType": "address",
          "name": "previousOwner",
          "type": "address"
        },
        {
          "indexed": true,
          "internalType": "address",
          "name": "newOwner",
          "type": "address"
        }
      ],
      "name": "OwnershipTransferred",
      "type": "event"
    },
    {
      "anonymous": false,
      "inputs": [
        {
          "indexed": true,
          "internalType": "address",
          "name": "operator",
          "type": "address"
        },
        {
          "indexed": true,
          "internalType": "address",
          "name": "from",
          "type": "address"
        },
        {
          "indexed": true,
          "internalType": "address",
          "name": "to",
          "type": "address"
        },
        {
          "indexed": false,
          "internalType": "uint256[]",
          "name": "ids",
          "type": "uint256[]"
        },
        {
          "indexed": false,
          "internalType": "uint256[]",
          "name": "values",
          "type": "uint256[]"
        }
      ],
      "name": "TransferBatch",
      "type": "event"
    },
    {
      "anonymous": false,
      "inputs": [
        {
          "indexed": true,
          "internalType": "address",
          "name": "operator",
          "type": "address"
        },
        {
          "indexed": true,
          "internalType": "address",
          "name": "from",
          "type": "address"
        },
        {
          "indexed": true,
          "internalType": "address",
          "name": "to",
          "type": "address"
        },
        {
          "indexed": false,
          "internalType": "uint256",
          "name": "id",
          "type": "uint256"
        },
        {
          "indexed": false,
          "internalType": "uint256",
          "name": "value",
          "type": "uint256"
        }
      ],
      "name": "TransferSingle",
      "type": "event"
    },
    {
      "anonymous": false,
      "inputs": [
        {
          "indexed": false,
          "internalType": "string",
          "name": "value",
          "type": "string"
        },
        {
          "indexed": true,
          "internalType": "uint256",
          "name": "id",
          "type": "uint256"
        }
      ],
      "name": "URI",
      "type": "event"
    },
    {
      "inputs": [],
      "name": "ID",
      "outputs": [
        {
          "internalType": "uint256",
          "name": "",
          "type": "uint256"
        }
      ],
      "stateMutability": "view",
      "type": "function"
    },
    {
      "inputs": [
        {
          "internalType": "address",
          "name": "account",
          "type": "address"
        },
        {
          "internalType": "uint256",
          "name": "id",
          "type": "uint256"
        }
      ],
      "name": "balanceOf",
      "outputs": [
        {
          "internalType": "uint256",
          "name": "",
          "type": "uint256"
        }
      ],
      "stateMutability": "view",
      "type": "function"
    },
    {
      "inputs": [
        {
          "internalType": "address[]",
          "name": "accounts",
          "type": "address[]"
        },
        {
          "internalType": "uint256[]",
          "name": "ids",
          "type": "uint256[]"
        }
      ],
      "name": "balanceOfBatch",
      "outputs": [
        {
          "internalType": "uint256[]",
          "name": "",
          "type": "uint256[]"
        }
      ],
      "stateMutability": "view",
      "type": "function"
    },
    {
      "inputs": [],
      "name": "cost",
      "outputs": [
        {
          "internalType": "uint256",
          "name": "",
          "type": "uint256"
        }
      ],
      "stateMutability": "view",
      "type": "function"
    },
    {
      "inputs": [
        {
          "internalType": "address",
          "name": "account",
          "type": "address"
        },
        {
          "internalType": "address",
          "name": "operator",
          "type": "address"
        }
      ],
      "name": "isApprovedForAll",
      "outputs": [
        {
          "internalType": "bool",
          "name": "",
          "type": "bool"
        }
      ],
      "stateMutability": "view",
      "type": "function"
    },
    {
      "inputs": [],
      "name": "maxMintAmountPerTx",
      "outputs": [
        {
          "internalType": "uint256",
          "name": "",
          "type": "uint256"
        }
      ],
      "stateMutability": "view",
      "type": "function"
    },
    {
      "inputs": [],
      "name": "maxSupply",
      "outputs": [
        {
          "internalType": "uint256",
          "name": "",
          "type": "uint256"
        }
      ],
      "stateMutability": "view",
      "type": "function"
    },
    {
      "inputs": [
        {
          "internalType": "uint256",
          "name": "_mintAmount",
          "type": "uint256"
        }
      ],
      "name": "mint",
      "outputs": [],
      "stateMutability": "payable",
      "type": "function"
    },
    {
      "inputs": [],
      "name": "name",
      "outputs": [
        {
          "internalType": "string",
          "name": "",
          "type": "string"
        }
      ],
      "stateMutability": "pure",
      "type": "function"
    },
    {
      "inputs": [],
      "name": "owner",
      "outputs": [
        {
          "internalType": "address",
          "name": "",
          "type": "address"
        }
      ],
      "stateMutability": "view",
      "type": "function"
    },
    {
      "inputs": [],
      "name": "paused",
      "outputs": [
        {
          "internalType": "bool",
          "name": "",
          "type": "bool"
        }
      ],
      "stateMutability": "view",
      "type": "function"
    },
    {
      "inputs": [],
      "name": "renounceOwnership",
      "outputs": [],
      "stateMutability": "nonpayable",
      "type": "function"
    },
    {
      "inputs": [
        {
          "internalType": "address",
          "name": "from",
          "type": "address"
        },
        {
          "internalType": "address",
          "name": "to",
          "type": "address"
        },
        {
          "internalType": "uint256[]",
          "name": "ids",
          "type": "uint256[]"
        },
        {
          "internalType": "uint256[]",
          "name": "amounts",
          "type": "uint256[]"
        },
        {
          "internalType": "bytes",
          "name": "data",
          "type": "bytes"
        }
      ],
      "name": "safeBatchTransferFrom",
      "outputs": [],
      "stateMutability": "nonpayable",
      "type": "function"
    },
    {
      "inputs": [
        {
          "internalType": "address",
          "name": "from",
          "type": "address"
        },
        {
          "internalType": "address",
          "name": "to",
          "type": "address"
        },
        {
          "internalType": "uint256",
          "name": "id",
          "type": "uint256"
        },
        {
          "internalType": "uint256",
          "name": "amount",
          "type": "uint256"
        },
        {
          "internalType": "bytes",
          "name": "data",
          "type": "bytes"
        }
      ],
      "name": "safeTransferFrom",
      "outputs": [],
      "stateMutability": "nonpayable",
      "type": "function"
    },
    {
      "inputs": [
        {
          "internalType": "address",
          "name": "operator",
          "type": "address"
        },
        {
          "internalType": "bool",
          "name": "approved",
          "type": "bool"
        }
      ],
      "name": "setApprovalForAll",
      "outputs": [],
      "stateMutability": "nonpayable",
      "type": "function"
    },
    {
      "inputs": [
        {
          "internalType": "uint256",
          "name": "_maxMintAmountPerTx",
          "type": "uint256"
        }
      ],
      "name": "setMaxMintAmountPerTx",
      "outputs": [],
      "stateMutability": "nonpayable",
      "type": "function"
    },
    {
      "inputs": [
        {
          "internalType": "bool",
          "name": "_state",
          "type": "bool"
        }
      ],
      "name": "setPaused",
      "outputs": [],
      "stateMutability": "nonpayable",
      "type": "function"
    },
    {
      "inputs": [],
      "name": "supply",
      "outputs": [
        {
          "internalType": "uint256",
          "name": "_value",
          "type": "uint256"
        }
      ],
      "stateMutability": "view",
      "type": "function"
    },
    {
      "inputs": [
        {
          "internalType": "bytes4",
          "name": "interfaceId",
          "type": "bytes4"
        }
      ],
      "name": "supportsInterface",
      "outputs": [
        {
          "internalType": "bool",
          "name": "",
          "type": "bool"
        }
      ],
      "stateMutability": "view",
      "type": "function"
    },
    {
      "inputs": [],
      "name": "symbol",
      "outputs": [
        {
          "internalType": "string",
          "name": "",
          "type": "string"
        }
      ],
      "stateMutability": "pure",
      "type": "function"
    },
    {
      "inputs": [
        {
          "internalType": "address",
          "name": "newOwner",
          "type": "address"
        }
      ],
      "name": "transferOwnership",
      "outputs": [],
      "stateMutability": "nonpayable",
      "type": "function"
    },
    {
      "inputs": [
        {
          "internalType": "uint256",
          "name": "",
          "type": "uint256"
        }
      ],
      "name": "uri",
      "outputs": [
        {
          "internalType": "string",
          "name": "",
          "type": "string"
        }
      ],
      "stateMutability": "view",
      "type": "function"
    },
    {
      "inputs": [],
      "name": "withdraw",
      "outputs": [],
      "stateMutability": "nonpayable",
      "type": "function"
    }
  ],
  "bytecode": "0x6080604052662386f26fc100006005556109c460065560056007556001600860006101000a81548160ff0219169083151502179055503480156200004257600080fd5b5060405162003ae838038062003ae8833981810160405281019062000068919062000318565b806200007a81620000a260201b60201c565b506200009b6200008f620000b760201b60201c565b620000bf60201b60201c565b506200069b565b8060029081620000b39190620005b4565b5050565b600033905090565b6000600360009054906101000a900473ffffffffffffffffffffffffffffffffffffffff16905081600360006101000a81548173ffffffffffffffffffffffffffffffffffffffff021916908373ffffffffffffffffffffffffffffffffffffffff1602179055508173ffffffffffffffffffffffffffffffffffffffff168173ffffffffffffffffffffffffffffffffffffffff167f8be0079c531659141344cd1fd0a4f28419497f9722a3daafe3b4186f6b6457e060405160405180910390a35050565b6000604051905090565b600080fd5b600080fd5b600080fd5b600080fd5b6000601f19601f8301169050919050565b7f4e487b7100000000000000000000000000000000000000000000000000000000600052604160045260246000fd5b620001ee82620001a3565b810181811067ffffffffffffffff8211171562000210576200020f620001b4565b5b80604052505050565b60006200022562000185565b9050620002338282620001e3565b919050565b600067ffffffffffffffff821115620002565762000255620001b4565b5b6200026182620001a3565b9050602081019050919050565b60005b838110156200028e57808201518184015260208101905062000271565b60008484015250505050565b6000620002b1620002ab8462000238565b62000219565b905082815260208101848484011115620002d057620002cf6200019e565b5b620002dd8482856200026e565b509392505050565b600082601f830112620002fd57620002fc62000199565b5b81516200030f8482602086016200029a565b91505092915050565b6000602082840312156200033157620003306200018f565b5b600082015167ffffffffffffffff81111562000352576200035162000194565b5b6200036084828501620002e5565b91505092915050565b600081519050919050565b7f4e487b7100000000000000000000000000000000000000000000000000000000600052602260045260246000fd5b60006002820490506001821680620003bc57607f821691505b602082108103620003d257620003d162000374565b5b50919050565b60008190508160005260206000209050919050565b60006020601f8301049050919050565b600082821b905092915050565b6000600883026200043c7fffffffffffffffffffffffffffffffffffffffffffffffffffffffffffffffff82620003fd565b620004488683620003fd565b95508019841693508086168417925050509392505050565b6000819050919050565b6000819050919050565b6000620004956200048f620004898462000460565b6200046a565b62000460565b9050919050565b6000819050919050565b620004b18362000474565b620004c9620004c0826200049c565b8484546200040a565b825550505050565b600090565b620004e0620004d1565b620004ed818484620004a6565b505050565b5b81811015620005155762000509600082620004d6565b600181019050620004f3565b5050565b601f82111562000564576200052e81620003d8565b6200053984620003ed565b8101602085101562000549578190505b620005616200055885620003ed565b830182620004f2565b50505b505050565b600082821c905092915050565b6000620005896000198460080262000569565b1980831691505092915050565b6000620005a4838362000576565b9150826002028217905092915050565b620005bf8262000369565b67ffffffffffffffff811115620005db57620005da620001b4565b5b620005e78254620003a3565b620005f482828562000519565b600060209050601f8311600181146200062c576000841562000617578287015190505b62000623858262000596565b86555062000693565b601f1984166200063c86620003d8565b60005b8281101562000666578489015182556001820191506020850194506020810190506200063f565b8683101562000686578489015162000682601f89168262000576565b8355505b6001600288020188555050505b505050505050565b61343d80620006ab6000396000f3fe60806040526004361061013f5760003560e01c8063715018a6116100b6578063b071401b1161006f578063b071401b1461042a578063b3cea21714610453578063d5abeb011461047e578063e985e9c5146104a9578063f242432a146104e6578063f2fde38b1461050f5761013f565b8063715018a61461034d5780638da5cb5b1461036457806394354fd01461038f57806395d89b41146103ba578063a0712d68146103e5578063a22cb465146104015761013f565b806313faede61161010857806313faede61461025157806316c38b3c1461027c5780632eb2c2d6146102a55780633ccfd60b146102ce5780634e1273f4146102e55780635c975abb146103225761013f565b8062fdd58e1461014457806301ffc9a714610181578063047fc9aa146101be57806306fdde03146101e95780630e89341c14610214575b600080fd5b34801561015057600080fd5b5061016b60048036038101906101669190611e27565b610538565b6040516101789190611e76565b60405180910390f35b34801561018d57600080fd5b506101a860048036038101906101a39190611ee9565b610600565b6040516101b59190611f31565b60405180910390f35b3480156101ca57600080fd5b506101d36106e2565b6040516101e09190611e76565b60405180910390f35b3480156101f557600080fd5b506101fe6106ee565b60405161020b9190611fdc565b60405180910390f35b34801561022057600080fd5b5061023b60048036038101906102369190611ffe565b61072b565b6040516102489190611fdc565b60405180910390f35b34801561025d57600080fd5b506102666107bf565b6040516102739190611e76565b60405180910390f35b34801561028857600080fd5b506102a3600480360381019061029e9190612057565b6107c5565b005b3480156102b157600080fd5b506102cc60048036038101906102c79190612281565b6107ea565b005b3480156102da57600080fd5b506102e361088b565b005b3480156102f157600080fd5b5061030c60048036038101906103079190612413565b610949565b6040516103199190612549565b60405180910390f35b34801561032e57600080fd5b50610337610a62565b6040516103449190611f31565b60405180910390f35b34801561035957600080fd5b50610362610a75565b005b34801561037057600080fd5b50610379610a89565b604051610386919061257a565b60405180910390f35b34801561039b57600080fd5b506103a4610ab3565b6040516103b19190611e76565b60405180910390f35b3480156103c657600080fd5b506103cf610ab9565b6040516103dc9190611fdc565b60405180910390f35b6103ff60048036038101906103fa9190611ffe565b610af6565b005b34801561040d57600080fd5b5061042860048036038101906104239190612595565b610c87565b005b34801561043657600080fd5b50610451600480360381019061044c9190611ffe565b610c9d565b005b34801561045f57600080fd5b50610468610caf565b6040516104759190611e76565b60405180910390f35b34801561048a57600080fd5b50610493610cb4565b6040516104a09190611e76565b60405180910390f35b3480156104b557600080fd5b506104d060048036038101906104cb91906125d5565b610cba565b6040516104dd9190611f31565b60405180910390f35b3480156104f257600080fd5b5061050d60048036038101906105089190612615565b610d4e565b005b34801561051b57600080fd5b50610536600480360381019061053191906126ac565b610def565b005b60008073ffffffffffffffffffffffffffffffffffffffff168373ffffffffffffffffffffffffffffffffffffffff16036105a8576040517f08c379a000000000000000000000000000000000000000000000000000000000815260040161059f9061274b565b60405180910390fd5b60008083815260200190815260200160002060008473ffffffffffffffffffffffffffffffffffffffff1673ffffffffffffffffffffffffffffffffffffffff16815260200190815260200160002054905092915050565b60007fd9b67a26000000000000000000000000000000000000000000000000000000007bffffffffffffffffffffffffffffffffffffffffffffffffffffffff1916827bffffffffffffffffffffffffffffffffffffffffffffffffffffffff191614806106cb57507f0e89341c000000000000000000000000000000000000000000000000000000007bffffffffffffffffffffffffffffffffffffffffffffffffffffffff1916827bffffffffffffffffffffffffffffffffffffffffffffffffffffffff1916145b806106db57506106da82610e72565b5b9050919050565b60048060000154905081565b60606040518060400160405280600581526020017f4f62616b65000000000000000000000000000000000000000000000000000000815250905090565b60606002805461073a9061279a565b80601f01602080910402602001604051908101604052809291908181526020018280546107669061279a565b80156107b35780601f10610788576101008083540402835291602001916107b3565b820191906000526020600020905b81548152906001019060200180831161079657829003601f168201915b50505050509050919050565b60055481565b6107cd610edc565b80600860006101000a81548160ff02191690831515021790555050565b6107f2610f5a565b73ffffffffffffffffffffffffffffffffffffffff168573ffffffffffffffffffffffffffffffffffffffff161480610838575061083785610832610f5a565b610cba565b5b610877576040517f08c379a000000000000000000000000000000000000000000000000000000000815260040161086e9061283d565b60405180910390fd5b6108848585858585610f62565b5050505050565b610893610edc565b600061089d610a89565b73ffffffffffffffffffffffffffffffffffffffff16476040516108c09061288e565b60006040518083038185875af1925050503d80600081146108fd576040519150601f19603f3d011682016040523d82523d6000602084013e610902565b606091505b5050905080610946576040517f08c379a000000000000000000000000000000000000000000000000000000000815260040161093d90612915565b60405180910390fd5b50565b6060815183511461098f576040517f08c379a0000000000000000000000000000000000000000000000000000000008152600401610986906129a7565b60405180910390fd5b6000835167ffffffffffffffff8111156109ac576109ab612089565b5b6040519080825280602002602001820160405280156109da5781602001602082028036833780820191505090505b50905060005b8451811015610a5757610a278582815181106109ff576109fe6129c7565b5b6020026020010151858381518110610a1a57610a196129c7565b5b6020026020010151610538565b828281518110610a3a57610a396129c7565b5b60200260200101818152505080610a5090612a25565b90506109e0565b508091505092915050565b600860009054906101000a900460ff1681565b610a7d610edc565b610a876000611283565b565b6000600360009054906101000a900473ffffffffffffffffffffffffffffffffffffffff16905090565b60075481565b60606040518060400160405280600381526020017f4f424b0000000000000000000000000000000000000000000000000000000000815250905090565b600860009054906101000a900460ff1615610b46576040517f08c379a0000000000000000000000000000000000000000000000000000000008152600401610b3d90612ab9565b60405180910390fd5b600081118015610b5857506007548111155b610b97576040517f08c379a0000000000000000000000000000000000000000000000000000000008152600401610b8e90612b25565b60405180910390fd5b60065481610ba56004611349565b610baf9190612b45565b1115610bf0576040517f08c379a0000000000000000000000000000000000000000000000000000000008152600401610be790612bc5565b60405180910390fd5b80600554610bfe9190612be5565b3414610c3f576040517f08c379a0000000000000000000000000000000000000000000000000000000008152600401610c3690612c73565b60405180910390fd5b60005b81811015610c6757610c546004611357565b8080610c5f90612a25565b915050610c42565b50610c84336001836040518060200160405280600081525061136d565b50565b610c99610c92610f5a565b838361151d565b5050565b610ca5610edc565b8060078190555050565b600181565b60065481565b6000600160008473ffffffffffffffffffffffffffffffffffffffff1673ffffffffffffffffffffffffffffffffffffffff16815260200190815260200160002060008373ffffffffffffffffffffffffffffffffffffffff1673ffffffffffffffffffffffffffffffffffffffff16815260200190815260200160002060009054906101000a900460ff16905092915050565b610d56610f5a565b73ffffffffffffffffffffffffffffffffffffffff168573ffffffffffffffffffffffffffffffffffffffff161480610d9c5750610d9b85610d96610f5a565b610cba565b5b610ddb576040517f08c379a0000000000000000000000000000000000000000000000000000000008152600401610dd29061283d565b60405180910390fd5b610de88585858585611689565b5050505050565b610df7610edc565b600073ffffffffffffffffffffffffffffffffffffffff168173ffffffffffffffffffffffffffffffffffffffff1603610e66576040517f08c379a0000000000000000000000000000000000000000000000000000000008152600401610e5d90612d05565b60405180910390fd5b610e6f81611283565b50565b60007f01ffc9a7000000000000000000000000000000000000000000000000000000007bffffffffffffffffffffffffffffffffffffffffffffffffffffffff1916827bffffffffffffffffffffffffffffffffffffffffffffffffffffffff1916149050919050565b610ee4610f5a565b73ffffffffffffffffffffffffffffffffffffffff16610f02610a89565b73ffffffffffffffffffffffffffffffffffffffff1614610f58576040517f08c379a0000000000000000000000000000000000000000000000000000000008152600401610f4f90612d71565b60405180910390fd5b565b600033905090565b8151835114610fa6576040517f08c379a0000000000000000000000000000000000000000000000000000000008152600401610f9d90612e03565b60405180910390fd5b600073ffffffffffffffffffffffffffffffffffffffff168473ffffffffffffffffffffffffffffffffffffffff1603611015576040517f08c379a000000000000000000000000000000000000000000000000000000000815260040161100c90612e95565b60405180910390fd5b600061101f610f5a565b905061102f818787878787611924565b60005b84518110156111e05760008582815181106110505761104f6129c7565b5b60200260200101519050600085838151811061106f5761106e6129c7565b5b60200260200101519050600080600084815260200190815260200160002060008b73ffffffffffffffffffffffffffffffffffffffff1673ffffffffffffffffffffffffffffffffffffffff16815260200190815260200160002054905081811015611110576040517f08c379a000000000000000000000000000000000000000000000000000000000815260040161110790612f27565b60405180910390fd5b81810360008085815260200190815260200160002060008c73ffffffffffffffffffffffffffffffffffffffff1673ffffffffffffffffffffffffffffffffffffffff168152602001908152602001600020819055508160008085815260200190815260200160002060008b73ffffffffffffffffffffffffffffffffffffffff1673ffffffffffffffffffffffffffffffffffffffff16815260200190815260200160002060008282546111c59190612b45565b92505081905550505050806111d990612a25565b9050611032565b508473ffffffffffffffffffffffffffffffffffffffff168673ffffffffffffffffffffffffffffffffffffffff168273ffffffffffffffffffffffffffffffffffffffff167f4a39dc06d4c0dbc64b70af90fd698a233a518aa5d07e595d983b8c0526c8f7fb8787604051611257929190612f47565b60405180910390a461126d81878787878761192c565b61127b818787878787611934565b505050505050565b6000600360009054906101000a900473ffffffffffffffffffffffffffffffffffffffff16905081600360006101000a81548173ffffffffffffffffffffffffffffffffffffffff021916908373ffffffffffffffffffffffffffffffffffffffff1602179055508173ffffffffffffffffffffffffffffffffffffffff168173ffffffffffffffffffffffffffffffffffffffff167f8be0079c531659141344cd1fd0a4f28419497f9722a3daafe3b4186f6b6457e060405160405180910390a35050565b600081600001549050919050565b6001816000016000828254019250508190555050565b600073ffffffffffffffffffffffffffffffffffffffff168473ffffffffffffffffffffffffffffffffffffffff16036113dc576040517f08c379a00000000000000000000000000000000000000000000000000000000081526004016113d390612ff0565b60405180910390fd5b60006113e6610f5a565b905060006113f385611b0b565b9050600061140085611b0b565b905061141183600089858589611924565b8460008088815260200190815260200160002060008973ffffffffffffffffffffffffffffffffffffffff1673ffffffffffffffffffffffffffffffffffffffff16815260200190815260200160002060008282546114709190612b45565b925050819055508673ffffffffffffffffffffffffffffffffffffffff16600073ffffffffffffffffffffffffffffffffffffffff168473ffffffffffffffffffffffffffffffffffffffff167fc3d58168c5ae7397731d063d5bbf3d657854427343f4c083240f7aacaa2d0f6289896040516114ee929190613010565b60405180910390a46115058360008985858961192c565b61151483600089898989611b85565b50505050505050565b8173ffffffffffffffffffffffffffffffffffffffff168373ffffffffffffffffffffffffffffffffffffffff160361158b576040517f08c379a0000000000000000000000000000000000000000000000000000000008152600401611582906130ab565b60405180910390fd5b80600160008573ffffffffffffffffffffffffffffffffffffffff1673ffffffffffffffffffffffffffffffffffffffff16815260200190815260200160002060008473ffffffffffffffffffffffffffffffffffffffff1673ffffffffffffffffffffffffffffffffffffffff16815260200190815260200160002060006101000a81548160ff0219169083151502179055508173ffffffffffffffffffffffffffffffffffffffff168373ffffffffffffffffffffffffffffffffffffffff167f17307eab39ab6107e8899845ad3d59bd9653f200f220920489ca2b5937696c318360405161167c9190611f31565b60405180910390a3505050565b600073ffffffffffffffffffffffffffffffffffffffff168473ffffffffffffffffffffffffffffffffffffffff16036116f8576040517f08c379a00000000000000000000000000000000000000000000000000000000081526004016116ef90612e95565b60405180910390fd5b6000611702610f5a565b9050600061170f85611b0b565b9050600061171c85611b0b565b905061172c838989858589611924565b600080600088815260200190815260200160002060008a73ffffffffffffffffffffffffffffffffffffffff1673ffffffffffffffffffffffffffffffffffffffff168152602001908152602001600020549050858110156117c3576040517f08c379a00000000000000000000000000000000000000000000000000000000081526004016117ba90612f27565b60405180910390fd5b85810360008089815260200190815260200160002060008b73ffffffffffffffffffffffffffffffffffffffff1673ffffffffffffffffffffffffffffffffffffffff168152602001908152602001600020819055508560008089815260200190815260200160002060008a73ffffffffffffffffffffffffffffffffffffffff1673ffffffffffffffffffffffffffffffffffffffff16815260200190815260200160002060008282546118789190612b45565b925050819055508773ffffffffffffffffffffffffffffffffffffffff168973ffffffffffffffffffffffffffffffffffffffff168573ffffffffffffffffffffffffffffffffffffffff167fc3d58168c5ae7397731d063d5bbf3d657854427343f4c083240f7aacaa2d0f628a8a6040516118f5929190613010565b60405180910390a461190b848a8a86868a61192c565b611919848a8a8a8a8a611b85565b505050505050505050565b505050505050565b505050505050565b6119538473ffffffffffffffffffffffffffffffffffffffff16611d5c565b15611b03578373ffffffffffffffffffffffffffffffffffffffff1663bc197c8187878686866040518663ffffffff1660e01b8152600401611999959493929190613120565b6020604051808303816000875af19250505080156119d557506040513d601f19601f820116820180604052508101906119d2919061319d565b60015b611a7a576119e16131d7565b806308c379a003611a3d57506119f56131f9565b80611a005750611a3f565b806040517f08c379a0000000000000000000000000000000000000000000000000000000008152600401611a349190611fdc565b60405180910390fd5b505b6040517f08c379a0000000000000000000000000000000000000000000000000000000008152600401611a71906132fb565b60405180910390fd5b63bc197c8160e01b7bffffffffffffffffffffffffffffffffffffffffffffffffffffffff1916817bffffffffffffffffffffffffffffffffffffffffffffffffffffffff191614611b01576040517f08c379a0000000000000000000000000000000000000000000000000000000008152600401611af89061338d565b60405180910390fd5b505b505050505050565b60606000600167ffffffffffffffff811115611b2a57611b29612089565b5b604051908082528060200260200182016040528015611b585781602001602082028036833780820191505090505b5090508281600081518110611b7057611b6f6129c7565b5b60200260200101818152505080915050919050565b611ba48473ffffffffffffffffffffffffffffffffffffffff16611d5c565b15611d54578373ffffffffffffffffffffffffffffffffffffffff1663f23a6e6187878686866040518663ffffffff1660e01b8152600401611bea9594939291906133ad565b6020604051808303816000875af1925050508015611c2657506040513d601f19601f82011682018060405250810190611c23919061319d565b60015b611ccb57611c326131d7565b806308c379a003611c8e5750611c466131f9565b80611c515750611c90565b806040517f08c379a0000000000000000000000000000000000000000000000000000000008152600401611c859190611fdc565b60405180910390fd5b505b6040517f08c379a0000000000000000000000000000000000000000000000000000000008152600401611cc2906132fb565b60405180910390fd5b63f23a6e6160e01b7bffffffffffffffffffffffffffffffffffffffffffffffffffffffff1916817bffffffffffffffffffffffffffffffffffffffffffffffffffffffff191614611d52576040517f08c379a0000000000000000000000000000000000000000000000000000000008152600401611d499061338d565b60405180910390fd5b505b505050505050565b6000808273ffffffffffffffffffffffffffffffffffffffff163b119050919050565b6000604051905090565b600080fd5b600080fd5b600073ffffffffffffffffffffffffffffffffffffffff82169050919050565b6000611dbe82611d93565b9050919050565b611dce81611db3565b8114611dd957600080fd5b50565b600081359050611deb81611dc5565b92915050565b6000819050919050565b611e0481611df1565b8114611e0f57600080fd5b50565b600081359050611e2181611dfb565b92915050565b60008060408385031215611e3e57611e3d611d89565b5b6000611e4c85828601611ddc565b9250506020611e5d85828601611e12565b9150509250929050565b611e7081611df1565b82525050565b6000602082019050611e8b6000830184611e67565b92915050565b60007fffffffff0000000000000000000000000000000000000000000000000000000082169050919050565b611ec681611e91565b8114611ed157600080fd5b50565b600081359050611ee381611ebd565b92915050565b600060208284031215611eff57611efe611d89565b5b6000611f0d84828501611ed4565b91505092915050565b60008115159050919050565b611f2b81611f16565b82525050565b6000602082019050611f466000830184611f22565b92915050565b600081519050919050565b600082825260208201905092915050565b60005b83811015611f86578082015181840152602081019050611f6b565b60008484015250505050565b6000601f19601f8301169050919050565b6000611fae82611f4c565b611fb88185611f57565b9350611fc8818560208601611f68565b611fd181611f92565b840191505092915050565b60006020820190508181036000830152611ff68184611fa3565b905092915050565b60006020828403121561201457612013611d89565b5b600061202284828501611e12565b91505092915050565b61203481611f16565b811461203f57600080fd5b50565b6000813590506120518161202b565b92915050565b60006020828403121561206d5761206c611d89565b5b600061207b84828501612042565b91505092915050565b600080fd5b7f4e487b7100000000000000000000000000000000000000000000000000000000600052604160045260246000fd5b6120c182611f92565b810181811067ffffffffffffffff821117156120e0576120df612089565b5b80604052505050565b60006120f3611d7f565b90506120ff82826120b8565b919050565b600067ffffffffffffffff82111561211f5761211e612089565b5b602082029050602081019050919050565b600080fd5b600061214861214384612104565b6120e9565b9050808382526020820190506020840283018581111561216b5761216a612130565b5b835b8181101561219457806121808882611e12565b84526020840193505060208101905061216d565b5050509392505050565b600082601f8301126121b3576121b2612084565b5b81356121c3848260208601612135565b91505092915050565b600080fd5b600067ffffffffffffffff8211156121ec576121eb612089565b5b6121f582611f92565b9050602081019050919050565b82818337600083830152505050565b600061222461221f846121d1565b6120e9565b9050828152602081018484840111156122405761223f6121cc565b5b61224b848285612202565b509392505050565b600082601f83011261226857612267612084565b5b8135612278848260208601612211565b91505092915050565b600080600080600060a0868803121561229d5761229c611d89565b5b60006122ab88828901611ddc565b95505060206122bc88828901611ddc565b945050604086013567ffffffffffffffff8111156122dd576122dc611d8e565b5b6122e98882890161219e565b935050606086013567ffffffffffffffff81111561230a57612309611d8e565b5b6123168882890161219e565b925050608086013567ffffffffffffffff81111561233757612336611d8e565b5b61234388828901612253565b9150509295509295909350565b600067ffffffffffffffff82111561236b5761236a612089565b5b602082029050602081019050919050565b600061238f61238a84612350565b6120e9565b905080838252602082019050602084028301858111156123b2576123b1612130565b5b835b818110156123db57806123c78882611ddc565b8452602084019350506020810190506123b4565b5050509392505050565b600082601f8301126123fa576123f9612084565b5b813561240a84826020860161237c565b91505092915050565b6000806040838503121561242a57612429611d89565b5b600083013567ffffffffffffffff81111561244857612447611d8e565b5b612454858286016123e5565b925050602083013567ffffffffffffffff81111561247557612474611d8e565b5b6124818582860161219e565b9150509250929050565b600081519050919050565b600082825260208201905092915050565b6000819050602082019050919050565b6124c081611df1565b82525050565b60006124d283836124b7565b60208301905092915050565b6000602082019050919050565b60006124f68261248b565b6125008185612496565b935061250b836124a7565b8060005b8381101561253c57815161252388826124c6565b975061252e836124de565b92505060018101905061250f565b5085935050505092915050565b6000602082019050818103600083015261256381846124eb565b905092915050565b61257481611db3565b82525050565b600060208201905061258f600083018461256b565b92915050565b600080604083850312156125ac576125ab611d89565b5b60006125ba85828601611ddc565b92505060206125cb85828601612042565b9150509250929050565b600080604083850312156125ec576125eb611d89565b5b60006125fa85828601611ddc565b925050602061260b85828601611ddc565b9150509250929050565b600080600080600060a0868803121561263157612630611d89565b5b600061263f88828901611ddc565b955050602061265088828901611ddc565b945050604061266188828901611e12565b935050606061267288828901611e12565b925050608086013567ffffffffffffffff81111561269357612692611d8e565b5b61269f88828901612253565b9150509295509295909350565b6000602082840312156126c2576126c1611d89565b5b60006126d084828501611ddc565b91505092915050565b7f455243313135353a2061646472657373207a65726f206973206e6f742061207660008201527f616c6964206f776e657200000000000000000000000000000000000000000000602082015250565b6000612735602a83611f57565b9150612740826126d9565b604082019050919050565b6000602082019050818103600083015261276481612728565b9050919050565b7f4e487b7100000000000000000000000000000000000000000000000000000000600052602260045260246000fd5b600060028204905060018216806127b257607f821691505b6020821081036127c5576127c461276b565b5b50919050565b7f455243313135353a2063616c6c6572206973206e6f7420746f6b656e206f776e60008201527f6572206f7220617070726f766564000000000000000000000000000000000000602082015250565b6000612827602e83611f57565b9150612832826127cb565b604082019050919050565b600060208201905081810360008301526128568161281a565b9050919050565b600081905092915050565b50565b600061287860008361285d565b915061288382612868565b600082019050919050565b60006128998261286b565b9150819050919050565b7f4661696c656420746f207472616e736665722066756e647320746f206f776e6560008201527f7200000000000000000000000000000000000000000000000000000000000000602082015250565b60006128ff602183611f57565b915061290a826128a3565b604082019050919050565b6000602082019050818103600083015261292e816128f2565b9050919050565b7f455243313135353a206163636f756e747320616e6420696473206c656e67746860008201527f206d69736d617463680000000000000000000000000000000000000000000000602082015250565b6000612991602983611f57565b915061299c82612935565b604082019050919050565b600060208201905081810360008301526129c081612984565b9050919050565b7f4e487b7100000000000000000000000000000000000000000000000000000000600052603260045260246000fd5b7f4e487b7100000000000000000000000000000000000000000000000000000000600052601160045260246000fd5b6000612a3082611df1565b91507fffffffffffffffffffffffffffffffffffffffffffffffffffffffffffffffff8203612a6257612a616129f6565b5b600182019050919050565b7f54686520636f6e74726163742069732070617573656421000000000000000000600082015250565b6000612aa3601783611f57565b9150612aae82612a6d565b602082019050919050565b60006020820190508181036000830152612ad281612a96565b9050919050565b7f496e76616c6964206d696e7420616d6f756e7421000000000000000000000000600082015250565b6000612b0f601483611f57565b9150612b1a82612ad9565b602082019050919050565b60006020820190508181036000830152612b3e81612b02565b9050919050565b6000612b5082611df1565b9150612b5b83611df1565b9250828201905080821115612b7357612b726129f6565b5b92915050565b7f4d617820737570706c7920726561636865642100000000000000000000000000600082015250565b6000612baf601383611f57565b9150612bba82612b79565b602082019050919050565b60006020820190508181036000830152612bde81612ba2565b9050919050565b6000612bf082611df1565b9150612bfb83611df1565b9250828202612c0981611df1565b91508282048414831517612c2057612c1f6129f6565b5b5092915050565b7f496e636f727265637420616d6f756e7421000000000000000000000000000000600082015250565b6000612c5d601183611f57565b9150612c6882612c27565b602082019050919050565b60006020820190508181036000830152612c8c81612c50565b9050919050565b7f4f776e61626c653a206e6577206f776e657220697320746865207a65726f206160008201527f6464726573730000000000000000000000000000000000000000000000000000602082015250565b6000612cef602683611f57565b9150612cfa82612c93565b604082019050919050565b60006020820190508181036000830152612d1e81612ce2565b9050919050565b7f4f776e61626c653a2063616c6c6572206973206e6f7420746865206f776e6572600082015250565b6000612d5b602083611f57565b9150612d6682612d25565b602082019050919050565b60006020820190508181036000830152612d8a81612d4e565b9050919050565b7f455243313135353a2069647320616e6420616d6f756e7473206c656e6774682060008201527f6d69736d61746368000000000000000000000000000000000000000000000000602082015250565b6000612ded602883611f57565b9150612df882612d91565b604082019050919050565b60006020820190508181036000830152612e1c81612de0565b9050919050565b7f455243313135353a207472616e7366657220746f20746865207a65726f20616460008201527f6472657373000000000000000000000000000000000000000000000000000000602082015250565b6000612e7f602583611f57565b9150612e8a82612e23565b604082019050919050565b60006020820190508181036000830152612eae81612e72565b9050919050565b7f455243313135353a20696e73756666696369656e742062616c616e636520666f60008201527f72207472616e7366657200000000000000000000000000000000000000000000602082015250565b6000612f11602a83611f57565b9150612f1c82612eb5565b604082019050919050565b60006020820190508181036000830152612f4081612f04565b9050919050565b60006040820190508181036000830152612f6181856124eb565b90508181036020830152612f7581846124eb565b90509392505050565b7f455243313135353a206d696e7420746f20746865207a65726f2061646472657360008201527f7300000000000000000000000000000000000000000000000000000000000000602082015250565b6000612fda602183611f57565b9150612fe582612f7e565b604082019050919050565b6000602082019050818103600083015261300981612fcd565b9050919050565b60006040820190506130256000830185611e67565b6130326020830184611e67565b9392505050565b7f455243313135353a2073657474696e6720617070726f76616c2073746174757360008201527f20666f722073656c660000000000000000000000000000000000000000000000602082015250565b6000613095602983611f57565b91506130a082613039565b604082019050919050565b600060208201905081810360008301526130c481613088565b9050919050565b600081519050919050565b600082825260208201905092915050565b60006130f2826130cb565b6130fc81856130d6565b935061310c818560208601611f68565b61311581611f92565b840191505092915050565b600060a082019050613135600083018861256b565b613142602083018761256b565b818103604083015261315481866124eb565b9050818103606083015261316881856124eb565b9050818103608083015261317c81846130e7565b90509695505050505050565b60008151905061319781611ebd565b92915050565b6000602082840312156131b3576131b2611d89565b5b60006131c184828501613188565b91505092915050565b60008160e01c9050919050565b600060033d11156131f65760046000803e6131f36000516131ca565b90505b90565b600060443d106132865761320b611d7f565b60043d036004823e80513d602482011167ffffffffffffffff82111715613233575050613286565b808201805167ffffffffffffffff8111156132515750505050613286565b80602083010160043d03850181111561326e575050505050613286565b61327d826020018501866120b8565b82955050505050505b90565b7f455243313135353a207472616e7366657220746f206e6f6e2d4552433131353560008201527f526563656976657220696d706c656d656e746572000000000000000000000000602082015250565b60006132e5603483611f57565b91506132f082613289565b604082019050919050565b60006020820190508181036000830152613314816132d8565b9050919050565b7f455243313135353a204552433131353552656365697665722072656a6563746560008201527f6420746f6b656e73000000000000000000000000000000000000000000000000602082015250565b6000613377602883611f57565b91506133828261331b565b604082019050919050565b600060208201905081810360008301526133a68161336a565b9050919050565b600060a0820190506133c2600083018861256b565b6133cf602083018761256b565b6133dc6040830186611e67565b6133e96060830185611e67565b81810360808301526133fb81846130e7565b9050969550505050505056fea2646970667358221220a491770eabd13175d04daeed180b628c27ee1b388d878dce92aea87b0b98a77a64736f6c63430008110033",
  "linkReferences": {},
  "deployedLinkReferences": {}
}