{
  "_format": "hh-sol-artifact-1",
  "contractName": "Raffle",
  "sourceName": "contracts/Raffle.sol",
  "abi": [
    {
      "inputs": [
        {
          "internalType": "address",
          "name": "random_address",
          "type": "address"
        },
        {
          "internalType": "address",
          "name": "_funds_manager_address",
          "type": "address"
        }
      ],
      "stateMutability": "nonpayable",
      "type": "constructor"
    },
    {
      "anonymous": false,
      "inputs": [
        {
          "indexed": true,
          "internalType": "address",
          "name": "previousOwner",
          "type": "address"
        },
        {
          "indexed": true,
          "internalType": "address",
          "name": "newOwner",
          "type": "address"
        }
      ],
      "name": "OwnershipTransferred",
      "type": "event"
    },
    {
      "anonymous": false,
      "inputs": [
        {
          "indexed": false,
          "internalType": "uint256",
          "name": "raffleId",
          "type": "uint256"
        },
        {
          "indexed": false,
          "internalType": "bool",
          "name": "tickets_fully_sold",
          "type": "bool"
        }
      ],
      "name": "RaffleEnded",
      "type": "event"
    },
    {
      "anonymous": false,
      "inputs": [
        {
          "indexed": false,
          "internalType": "uint256",
          "name": "raffleId",
          "type": "uint256"
        },
        {
          "indexed": false,
          "internalType": "address",
          "name": "player",
          "type": "address"
        },
        {
          "indexed": false,
          "internalType": "uint256",
          "name": "ticket_amount",
          "type": "uint256"
        }
      ],
      "name": "RaffleEntered",
      "type": "event"
    },
    {
      "anonymous": false,
      "inputs": [
        {
          "indexed": false,
          "internalType": "uint256",
          "name": "raffleId",
          "type": "uint256"
        },
        {
          "indexed": false,
          "internalType": "address",
          "name": "NFTcontract",
          "type": "address"
        },
        {
          "indexed": false,
          "internalType": "uint256",
          "name": "NFTid",
          "type": "uint256"
        },
        {
          "indexed": false,
          "internalType": "uint256",
          "name": "ticket_amount",
          "type": "uint256"
        },
        {
          "indexed": false,
          "internalType": "uint256",
          "name": "ticket_price",
          "type": "uint256"
        }
      ],
      "name": "RaffleStarted",
      "type": "event"
    },
    {
      "anonymous": false,
      "inputs": [
        {
          "indexed": false,
          "internalType": "uint256",
          "name": "raffleId",
          "type": "uint256"
        },
        {
          "indexed": false,
          "internalType": "address",
          "name": "winner",
          "type": "address"
        }
      ],
      "name": "RaffleWinner",
      "type": "event"
    },
    {
      "inputs": [
        {
          "internalType": "uint256",
          "name": "_raffleId",
          "type": "uint256"
        }
      ],
      "name": "end_raffle",
      "outputs": [],
      "stateMutability": "nonpayable",
      "type": "function"
    },
    {
      "inputs": [
        {
          "internalType": "uint256",
          "name": "_raffleId",
          "type": "uint256"
        },
        {
          "internalType": "uint256",
          "name": "_ticket_amount",
          "type": "uint256"
        }
      ],
      "name": "enter",
      "outputs": [],
      "stateMutability": "payable",
      "type": "function"
    },
    {
      "inputs": [],
      "name": "fee_balance",
      "outputs": [
        {
          "internalType": "uint256",
          "name": "",
          "type": "uint256"
        }
      ],
      "stateMutability": "view",
      "type": "function"
    },
    {
      "inputs": [],
      "name": "funds_manager",
      "outputs": [
        {
          "internalType": "contract FundsManager",
          "name": "",
          "type": "address"
        }
      ],
      "stateMutability": "view",
      "type": "function"
    },
    {
      "inputs": [],
      "name": "get_current_raffles",
      "outputs": [
        {
          "components": [
            {
              "internalType": "address",
              "name": "owner",
              "type": "address"
            },
            {
              "internalType": "enum Raffle.RAFFLE_STATE",
              "name": "raffle_state",
              "type": "uint8"
            },
            {
              "internalType": "uint256",
              "name": "ticket_price",
              "type": "uint256"
            },
            {
              "internalType": "uint256",
              "name": "ticket_amount",
              "type": "uint256"
            },
            {
              "internalType": "uint256",
              "name": "ticket_sold",
              "type": "uint256"
            },
            {
              "internalType": "address",
              "name": "NFTcontract",
              "type": "address"
            },
            {
              "internalType": "uint256",
              "name": "NFTid",
              "type": "uint256"
            },
            {
              "internalType": "address",
              "name": "winner",
              "type": "address"
            }
          ],
          "internalType": "struct Raffle.raffle[]",
          "name": "",
          "type": "tuple[]"
        }
      ],
      "stateMutability": "view",
      "type": "function"
    },
    {
      "inputs": [
        {
          "internalType": "uint256",
          "name": "_raffleId",
          "type": "uint256"
        }
      ],
      "name": "get_winner",
      "outputs": [
        {
          "internalType": "address",
          "name": "",
          "type": "address"
        }
      ],
      "stateMutability": "view",
      "type": "function"
    },
    {
      "inputs": [
        {
          "internalType": "uint256",
          "name": "",
          "type": "uint256"
        }
      ],
      "name": "lotteries",
      "outputs": [
        {
          "internalType": "address",
          "name": "owner",
          "type": "address"
        },
        {
          "internalType": "enum Raffle.RAFFLE_STATE",
          "name": "raffle_state",
          "type": "uint8"
        },
        {
          "internalType": "uint256",
          "name": "ticket_price",
          "type": "uint256"
        },
        {
          "internalType": "uint256",
          "name": "ticket_amount",
          "type": "uint256"
        },
        {
          "internalType": "uint256",
          "name": "ticket_sold",
          "type": "uint256"
        },
        {
          "internalType": "address",
          "name": "NFTcontract",
          "type": "address"
        },
        {
          "internalType": "uint256",
          "name": "NFTid",
          "type": "uint256"
        },
        {
          "internalType": "address",
          "name": "winner",
          "type": "address"
        }
      ],
      "stateMutability": "view",
      "type": "function"
    },
    {
      "inputs": [],
      "name": "min_fee_balance",
      "outputs": [
        {
          "internalType": "uint256",
          "name": "",
          "type": "uint256"
        }
      ],
      "stateMutability": "view",
      "type": "function"
    },
    {
      "inputs": [],
      "name": "owner",
      "outputs": [
        {
          "internalType": "address",
          "name": "",
          "type": "address"
        }
      ],
      "stateMutability": "view",
      "type": "function"
    },
    {
      "inputs": [
        {
          "internalType": "address",
          "name": "",
          "type": "address"
        }
      ],
      "name": "ownerRaffleId",
      "outputs": [
        {
          "internalType": "uint256",
          "name": "",
          "type": "uint256"
        }
      ],
      "stateMutability": "view",
      "type": "function"
    },
    {
      "inputs": [],
      "name": "raffleId",
      "outputs": [
        {
          "internalType": "uint256",
          "name": "",
          "type": "uint256"
        }
      ],
      "stateMutability": "view",
      "type": "function"
    },
    {
      "inputs": [
        {
          "internalType": "uint256",
          "name": "",
          "type": "uint256"
        },
        {
          "internalType": "uint256",
          "name": "",
          "type": "uint256"
        }
      ],
      "name": "raffleId_to_playerInfo",
      "outputs": [
        {
          "internalType": "address",
          "name": "player",
          "type": "address"
        },
        {
          "internalType": "uint256",
          "name": "amount_paid",
          "type": "uint256"
        }
      ],
      "stateMutability": "view",
      "type": "function"
    },
    {
      "inputs": [
        {
          "internalType": "uint256",
          "name": "requestId",
          "type": "uint256"
        },
        {
          "internalType": "uint256",
          "name": "random",
          "type": "uint256"
        }
      ],
      "name": "raffle_result",
      "outputs": [],
      "stateMutability": "nonpayable",
      "type": "function"
    },
    {
      "inputs": [],
      "name": "random_contract",
      "outputs": [
        {
          "internalType": "contract RandomNumberConsumer",
          "name": "",
          "type": "address"
        }
      ],
      "stateMutability": "view",
      "type": "function"
    },
    {
      "inputs": [],
      "name": "renounceOwnership",
      "outputs": [],
      "stateMutability": "nonpayable",
      "type": "function"
    },
    {
      "inputs": [
        {
          "internalType": "uint256",
          "name": "",
          "type": "uint256"
        }
      ],
      "name": "requestId_to_raffleId",
      "outputs": [
        {
          "internalType": "uint256",
          "name": "",
          "type": "uint256"
        }
      ],
      "stateMutability": "view",
      "type": "function"
    },
    {
      "inputs": [
        {
          "internalType": "uint256",
          "name": "_min_fee_balance",
          "type": "uint256"
        }
      ],
      "name": "setMinFeeBalance",
      "outputs": [],
      "stateMutability": "nonpayable",
      "type": "function"
    },
    {
      "inputs": [
        {
          "internalType": "uint256",
          "name": "_winning_fee",
          "type": "uint256"
        }
      ],
      "name": "setWinningFee",
      "outputs": [],
      "stateMutability": "nonpayable",
      "type": "function"
    },
    {
      "inputs": [
        {
          "internalType": "address",
          "name": "_NFTcontract",
          "type": "address"
        },
        {
          "internalType": "uint256",
          "name": "_NFTid",
          "type": "uint256"
        },
        {
          "internalType": "uint256",
          "name": "_ticket_price",
          "type": "uint256"
        },
        {
          "internalType": "uint256",
          "name": "_ticket_amount",
          "type": "uint256"
        }
      ],
      "name": "start_new_raffle",
      "outputs": [],
      "stateMutability": "nonpayable",
      "type": "function"
    },
    {
      "inputs": [
        {
          "internalType": "address",
          "name": "newOwner",
          "type": "address"
        }
      ],
      "name": "transferOwnership",
      "outputs": [],
      "stateMutability": "nonpayable",
      "type": "function"
    },
    {
      "inputs": [],
      "name": "winning_fee",
      "outputs": [
        {
          "internalType": "uint256",
          "name": "",
          "type": "uint256"
        }
      ],
      "stateMutability": "view",
      "type": "function"
    },
    {
      "inputs": [],
      "name": "winning_fee_divisor",
      "outputs": [
        {
          "internalType": "uint256",
          "name": "",
          "type": "uint256"
        }
      ],
      "stateMutability": "view",
      "type": "function"
    }
  ],
  "bytecode": "0x60806040526002600855606460095566470de4df820000600b556001600c60006101000a81548160ff0219169083151502179055503480156200004157600080fd5b506040516200326d3803806200326d83398181016040528101906200006791906200024f565b620000876200007b6200011960201b60201c565b6200012160201b60201c565b81600260006101000a81548173ffffffffffffffffffffffffffffffffffffffff021916908373ffffffffffffffffffffffffffffffffffffffff16021790555080600160006101000a81548173ffffffffffffffffffffffffffffffffffffffff021916908373ffffffffffffffffffffffffffffffffffffffff1602179055506001600581905550505062000296565b600033905090565b60008060009054906101000a900473ffffffffffffffffffffffffffffffffffffffff169050816000806101000a81548173ffffffffffffffffffffffffffffffffffffffff021916908373ffffffffffffffffffffffffffffffffffffffff1602179055508173ffffffffffffffffffffffffffffffffffffffff168173ffffffffffffffffffffffffffffffffffffffff167f8be0079c531659141344cd1fd0a4f28419497f9722a3daafe3b4186f6b6457e060405160405180910390a35050565b600080fd5b600073ffffffffffffffffffffffffffffffffffffffff82169050919050565b60006200021782620001ea565b9050919050565b62000229816200020a565b81146200023557600080fd5b50565b60008151905062000249816200021e565b92915050565b60008060408385031215620002695762000268620001e5565b5b6000620002798582860162000238565b92505060206200028c8582860162000238565b9150509250929050565b612fc780620002a66000396000f3fe6080604052600436106101355760003560e01c8063689643ea116100ab578063b375603c1161006f578063b375603c14610412578063bef10fb91461043d578063cfd4595b14610466578063e065e5511461048f578063e39cdfe4146104b8578063f2fde38b146104f657610135565b8063689643ea14610353578063715018a61461037e57806372b513d51461039557806383426738146103be5780638da5cb5b146103e757610135565b806323972aef116100fd57806323972aef1461023c578063243dc4091461025857806326cffc691461029557806336b3c80f146102d257806337b45fa8146102fd5780635ff7348b1461032857610135565b8063021a12d41461013a5780630321d94f1461016557806311e6a59b146101a25780631398e076146101cd5780631769f04914610211575b600080fd5b34801561014657600080fd5b5061014f61051f565b60405161015c9190611fea565b60405180910390f35b34801561017157600080fd5b5061018c60048036038101906101879190612036565b610525565b6040516101999190611fea565b60405180910390f35b3480156101ae57600080fd5b506101b761053d565b6040516101c49190611fea565b60405180910390f35b3480156101d957600080fd5b506101f460048036038101906101ef9190612036565b610543565b60405161020898979695949392919061211b565b60405180910390f35b34801561021d57600080fd5b506102266105f8565b6040516102339190611fea565b60405180910390f35b61025660048036038101906102519190612199565b6105fe565b005b34801561026457600080fd5b5061027f600480360381019061027a9190612036565b6108ac565b60405161028c91906121d9565b60405180910390f35b3480156102a157600080fd5b506102bc60048036038101906102b79190612220565b610975565b6040516102c99190611fea565b60405180910390f35b3480156102de57600080fd5b506102e761098d565b6040516102f49190611fea565b60405180910390f35b34801561030957600080fd5b50610312610993565b60405161031f91906122ac565b60405180910390f35b34801561033457600080fd5b5061033d6109b9565b60405161034a91906122e8565b60405180910390f35b34801561035f57600080fd5b506103686109df565b6040516103759190612482565b60405180910390f35b34801561038a57600080fd5b50610393610cc0565b005b3480156103a157600080fd5b506103bc60048036038101906103b79190612036565b610cd4565b005b3480156103ca57600080fd5b506103e560048036038101906103e091906124a4565b610ce6565b005b3480156103f357600080fd5b506103fc6110cf565b60405161040991906121d9565b60405180910390f35b34801561041e57600080fd5b506104276110f8565b6040516104349190611fea565b60405180910390f35b34801561044957600080fd5b50610464600480360381019061045f9190612199565b6110fe565b005b34801561047257600080fd5b5061048d60048036038101906104889190612036565b611659565b005b34801561049b57600080fd5b506104b660048036038101906104b19190612036565b61166b565b005b3480156104c457600080fd5b506104df60048036038101906104da9190612199565b611b92565b6040516104ed92919061250b565b60405180910390f35b34801561050257600080fd5b5061051d60048036038101906105189190612220565b611bf3565b005b60095481565b60076020528060005260406000206000915090505481565b600b5481565b60046020528060005260406000206000915090508060000160009054906101000a900473ffffffffffffffffffffffffffffffffffffffff16908060000160149054906101000a900460ff16908060010154908060020154908060030154908060040160009054906101000a900473ffffffffffffffffffffffffffffffffffffffff16908060050154908060060160009054906101000a900473ffffffffffffffffffffffffffffffffffffffff16905088565b600a5481565b6004600083815260200190815260200160002060010154816106209190612563565b3414610661576040517f08c379a000000000000000000000000000000000000000000000000000000000815260040161065890612628565b60405180910390fd5b60016002811115610675576106746120a4565b5b6004600084815260200190815260200160002060000160149054906101000a900460ff1660028111156106ab576106aa6120a4565b5b146106eb576040517f08c379a00000000000000000000000000000000000000000000000000000000081526004016106e290612694565b60405180910390fd5b600460008381526020019081526020016000206002015481600460008581526020019081526020016000206003015461072491906126b4565b1115610765576040517f08c379a000000000000000000000000000000000000000000000000000000000815260040161075c90612734565b60405180910390fd5b6003600083815260200190815260200160002060405180604001604052803373ffffffffffffffffffffffffffffffffffffffff1681526020016004600086815260200190815260200160002060010154846107c19190612563565b815250908060018154018082558091505060019003906000526020600020906002020160009091909190915060008201518160000160006101000a81548173ffffffffffffffffffffffffffffffffffffffff021916908373ffffffffffffffffffffffffffffffffffffffff1602179055506020820151816001015550508060046000848152602001908152602001600020600301600082825461086691906126b4565b925050819055507f31ed7968c068023ef5cbf0834bb1d883bedc82dc6e9e44065bc1919184dded358233836040516108a093929190612754565b60405180910390a15050565b60008060028111156108c1576108c06120a4565b5b6004600084815260200190815260200160002060000160149054906101000a900460ff1660028111156108f7576108f66120a4565b5b14610937576040517f08c379a000000000000000000000000000000000000000000000000000000000815260040161092e906127d7565b60405180910390fd5b6004600083815260200190815260200160002060060160009054906101000a900473ffffffffffffffffffffffffffffffffffffffff169050919050565b60066020528060005260406000206000915090505481565b60085481565b600260009054906101000a900473ffffffffffffffffffffffffffffffffffffffff1681565b600160009054906101000a900473ffffffffffffffffffffffffffffffffffffffff1681565b606060006109eb611c76565b67ffffffffffffffff811115610a0457610a036127f7565b5b604051908082528060200260200182016040528015610a3d57816020015b610a2a611f38565b815260200190600190039081610a225790505b509050600080600190505b600554811015610cb75760016002811115610a6657610a656120a4565b5b6004600083815260200190815260200160002060000160149054906101000a900460ff166002811115610a9c57610a9b6120a4565b5b1480610aee5750600280811115610ab657610ab56120a4565b5b6004600083815260200190815260200160002060000160149054906101000a900460ff166002811115610aec57610aeb6120a4565b5b145b15610ca45760046000828152602001908152602001600020604051806101000160405290816000820160009054906101000a900473ffffffffffffffffffffffffffffffffffffffff1673ffffffffffffffffffffffffffffffffffffffff1673ffffffffffffffffffffffffffffffffffffffff1681526020016000820160149054906101000a900460ff166002811115610b8d57610b8c6120a4565b5b6002811115610b9f57610b9e6120a4565b5b81526020016001820154815260200160028201548152602001600382015481526020016004820160009054906101000a900473ffffffffffffffffffffffffffffffffffffffff1673ffffffffffffffffffffffffffffffffffffffff1673ffffffffffffffffffffffffffffffffffffffff168152602001600582015481526020016006820160009054906101000a900473ffffffffffffffffffffffffffffffffffffffff1673ffffffffffffffffffffffffffffffffffffffff1673ffffffffffffffffffffffffffffffffffffffff1681525050838381518110610c8a57610c89612826565b5b60200260200101819052508180610ca090612855565b9250505b8080610caf90612855565b915050610a48565b50819250505090565b610cc8611d59565b610cd26000611dd7565b565b610cdc611d59565b8060088190555050565b600c60009054906101000a900460ff16610d35576040517f08c379a0000000000000000000000000000000000000000000000000000000008152600401610d2c9061290f565b60405180910390fd5b6000600c60006101000a81548160ff02191690831515021790555060008211610d93576040517f08c379a0000000000000000000000000000000000000000000000000000000008152600401610d8a9061297b565b60405180910390fd5b60008111610dd6576040517f08c379a0000000000000000000000000000000000000000000000000000000008152600401610dcd906129e7565b60405180910390fd5b6000600660003373ffffffffffffffffffffffffffffffffffffffff1673ffffffffffffffffffffffffffffffffffffffff1681526020019081526020016000205414610e58576040517f08c379a0000000000000000000000000000000000000000000000000000000008152600401610e4f90612a79565b60405180910390fd5b8373ffffffffffffffffffffffffffffffffffffffff166323b872dd3330866040518463ffffffff1660e01b8152600401610e9593929190612a99565b600060405180830381600087803b158015610eaf57600080fd5b505af1158015610ec3573d6000803e3d6000fd5b50505050600554600660003373ffffffffffffffffffffffffffffffffffffffff1673ffffffffffffffffffffffffffffffffffffffff168152602001908152602001600020819055503360046000600554815260200190815260200160002060000160006101000a81548173ffffffffffffffffffffffffffffffffffffffff021916908373ffffffffffffffffffffffffffffffffffffffff1602179055508160046000600554815260200190815260200160002060010181905550600160046000600554815260200190815260200160002060000160146101000a81548160ff02191690836002811115610fbd57610fbc6120a4565b5b021790555080600460006005548152602001908152602001600020600201819055508360046000600554815260200190815260200160002060040160006101000a81548173ffffffffffffffffffffffffffffffffffffffff021916908373ffffffffffffffffffffffffffffffffffffffff160217905550826004600060055481526020019081526020016000206005018190555060016005600082825461106691906126b4565b925050819055507facd971b386cde69f342a40f49f63ae09d70ccb8975fc1258f220ae43eed8e442600554858584866040516110a6959493929190612ad0565b60405180910390a16001600c60006101000a81548160ff02191690831515021790555050505050565b60008060009054906101000a900473ffffffffffffffffffffffffffffffffffffffff16905090565b60055481565b600060076000848152602001908152602001600020549050600260009054906101000a900473ffffffffffffffffffffffffffffffffffffffff1673ffffffffffffffffffffffffffffffffffffffff163373ffffffffffffffffffffffffffffffffffffffff16146111a6576040517f08c379a000000000000000000000000000000000000000000000000000000000815260040161119d90612b95565b60405180910390fd5b6002808111156111b9576111b86120a4565b5b6004600083815260200190815260200160002060000160149054906101000a900460ff1660028111156111ef576111ee6120a4565b5b1461122f576040517f08c379a000000000000000000000000000000000000000000000000000000000815260040161122690612c01565b60405180910390fd5b60008211611272576040517f08c379a000000000000000000000000000000000000000000000000000000000815260040161126990612c6d565b60405180910390fd5b60006004600083815260200190815260200160002060000160146101000a81548160ff021916908360028111156112ac576112ab6120a4565b5b02179055506000600660006004600085815260200190815260200160002060000160009054906101000a900473ffffffffffffffffffffffffffffffffffffffff1673ffffffffffffffffffffffffffffffffffffffff1673ffffffffffffffffffffffffffffffffffffffff1681526020019081526020016000208190555060006003600083815260200190815260200160002080549050836113509190612cbc565b9050600060036000848152602001908152602001600020828154811061137957611378612826565b5b906000526020600020906002020160000160009054906101000a900473ffffffffffffffffffffffffffffffffffffffff1690506004600084815260200190815260200160002060040160009054906101000a900473ffffffffffffffffffffffffffffffffffffffff1673ffffffffffffffffffffffffffffffffffffffff166323b872dd308360046000888152602001908152602001600020600501546040518463ffffffff1660e01b815260040161143693929190612a99565b600060405180830381600087803b15801561145057600080fd5b505af1158015611464573d6000803e3d6000fd5b505050506000600460008581526020019081526020016000206002015460046000868152602001908152602001600020600101546114a29190612563565b90506000600954600854836114b79190612563565b6114c19190612ced565b9050600081836114d19190612d1e565b905081600a60008282546114e591906126b4565b92505081905550600b54600a54111561150157611500611e9b565b5b6004600087815260200190815260200160002060000160009054906101000a900473ffffffffffffffffffffffffffffffffffffffff1673ffffffffffffffffffffffffffffffffffffffff166108fc829081150290604051600060405180830381858888f1935050505015801561157d573d6000803e3d6000fd5b506000600660003373ffffffffffffffffffffffffffffffffffffffff1673ffffffffffffffffffffffffffffffffffffffff1681526020019081526020016000205050836004600088815260200190815260200160002060060160006101000a81548173ffffffffffffffffffffffffffffffffffffffff021916908373ffffffffffffffffffffffffffffffffffffffff1602179055507fb4d601e7092e672cbffcd1512cc6592c35b9947e1ebfeea7647231887a5224478685604051611647929190612d52565b60405180910390a15050505050505050565b611661611d59565b80600b8190555050565b6004600082815260200190815260200160002060000160009054906101000a900473ffffffffffffffffffffffffffffffffffffffff1673ffffffffffffffffffffffffffffffffffffffff163373ffffffffffffffffffffffffffffffffffffffff161461170f576040517f08c379a000000000000000000000000000000000000000000000000000000000815260040161170690612ded565b60405180910390fd5b60016002811115611723576117226120a4565b5b6004600083815260200190815260200160002060000160149054906101000a900460ff166002811115611759576117586120a4565b5b14611799576040517f08c379a000000000000000000000000000000000000000000000000000000000815260040161179090612694565b60405180910390fd5b6000600460008381526020019081526020016000206002015460046000848152602001908152602001600020600301541015611a61576000905060006004600084815260200190815260200160002060000160146101000a81548160ff0219169083600281111561180d5761180c6120a4565b5b02179055506004600083815260200190815260200160002060040160009054906101000a900473ffffffffffffffffffffffffffffffffffffffff1673ffffffffffffffffffffffffffffffffffffffff166323b872dd306004600086815260200190815260200160002060000160009054906101000a900473ffffffffffffffffffffffffffffffffffffffff1660046000878152602001908152602001600020600501546040518463ffffffff1660e01b81526004016118d193929190612a99565b600060405180830381600087803b1580156118eb57600080fd5b505af11580156118ff573d6000803e3d6000fd5b5050505060005b6003600084815260200190815260200160002080549050811015611a1657600060036000858152602001908152602001600020828154811061194b5761194a612826565b5b906000526020600020906002020160000160009054906101000a900473ffffffffffffffffffffffffffffffffffffffff16905060006003600086815260200190815260200160002083815481106119a6576119a5612826565b5b90600052602060002090600202016001015490508173ffffffffffffffffffffffffffffffffffffffff166108fc829081150290604051600060405180830381858888f19350505050158015611a00573d6000803e3d6000fd5b5050508080611a0e90612855565b915050611906565b506000600660003373ffffffffffffffffffffffffffffffffffffffff1673ffffffffffffffffffffffffffffffffffffffff16815260200190815260200160002081905550611b55565b6001905060026004600084815260200190815260200160002060000160146101000a81548160ff02191690836002811115611a9f57611a9e6120a4565b5b02179055506000600260009054906101000a900473ffffffffffffffffffffffffffffffffffffffff1673ffffffffffffffffffffffffffffffffffffffff1663aacc5a176040518163ffffffff1660e01b81526004016020604051808303816000875af1158015611b15573d6000803e3d6000fd5b505050506040513d601f19601f82011682018060405250810190611b399190612e22565b9050826007600083815260200190815260200160002081905550505b7f3704bc5c908f802348cdf578bceb2ce84b92f2a38dc1de7179c846b226ef471a8282604051611b86929190612e6a565b60405180910390a15050565b60036020528160005260406000208181548110611bae57600080fd5b9060005260206000209060020201600091509150508060000160009054906101000a900473ffffffffffffffffffffffffffffffffffffffff16908060010154905082565b611bfb611d59565b600073ffffffffffffffffffffffffffffffffffffffff168173ffffffffffffffffffffffffffffffffffffffff1603611c6a576040517f08c379a0000000000000000000000000000000000000000000000000000000008152600401611c6190612f05565b60405180910390fd5b611c7381611dd7565b50565b600080600090506000600190505b600554811015611d515760016002811115611ca257611ca16120a4565b5b6004600083815260200190815260200160002060000160149054906101000a900460ff166002811115611cd857611cd76120a4565b5b1480611d2a5750600280811115611cf257611cf16120a4565b5b6004600083815260200190815260200160002060000160149054906101000a900460ff166002811115611d2857611d276120a4565b5b145b15611d3e578180611d3a90612855565b9250505b8080611d4990612855565b915050611c84565b508091505090565b611d61611f30565b73ffffffffffffffffffffffffffffffffffffffff16611d7f6110cf565b73ffffffffffffffffffffffffffffffffffffffff1614611dd5576040517f08c379a0000000000000000000000000000000000000000000000000000000008152600401611dcc90612f71565b60405180910390fd5b565b60008060009054906101000a900473ffffffffffffffffffffffffffffffffffffffff169050816000806101000a81548173ffffffffffffffffffffffffffffffffffffffff021916908373ffffffffffffffffffffffffffffffffffffffff1602179055508173ffffffffffffffffffffffffffffffffffffffff168173ffffffffffffffffffffffffffffffffffffffff167f8be0079c531659141344cd1fd0a4f28419497f9722a3daafe3b4186f6b6457e060405160405180910390a35050565b6000600a5490506000600a81905550600160009054906101000a900473ffffffffffffffffffffffffffffffffffffffff1673ffffffffffffffffffffffffffffffffffffffff1663d0f73a2b826040518263ffffffff1660e01b81526004016000604051808303818588803b158015611f1457600080fd5b505af1158015611f28573d6000803e3d6000fd5b505050505050565b600033905090565b604051806101000160405280600073ffffffffffffffffffffffffffffffffffffffff16815260200160006002811115611f7557611f746120a4565b5b8152602001600081526020016000815260200160008152602001600073ffffffffffffffffffffffffffffffffffffffff16815260200160008152602001600073ffffffffffffffffffffffffffffffffffffffff1681525090565b6000819050919050565b611fe481611fd1565b82525050565b6000602082019050611fff6000830184611fdb565b92915050565b600080fd5b61201381611fd1565b811461201e57600080fd5b50565b6000813590506120308161200a565b92915050565b60006020828403121561204c5761204b612005565b5b600061205a84828501612021565b91505092915050565b600073ffffffffffffffffffffffffffffffffffffffff82169050919050565b600061208e82612063565b9050919050565b61209e81612083565b82525050565b7f4e487b7100000000000000000000000000000000000000000000000000000000600052602160045260246000fd5b600381106120e4576120e36120a4565b5b50565b60008190506120f5826120d3565b919050565b6000612105826120e7565b9050919050565b612115816120fa565b82525050565b600061010082019050612131600083018b612095565b61213e602083018a61210c565b61214b6040830189611fdb565b6121586060830188611fdb565b6121656080830187611fdb565b61217260a0830186612095565b61217f60c0830185611fdb565b61218c60e0830184612095565b9998505050505050505050565b600080604083850312156121b0576121af612005565b5b60006121be85828601612021565b92505060206121cf85828601612021565b9150509250929050565b60006020820190506121ee6000830184612095565b92915050565b6121fd81612083565b811461220857600080fd5b50565b60008135905061221a816121f4565b92915050565b60006020828403121561223657612235612005565b5b60006122448482850161220b565b91505092915050565b6000819050919050565b600061227261226d61226884612063565b61224d565b612063565b9050919050565b600061228482612257565b9050919050565b600061229682612279565b9050919050565b6122a68161228b565b82525050565b60006020820190506122c1600083018461229d565b92915050565b60006122d282612279565b9050919050565b6122e2816122c7565b82525050565b60006020820190506122fd60008301846122d9565b92915050565b600081519050919050565b600082825260208201905092915050565b6000819050602082019050919050565b61233881612083565b82525050565b612347816120fa565b82525050565b61235681611fd1565b82525050565b61010082016000820151612373600085018261232f565b506020820151612386602085018261233e565b506040820151612399604085018261234d565b5060608201516123ac606085018261234d565b5060808201516123bf608085018261234d565b5060a08201516123d260a085018261232f565b5060c08201516123e560c085018261234d565b5060e08201516123f860e085018261232f565b50505050565b600061240a838361235c565b6101008301905092915050565b6000602082019050919050565b600061242f82612303565b612439818561230e565b93506124448361231f565b8060005b8381101561247557815161245c88826123fe565b975061246783612417565b925050600181019050612448565b5085935050505092915050565b6000602082019050818103600083015261249c8184612424565b905092915050565b600080600080608085870312156124be576124bd612005565b5b60006124cc8782880161220b565b94505060206124dd87828801612021565b93505060406124ee87828801612021565b92505060606124ff87828801612021565b91505092959194509250565b60006040820190506125206000830185612095565b61252d6020830184611fdb565b9392505050565b7f4e487b7100000000000000000000000000000000000000000000000000000000600052601160045260246000fd5b600061256e82611fd1565b915061257983611fd1565b925082820261258781611fd1565b9150828204841483151761259e5761259d612534565b5b5092915050565b600082825260208201905092915050565b7f57726f6e672070726963652c20636865636b20746865207469636b657420707260008201527f6963650000000000000000000000000000000000000000000000000000000000602082015250565b60006126126023836125a5565b915061261d826125b6565b604082019050919050565b6000602082019050818103600083015261264181612605565b9050919050565b7f54686520726166666c65206861736e2774206576656e20737461727465642100600082015250565b600061267e601f836125a5565b915061268982612648565b602082019050919050565b600060208201905081810360008301526126ad81612671565b9050919050565b60006126bf82611fd1565b91506126ca83611fd1565b92508282019050808211156126e2576126e1612534565b5b92915050565b7f54686520726166666c652069732066756c6c0000000000000000000000000000600082015250565b600061271e6012836125a5565b9150612729826126e8565b602082019050919050565b6000602082019050818103600083015261274d81612711565b9050919050565b60006060820190506127696000830186611fdb565b6127766020830185612095565b6127836040830184611fdb565b949350505050565b7f526166666c65206e6f7420636c6f736564207965742100000000000000000000600082015250565b60006127c16016836125a5565b91506127cc8261278b565b602082019050919050565b600060208201905081810360008301526127f0816127b4565b9050919050565b7f4e487b7100000000000000000000000000000000000000000000000000000000600052604160045260246000fd5b7f4e487b7100000000000000000000000000000000000000000000000000000000600052603260045260246000fd5b600061286082611fd1565b91507fffffffffffffffffffffffffffffffffffffffffffffffffffffffffffffffff820361289257612891612534565b5b600182019050919050565b7f41206e657720726166666c6520686173206265656e20737461727465642c206a60008201527f7573742077616974206120626974000000000000000000000000000000000000602082015250565b60006128f9602e836125a5565b91506129048261289d565b604082019050919050565b60006020820190508181036000830152612928816128ec565b9050919050565b7f5469636b65742070726963652063616e27742062652030000000000000000000600082015250565b60006129656017836125a5565b91506129708261292f565b602082019050919050565b6000602082019050818103600083015261299481612958565b9050919050565b7f5469636b657420616d6f756e742063616e277420626520300000000000000000600082015250565b60006129d16018836125a5565b91506129dc8261299b565b602082019050919050565b60006020820190508181036000830152612a00816129c4565b9050919050565b7f596f7520616c72656164792068617665206120726166666c652072756e6e696e60008201527f6700000000000000000000000000000000000000000000000000000000000000602082015250565b6000612a636021836125a5565b9150612a6e82612a07565b604082019050919050565b60006020820190508181036000830152612a9281612a56565b9050919050565b6000606082019050612aae6000830186612095565b612abb6020830185612095565b612ac86040830184611fdb565b949350505050565b600060a082019050612ae56000830188611fdb565b612af26020830187612095565b612aff6040830186611fdb565b612b0c6060830185611fdb565b612b196080830184611fdb565b9695505050505050565b7f4f6e6c79207468652052616e646f6d4e756d626572436f6e73756d657220636f60008201527f6e74726163742063616e2063616c6c20746869732066756e6374696f6e000000602082015250565b6000612b7f603d836125a5565b9150612b8a82612b23565b604082019050919050565b60006020820190508181036000830152612bae81612b72565b9050919050565b7f596f75206172656e277420617420746861742073746167652079657421000000600082015250565b6000612beb601d836125a5565b9150612bf682612bb5565b602082019050919050565b60006020820190508181036000830152612c1a81612bde565b9050919050565b7f72616e646f6d2d6e6f742d666f756e6400000000000000000000000000000000600082015250565b6000612c576010836125a5565b9150612c6282612c21565b602082019050919050565b60006020820190508181036000830152612c8681612c4a565b9050919050565b7f4e487b7100000000000000000000000000000000000000000000000000000000600052601260045260246000fd5b6000612cc782611fd1565b9150612cd283611fd1565b925082612ce257612ce1612c8d565b5b828206905092915050565b6000612cf882611fd1565b9150612d0383611fd1565b925082612d1357612d12612c8d565b5b828204905092915050565b6000612d2982611fd1565b9150612d3483611fd1565b9250828203905081811115612d4c57612d4b612534565b5b92915050565b6000604082019050612d676000830185611fdb565b612d746020830184612095565b9392505050565b7f596f7520617265206e6f7420746865206f776e6572206f66207468697320726160008201527f66666c6500000000000000000000000000000000000000000000000000000000602082015250565b6000612dd76024836125a5565b9150612de282612d7b565b604082019050919050565b60006020820190508181036000830152612e0681612dca565b9050919050565b600081519050612e1c8161200a565b92915050565b600060208284031215612e3857612e37612005565b5b6000612e4684828501612e0d565b91505092915050565b60008115159050919050565b612e6481612e4f565b82525050565b6000604082019050612e7f6000830185611fdb565b612e8c6020830184612e5b565b9392505050565b7f4f776e61626c653a206e6577206f776e657220697320746865207a65726f206160008201527f6464726573730000000000000000000000000000000000000000000000000000602082015250565b6000612eef6026836125a5565b9150612efa82612e93565b604082019050919050565b60006020820190508181036000830152612f1e81612ee2565b9050919050565b7f4f776e61626c653a2063616c6c6572206973206e6f7420746865206f776e6572600082015250565b6000612f5b6020836125a5565b9150612f6682612f25565b602082019050919050565b60006020820190508181036000830152612f8a81612f4e565b905091905056fea2646970667358221220facb85ab7feb6451b54ecd993880462f40fb8b638958ea34459986fb6eb1b4ce64736f6c63430008110033",
  "linkReferences": {},
  "deployedLinkReferences": {}
}