{
  "_format": "hh-sol-artifact-1",
  "contractName": "RandomNumberConsumer",
  "sourceName": "contracts/randomness.sol",
  "abi": [
    {
      "inputs": [],
      "stateMutability": "nonpayable",
      "type": "constructor"
    },
    {
      "inputs": [],
      "name": "counter",
      "outputs": [
        {
          "internalType": "uint256",
          "name": "",
          "type": "uint256"
        }
      ],
      "stateMutability": "view",
      "type": "function"
    },
    {
      "inputs": [],
      "name": "flip_contract",
      "outputs": [
        {
          "internalType": "contract CoinFlip",
          "name": "",
          "type": "address"
        }
      ],
      "stateMutability": "view",
      "type": "function"
    },
    {
      "inputs": [],
      "name": "getRandom",
      "outputs": [
        {
          "internalType": "uint256",
          "name": "",
          "type": "uint256"
        }
      ],
      "stateMutability": "nonpayable",
      "type": "function"
    },
    {
      "inputs": [],
      "name": "lottery_contract",
      "outputs": [
        {
          "internalType": "contract Lottery",
          "name": "",
          "type": "address"
        }
      ],
      "stateMutability": "view",
      "type": "function"
    },
    {
      "inputs": [],
      "name": "owner",
      "outputs": [
        {
          "internalType": "address",
          "name": "",
          "type": "address"
        }
      ],
      "stateMutability": "view",
      "type": "function"
    },
    {
      "inputs": [
        {
          "internalType": "uint256",
          "name": "",
          "type": "uint256"
        }
      ],
      "name": "random_numbers",
      "outputs": [
        {
          "internalType": "uint256",
          "name": "",
          "type": "uint256"
        }
      ],
      "stateMutability": "view",
      "type": "function"
    },
    {
      "inputs": [
        {
          "internalType": "uint256",
          "name": "_requestId",
          "type": "uint256"
        },
        {
          "internalType": "uint256[]",
          "name": "_randomWords",
          "type": "uint256[]"
        }
      ],
      "name": "rawFulfillRandomWords",
      "outputs": [],
      "stateMutability": "nonpayable",
      "type": "function"
    },
    {
      "inputs": [
        {
          "internalType": "uint32",
          "name": "gas_limit",
          "type": "uint32"
        }
      ],
      "name": "set_callback_gas_limit",
      "outputs": [],
      "stateMutability": "nonpayable",
      "type": "function"
    },
    {
      "inputs": [
        {
          "internalType": "address payable",
          "name": "flip_address",
          "type": "address"
        },
        {
          "internalType": "address",
          "name": "lottery_address",
          "type": "address"
        }
      ],
      "name": "set_contracts",
      "outputs": [],
      "stateMutability": "nonpayable",
      "type": "function"
    },
    {
      "inputs": [
        {
          "internalType": "address",
          "name": "link_address",
          "type": "address"
        }
      ],
      "name": "set_link_address",
      "outputs": [],
      "stateMutability": "nonpayable",
      "type": "function"
    },
    {
      "inputs": [
        {
          "internalType": "uint16",
          "name": "confirmations",
          "type": "uint16"
        }
      ],
      "name": "set_request_confirmations",
      "outputs": [],
      "stateMutability": "nonpayable",
      "type": "function"
    },
    {
      "inputs": [
        {
          "internalType": "address",
          "name": "wrapper_address",
          "type": "address"
        }
      ],
      "name": "set_wrapper_address",
      "outputs": [],
      "stateMutability": "nonpayable",
      "type": "function"
    }
  ],
  "bytecode": "0x60c06040526000600455620f4240600560146101000a81548163ffffffff021916908363ffffffff1602179055506003600560186101000a81548161ffff021916908361ffff16021790555060016005601a6101000a81548163ffffffff021916908363ffffffff16021790555073fafedb041c0dd4fa2dc0d87a6b0979ee6fa7af5f600660006101000a81548173ffffffffffffffffffffffffffffffffffffffff021916908373ffffffffffffffffffffffffffffffffffffffff1602179055507338336bdae79747a1d2c4e6c67bbf382244287ca6600760006101000a81548173ffffffffffffffffffffffffffffffffffffffff021916908373ffffffffffffffffffffffffffffffffffffffff16021790555034801561012357600080fd5b50600660009054906101000a900473ffffffffffffffffffffffffffffffffffffffff16600760009054906101000a900473ffffffffffffffffffffffffffffffffffffffff168173ffffffffffffffffffffffffffffffffffffffff1660808173ffffffffffffffffffffffffffffffffffffffff16815250508073ffffffffffffffffffffffffffffffffffffffff1660a08173ffffffffffffffffffffffffffffffffffffffff1681525050505033600560006101000a81548173ffffffffffffffffffffffffffffffffffffffff021916908373ffffffffffffffffffffffffffffffffffffffff16021790555060805160a05161198a610256600039600081816102d90152818161096c01528181610ce801528181610d090152610e2901526000610cac015261198a6000f3fe608060405234801561001057600080fd5b50600436106100b45760003560e01c806361bc221a1161007157806361bc221a146101775780637cb416991461019557806386b968e2146101b15780638da5cb5b146101cd578063aacc5a17146101eb578063db71895914610209576100b4565b80631f116d95146100b95780631fe543e3146100d55780633d659989146100f1578063499159121461010d5780634a29a1121461012b5780634cffa4691461015b575b600080fd5b6100d360048036038101906100ce9190610f0d565b610227565b005b6100ef60048036038101906100ea91906110c9565b6102d7565b005b61010b600480360381019061010691906111c1565b610373565b005b6101156104e2565b6040516101229190611260565b60405180910390f35b6101456004803603810190610140919061127b565b610508565b60405161015291906112b7565b60405180910390f35b6101756004803603810190610170919061130e565b610520565b005b61017f6105d4565b60405161018c91906112b7565b60405180910390f35b6101af60048036038101906101aa919061133b565b6105da565b005b6101cb60048036038101906101c6919061133b565b6106ae565b005b6101d5610782565b6040516101e29190611377565b60405180910390f35b6101f36107a8565b60405161020091906112b7565b60405180910390f35b610211610946565b60405161021e91906113c5565b60405180910390f35b600560009054906101000a900473ffffffffffffffffffffffffffffffffffffffff1673ffffffffffffffffffffffffffffffffffffffff163373ffffffffffffffffffffffffffffffffffffffff16146102b7576040517f08c379a00000000000000000000000000000000000000000000000000000000081526004016102ae90611463565b60405180910390fd5b80600560186101000a81548161ffff021916908361ffff16021790555050565b7f000000000000000000000000000000000000000000000000000000000000000073ffffffffffffffffffffffffffffffffffffffff163373ffffffffffffffffffffffffffffffffffffffff1614610365576040517f08c379a000000000000000000000000000000000000000000000000000000000815260040161035c906114cf565b60405180910390fd5b61036f828261096a565b5050565b6000600454146103b8576040517f08c379a00000000000000000000000000000000000000000000000000000000081526004016103af9061153b565b60405180910390fd5b600560009054906101000a900473ffffffffffffffffffffffffffffffffffffffff1673ffffffffffffffffffffffffffffffffffffffff163373ffffffffffffffffffffffffffffffffffffffff1614610448576040517f08c379a000000000000000000000000000000000000000000000000000000000815260040161043f90611463565b60405180910390fd5b816000806101000a81548173ffffffffffffffffffffffffffffffffffffffff021916908373ffffffffffffffffffffffffffffffffffffffff16021790555080600160006101000a81548173ffffffffffffffffffffffffffffffffffffffff021916908373ffffffffffffffffffffffffffffffffffffffff16021790555060016004546104d8919061158a565b6004819055505050565b600160009054906101000a900473ffffffffffffffffffffffffffffffffffffffff1681565b60036020528060005260406000206000915090505481565b600560009054906101000a900473ffffffffffffffffffffffffffffffffffffffff1673ffffffffffffffffffffffffffffffffffffffff163373ffffffffffffffffffffffffffffffffffffffff16146105b0576040517f08c379a00000000000000000000000000000000000000000000000000000000081526004016105a790611463565b60405180910390fd5b80600560146101000a81548163ffffffff021916908363ffffffff16021790555050565b60045481565b600560009054906101000a900473ffffffffffffffffffffffffffffffffffffffff1673ffffffffffffffffffffffffffffffffffffffff163373ffffffffffffffffffffffffffffffffffffffff161461066a576040517f08c379a000000000000000000000000000000000000000000000000000000000815260040161066190611463565b60405180910390fd5b80600760006101000a81548173ffffffffffffffffffffffffffffffffffffffff021916908373ffffffffffffffffffffffffffffffffffffffff16021790555050565b600560009054906101000a900473ffffffffffffffffffffffffffffffffffffffff1673ffffffffffffffffffffffffffffffffffffffff163373ffffffffffffffffffffffffffffffffffffffff161461073e576040517f08c379a000000000000000000000000000000000000000000000000000000000815260040161073590611463565b60405180910390fd5b80600660006101000a81548173ffffffffffffffffffffffffffffffffffffffff021916908373ffffffffffffffffffffffffffffffffffffffff16021790555050565b600560009054906101000a900473ffffffffffffffffffffffffffffffffffffffff1681565b60008060009054906101000a900473ffffffffffffffffffffffffffffffffffffffff1673ffffffffffffffffffffffffffffffffffffffff163373ffffffffffffffffffffffffffffffffffffffff1614806108525750600160009054906101000a900473ffffffffffffffffffffffffffffffffffffffff1673ffffffffffffffffffffffffffffffffffffffff163373ffffffffffffffffffffffffffffffffffffffff16145b610891576040517f08c379a000000000000000000000000000000000000000000000000000000000815260040161088890611630565b60405180910390fd5b60006108d2600560149054906101000a900463ffffffff16600560189054906101000a900461ffff166005601a9054906101000a900463ffffffff16610ca8565b905060006003600083815260200190815260200160002081905550336002600083815260200190815260200160002060006101000a81548173ffffffffffffffffffffffffffffffffffffffff021916908373ffffffffffffffffffffffffffffffffffffffff1602179055508091505090565b60008054906101000a900473ffffffffffffffffffffffffffffffffffffffff1681565b7f000000000000000000000000000000000000000000000000000000000000000073ffffffffffffffffffffffffffffffffffffffff163373ffffffffffffffffffffffffffffffffffffffff16146109f8576040517f08c379a00000000000000000000000000000000000000000000000000000000081526004016109ef9061169c565b60405180910390fd5b80600081518110610a0c57610a0b6116bc565b5b6020026020010151600360008481526020019081526020016000208190555060006002600084815260200190815260200160002060009054906101000a900473ffffffffffffffffffffffffffffffffffffffff169050600160009054906101000a900473ffffffffffffffffffffffffffffffffffffffff1673ffffffffffffffffffffffffffffffffffffffff168173ffffffffffffffffffffffffffffffffffffffff1603610b6757600160009054906101000a900473ffffffffffffffffffffffffffffffffffffffff1673ffffffffffffffffffffffffffffffffffffffff16636102b1ab8484600081518110610b0b57610b0a6116bc565b5b60200260200101516040518363ffffffff1660e01b8152600401610b309291906116eb565b600060405180830381600087803b158015610b4a57600080fd5b505af1158015610b5e573d6000803e3d6000fd5b50505050610ca3565b60008054906101000a900473ffffffffffffffffffffffffffffffffffffffff1673ffffffffffffffffffffffffffffffffffffffff168173ffffffffffffffffffffffffffffffffffffffff1603610c675760008054906101000a900473ffffffffffffffffffffffffffffffffffffffff1673ffffffffffffffffffffffffffffffffffffffff1663585d45868484600081518110610c0b57610c0a6116bc565b5b60200260200101516040518363ffffffff1660e01b8152600401610c309291906116eb565b600060405180830381600087803b158015610c4a57600080fd5b505af1158015610c5e573d6000803e3d6000fd5b50505050610ca2565b6040517f08c379a0000000000000000000000000000000000000000000000000000000008152600401610c9990611760565b60405180910390fd5b5b505050565b60007f000000000000000000000000000000000000000000000000000000000000000073ffffffffffffffffffffffffffffffffffffffff16634000aea07f00000000000000000000000000000000000000000000000000000000000000007f000000000000000000000000000000000000000000000000000000000000000073ffffffffffffffffffffffffffffffffffffffff16634306d354886040518263ffffffff1660e01b8152600401610d60919061178f565b602060405180830381865afa158015610d7d573d6000803e3d6000fd5b505050506040513d601f19601f82011682018060405250810190610da191906117bf565b878787604051602001610db6939291906117fb565b6040516020818303038152906040526040518463ffffffff1660e01b8152600401610de3939291906118b1565b6020604051808303816000875af1158015610e02573d6000803e3d6000fd5b505050506040513d601f19601f82011682018060405250810190610e269190611927565b507f000000000000000000000000000000000000000000000000000000000000000073ffffffffffffffffffffffffffffffffffffffff1663fc2a88c36040518163ffffffff1660e01b8152600401602060405180830381865afa158015610e92573d6000803e3d6000fd5b505050506040513d601f19601f82011682018060405250810190610eb691906117bf565b90509392505050565b6000604051905090565b600080fd5b600080fd5b600061ffff82169050919050565b610eea81610ed3565b8114610ef557600080fd5b50565b600081359050610f0781610ee1565b92915050565b600060208284031215610f2357610f22610ec9565b5b6000610f3184828501610ef8565b91505092915050565b6000819050919050565b610f4d81610f3a565b8114610f5857600080fd5b50565b600081359050610f6a81610f44565b92915050565b600080fd5b6000601f19601f8301169050919050565b7f4e487b7100000000000000000000000000000000000000000000000000000000600052604160045260246000fd5b610fbe82610f75565b810181811067ffffffffffffffff82111715610fdd57610fdc610f86565b5b80604052505050565b6000610ff0610ebf565b9050610ffc8282610fb5565b919050565b600067ffffffffffffffff82111561101c5761101b610f86565b5b602082029050602081019050919050565b600080fd5b600061104561104084611001565b610fe6565b905080838252602082019050602084028301858111156110685761106761102d565b5b835b81811015611091578061107d8882610f5b565b84526020840193505060208101905061106a565b5050509392505050565b600082601f8301126110b0576110af610f70565b5b81356110c0848260208601611032565b91505092915050565b600080604083850312156110e0576110df610ec9565b5b60006110ee85828601610f5b565b925050602083013567ffffffffffffffff81111561110f5761110e610ece565b5b61111b8582860161109b565b9150509250929050565b600073ffffffffffffffffffffffffffffffffffffffff82169050919050565b600061115082611125565b9050919050565b61116081611145565b811461116b57600080fd5b50565b60008135905061117d81611157565b92915050565b600061118e82611125565b9050919050565b61119e81611183565b81146111a957600080fd5b50565b6000813590506111bb81611195565b92915050565b600080604083850312156111d8576111d7610ec9565b5b60006111e68582860161116e565b92505060206111f7858286016111ac565b9150509250929050565b6000819050919050565b600061122661122161121c84611125565b611201565b611125565b9050919050565b60006112388261120b565b9050919050565b600061124a8261122d565b9050919050565b61125a8161123f565b82525050565b60006020820190506112756000830184611251565b92915050565b60006020828403121561129157611290610ec9565b5b600061129f84828501610f5b565b91505092915050565b6112b181610f3a565b82525050565b60006020820190506112cc60008301846112a8565b92915050565b600063ffffffff82169050919050565b6112eb816112d2565b81146112f657600080fd5b50565b600081359050611308816112e2565b92915050565b60006020828403121561132457611323610ec9565b5b6000611332848285016112f9565b91505092915050565b60006020828403121561135157611350610ec9565b5b600061135f848285016111ac565b91505092915050565b61137181611183565b82525050565b600060208201905061138c6000830184611368565b92915050565b600061139d8261120b565b9050919050565b60006113af82611392565b9050919050565b6113bf816113a4565b82525050565b60006020820190506113da60008301846113b6565b92915050565b600082825260208201905092915050565b7f4f6e6c79206f776e65722063616e2063616c6c20746869732066756e6374696f60008201527f6e2e000000000000000000000000000000000000000000000000000000000000602082015250565b600061144d6022836113e0565b9150611458826113f1565b604082019050919050565b6000602082019050818103600083015261147c81611440565b9050919050565b7f6f6e6c792056524620563220777261707065722063616e2066756c66696c6c00600082015250565b60006114b9601f836113e0565b91506114c482611483565b602082019050919050565b600060208201905081810360008301526114e8816114ac565b9050919050565b7f43616e206f6e6c792062652063616c6c6564206f6e6365000000000000000000600082015250565b60006115256017836113e0565b9150611530826114ef565b602082019050919050565b6000602082019050818103600083015261155481611518565b9050919050565b7f4e487b7100000000000000000000000000000000000000000000000000000000600052601160045260246000fd5b600061159582610f3a565b91506115a083610f3a565b92508282019050808211156115b8576115b761155b565b5b92915050565b7f4f6e6c792074686520436f696e466c69702f4c6f747465727920636f6e74726160008201527f63742063616e2063616c6c20746869732066756e6374696f6e00000000000000602082015250565b600061161a6039836113e0565b9150611625826115be565b604082019050919050565b600060208201905081810360008301526116498161160d565b9050919050565b7f4f6e6c79205652465f56325f575241505045522063616e2066756c66696c6c00600082015250565b6000611686601f836113e0565b915061169182611650565b602082019050919050565b600060208201905081810360008301526116b581611679565b9050919050565b7f4e487b7100000000000000000000000000000000000000000000000000000000600052603260045260246000fd5b600060408201905061170060008301856112a8565b61170d60208301846112a8565b9392505050565b7f43616c6c6572206e6f74207265636f676e697a65640000000000000000000000600082015250565b600061174a6015836113e0565b915061175582611714565b602082019050919050565b600060208201905081810360008301526117798161173d565b9050919050565b611789816112d2565b82525050565b60006020820190506117a46000830184611780565b92915050565b6000815190506117b981610f44565b92915050565b6000602082840312156117d5576117d4610ec9565b5b60006117e3848285016117aa565b91505092915050565b6117f581610ed3565b82525050565b60006060820190506118106000830186611780565b61181d60208301856117ec565b61182a6040830184611780565b949350505050565b600081519050919050565b600082825260208201905092915050565b60005b8381101561186c578082015181840152602081019050611851565b60008484015250505050565b600061188382611832565b61188d818561183d565b935061189d81856020860161184e565b6118a681610f75565b840191505092915050565b60006060820190506118c66000830186611368565b6118d360208301856112a8565b81810360408301526118e58184611878565b9050949350505050565b60008115159050919050565b611904816118ef565b811461190f57600080fd5b50565b600081519050611921816118fb565b92915050565b60006020828403121561193d5761193c610ec9565b5b600061194b84828501611912565b9150509291505056fea264697066735822122098054290a413aa79dbfcc589c739c19d7c383f2657f5b6c95a92f471deb86a6864736f6c63430008110033",
  "linkReferences": {},
  "deployedLinkReferences": {}
}